:100000000C9419040C94260E0C94FE0D0C944104CF
:100010000C9441040C9441040C9441040C9441044C
:100020000C9441040C9441040C9441040C9441043C
:100030000C9441040C9441040C9441040C9441042C
:100040000C947B230C9441040C94EB230C94C52357
:100050000C9441040C9441040C9441040C9441040C
:100060000C94BC190C9441044F115D116B11791162
:1000700087119511A311AC11000004090701FD05BA
:100080000008040A01F7090004040701FD0000004C
:100090000006000120000E151001EC4500081510A7
:1000A00003EC5A000E151001EC7F000E151001EC48
:1000B000A4000E151001ECC9000E151001ECEE00A5
:1000C0000E151001EC13010E151001EC38010E1580
:1000D0001001EC5D010E151001ECFFFF337EC0FF37
:1000E000FFFFFFFFFF03030606060C0C0C0C18189D
:1000F0001830303030606060C0C00FC07F83FF1F99
:10010000FE78FBE1EF03FC0FF03FC0FF03FC0FF0B4
:100110003FC0FF03FE1F7879FFE3FF07F80FC0031E
:1001200007071FFFFFFF0F0F0F0F0F0F0F0F0F0F0F
:100130000F0F0F0F0FC0FFC7FF9FFEF87FC0FF0319
:10014000C00F003C01F00F807C07E03E01F00F0083
:100150003801FFF7FFDFFF7FFC0FC0FF87FF3FFE87
:10016000F8FBC1E007803C07E01FC07F803E007CB9
:1001700000F003FC0FF87FFFE7FF8FFC0FC001F0DA
:100180000FC03F01FC07F03BC0EF073C18F0E3C78E
:100190000F1C3CE0F3FFFFFFFFFFFFFC03C00F005D
:1001A0003C00F03FF8FFE3FF8FFE7801C0073C1DE5
:1001B000FC7FF1FFEF87C01F003C00F003FC0FF84D
:1001C0007FFFE7FF0FF80FC007C07FC3FF9FFE78D8
:1001D0007DE00F003CF8FFF3FFEF87BC0FF03FC05E
:1001E000FF03DC1F7879FFE3FF07F80FC0FFFFFF75
:1001F000FFFFFFFF003801E00F007801E00F003C37
:1002000001E007801C00F003C00F003801E0078008
:100210001E000FC07F83FF1FFE7879C0E7039E1E7C
:100220003FF07F87FF1E1EF03FC0FF03FC0FF87DED
:10023000FFE7FF8FFC0FC00FC07F83FF1FFEF87B1F
:10024000C0EF03FC0FF03FC0FF87DFFF7FFCFEF035
:10025000F3C01EF879FFE7FF0FF80F80DA0078008F
:100260002C392300000000240027002A0000000091
:100270000800020100000304070000000000000065
:100280000000000000003E5B4F5B3E3E6B4F6B3E4C
:100290001C3E7C3E1C183C7E3C181C577D571C1C89
:1002A0005E7F5E1C00183C1800FFE7C3E7FF0018E4
:1002B000241800FFE7DBE7FF30483A060E262979CD
:1002C0002926407F050507407F05253F5A3CE73C2E
:1002D0005A7F3E1C1C08081C1C3E7F14227F2214DF
:1002E0005F5F005F5F06097F017F006689956A6036
:1002F0006060606094A2FFA29408047E040810204D
:100300007E201008082A1C08081C2A08081E101045
:1003100010100C1E0C1E0C30383E3830060E3E0EEF
:1003200006000000000000005F000000070007005A
:10033000147F147F14242A7F2A1223130864623640
:10034000495620500008070300001C2241000041CC
:10035000221C002A1C7F1C2A08083E080800807006
:100360003000080808080800006060002010080439
:10037000023E5149453E00427F400072494949468C
:100380002141494D331814127F1027454545393C0A
:100390004A494931412111090736494949364649F7
:1003A00049291E0000140000004034000000081419
:1003B0002241141414141400412214080201590992
:1003C000063E415D594E7C1211127C7F49494936E7
:1003D0003E414141227F4141413E7F494949417F60
:1003E000090909013E414151737F0808087F004116
:1003F0007F41002040413F017F081422417F40405F
:1004000040407F021C027F7F0408107F3E41414133
:100410003E7F090909063E4151215E7F091929469F
:10042000264949493203017F01033F4040403F1FB5
:100430002040201F3F4038403F63140814630304EA
:100440007804036159494D43007F4141410204084A
:100450001020004141417F0402010204404040401D
:1004600040000307080020545478407F2844443853
:100470003844444428384444287F3854545418009D
:10048000087E090218A4A49C787F0804047800441C
:100490007D40002040403D007F1028440000417F07
:1004A00040007C047804787C080404783844444490
:1004B00038FC1824241818242418FC7C0804040888
:1004C000485454542404043F44243C4040207C1CA1
:1004D0002040201C3C4030403C44281028444C9094
:1004E00090907C4464544C440008364100000077EE
:1004F0000000004136080002010204023C262326C7
:100500003C1EA1A161123A4040207A3854545559FA
:100510002155557941225454784221555478402030
:10052000545579400C1E527212395555555939544B
:1005300054545939555454580000457C41000245E3
:100540007D420001457C407D1211127DF028252856
:10055000F07C545545002054547C547C0A097F4952
:1005600032494949323A4444443A324A4848303A96
:100570004141217A3A42402078009DA0A07D3D4231
:1005800042423D3D4040403D3C24FF2424487E49BA
:1005900043662B2FFC2F2BFF0929F620C0887E09EC
:1005A0000320545479410000447D413048484A3288
:1005B000384040227A007A0A0A727D0D19317D2670
:1005C00029292F28262929292630484D4020380856
:1005D00008080808080808382F10C8ACBA2F1028D7
:1005E00034FA00007B000008142A142222142A1472
:1005F000085500550055AA55AA55AAFF55FF55FFA5
:10060000000000FF00101010FF00141414FF001071
:1006100010FF00FF1010F010F0141414FC0014145C
:10062000F700FF0000FF00FF1414F404FC1414177B
:10063000101F10101F101F1414141F00101010F0A2
:10064000000000001F101010101F10101010F010EC
:10065000000000FF101010101010101010FF1000FC
:100660000000FF140000FF00FF00001F1017000033
:10067000FC04F414141710171414F404F40000FF0D
:1006800000F714141414141414F700F714141417A6
:100690001410101F101F141414F4141010F010F084
:1006A00000001F101F0000001F14000000FC1400B9
:1006B00000F010F01010FF10FF141414FF141010AD
:1006C000101F00000000F010FFFFFFFFFFF0F0F030
:1006D000F0F0FFFFFF0000000000FFFF0F0F0F0F03
:1006E0000F3844443844FC4A4A4A347E0202060623
:1006F000027E027E0263554941633844443C044013
:100700007E201E2006027E020299A5E7A5991C2ADA
:10071000492A1C4C7201724C304A4D4D3030487899
:100720004830BC625A463D3E494949007E010101BC
:100730007E2A2A2A2A2A44445F444440514A44409B
:1007400040444A51400000FF0103E080FF000008E0
:10075000086B6B083612362436060F090F060000A8
:1007600018180000001010003040FF0101001F01A8
:10077000011E00191D1712003C3C3C3C000000000B
:100780000004E010021C07123732292D29252B39CD
:1007900000010310E110031D07062E2C292D2E2E1B
:1007A000373F0000021013800A298064022A0400E7
:1007B00000007F2B040000009F0F0180961180FF36
:1007C000B103012C2DB203012C2DB306012C2D01F8
:1007D0002C2DB40107C003A20284C101C5C2020AC4
:1007E00000C3028A2AC4028AEEC5010E2000360127
:1007F000C83A01050000000023002600290001027C
:10080000040810204080010204081020010204089E
:10081000102000000000250028002B000404040420
:10082000040404040202020202020303030303039A
:10083000812E11241FBECFEFD8E0DEBFCDBF11E067
:10084000A0E0B1E0E0E8F9E602C005900D92A43F17
:10085000B107D9F724E0A4EFB1E001C01D92A0399F
:10086000B207E1F714E0C9E1D4E004C02197FE012A
:100870000E942231C831D107C9F70E94DB2A0C94AB
:10088000BE340C9400004F925F926F927F928F92D1
:100890009F92AF92BF92CF92DF92EF92FF920F930F
:1008A0001F93CF93DF936C012B015A01390148014B
:1008B000DC01ED91FC910284F385E02D0995E201C4
:1008C000640C751CD601ED91FC91C615D7055CF43E
:1008D0000088F189E02D87019401A501BE01C601C0
:1008E00009952196EFCF0688F789E02DC601DF91A3
:1008F000CF911F910F91FF90EF90DF90CF90BF901D
:10090000AF909F908F907F906F905F904F900994E1
:100910008F929F92AF92BF92CF92DF92EF92FF920F
:100920000F931F93CF93DF93EC015B014A016901A1
:10093000E881F9810284F385E02D099595012C0D5C
:100940003D1D21503109E881F9810488F589E02DA8
:1009500078018401A401B501CE010995E881F981EE
:100960000688F789E02DCE01DF91CF911F910F917D
:10097000FF90EF90DF90CF90BF90AF909F908F90BF
:1009800009948F929F92AF92BF92CF92DF92EF9293
:10099000FF920F931F93CF93DF93EC015B014A010A
:1009A00069017801E881F9810284F385E02D0995D8
:1009B000C80CD91C860101501109E881F98104880D
:1009C000F589E02D9501A401B501CE010995E881D5
:1009D000F9810688F789E02DCE01DF91CF911F9133
:1009E0000F91FF90EF90DF90CF90BF90AF909F90CE
:1009F0008F900994EF92FF920F931F93DC01ED917A
:100A0000FC9100A0F1A1E02D09951F910F91FF909D
:100A1000EF9008950F931F93DC01ED91FC91068CEC
:100A2000F78DE02D09951F910F9108950F931F9356
:100A3000DC01ED91FC91048CF58DE02D09951F9161
:100A40000F910895DC01ED91FC910084F185E02D7A
:100A500009942F923F924F925F926F927F928F9262
:100A60009F92AF92BF92CF92DF92EF92FF920F933D
:100A70001F93CF93DF9300D000D000D0CDB7DEB767
:100A80002C017E836D836A015901C801FC82EB82CF
:100A90004801841A950A97FE03C0919481949108A5
:100AA00035012D813E81621A730A77FE03C071946D
:100AB00061947108681479045CF43A2D2B2D5C0163
:100AC000832F922F3D812E81DE82CD82C32ED22EA6
:100AD000AD81BE81AA16BB065CF43C2D2D2D6C01A8
:100AE000832F922F3D812E81BE82AD82A32EB22E06
:100AF00085012D813E81021B130B1C012C183D0822
:100B000037FE03C0319421943108780117FF03C0E8
:100B10003FEFE31AF30AF594E794C816D9062CF0D0
:100B20008FEF9FEF9A83898304C0A1E0B0E0BA837E
:100B3000A9832D813E81A216B30624F1D201ED9145
:100B4000FC910484F585E02D2B813C8168147904A7
:100B500024F44D815E81B60103C0A6016D817E81C2
:100B6000C2010995E218F308F7FE06C029813A810F
:100B7000C20ED31EE00EF11E8D819E8101969E83D2
:100B80008D83D7CF26960FB6F894DEBF0FBECDBFAC
:100B9000DF91CF911F910F91FF90EF90DF90CF9059
:100BA000BF90AF909F908F907F906F905F904F908D
:100BB0003F902F90089520910D0130E08091000129
:100BC00090E001972817390724F4E0910D01EF5FB9
:100BD00001C0E0E085E0E802F0011124E757FE4F94
:100BE000238134813695279581819281280F391F81
:100BF000A8EEB3E00E9430316093020170930301CC
:100C000080930401909305010895089580E090E099
:100C100008952F923F924F925F926F927F928F92A0
:100C20009F92AF92BF92CF92DF92EF92FF920F937B
:100C30001F93CF93DF93CDB7DEB760970FB6F894CD
:100C4000DEBF0FBECDBF9E838D838091F401909156
:100C5000F5019C012B5F3F4F3A8329838091F4017A
:100C60009091F501AC01455051095C834B83609133
:100C7000F4017091F50178876F8387ED93E00E940E
:100C8000201E2F8138858B819C81281B390B8F81F9
:100C90009885A981BA818A1B9B0BC12CD12C760126
:100CA000812C912C54014AE5242E312C55E0452EFF
:100CB000512C612C712CAC01990F660B770B4F8373
:100CC000588769877A87B901330F880B990B6B872F
:100CD0007C878D879E87C501B401A30192010E9484
:100CE000033189819A81820F931F988B8F87C70167
:100CF000B601A30192010E940331AB81BC812A0F8E
:100D00003B1F4F81588569857A85840E951EA61EE6
:100D1000B71E6B857C858D859E85C60ED71EE81E09
:100D2000F91E8F8598892817390734F49F8588899B
:100D3000388B2F87292F382FAF85B8892A1B3B0B7B
:100D40002F5F3F4F0D811E81A101BD0187ED93E013
:100D50000E94501CBFEF2B1A3B0A20E622163104DA
:100D600009F0B9CF87ED93E060960FB6F894DEBF37
:100D70000FBECDBFDF91CF911F910F91FF90EF90EC
:100D8000DF90CF90BF90AF909F908F907F906F90AB
:100D90005F904F903F902F900C94771C2F923F9232
:100DA0004F925F926F927F928F929F92AF92BF927B
:100DB000CF92DF92EF92FF920F931F93CF93DF9327
:100DC00000D000D000D0CDB7DEB703ED1CE92FE98D
:100DD00030E040E650E060E070E087ED93E00E9494
:100DE000C71B25E030E04EE550E060E070E087EDA5
:100DF00093E00E94F61B25E030E04EE550E06FE9FD
:100E000070E087ED93E00E94F61B80910D01883021
:100E1000B1F0E0910D0185E08E9FF0011124E757BC
:100E2000FE4F21803280E0910D018E9FF001112450
:100E3000E757FE4F2381348182E390E008C020E32E
:100E400035E758EE252E53E0352E84EF91E02C0146
:100E5000440C551C612C712C812C912C540169017E
:100E6000E12CF12C9C0140E050E029833A834B8334
:100E70005C838C149D04AE04BF0490F5C501B401DD
:100E8000A30192010E94E130672B682B692B29F0A6
:100E900042E050E05E834D8304C084E090E09E8396
:100EA0008D83A0EAB0E0A50194010E944631A7011C
:100EB00096010E94E130CA01B90103ED1CE92D81C0
:100EC0003E8140E650E087ED93E00E94F61B2981C9
:100ED0003A814B815C81820E931EA41EB51EC9CF40
:100EE00060910201709103018091040190910501CC
:100EF00028EE33E040E050E00E94E130221933094F
:100F000041095109A0EAB0E00E944631A7019601CB
:100F10000E94E13069017A018091F4019091F5011C
:100F20008217930721F180E090E00E940906D09299
:100F3000F501C092F40183E794E126960FB6F89488
:100F4000DEBF0FBECDBFDF91CF911F910F91FF90FC
:100F5000EF90DF90CF90BF90AF909F908F907F9059
:100F60006F905F904F903F902F900C9409062696BB
:100F70000FB6F894DEBF0FBECDBFDF91CF911F91AA
:100F80000F91FF90EF90DF90CF90BF90AF909F9028
:100F90008F907F906F905F904F903F902F9008952B
:100FA000AF92BF92CF92DF92EF92FF920F931F9377
:100FB000CF93DF93CDB7DEB7A0970FB6F894DEBF1F
:100FC0000FBECDBF20911701309118013A832983BC
:100FD0008AE0FE013396DF01982F1D929A95E9F77A
:100FE0003E872D873C96DF011D928A95E9F7609137
:100FF00002017091030180910401909105012AE0A2
:10100000AE014F5F5F4F0E948130FE013D969AE036
:101010008AE05F012FE24EE2A1E0B0E0AC0FBD1F1D
:10102000A80FB11D87FDBA953C91311104C0181667
:1010300014F48150F1CF973011F42C8B0AC0933007
:1010400011F4488B06C087FD03C03287815001C070
:101050002287915031979F3FF9F681E08093EB030F
:101060008091EF039091F003892B49F48091E5037F
:101070009091E60306969093E6038093E5038CE552
:1010800092E09093F0038093EF0380EC96E99093C5
:10109000EA038093E9039093E8038093E7039E01BA
:1010A000275E3F4F88E0F90111928A95E9F7CE015A
:1010B0004F966C01DE015D967D018E01055E1F4F2E
:1010C00040E450E06AE070E0C5010E942F240F8DDB
:1010D00018A12D8D3E8D265F3F4F4B8D5C8D698D08
:1010E0007A8DE12CF12C87ED93E00E94941B6091A6
:1010F00002017091030180910401909105010E9409
:101100002C3320E836E948E15BE40E94273387FD71
:1011100003C08AE090E002C084E190E09093E40391
:101120008093E30380E490E09093E6038093E503EB
:10113000C5010E941D241092F0031092EF0383ED6D
:101140009CE99093E8038093E7031092EA031092DE
:10115000E9031092E4031092E30380E290E090939D
:10116000E6038093E50387EB91E00E941D24A0969F
:101170000FB6F894DEBF0FBECDBFDF91CF911F91A8
:101180000F91FF90EF90DF90CF90BF90AF900895B8
:101190002F923F924F925F926F927F928F929F9287
:1011A000AF92BF92CF92DF92EF92FF920F931F9375
:1011B000CF93DF93CDB7DEB7E1970FB6F894DEBFDC
:1011C0000FBECDBF8091020190910301A091040157
:1011D000B091050180933E0290933F02A09340029C
:1011E000B09341028091020190910301A09104010A
:1011F000B091050120910A01820F911DA11DB11D21
:10120000892B8A2B8B2BD9F080911001811117C06B
:1012100060910B0170910C01072E000C880B990B4B
:1012200024E630E040E050E00E94AA31322E432E06
:10123000542E652E762EB72FF82FE92F08C0312CAB
:10124000412C512C612C712CB0E0F0E0E0E0232D1A
:10125000342D452D562D672D7B2F8F2F9E2FAFEFD1
:101260000E94FB322E373A41464051056105710517
:101270008105910551F048F039A24AA25BA26CA207
:101280007DA2BEA3FFA3E8A70BC080E889A38AE1E3
:101290008AA386E08BA31CA21DA21EA21FA218A6D1
:1012A00029A13AA14BA15CA16DA17EA18FA198A516
:1012B0002115314C4A415D43654071058105910519
:1012C00069F060F019A281EC8AA38AE18BA38DE317
:1012D0008CA385E08DA31EA21FA218A679A0AAA0A8
:1012E0000BA11CA1BDA1AEA1FFA1F8A4272D3A2DF1
:1012F000A8016B2F7A2F8F2F9F2D2115344E4B4035
:101300005445624071058105910509F008F40BC14F
:10131000E0904D03F0904E038DE5482E83E0582E6B
:1013200084E493E09AA789A78C01F201D12C208153
:10133000318142815381648175818681978138969C
:101340002115344E4B40544562407105810591058D
:1013500061F058F0DD2049F0D80119968D919C91EB
:101360001A978E159F0509F44DC1D3940E5F1F4F38
:10137000B6E0DB12DCCF8091C30381110BC083E0A8
:101380000E94FA29682F6E7F83E00E94DF2981E0A6
:101390008093C30329A13AA14BA15CA16DA17EA1B9
:1013A0008FA198A520935D0330935E0340935F0364
:1013B00050936003609361037093620380936303AF
:1013C00090936403FE013D964F01A12CB12CC12CDA
:1013D000D12CE12CF12C00E010E00E94DD132BA7B2
:1013E0003CA74DA75EA76FA778AB382E292E00919A
:1013F0004D0310914E030E94D111612C712CD2012A
:10140000EC901196FC9011971296AC90129713964F
:101410000C91139714961C9114971596BC91F20198
:10142000D680C780F8E04F0E511C97014A2D502FEF
:10143000612F7B2F8D2D9C2DA0E00E94073309F496
:1014400055C0E9A5FAA52185328580914D0390917B
:101450004E032817390709F049C0E98EFA8EAB8E82
:101460000C8F1D8FBE8FDF8EC8A2CE0149960E94C1
:10147000E41589AB298D3A8D4B8D5C8D6D8D7E8DFC
:10148000CE0101964C01ABA4BCA4CDA4DEA4EFA474
:10149000F8A8032D122D8F8D98A10E94DD13AA2488
:1014A000A394298D3A8D4B8D5C8D6D8D7E8D8F8DA6
:1014B00098A12F3F354D41415E476340710581053D
:1014C000910509F008F4A12CAF9289A8C980DA80AF
:1014D000EB80FC800D811E812F81388549855A85DE
:1014E0006B857C85C3010E94E2100F90BFEF6B1AE1
:1014F0007B0AE9A5FAA53296FAA7E9A7F6E06F16E6
:10150000710409F07CCF80914D0390914E030097B8
:1015100011F460E204C0019709F074C060E881EB47
:101520000E94DF296FC070925D03A0925E0300935A
:101530005F0310936003B0936103A0936203F09381
:101540006303F09264038091C30381110BC083E0B5
:101550000E94FA29682F6E7F83E00E94DF2981E0D4
:101560008093C303CE0181960E94E415782EE0910A
:101570004D03F0914E0329A13AA14BA15CA16DA1AD
:101580007EA18FA198A5EF2BA1F4A0909D03B09010
:101590009E03C0909F03D090A003E090A103F09021
:1015A000A2030091A3031091A403DE011D964D0137
:1015B00013C0A090A503B090A603C090A703D0903D
:1015C000A803E090A903F090AA030091AB03109147
:1015D000AC03FE013D964F010E94DD131F92872C44
:1015E000A12CCD84DE84EF84F88809891A892B899F
:1015F0003C894D895E896F89788D80E090E00E94FA
:10160000E2100F900E94D0070E9410290E94CE067F
:10161000E1960FB6F894DEBF0FBECDBFDF91CF913C
:101620001F910F91FF90EF90DF90CF90BF90AF9000
:101630009F908F907F906F905F904F903F902F90F2
:1016400008954F925F926F927F928F929F92AF9286
:10165000BF92DF92EF92FF920F931F93CF93DF938E
:10166000EC01288130E0F901E359FD4F8491F90143
:10167000E250F84F0491F901E45EF74F1491112301
:10168000A1F081110E94EA1AE12FF0E0EE0FFF1F96
:10169000EC50F84FA591B491EC91E02391E080E0FB
:1016A00009F490E0092F182F02C000E010E08FB776
:1016B000F8948090420290904302A0904402B0902F
:1016C00045028FBF89E0D82ED09E7001D19EF00CCC
:1016D0001124EC0EFD1EF7018089882309F4A2C0B5
:1016E00081899289A389B48924013501481A590A4C
:1016F0006A0A7B0A8D819E81A0E0B0E08415950581
:10170000A605B70508F093C049815A8160E070E0F2
:101710002F8138854415550566057705C0F4EE859B
:10172000FF85309709F45FC02017310709F05BC0CF
:101730008B85882309F457C00995F701818A928A1D
:10174000A38AB48A858A968AA78AB08E32C0898590
:101750009A858017910709F046C0D29EC001D39E9A
:10176000900D11249E01280F391FF7018589968954
:10177000A789B08DF901458856886788708C8419CF
:101780009509A609B7094B805C80612C712C48161D
:1017900059066A067B0638F584179507A607B7072A
:1017A00010F5EC85FD853097F1F08B858823D9F015
:1017B00009958F81988529853A85D29EF001D39E1F
:1017C000F00D1124EC0FFD1F858A968AA78AB08E32
:1017D000D89EF001D99EF00D1124EC0FFD1F858AD3
:1017E000968AA78AB08E89E0809FF001819FF00DD4
:1017F0001124EC0FFD1F4189528963897489458B3F
:10180000568B678B708F29853A85829FF001839F65
:10181000F00D1124EC0FFD1F8089882341F081E039
:101820008B8705C0F701818A928AA38AB48A2F81A7
:10183000388589E0829FF001839FF00D1124EC0F21
:10184000FD1F81E02017310709F080E0808B29859A
:101850003A8549E0429FC001439F900D1124C80F73
:10186000D91F81E02017310709F080E0888BDF91D4
:10187000CF911F910F91FF90EF90DF90BF90AF90AD
:101880009F908F907F906F905F904F900895CF932F
:10189000DF93CDB7DEB768970FB6F894DEBF0FBE03
:1018A000CDBF20911701309118013E872D878AE026
:1018B000FE013F96DF01982F1D929A95E9F79091CE
:1018C0000A019923F9F03A8329833C97DF011D929D
:1018D0008A95E9F760910B0170910C01072E000CBD
:1018E000880B990B2AE0AE014F5F5F4F0E94723068
:1018F00062EC71E0CE010D960E94B334BE016F5FC1
:101900007F4F02C068EC71E0CE010D960E94B334A7
:101910008FE198EF9093E8038093E7031092EA0336
:101920001092E90384E690E09093E4038093E3034C
:1019300086E490E09093E6038093E503CE010D9654
:101940000E941D2468960FB6F894DEBF0FBECDBF6F
:10195000DF91CF910895E2E0F1E0908581E0892761
:1019600080870E94470C0C94C808CF92DF92EF92B8
:10197000FF920F931F93CF93DF9387FF0EC0809149
:10198000060190910701A0910801B0910901029709
:10199000A105B10508F090C028C0181634F5609173
:1019A00006017091070180910801909109010E9440
:1019B0002C3320E034E244E759E40E94273387FFC8
:1019C00076C02091060130910701409108015091A5
:1019D0000901AAE0B0E00E944631609306017093CD
:1019E0000701809308019093090183EDC82E8CE9CB
:1019F000D82ED092E803C092E7031092EA03109227
:101A0000E90380E590E09093E4038093E303C0E270
:101A1000D0E0D093E603C093E50382ED91E00E940D
:101A20001D24609106017091070180910801909139
:101A300009012AE040E854E00E948130E12CF12CB9
:101A40000CE010E022E330E040E250E06EE670E0AF
:101A500087ED93E00E94941BD092E803C092E703C5
:101A60001092EA031092E9038EE690E09093E4036B
:101A70008093E303D093E603C093E50380E894E00A
:101A80000E941D2402E010E020EA30E043E450E030
:101A900060E070E087ED93E00E94941BDF91CF91AE
:101AA0001F910F91FF90EF90DF90CF90089561E02C
:101AB00070E080E090E091CF6091060170910701A5
:101AC00080910801909109012AE030E040E050E067
:101AD0000E94E130209306013093070140930801F2
:101AE0005093090182CF0F931F9380911001882397
:101AF00039F001E410E92FEF3FEF49ED51E006C066
:101B000000EC19E220EC36E94CED51E068E280E0AF
:101B10000E94F1261F910F9108950F931F9360E08B
:101B200070E087ED93E00E94621DE0910E01F0915C
:101B30000F01EE0FFF1FED5DFE4F4081518108E068
:101B400012E023E734E167E280E50E94F1260E947B
:101B5000730D0E94D3288FEF0E94B50C0E94CE0611
:101B60000E94D00781E00E94E8278CE00E94E827CD
:101B70001F910F910C94470CDC01ED91FD91808138
:101B8000ED91FD919081ED91FD916C9163708E23AB
:101B900009F064609F2309F06860E9EDFDE0E60F5D
:101BA000F11D659565956D936D917D918D919D91DB
:101BB000099423C01AC012C016C010C01EC009C0AC
:101BC00014C013C006C019C009C00DC007C00DC0A5
:101BD00014C062507040804090400BC06150704013
:101BE0008040904006C06E5F01C06F5F7F4F8F4F97
:101BF0009F4F9E938E937E936E9308951F920F92A4
:101C00000FB60F9211242F933F934F935F936F93CF
:101C10007F938F939F93AF93BF93EF93FF938091A5
:101C2000FA029091FB020E94BC0DFF91EF91BF91CF
:101C3000AF919F918F917F916F915F914F913F9164
:101C40002F910F900FBE0F901F9018951F920F921B
:101C50000FB60F9211242F933F934F935F936F937F
:101C60007F938F939F93AF93BF93EF93FF93809155
:101C7000F8029091F9020E94BC0DFF91EF91BF9183
:101C8000AF919F918F917F916F915F914F913F9114
:101C90002F910F900FBE0F901F9018952F923F928B
:101CA0004F925F926F927F928F929F92AF92BF926C
:101CB000CF92DF92EF92FF920F931F93CF93DF9318
:101CC000CDB7DEB7A4970FB6F894DEBF0FBECDBF79
:101CD000380149014C8F5E872B01FF8AEE8A892BE0
:101CE00029F4E091AD03F091AE0304C0E091AF039D
:101CF000F091B003FF27EE0FFF1FEE0FFF1FEF5411
:101D0000FC4F608171818281938124E630E040E064
:101D100050E00E94B931322E232E4D835E836F83B3
:101D2000788789879A8786017501110FEE08FE2C46
:101D300087019501A6016E2D7E2D8E2D9E2D0FE122
:101D40000E94BB32A12CEAECBE2EFAE9CF2EABE307
:101D5000DA2EE12CF12C00E010E00E94E631A32CF9
:101D6000B22CCD80DE80EF80F88409851A850E9430
:101D700051310FE10E94D63259016A01D601C501E5
:101D8000BB0F880B982FDC0189839A83AB83BC83BC
:101D90009501A6016981762F862F962FA32CB22C50
:101DA000CD80DE80EF80F88409851A850E94F232AA
:101DB000322E232E49835D836E837F8388879987A4
:101DC0009301A4016C8D7E85C2012F3FA7E53A07E0
:101DD000A7E44A07A8EF5A07ADE06A077105810535
:101DE0009105A9F0A0F0211534404B46544F6441B1
:101DF000710581059105B9F0B0F0612C04E0702EF9
:101E00008BE6882E94EF992EF4E1FC8F09C0612CAB
:101E100028E5722E37E4832E48EF942EEDE0EC8F08
:101E20001E86412C512CA32CB22CC980DD80EE8063
:101E3000FF80088519859301A4016C8D7E85C20100
:101E40000E941732288F398F4A8F5B8F2A873B87F2
:101E50004C875D878A859B85AC85BD850F97A105DD
:101E6000B10518F41FE0A12E0BC08A859B85AC85B7
:101E7000BD858B359105A105B105C0F0BAE5AB2E46
:101E8000B12CC12CD12CE12CF12C00E010E0232D41
:101E9000322D49815D816E817F81888599850E947F
:101EA000513139014A016C8F7E872C01A32CB22C51
:101EB000C980DD80EE80FF80088519859301A4012B
:101EC0006C8D7E85C2010E941532E0E4AE2EF2E4F4
:101ED000BF2EAFE0CA2ED12CE12CF12C00E010E097
:101EE0000E945131A32CB22CC980DD80EE80FF808E
:101EF000088519850E941732C901DA010097A105EA
:101F0000B10529F4412C512C3201439407C060E4FF
:101F1000462E62E4562E6FE0662E712C5C016D0138
:101F200087E0AA0CBB1CCC1CDD1C8A95D1F7AC8EBB
:101F3000BD8ECE8EDF8EA32CB22CC980DD80EE80CC
:101F4000FF800885198560E070E080E090E00E94E5
:101F5000513163015201E12CF12C87014E86BF867D
:101F6000C88AD98AEA8AFB8A0C8B1D8BE12CF12C5A
:101F700000E010E00E9417322E8738A349A35AA32D
:101F80004B018CA39BA3CA84DB84EC84FD8497E083
:101F9000CC0CDD1CEE1CFF1C9A95D1F702E0D01A88
:101FA000E108F1086C8D7D8D8E8D9F8DA3019201CE
:101FB0000E94E13089019A010C0D1D1D2E1D3F1D4F
:101FC000AE89BF890D931D932D933C931397FD010B
:101FD000648375838683978318964D925D926D9284
:101FE0007C921B97A32CB22CC980DD80EE80FF80F1
:101FF00008851985288D398D4A8D5B8D60E070E0EC
:1020000080E090E00E945131AE84B8A0C9A0DAA06F
:1020100074010CA11BA10E94F232A4960FB6F89491
:10202000DEBF0FBECDBFDF91CF911F910F91FF900B
:10203000EF90DF90CF90BF90AF909F908F907F9068
:102040006F905F904F903F902F90089585ED809313
:10205000BC008091BC0084FDFCCF10925B0408950D
:1020600040911A02262F30E0240F311D2132310514
:10207000DCF420915B042430C9F4FC0180E090E0A2
:10208000861758F430911A022191DC01A650BE4FF8
:10209000A30FB11D2C930196F3CF80911A02680F04
:1020A00060931A0280E0089581E0089582E0089527
:1020B000089508950895E091140480911304E81799
:1020C00030F4F0E0EB5EFB4F808190E008958FEFFD
:1020D0009FEF08959091140480911304981750F481
:1020E000E92FF0E0EB5EFB4F208130E09F5F9093A3
:1020F000140402C02FEF3FEFC9010895809113042B
:1021000090E020911404821B91090895CF92DF92F0
:10211000EF92FF920F931F93CF93DF937C01CB013C
:102120008A0120915C04222389F0EB016B01C40E2B
:10213000D51ECC15DD0569F06991D701ED91FC91B3
:102140000190F081E02DC7010995F3CF642F0E9423
:102150003010C801DF91CF911F910F91FF90EF9048
:10216000DF90CF900895CF93DF931F92CDB7DEB766
:10217000698320915C042223D1F020917F042032D6
:1021800040F021E030E0FC013383228380E090E0E6
:1021900015C080915D04E82FF0E0E25AFB4F998171
:1021A00090838F5F80935D0480937F0405C061E01E
:1021B000CE0101960E94301081E090E00F90DF91F7
:1021C000CF9108952F923F924F925F926F927F929C
:1021D0008F929F92AF92BF92CF92DF92EF92FF9237
:1021E0000F931F93CF93DF93CDB7DEB72D970FB625
:1021F000F894DEBF0FBECDBF3C01C982DA82EB820C
:10220000FC820D831E832F83388749875A876B870B
:102210007C87BAA09C2C2D2C4E2C302E1D87522E44
:10222000C984DA84EB84FC8484E190E00E948D33DD
:102230008C01C301992706973CF5F801D082C18231
:10224000862D880F880F880F845D0E94FA29942DAF
:1022500093708C7F892BF801828323829482D7012B
:10226000C6012CE0B695A795979587952A95D1F745
:10227000807F952D9F70C92EC80EC5828D8586835F
:10228000932C378268E001C060E0E8E06E167104CC
:1022900008F06CC0F301EC5CFF4F0C942231A801F4
:1022A0008AE20E94AC2A6A2D80E090E00E94992A7E
:1022B0004B2D682D80E090E057C0A80182E30E947A
:1022C000AC2A6A2D81E090E00E94992A4B2D682D5E
:1022D00081E090E049C0A8018AE30E94AC2A6A2DFF
:1022E00082E090E00E94992A4B2D682D82E090E0D8
:1022F0003BC0A80182E40E94AC2A6A2D83E090E0F2
:102300000E94992A4B2D682D83E090E02DC0A801F2
:102310008AE40E94AC2A6A2D84E090E00E94992A07
:102320004B2D682D84E090E01FC0A80182E50E943B
:10233000AC2A6A2D85E090E00E94992A4B2D682DE9
:1023400085E090E011C0692D8AE50E94DF294B2DC0
:10235000682D86E090E008C0692D8BE50E94DF299A
:102360004B2D682D87E090E00E94622AC8012D96CF
:102370000FB6F894DEBF0FBECDBFDF91CF911F9196
:102380000F91FF90EF90DF90CF90BF90AF909F9014
:102390008F907F906F905F904F903F902F900C9414
:1023A00025342F923F924F925F926F927F928F923D
:1023B0009F92AF92BF92CF92DF92EF92FF920F93D4
:1023C0001F93CF93DF93CDB7DEB72E970FB6F89458
:1023D000DEBF0FBECDBF19013A014B018D879E872D
:1023E0002801012BC9F4E091AD03F091AE03EE0F8B
:1023F000FF1FEE0FFF1FE754FC4FA080B180C2808B
:10240000D380CE0101967C0189019301AB016D85DA
:102410007E8580E090E018C0E091AF03F091B003BA
:10242000EE0FFF1FEE0FFF1FE754FC4FA080B1809F
:10243000C280D380FE0131967F0181019A01AB01F8
:102440006D857E8581E090E00E944E0E84E190E0F3
:102450000E948D338C0189859A85AB85BC85F801F6
:102460009083818339814A812B8123702283438326
:1024700034832CE0B695A795979587952A95D1F743
:10248000807F2D813E819F819F70890F8583368358
:10249000278341145104C1F4A80168E08AE10E9435
:1024A000AC2A20929D0330929E0360929F0370920B
:1024B000A0038092A1039092A203FD85F093A30351
:1024C0008E858093A4031AC04A944528B9F4A801C4
:1024D00068E082E20E94AC2A2092A5033092A60313
:1024E0006092A7037092A8038092A9039092AA0316
:1024F000ED85E093AB03FE85F093AC03C8012E9607
:102500000FB6F894DEBF0FBECDBFDF91CF911F9104
:102510000F91FF90EF90DF90CF90BF90AF909F9082
:102520008F907F906F905F904F903F902F900C9482
:102530002534DF92EF92FF920F931F93CF93DF9397
:10254000FC01E080F18002811381D481C581B681D4
:10255000D7809701A8016D2F7C2F8B2F9D2D285997
:1025600038424C41510961097109810991092739A2
:1025700038424C415105610571058105910509F00D
:1025800098F49701A8016D2F7C2F8B2F9D2D07E0CC
:102590000E94BB32208331834283538364837583DB
:1025A0008683978387E001C19701A8016D2F7C2F57
:1025B0008B2F9D2D205331454843510961097109E5
:1025C000810991092F323145484351056105710553
:1025D0008105910509F098F49701A8016D2F7C2FD2
:1025E0008B2F9D2D06E00E94BB32208331834283D6
:1025F0005383648375838683978386E0D6C097016F
:10260000A8016D2F7C2F8B2F9D2D2056324A4047DD
:10261000510961097109810991092F35324A4047F1
:102620005105610571058105910509F098F497013F
:10263000A8016D2F7C2F8B2F9D2D05E00E94BB32B2
:102640002083318342835383648375838683978396
:1026500085E0ABC09701A8016D2F7C2F8B2F9D2D9E
:10266000205C3444414E5109610971098109910985
:102670002F3B3444414E510561057105810591059B
:1026800009F098F49701A8016D2F7C2F8B2F9D2DB9
:1026900004E00E94BB3220833183428353836483EE
:1026A00075838683978384E080C09701A8016D2F8E
:1026B0007C2F8B2F9D2D20583948424C5140610969
:1026C0007109810991092F373948424C5140610500
:1026D00071058105910509F098F49701A8016D2F06
:1026E0007C2F8B2F9D2D03E00E94BB3220833183F2
:1026F00042835383648375838683978383E055C0C5
:102700009701A8016D2F7C2F8B2F9D2D33514548AC
:10271000534061097109810991092F3F32414548B0
:102720005340610571058105910509F098F4970101
:10273000A8016D2F7C2F8B2F9D2D02E00E94BB32B4
:102740002083318342835383648375838683978395
:1027500082E02BC09701A8016D2F7C2F8B2F9D2D20
:1027600036524A40574061097109810991092F3F4A
:1027700035424A405740610571058105910509F0D0
:1027800098F49701A8016D2F7C2F8B2F9D2D01E0D0
:102790000E94BB32208331834283538364837583D9
:1027A0008683978381E001C080E0DF91CF911F9104
:1027B0000F91FF90EF90DF9008952F923F924F92EC
:1027C0005F926F927F928F929F92AF92BF92CF92C1
:1027D000DF92EF92FF920F931F93CF93DF93CDB7CA
:1027E000DEB768970FB6F894DEBF0FBECDBF2901E4
:1027F00049875A873B011C01A982B98ACA8ADB8AA8
:10280000EC8AFD8A0E8B1F8B988A8F86211501EC2E
:1028100030070AE140070DE3500705E06007710546
:102820008105910509F0C8F42F3710EF31071AEF31
:10283000410712E05107610571058105910509F015
:1028400008F43BC12F3F354D41415E476340710560
:102850008105910509F068F40AC1412CF1EC5F2E65
:10286000FAE1F9870DE30A87A5E06A2E712C212C85
:10287000312C298139894A895B896C897D898E89C6
:102880009F89A0E00E94073309F077C099249394B0
:1028900014E0E12EF12C00E010E0EB86FC860D87C1
:1028A0001E87EB84FC840D851E85A801970160E0DE
:1028B00070E0CB015201C984DA847301810129835C
:1028C0003A834B835C836D837E838F83988760E03C
:1028D00070E080E090E00E9451312983398B4A8B6F
:1028E0005B8B6C8B7D8B8E8B9F8BFF24F3949F1463
:1028F00009F409C110E0812C912C5401839440E02B
:1029000050E0BA0101C011E0CB01BA01B7E0660F97
:10291000771F881F991FBA95D1F7CB84DC84ED848B
:10292000FE8407E0CC0CDD1CEE1CFF1C0A95D1F7E1
:10293000A2E0DA1AE108F108A50194010E94E13051
:10294000C20ED31EE41EF51EEF85F889C082D18227
:10295000E282F3826483758386839783808691867F
:10296000A286B386111103C1298139894A895B89FD
:102970006C897D898E899F890EC111E0188F520163
:10298000C984DA8473018101298139894A895B8983
:102990006C897D898E899F890E9417322B873C879D
:1029A0004D875E878B859C85AD85BE850697A10585
:1029B000B10520F406E0A02EB12C0FC0EB84FC84FE
:1029C0000D851E8529E0E21627E0F20601051105B6
:1029D000C8F0B8E0AB2E17E0B12EC12CD12CE12C01
:1029E000F12C00E010E0298139894A895B896C89E2
:1029F0007D898E899F890E941732290149875A87CC
:102A00003B011C015201C984DA84730181012981CF
:102A100039894A895B896C897D898E899F890E9461
:102A20001532E0E4AE2EF2E4BF2EAFE0CA2ED12C78
:102A3000E12CF12C00E010E00E9451315201C984D8
:102A4000DA84730181010E941732A32FF42FE52F3E
:102A5000422F5A2F6F2F7E2F4115510561057105A9
:102A600009F068C0812C912C540183946AC029819B
:102A700039894A895B896C897D898E899F89A0E023
:102A80000E940733F1F55201C984DA847301810190
:102A900020E034E04BE654EF64E170E080E090E049
:102AA0000E941732122FB32FF42FE52FA7E00E94B8
:102AB000073301F516E0B0E01BC0298139894A8946
:102AC0005B896C897D898E899F89A0E00E9407338C
:102AD00009F053C020E8422E30EF532EBAEFB987E9
:102AE000E2E0EA87612C712C212C312C18E0B7E050
:102AF000F0E0E0E0CF011B87BC879D87EE87912C3B
:102B0000D0CE188E3CCFAF85B8891D921D921D92F4
:102B10001C921397FD011482158216821782C12C14
:102B2000D12C7601C3941896CD92DD92ED92FC9251
:102B30001B9731C020E4822E22E4922E2FE0A22E99
:102B4000B12CF88DF13009F0DECEEF85F8891082D6
:102B5000118212821382148215821682178281E0FA
:102B600090E0A0E0B0E080879187A287B3879201D0
:102B700049855A85B301C1010EC0188E80E8482EE0
:102B800090EF592E0AEF098712E01A87612C712CF9
:102B9000212C312CF4CE68960FB6F894DEBF0FBE10
:102BA000CDBFDF91CF911F910F91FF90EF90DF90FC
:102BB000CF90BF90AF909F908F907F906F905F90DD
:102BC0004F903F902F900895DF92EF92FF920F93D6
:102BD0001F93CF93DF93FC01E080F180028113818A
:102BE000D481C581B681D7809701A8016D2F7C2F34
:102BF0008B2F9D2D20583A4146405109610971099A
:102C0000810991092F373A41464051056105710507
:102C10008105910509F098F49701A8016D2F7C2F8B
:102C20008B2F9D2D07E00E94BB322083318342838E
:102C30005383648375838683978387E0FDC0970100
:102C4000A8016D2F7C2F8B2F9D2D35534C405109A2
:102C500061097109810991092F3F34434C405105A5
:102C6000610571058105910509F098F49701A801A6
:102C70006D2F7C2F8B2F9D2D06E00E94BB32208371
:102C8000318342835383648375838683978386E08D
:102C9000D3C09701A8016D2F7C2F8B2F9D2D3A5605
:102CA0004841510961097109810991092F3F39464C
:102CB00048415105610571058105910509F098F4B8
:102CC0009701A8016D2F7C2F8B2F9D2D05E00E9471
:102CD000BB3220833183428353836483758386832D
:102CE000978385E0A9C09701A8016D2F7C2F8B2FBA
:102CF0009D2D345D40435109610971098109910994
:102D00002F3F334D40435105610571058105910504
:102D100009F098F49701A8016D2F7C2F8B2F9D2D22
:102D200004E00E94BB322083318342835383648357
:102D300075838683978384E07FC09701A8016D2FF8
:102D40007C2F8B2F9D2D385A4146510961097109FD
:102D5000810991092F3F374A4146510561057105A7
:102D60008105910509F098F49701A8016D2F7C2F3A
:102D70008B2F9D2D03E00E94BB3220833183428341
:102D80005383648375838683978383E055C097015B
:102D9000A8016D2F7C2F8B2F9D2D3055434C510951
:102DA00061097109810991092F3F3F44434C510545
:102DB000610571058105910509F098F49701A80155
:102DC0006D2F7C2F8B2F9D2D02E00E94BB32208324
:102DD000318342835383648375838683978382E040
:102DE0002BC09701A8016D2F7C2F8B2F9D2D305A62
:102DF0004648514061097109810991092F3F3F49B6
:102E000046485140610571058105910509F098F426
:102E10009701A8016D2F7C2F8B2F9D2D01E00E9423
:102E2000BB322083318342835383648375838683DB
:102E3000978381E001C080E0DF91CF911F910F91D6
:102E4000FF90EF90DF900895FF920F931F93CF9321
:102E5000DF93EC018B01F82E80E1F80E8F2D0E949C
:102E6000FA290115110511F48F7D04C001301105F7
:102E700009F48062682F8F2D0E94DF29DD27CC0F97
:102E8000DD1FCC5BDC4F1A870987DF91CF911F9143
:102E90000F91FF900895CF92DF92EF92FF920F93E0
:102EA0001F93CF93DF93EC012196FC01F490FF2058
:102EB00009F43FC087ED93E00E94201EFE0164915B
:102EC00087ED93E00E9443206E01F2E0CF0ED11C0B
:102ED000FE013196C4918C2F8078E82ECF77860141
:102EE000DC2FD15048F0F801649187ED93E00E9407
:102EF000431F0F5F1F4FF5CFC6018C0F911DEC01D3
:102F000087ED93E00E94771CE11002C0FA94CFCFC6
:102F10008E010F5F1F4FFE01649170E06F3F7105DE
:102F200011F464EF71E080E090E00E944123E80139
:102F3000EDCFDF91CF911F910F91FF90EF90DF9038
:102F4000CF9008952F923F924F925F926F927F920F
:102F50008F929F92AF92BF92CF92DF92EF92FF92A9
:102F60000F931F93CF93DF93CDB7DEB76B970FB659
:102F7000F894DEBF0FBECDBF9B8F8A8F5B011A0115
:102F8000D22E1F830E833701C982DC0158962D9102
:102F90003C9159972115310509F0E6C018968D919D
:102FA0009C911997681779070CF0CDC11A968D91ED
:102FB0009C911B97481759070CF0C5C18C2C912C7C
:102FC000FB0126E0C29EE00DF11D1124FB87EA877C
:102FD0001E161F060CF0B7C1A40183E0440F551F55
:102FE0008A95E1F75D874C87CA01820D931D1816FB
:102FF00019060CF0A8C157968C91811104C05FEAA4
:103000005D1508F4D394AA8DBB8DED91FC911197B9
:103010000284F385E02DCD010995B5E0DB9EC0016A
:103020001124F5013596FF87EE87BB82AA82250120
:103030009C012A193B09398B288BA101485F5F4FFE
:103040005B8B4A8BE889F989E40DF51DEF57FD4F3D
:103050005491588761013D822C82888580FF13C07E
:10306000AA8DBB8DED91FC91B981B13031F404840E
:10307000F585E02D2E813F8116C00684F785E02D71
:10308000EE80FF801AC0EE81FF81E615F705F1F0B2
:10309000AA8DBB8DED91FC91B981B13051F40484BE
:1030A000F585E02D9301A601B2018A8D9B8D0995CE
:1030B0000DC00684F785E02D7301840194014C81D5
:1030C0005D816A817B818A8D9B8D0995E885E69576
:1030D000E887FFEFCF1ADF0A2C813D81280D391DCB
:1030E0003D832C834A895B89C416D50609F0B5CF88
:1030F0005FEF451A550A8A819B81880D991D9B8334
:103100008A83AE85BF854A165B0609F09BCFEE81A8
:10311000FF81E615F70509F4F4C0EA8DFB8DA08167
:10312000B181F981F13079F4B5016B5F7F4F509631
:10313000ED91FC915197830128E030E0A1018A8D47
:103140009B8D0995DEC06A857B85681979091E9675
:10315000ED91FC911F9773010C851D859401A101D0
:103160008A8D9B8D0995CDC0F9013496E491DE1AC4
:10317000F901329685919491B7E0DB9E800D911D07
:103180001124F901259134913B8B2A8BFC01259167
:1031900034912901FC013296C490319634913E87D6
:1031A000329614913196D4904981423058F0612E74
:1031B000012E000C77088D2D0D2C000C990B998792
:1031C000888704C019861886612C712CAA8DBB8D46
:1031D000ED91FC9111970284F385E02DCD010995C5
:1031E000B9818B2E912C689CC001699C900D789CB4
:1031F000900D1124FC01EA0DFB1DFD87EC871A825E
:10320000712C612CE12F110FFF0B95012E0F3F1F29
:103210003B872A87AC0CB11CA5014E0F5F1F5F8B4B
:103220004E8BC1018D0D911DD7FC9A95998F888F7A
:103230009E85691608F065C0862D90E04885598501
:10324000480F591F489D9001499D300D589D300DE4
:103250001124D101A20FB31FB98BA88BEC85FD857A
:10326000FD83EC83AA84BB84DA80FA85DF1A288D7B
:10327000398D280F391F3D8B2C8B8D2D8A0D4E8952
:103280005F89A416B506C1F1877041F4C2010196A9
:10329000EA89FB89E40DF51D74902C0177FE21C0AD
:1032A000AA8DBB8DED91FC91B981B13061F404849C
:1032B000F585E02D2E813F814C895D89B5018A8D90
:1032C0009B8D09950EC00684F785E02DEE80FF806A
:1032D00084019401488959896C817D818A8D9B8DF7
:1032E0000995770CEFEFAE1ABE0A2C813D81280DAF
:1032F000391D3D832C83C1CF3A813C0D3A836394C1
:1033000097CFAA8DBB8DED91FC9111970688F78917
:10331000E02DCD016B960FB6F894DEBF0FBECDBF8A
:10332000DF91CF911F910F91FF90EF90DF90CF90A1
:10333000BF90AF909F908F907F906F905F904F90D5
:103340003F902F9009946B960FB6F894DEBF0FBE96
:10335000CDBFDF91CF911F910F91FF90EF90DF9044
:10336000CF90BF90AF909F908F907F906F905F9025
:103370004F903F902F9008951F920F920FB60F928B
:1033800011242F933F934F935F936F937F938F936A
:103390009F93AF93BF93EF93FF938091B900887F82
:1033A000803609F49CC068F5883209F45BC090F45B
:1033B000803109F454C038F4882309F4F6C0883009
:1033C00009F44DC0F6C0883109F44CC0803209F4CC
:1033D0005DC0EFC0803409F468C048F4803309F45C
:1033E00055C0883309F0E5C080935904D8C08035B2
:1033F00009F44FC0883509F45DC0883409F0D9C09C
:10340000D6C0883909F4C7C0A8F4883709F467C062
:1034100038F4883609F463C0803709F460C0C9C045
:10342000883809F4B8C0803909F45FC0803809F0E1
:10343000C0C05BC0803B09F486C038F4803A09F410
:1034400066C0883A09F47FC0B4C0803C09F4A7C0C4
:10345000883C09F4A4C0883B09F48AC0AAC08091C2
:10346000360410C09091580480915704981770F555
:10347000E091580481E08E0F80935804F0E0E95CFD
:10348000FB4F80818093BB0085EC86C080935904FC
:103490008EC0E091580481E08E0F80935804809193
:1034A000BB00F0E0E95CFB4F808390915804809171
:1034B00057046EC0E091580481E08E0F8093580449
:1034C0008091BB00F0E0E95CFB4F808380915A045F
:1034D00081116DC081E08093350484EA61C083E08E
:1034E00080935B0410923C02CFCF80913C028032EB
:1034F00008F051C0E0913C0281E08E0F80933C02C5
:103500008091BB00F0E0E45EFD4F8083BDCF85EC91
:103510008093BC0010925B0480913C02803230F4B6
:10352000E0913C02F0E0E45EFD4F108260913C02CD
:1035300070E0E091F801F091F9018CE192E00995D9
:1035400010923C0236C084E080935B0410921B0210
:1035500010921A02E091F601F091F701099580911D
:103560001A02811105C081E080931A021092FA01BB
:10357000E0911B0281E08E0F80931B02F0E0E65089
:10358000FE4F80818093BB0090911B0280911A02B4
:10359000981708F479CF85E88093BC000AC085ECC1
:1035A0008093BC0010925B0404C0109259040E94E6
:1035B0002610FF91EF91BF91AF919F918F917F91D5
:1035C0006F915F914F913F912F910F900FBE0F9090
:1035D0001F901895833081F028F4813099F0823063
:1035E000A1F008958730A9F08830B9F08430D1F483
:1035F000809180008F7D03C0809180008F778093C1
:103600008000089584B58F7702C084B58F7D84BD16
:1036100008958091B0008F7703C08091B0008F7DB6
:103620008093B00008951F93CF93DF93282F30E04D
:10363000F901E359FD4F8491F901E250F84FD4911B
:10364000F901E45EF74FC491CC23C1F0162F81112C
:103650000E94EA1AEC2FF0E0EE0FFF1FEE5EF74F2C
:10366000A591B4919FB7F894111104C08C91D09595
:10367000D82302C0EC91DE2BDC939FBFDF91CF916A
:103680001F910895CF93DF9390E0FC01E250F84F33
:103690002491FC01E45EF74F8491882361F190E06E
:1036A000880F991FFC01ED59FD4FC591D491FC0184
:1036B000EE5EF74FA591B491611109C09FB7F894E0
:1036C0008881209582238883EC912E230BC0623061
:1036D00061F49FB7F8948881322F309583238883D3
:1036E000EC912E2B2C939FBF06C08FB7F894E881E6
:1036F0002E2B28838FBFDF91CF910895FC01918DF0
:10370000228D892F90E0805C9F4F821B91098F73DF
:103710009927089580E090E0892B29F00E94C82223
:1037200081110C94000008958F929F92AF92BF92E6
:10373000CF92DF92EF92FF920F931F93CF93DF937D
:10374000EC016B015A014901E881F9810284F3859A
:10375000E02D0995E881F9810684F785E02D940133
:10376000A501B601CE010995E881F9810688F7899E
:10377000E02DCE01DF91CF911F910F91FF90EF903F
:10378000DF90CF90BF90AF909F908F900994AF92B1
:10379000BF92CF92DF92EF92FF920F931F93CF933E
:1037A000DF93EC017B016A015901E881F981028410
:1037B000F385E02D0995E881F9810288F389E02DF0
:1037C0009501A601B701CE010995E881F981068826
:1037D000F789E02DCE01DF91CF911F910F91FF90DE
:1037E000EF90DF90CF90BF90AF900994AF92BF92CF
:1037F000CF92DF92EF92FF920F931F93CF93DF93BD
:10380000EC017B016A015901E881F9810284F385A9
:10381000E02D0995E881F9810088F189E02D950175
:10382000A601B701CE010995E881F9810688F789DB
:10383000E02DCE01DF91CF911F910F91FF90EF907E
:10384000DF90CF90BF90AF900994CF92DF92EF922C
:10385000FF920F931F93CF93DF93EC018B017A01BB
:103860006901E881F9810284F385E02D0995E881F9
:10387000F9810484F585E02D9601A701B801CE01F8
:103880000995E881F9810688F789E02DCE01DF915D
:10389000CF911F910F91FF90EF90DF90CF900994FF
:1038A000EF92FF920F931F93DC01ED91FC91068440
:1038B000F785E02D780101E010E009951F910F9147
:1038C000FF90EF900895EF92FF920F931F93DC010A
:1038D000ED91FC910684F785E02D7801890121E0C6
:1038E00030E009951F910F91FF90EF900895FC0132
:1038F00091A904A4F5A5E02D8081892B80830895EA
:103900000895FC016370658B8481958126813781E0
:10391000613039F0633029F09187808733872287BF
:103920000895318720879387828708956F927F92C9
:103930008F929F92AF92BF92CF92DF92EF92FF92BF
:103940000F931F93CF93DF93EC014B015A01690151
:103950003801E881F9810284F385E02D0995E88139
:10396000F9810288F389E02D87019601A501B40150
:10397000CE010995A501460D571D41505109E88119
:10398000F9810288F389E02D9601B401CE010995F1
:10399000E881F9810088F189E02D9301A501B40146
:1039A000CE010995C80CD91CB60161507109E88196
:1039B000F9810088F189E02D9301A501CE010995D7
:1039C000E881F9810688F789E02DCE01DF91CF915A
:1039D0001F910F91FF90EF90DF90CF90BF90AF902D
:1039E0009F908F907F906F9009948F929F92AF924B
:1039F000BF92CF92DF92EF92FF920F931F93CF93DC
:103A0000DF934C016B015A01E901DC01ED91FC915E
:103A10006217730781F40417150724F48B2D5801DE
:103A2000042F182F0A191B0998012F5F3F4F048C90
:103A3000F58DE02D12C04017510709F526173707FD
:103A400024F48D2D6901C62FD82F9E012C193D0914
:103A50002F5F3F4F068CF78DE02D8701A501B60142
:103A6000C4010995DF91CF911F910F91FF90EF90C5
:103A7000DF90CF90BF90AF909F908F900895028479
:103A8000F385E02D0995D401ED91FC910488F58929
:103A9000E02D9E01A501B601C4010995D401ED9167
:103AA000FC910688F789E02DC401DF91CF911F9129
:103AB0000F91FF90EF90DF90CF90BF90AF909F90CD
:103AC0008F900994EF92FF920F931F93DC011A9647
:103AD0000D911C911B9718962D913C911997ED9182
:103AE000FC9100A0F1A1E02D7B0140E050E060E0FE
:103AF00070E009951F910F91FF90EF9008951F932B
:103B0000CF93DF93EC01411551056105710521F457
:103B100040E054E264EF70E04A8F5B8F6C8F7D8FE2
:103B200081E28BAB80E28CAB8E8D87FD07C061E0BC
:103B30000E94421B61E08E8D0E94131B61E08F8DFD
:103B40000E94421B60E08F8D0E94131B89A187FD9C
:103B500019C061E08AA10E94421B60E08AA10E9414
:103B6000131B61E089A10E94421B61E089A10E94B0
:103B7000131B8BA187FD03C060E00E94421B89A13B
:103B800087FF33C01FB7F89480913D02811127C091
:103B9000E6E2F8E08491E8E0F8E09491E82FF0E0C4
:103BA000EE0FFF1FED59FD4FA591B491EC91E92364
:103BB00021F461E08AE00E94131B61E08AE00E9428
:103BC000421B8CB580618CBD8CB580648CBD61E07E
:103BD0008DE00E94421B61E08BE00E94421B8091BD
:103BE0003D028F5F80933D021FBF88A187FD24C0E7
:103BF00061E00E94421B61E088A10E94131B64E601
:103C000070E080E090E00E94412360E088A10E9483
:103C1000131B64E670E080E090E00E94412361E0C5
:103C200088A10E94131B68EC70E080E090E0DF91B7
:103C3000CF911F910C944123DF91CF911F91089553
:103C4000FC0181A187FF1EC0428D538D648D758D4F
:103C500080E092E1AAE7B0E020E0481759076A0740
:103C60007B0740F4B695A795979587952F5F2630EB
:103C7000A1F727E091E09227892F806A86959170BD
:103C80008CBD9DBD81A904A4F5A5E02D90818095F2
:103C9000892380830895AF92BF92CF92EF92FF92D3
:103CA0000F931F93CF93DF93EC01262F888D998D6F
:103CB000009709F040C06A3059F41D861C862C8993
:103CC0008E859F8538E0239F800D911D112441C072
:103CD0006D3009F4AAC08E898823C1F03C898C8597
:103CE0009D8546E0349F800D911D1124488559859E
:103CF000481759075CF41D861C868E859F8548E011
:103D0000349F800D911D11249F878E87EA88FB8840
:103D1000088919894E855F856C857D85CC88CE01A3
:103D20000E94A2172C898C859D8536E0239F800DEB
:103D3000911D112442C06A3079F41D861C862C899D
:103D4000FC013696E4918E859F852E9F800D911DF6
:103D500011249F878E8769C06D3009F466C0FC010D
:103D600034963491631708F460C03196E491E617F5
:103D700008F45BC0FC01329665917491422F50E0CB
:103D8000431B510937E0349F5001359FB00C11247B
:103D9000A60EB71EF501329634913196E491332385
:103DA00011F0E1110DC0F5013496E4912C898C8558
:103DB0009D85E29F800D911D11249D878C8735C0C4
:103DC000F501359644915E89552311F16C89E32FF5
:103DD000F0E0E40FF11D47FDFA956E9FD0016F9F53
:103DE000B00D11244C855D854A0F5B1FE885F98570
:103DF000E417F5076CF41D861C86FC013696E491E9
:103E00008E859F856E9F800D911D11249F878E87C3
:103E1000EA88FB88088919894E855F856C857D85D0
:103E2000CC88CE010E94A217BECF81E090E0DF9146
:103E3000CF911F910F91FF90EF90CF90BF90AF90D7
:103E40000895FC01848DDF01A80FB11DA35ABF4F57
:103E50002C91848D90E001968F739927848FA68989
:103E6000B7892C93A089B1898C91837080648C93DD
:103E7000938D848D981306C00288F389E02D80818C
:103E80008F7D80830895FC0181A187FF05C06EBDF1
:103E90000DB407FEFDCF089588E090E020E8A4A1CE
:103EA000B5A1362F322321F046A53C91342B04C016
:103EB00036A54C91309534233C9330A9A0A5B1A5EB
:103EC0004C91309534233C9340A9A0A5B1A53C91D9
:103ED000342B3C932695019711F708954F925F92EA
:103EE0006F927F928F929F92AF92BF92CF92DF920A
:103EF000EF92FF920F931F93CF93DF93EC016B012F
:103F00005901480128853985621773070CF067C08D
:103F10008A859B85481759070CF061C08B010A0DF3
:103F20001B1DF8013197DA01A80DB91DBD016150C3
:103F30007109F7FD54C077FD52C0D7FE03C0580188
:103F4000C12CD12C57FF03C04D0140E050E0E217D7
:103F5000F3071CF05901AC18BD08681779071CF06D
:103F60004C01841A950A9501D4010E9428313B0125
:103F7000582E492EE881F98102A4F3A5E02D840191
:103F8000B601CE0109954301A52CB42C89A187FF68
:103F900013C081149104A104B10409F1FEBC0DB455
:103FA00007FEFDCFEEBC0DB407FEFDCF81E0881A01
:103FB0009108A108B108EDCF81149104A104B104C6
:103FC00071F06F2DCE010E94431F6E2DCE010E9415
:103FD000431F81E0881A9108A108B108EDCFDF9155
:103FE000CF911F910F91FF90EF90DF90CF90BF90F6
:103FF000AF909F908F907F906F905F904F900895BB
:10400000EF92FF920F931F93CF93DF93EC0177FD15
:1040100033C0888599856817790774F557FD2CC0DA
:104020008A859B85481759073CF5E32EF22EE881D7
:10403000F98102A4F3A5E02D01E010E021E030E0D9
:10404000CE01099589A187FF09C0EEBC0DB407FE1A
:10405000FDCFFEBC0DB407FEFDCF0EC06E2DCE0110
:104060000E94431F6F2DCE01DF91CF911F910F91C1
:10407000FF90EF900C94431FDF91CF911F910F9110
:10408000FF90EF900895CF93DF93EC018AA9EAA502
:10409000FBA59081809589238083CE010E94431FD8
:1040A0009AA9EAA5FBA58081892B8083DF91CF9116
:1040B00008951F93CF93DF93EC0163706D8B29AD4F
:1040C0008AAD30E0623091F06330B9F0613039F0A0
:1040D0003EAB2DAB90E098AF8FAB10EC14C038AF77
:1040E0002FAB90E09EAB8DAB10EA0DC03EAB2DAB7D
:1040F00090E098AF8FAB10E006C038AF2FAB90E0E8
:104100009EAB8DAB10E6E881F9810284F385E02D4A
:10411000CE01099566E3CE010E944320612FCE01B6
:104120000E94431FE881F9810688F789E02DCE01BE
:10413000DF91CF911F9109948F929F92AF92BF927E
:10414000CF92DF92EF92FF920F931F93CF93DF9363
:10415000EC018DA99EA94B01880E991E8FA998ADDF
:10416000480F591FC9010197880D991DA0E0B0E0C3
:10417000A12CB12C540199248824882A992AAA2A8E
:10418000BB2A680181E0C81AD108C40ED51EC60139
:10419000A0E0B0E06A01E12CF12C7601DD24CC2412
:1041A000C82AD92AEA2AFB2A6AE2CE010E944320C1
:1041B00029A16B2D77278827992727FF18C06EBD67
:1041C0000DB407FEFDCFC501AA27BB278EBD0DB4D8
:1041D00007FEFDCFBB27AB2D9A2D892D8EBD0DB4CB
:1041E00007FEFDCF8EBC0DB407FEFDCF14C0CE017F
:1041F0000E94431FB50188279927CE010E94431FC3
:1042000099278B2D7A2D692DCE010E94431F682D91
:10421000CE010E94431F6BE2CE010E94432029A1E0
:104220006F2D77278827992727FF18C06EBD0DB4FB
:1042300007FEFDCFC701AA27BB278EBD0DB407FE21
:10424000FDCFBB27AF2D9E2D8D2D8EBD0DB407FE4E
:10425000FDCFCEBC0DB407FEFDCF14C0CE010E9431
:10426000431FB70188279927CE010E94431F992732
:104270008F2D7E2D6D2DCE010E94431F6C2DCE0102
:104280000E94431F6CE2CE01DF91CF911F910F91ED
:10429000FF90EF90DF90CF90BF90AF909F908F9066
:1042A0000C9443201F93CF93DF93EC0163706D8BCD
:1042B0008BAD623009F443C0633009F461C099AD3D
:1042C0004AAD6130F1F0823069F0843009F091C07C
:1042D00020EA30E03B872A8720E530E039872887CD
:1042E00010EC09C010EC20EA30E03B872A8720E878
:1042F00030E039872887892F90E09EAB8DAB842FE3
:104300003BC0823069F0843009F07FC020EA30E0A1
:104310003987288720E530E03B872A8710EA09C0E3
:1043200010EA20EA30E03987288720E830E03B8730
:104330002A87892F90E098AF8FAB842F3EC08230C0
:1043400069F0843009F06DC080EA90E09B878A872D
:1043500080E590E09987888710E009C010E080EA46
:1043600090E09B878A8780E890E09987888789AD6D
:1043700090E09EAB8DAB8AAD90E098AF8FAB20C044
:10438000823069F0843009F058C080EA90E0998763
:10439000888780E590E09B878A8710E609C010E651
:1043A00080EA90E09987888780E890E09B878A87F9
:1043B00089AD90E098AF8FAB8AAD90E09EAB8DABAE
:1043C000E881F9810284F385E02DCE01099566E349
:1043D000CE010E944320612FCE010E94431FE8813D
:1043E000F9810688F789E02DCE01DF91CF911F91E9
:1043F0000994813041F420E830E03B872A873987EF
:10440000288718EC78CF18EC6ECF813041F420E883
:1044100030E0398728873B872A8718EA8ACF18EA4D
:1044200080CF813041F480E890E09B878A8799872C
:10443000888718E09CCF18E092CF813041F480E863
:1044400090E0998788879B878A8718E6B1CF18E61E
:10445000A7CF1F93CF93DF93EC01162FE881F9814B
:104460000284F385E02D0995112311F06BA901C099
:104470006CA9CE010E944320E881F9810688F78962
:10448000E02DCE01DF91CF911F9109943FB7F894B1
:1044900080914B0290914C02A0914D02B0914E023E
:1044A00026B5A89B05C02F3F19F00196A11DB11D8F
:1044B0003FBFBA2FA92F982F8827820F911DA11DCA
:1044C000B11DBC01CD0142E0660F771F881F991F07
:1044D0004A95D1F70895CF92DF92EF92FF920F9312
:1044E0001F93CF93DF936C017A018B01C0E0D0E082
:1044F000CE15DF0581F0D8016D918D01D601ED91CA
:10450000FC910190F081E02DC6010995892B11F0F5
:104510002196EECF7E01C701DF91CF911F910F91C0
:10452000FF90EF90DF90CF900895FC01538D448D64
:10453000252F30E0842F90E0821B930B541710F04E
:10454000CF96089501970895FC01918D828D98175B
:1045500061F0828DDF01A80FB11D5D968C91928D67
:104560009F5F9F73928F90E008958FEF9FEF089564
:10457000FC01918D828D981731F0828DE80FF11D2D
:10458000858D90E008958FEF9FEF08950E94AE34DF
:104590008BE592E00E947E1B21E0892B09F420E04C
:1045A000822F0895EF92FF920F931F93CF93DF9383
:1045B000EC0181E0888F9B8D8C8D981305C0E88974
:1045C000F989808185FD26C0F62E0B8D10E00F5FE6
:1045D0001F4F0F731127E02E8C8DE8120CC00FB601
:1045E00007FCFACFE889F989808185FFF5CFCE01F4
:1045F0000E94211FF1CF8B8DFE01E80FF11DE35AC0
:10460000FF4FF0829FB7F8940B8FEA89FB89808176
:1046100080620AC09FB7F894EE89FF896083E889B9
:10462000F98980818370806480839FBF81E090E0FE
:10463000DF91CF911F910F91FF90EF900895CF934D
:10464000DF93EC01888D8823C9F0EA89FB8980819A
:1046500085FD05C0A889B9898C9186FD0FC00FB66C
:1046600007FCF5CF808185FFF2CFA889B9898C91AD
:1046700085FFEDCFCE010E94211FE7CFDF91CF91C3
:1046800008958F929F92AF92BF92CF92DF92EF9256
:10469000FF926B017C010E9446224B015C01C11418
:1046A000D104E104F104F1F00E944622DC01CB01C7
:1046B00088199909AA09BB09883E9340A105B1054B
:1046C00070F321E0C21AD108E108F10888EE880EE3
:1046D00083E0981EA11CB11CC114D104E104F104B3
:1046E00019F7DDCFFF90EF90DF90CF90BF90AF90A4
:1046F0009F908F9008951F920F920FB60F921124E2
:104700002F933F938F939F93AF93BF9380914202D8
:1047100090914302A0914402B091450230914A0227
:1047200023E0230F2D3720F40196A11DB11D05C0F4
:1047300026E8230F0296A11DB11D20934A02809303
:10474000420290934302A0934402B09345028091A9
:104750004B0290914C02A0914D02B0914E020196F5
:10476000A11DB11D80934B0290934C02A0934D026A
:10477000B0934E02BF91AF919F918F913F912F9136
:104780000F900FBE0F901F9018951F920F920FB6AB
:104790000F9211242F933F934F935F936F937F93C7
:1047A0008F939F93AF93BF93EF93FF938BE592E02B
:1047B0000E94211FFF91EF91BF91AF919F918F9127
:1047C0007F916F915F914F913F912F910F900FBE0D
:1047D0000F901F9018951F920F920FB60F921124F1
:1047E0002F938F939F93EF93FF93E0916B02F09140
:1047F0006C028081E0917102F091720282FD12C020
:104800009081809174028F5F8F732091750282175F
:1048100051F0E0917402F0E0E55AFD4F958F8093DE
:10482000740201C08081FF91EF919F918F912F9130
:104830000F900FBE0F901F901895009769F0FC0124
:1048400001900020E9F73197AF01481B590BBC01DB
:1048500087ED93E00C946B2280E090E008952F9216
:104860003F924F925F926F927F928F929F92AF9200
:10487000BF92CF92DF92EF92FF920F931F93CF934D
:10488000DF93CDB7DEB76D970FB6F894DEBF0FBEDE
:10489000CDBF3C872B871E870D87F88AEF86DA8A83
:1048A000C98AF90171836083F80151834083F6015D
:1048B00011821082F701118210822090DF03309064
:1048C000E0030091E1031091E2034090EF03509068
:1048D000F00392012C5F3F4F3C8B2B8B2F5F3F4FA0
:1048E0003E8B2D8B23503109388F2F8B8090ED0319
:1048F0009090EB03C92CD12CDC82CB822C5F3F4FF4
:104900003E832D8326E0929E60011124D886CF82BB
:10491000CB80DC80F3E0CC0CDD1CFA95E1F7DA8289
:10492000C9829A8789877101AFEFBFEF2FEF3FEF01
:104930003B8F2A8FE985FA852191FA87E98722231F
:1049400009F4CCC04114510409F48DC02A3041F45B
:10495000ED81FE818491899D400D511D112489C0F6
:104960002D3041F3EB89FC89C490ED89FE89849157
:10497000022E000C330BD12C2C153D05DCF290E0FF
:1049800082179307BCF2EF89F88D859194912C19C9
:104990003D09E7E0CE2EC29EF001C39EF00D11242A
:1049A0008E0F9F1FFC013296C4903196D4903196A1
:1049B0002491298F31963491319684918820E9F0A1
:1049C0006C2C712C630E711C37FD7A94EB81FC8189
:1049D0006E9E50016F9EB00C7E9EB00C1124A60EF0
:1049E000B71E2A143B044CF4ED81FE819491999EEC
:1049F000400D511D112460E070E0292D3203F001BB
:104A00001124E60FF71F382F3203C0011124840F41
:104A1000951F5F019C9CA00CB11C112421E0A21ADF
:104A2000B1089C019D9C200D311D1124690131E0CC
:104A3000C31AD108EE15FF050CF47F01801791070A
:104A40000CF48C018A8D9B8D8A159B0514F4BB8E0A
:104A5000AA8EAC15BD050CF4D601998D999E600DFA
:104A6000711D112467CF2A3039F4C980DA804C0DCA
:104A70005D1D60E070E05ECF2D3009F45BCF8820D3
:104A800069F08F819885860F971F2816390634F4B0
:104A900029813A81420F531F60E070E02F813885F1
:104AA000260F371FF901319789819A81840F951F4D
:104AB0000197CA8CDB8CCE16DF0614F4FB8FEA8FCD
:104AC000A817B9070CF4DC016E157F050CF47B0107
:104AD000401751070CF48A01B9012CCF2A8D3B8D68
:104AE0002E153F0564F0EB85FC85F182E0822E19DE
:104AF0003F092F5F3F4FEF85F88931832083A0174F
:104B0000B1075CF0ED85FE8511830083A01BB10B1E
:104B10001196E989FA89B183A0836D960FB6F8944E
:104B2000DEBF0FBECDBFDF91CF911F910F91FF90E0
:104B3000EF90DF90CF90BF90AF909F908F907F903D
:104B40006F905F904F903F902F9008956F927F925B
:104B50008F929F92AF92BF92CF92DF92EF92FF928D
:104B60000F931F93CF93DF937C016B015901C0E03A
:104B7000D0E002E010E0842F8470882E842F8270B1
:104B8000782E842F8870682E4170942E219688206C
:104B9000B1F09501A8014C0D5D1DB7016C0F7D1F93
:104BA00087ED93E00E9400209501A6014C0F5D1F48
:104BB000B8016E0D7F1D87ED93E00E9400207720E5
:104BC000B1F09501A601401B510BB7016C0F7D1F81
:104BD00087ED93E00E9400209501A6014C1B5D0B20
:104BE000B8016E0D7F1D87ED93E00E9400206620C6
:104BF000B1F09501A6014C0F5D1FB701601B710B51
:104C000087ED93E00E9400209501A8014C0D5D1DE9
:104C1000B7016C1B7D0B87ED93E00E94002099206B
:104C2000B1F09501A6014C1B5D0BB701601B710B28
:104C300087ED93E00E9400209501A601401B510BD7
:104C4000B7016C1B7D0B87ED93E00E940020C0171D
:104C5000D1071CF401E010E099CFDF91CF911F91B3
:104C60000F91FF90EF90DF90CF90BF90AF909F900B
:104C70008F907F906F9008952F923F924F925F9206
:104C80006F927F928F929F92AF92BF92CF92DF925C
:104C9000EF92FF920F931F93CF93DF9300D000D03A
:104CA00000D0CDB7DEB72C013B01490158011901F5
:104CB00083E0280E311CE12CF12C82E090E09E83F1
:104CC0008D838CEF9FEF9A838983CC24CA94DC2C4C
:104CD000942F91709B8342704C838FEFE81AF80AEF
:104CE000C10188199909C80ED91E9B81992309F120
:104CF0002D813E81220F331F2F5F3F4F280D391D1D
:104D00008501A3018D819E81481B590BB2016E0D57
:104D10007F1D87ED93E00E94631C9101A3014E1952
:104D20005F096D817E81640D751D87ED93E00E94A2
:104D3000631C9C81911119C08D819E81E816F90632
:104D4000BCF5D7FC0AC089819A8102969A8389832F
:104D5000C80ED91E81E090E002C082E090E09E8300
:104D60008D8392E0290E311CB8CF2D813E81220F18
:104D7000331F2F5F3F4F280D391D8501A3018D8102
:104D80009E81481B590BB2016E197F0987ED93E094
:104D90000E94631C9101A3014E195F09B2018D812C
:104DA0009E81681B790B87ED93E00E94631CC4CF42
:104DB00026960FB6F894DEBF0FBECDBFDF91CF9120
:104DC0001F910F91FF90EF90DF90CF90BF90AF9029
:104DD0009F908F907F906F905F904F903F902F901B
:104DE00008952F923F924F925F926F927F928F928F
:104DF0009F92AF92BF92CF92DF92EF92FF920F936A
:104E00001F93CF93DF93CDB7DEB72C970FB6F894EF
:104E1000DEBF0FBECDBF5C874B8759014801262FEF
:104E200030E03A872987282E312C87ED93E00E94C5
:104E3000201E69847A8434E0631A7108610142E0BB
:104E4000C40ED11C78010FE010E0930140E050E067
:104E5000B60187ED93E00E946E1FE984FA84E20CAC
:104E6000F31C270153E0451A510884012AE030E081
:104E700041E062E070E0C2010E943C262AE030E09E
:104E800042E062E070E0C6010E943C2687ED93E0BC
:104E90000E94771C87ED93E00E94201E85019301FC
:104EA00040E050E0B60187ED93E00E94501C930172
:104EB0004EE050E0B60187ED93E00E94501C2BE0DD
:104EC00030E042E050E0B10187ED93E00E94631CC6
:104ED000B701615071092BE030E042E050E087ED0E
:104EE00093E00E94631C950141E062E070E0C6011E
:104EF0000E94A625950142E062E070E0C2010E9496
:104F0000A625950144E06CE070E0C2010E94A62550
:104F1000950148E06CE070E0C6010E94A62587ED8F
:104F200093E00E94771C9E012F5F3F4F88E0F901BC
:104F300011928A95E9F7AE01495F5F4F6A01CE0190
:104F400005967C018E010D5F1F4F40E050E0B101DE
:104F50008B859C850E942F248F8198852FE030E0DF
:104F6000281B390B369527952F5F3F4F8D819E81EA
:104F7000E985FA85E81BF90BCF0196958795280EF0
:104F8000391EE7EDF3E0B18AA08A938A828A3586DA
:104F90002486378726878B859C850E941D242C9626
:104FA0000FB6F894DEBF0FBECDBFDF91CF911F913A
:104FB0000F91FF90EF90DF90CF90BF90AF909F90B8
:104FC0008F907F906F905F904F903F902F900895BB
:104FD0003F924F925F926F927F928F929F92AF9289
:104FE000BF92CF92DF92EF92FF920F931F93CF93D6
:104FF000DF93C82FA8E0EA2EA2E0FA2E0AE010E024
:1050000020EA30E046E750E060E070E087ED93E0B2
:105010000E94961C809140038C1709F4B2C0CD30D9
:1050200020F4C11103C0C1E001C0CCE08091400375
:105030008C1708F076C0D09140036EE0762E7BE2AC
:10504000672EE0E35E2EFEE6AF2EB12CDC1708F0F3
:1050500066C0E6EFED0FE33040F4F0E0EE0FFF1F27
:10506000EF54FE4FC080D18006C040EEC42E47E012
:10507000D42EDA3010F022E001C020E08D2E912CE9
:10508000C4010197879D302C112432E0432E430C3C
:10509000DB3011F462E001C060E030E0235F3F4F9D
:1050A00070E0640D711D760106E010E048E750E005
:1050B00087ED93E00E94941B4AE060E874E0C4012D
:1050C000DA3090F001960E9467306092800450922E
:1050D000820410928304DA3019F42BEF422E02C0BE
:1050E0009EEF492E430C02C00E946730D092E80325
:1050F000C092E7031092EA031092E903842D90E036
:1051000004969093E4038093E303B092E603A092A5
:10511000E50380E894E00E941D24DF5F97CFC093F1
:10512000400380914003C81760F5D09140038EE0A2
:10513000D82ECD1720F5DA3018F42EE030E002C07A
:1051400020E130E08D2F90E00197D89EA001D99EFC
:10515000500D1124DB3019F062E070E002C064E011
:1051600070E0640F751FE12CF12C06E010E048E7B9
:1051700050E087ED93E00E94941BD150DACFC093AA
:105180004003DF91CF911F910F91FF90EF90DF903F
:10519000CF90BF90AF909F908F907F906F905F90D7
:1051A0004F903F900895EF92FF920F931F9390912D
:1051B0000D0180910001981307C000E018E620E07F
:1051C00038EE40EF51E015C0E0910D0185E0E89F19
:1051D000F0011124E757FE4F80814AE060E874E057
:1051E00090E00E94673000EC19E220EC36E940E8DC
:1051F00054E068E288E70E94F126E12CF12C0AE0F5
:1052000010E02FE930E04EE550E060E070E087ED1F
:1052100093E00E94941B1F910F91FF90EF900895CF
:10522000AF92BF92CF92DF92EF92FF920F931F93B4
:10523000CF93DF93D091000109E811E0C0E088EE40
:10524000C82E83E0D82EE12CF12CDC17D9F1609127
:105250000201709103018091040190910501F80110
:10526000A180B280A70196010E94E130C501A0E0B3
:10527000B0E0281739074A075B07B0F160910201D7
:10528000709103018091040190910501A70196019D
:105290000E94E130F801838194818A0D9B1DA0E07A
:1052A000B0E082179307A407B507F0F080910D01D5
:1052B000C81721F0C0930D010E94D32880910001EE
:1052C000C81316C080910D018C1791F0C0930D0189
:1052D000DF91CF911F910F91FF90EF90DF90CF90D2
:1052E000BF90AF900C94D328CF5F0B5F1F4FADCF13
:1052F000DF91CF911F910F91FF90EF90DF90CF90B2
:10530000BF90AF900895282F30917F04313208F07C
:105310004AC080915B048111FCCF90917E0442E0F1
:1053200040935B0420935A042FEF2093590410926A
:10533000580430935704EEE5F4E0A7E3B4E020E02E
:10534000321721F041914D932F5FFACF109236041E
:1053500020913604990F922B909336049091350446
:10536000913061F410923504909136049093BB0013
:105370009091BC0093FDF8CF95EC01C095EE909311
:10538000BC0090915B049230E1F3909159049F3FEF
:1053900079F080915904803241F080915904803332
:1053A00031F084E005C081E003C082E001C083E009
:1053B00010925D0410927F0410925C040895CF93C4
:1053C000C62F9091C20321E020935C0490937E0449
:1053D00010925D0410927F04682F8FE492E00E9487
:1053E000B3106C2F8FE492E00E94B31081E0CF9154
:1053F0000C948329CF939091C20321E020935C0405
:1054000090937E0410925D0410927F04682F8FE4C5
:1054100092E00E94B31081E00E9483298091C20330
:1054200090915B049111FCCF91E090935B041092FA
:105430005A042FEF209359041092580410925704E5
:105440009093360490913604880F892B809336040C
:1054500080913504813061F41092350480913604D6
:105460008093BB008091BC0083FDF8CF85EC01C028
:1054700085EE8093BC0080915B048130E1F38091E4
:105480005804811103C0C091580401C0C1E0E7E392
:10549000F4E0A5E1B4E080E08C1721F091919D93B8
:1054A0008F5FFACF10921404C093130480E09091A0
:1054B0001404C91729F08FE492E00E946A10F7CF14
:1054C000CF910895FF920F931F93CF93DF938C0199
:1054D000C62FF42E8830910528F4FC01EF57FE4FBB
:1054E000D08101C0D0E08D2F0E94FA29063011052D
:1054F00044F48378F1108C6090E1C99FB0011124CD
:105500000EC00630110519F4887F8C2B09C00730B6
:10551000110531F490E1C99FB00111248F78862BD9
:10552000682F8D2FDF91CF911F910F91FF900C94D9
:10553000DF29CF93DF93D62FC0E1C80F8C2F0E94B5
:10554000FA29682FD13011F4606401C06F7B8C2F71
:10555000DF91CF910C94DF29EF92FF920F931F936D
:10556000CF93DF93062F7A019091C20321E020931D
:105570005C0490937E0410925D0410927F04682F67
:105580008FE492E00E94B310E70110E0CE018E1983
:105590009F098017910734F469918FE492E00E948B
:1055A000B310F4CF81E0DF91CF911F910F91FF9065
:1055B000EF900C948329789484B5826084BD84B57F
:1055C000816084BD85B5826085BD85B5816085BDFE
:1055D00080916E00816080936E00109281008091B6
:1055E000810082608093810080918100816080933E
:1055F0008100809180008160809380008091B10063
:1056000084608093B1008091B00081608093B0008D
:1056100080917A00846080937A0080917A00826021
:1056200080937A0080917A00816080937A008091E3
:105630007A00806880937A001092C10040E050E0C8
:10564000BA0187ED93E00E947F1D89EB97E00E94ED
:105650004B178CEA97E00E944B1781E897E00E9475
:105660004B1787ED93E00E94201E66E387ED93E0E1
:105670000E94432060EC87ED93E00E94431F87ED7A
:1056800093E00E94771CC2E0C093120460E087EDB3
:1056900093E00E94522161E08DE00E94421B60E095
:1056A00070E087ED93E00E94621D61E087ED93E07A
:1056B0000E945221E0916B02F0916C02C083E09154
:1056C0006702F09168021082E0916902F0916A022B
:1056D0008FEC808310927302E0916F02F091700260
:1056E00086E08083E0916D02F0916E02808180619E
:1056F0008083E0916D02F0916E02808188608083EA
:10570000E0916D02F0916E02808180688083E0916B
:105710006D02F0916E0280818F7D8083109214045F
:105720001092130410925D0410927F0410925B0497
:10573000C1E0C0935A041092350461E082E10E94F6
:10574000131B61E083E10E94131B8091B9008E7FDF
:105750008093B9008091B9008D7F8093B90088E46F
:105760008093B80085E48093BC0088E590E1909335
:10577000F7018093F60189E590E19093F901809318
:10578000F8018091C203C0935C0480937E04109260
:105790005D0410927F0481E00E948329882309F42C
:1057A00045C080E399EBA2E4B1E0809302019093BD
:1057B0000301A0930401B09305010E94C8088091E1
:1057C000460290914702A0914802B0914902F89494
:1057D0008093D2039093D303A093D403B093D503C3
:1057E00078940E94C8080E9410290E948D0D62E0E2
:1057F0008091FC020E94421B62E080911E030E9485
:10580000421B0E948D0D8CE00E94E8278BEA9CE0F1
:1058100090932B0380932A038BED95E090932D03B7
:1058200080932C03CCE5D0E019E0CEC180E00E944B
:10583000FA2990E0880F892F881F990B0197B1F3FF
:1058400062E187EB0E94DF2980E498E7ADE7B1E0F1
:105850008093B1039093B203A093B303B093B403C6
:105860001092B9031092BA031092BB031092BC03BA
:1058700020919D0330919E0340919F035091A0037E
:105880006091A1037091A20300E010E08091A30356
:105890009091A4030E94D1112091A5033091A603F9
:1058A0004091A7035091A8036091A9037091AA03A6
:1058B00001E010E08091AB039091AC030E94D11104
:1058C00060E880E10E94DF2960E881E10E94DF2931
:1058D00060E882E10E94DF2960E883E10E94DF291D
:1058E00060E884E10E94DF2960E885E10E94DF2909
:1058F00060E886E10E94DF2960E887E10E94DF29F5
:105900006CE080E10E94DF296CE081E10E94DF29E8
:105910006CE082E10E94DF296CE083E10E94DF29D4
:105920006CE084E10E94DF296CE085E10E94DF29C0
:105930006CE086E10E94DF296CE087E10E94DF29AC
:1059400000E010E020E030E24FE550EA62E170E074
:1059500080E090E00E94D11101E010E020E030E210
:105960004FE550EA62E170E080E090E00E94D111E2
:1059700010924E0310924D031092500310924F0359
:105980001092520310925103109254031092530339
:105990001092560310925503109258031092570319
:1059A00081E090E090935A038093590390935C03B5
:1059B00080935B0360E070E080E090E00E94241739
:1059C00060E070E081E090E00E94241760E070E009
:1059D00082E090E00E94241760E070E083E090E0B5
:1059E0000E94241760E070E084E090E00E94241799
:1059F00060E070E085E090E00E94241761E070E0D4
:105A000086E090E00E94241761E070E087E090E07B
:105A10000E94241760E082EA0E94DF2960E083EAA6
:105A20000E94DF2960E084EA0E94DF2960E281EBC6
:105A30000E94DF2960E881EB0E94DF29CDE5D3E0F9
:105A400003EC13E0E12CF12CCC24C394D12C18826C
:105A500019821A821B821C821D821E821F82289636
:105A600083E00E94FA29B6010E2C01C0660F0A9449
:105A7000EAF7682B83E00E94DF29F80111928F0179
:105A8000FFEFEF1AFF0A28E0E216F10401F789CED2
:105A90008770806480937C0080917A00806480931A
:105AA0007A0080917A0086FDFCCF80917800209169
:105AB000790090E0922B2091410330914203281706
:105AC000390751F09093420380934103BE010E9435
:105AD000CD30862F0E94E8278CEF92E00E94210BA8
