:100000000C9446040C949D0E0C94750E0C946E0486
:100010000C946E040C946E040C946E040C946E0498
:100020000C946E040C946E040C946E040C946E0488
:100030000C946E040C946E040C946E040C946E0478
:100040000C9457120C946E040C946E040C946E0471
:100050000C946E040C946E040C946E040C946E0458
:100060000C940F1E0C946E04A215B015BE15CC1581
:10007000DA15E815F615FF1508000000BE922449B0
:10008000123EABAAAA2ABECDCCCC4C3E00000080CA
:10009000BEABAAAAAA3E00000000BF000000803F3D
:1000A0000000000000084178D3BB4387D1133D19FD
:1000B0000E3CC3BD4282AD2B3E68EC8276BED98F2A
:1000C000E1A93E4C80EFFFBE01C4FF7F3F0000006E
:1000D0000000000004090701FD050008040A01F7FB
:1000E000090004040701FD000000000600012000D3
:1000F0000E151001EC450008151003EC5A000E1502
:100100001001EC7F000E151001ECA4000E1510017B
:10011000ECC9000E151001ECEE000E151001EC13E9
:10012000010E151001EC38010E151001EC5D010EE9
:10013000151001ECFFFF337EC0FFFFFFFFFFFF0341
:10014000030606060C0C0C0C181818303030306002
:100150006060C0C00FC07F83FF1FFE78FBE1EF032C
:10016000FC0FF03FC0FF03FC0FF03FC0FF03FE1F7A
:100170007879FFE3FF07F80FC00307071FFFFFFFB2
:100180000F0F0F0F0F0F0F0F0F0F0F0F0F0F0FC0CE
:10019000FFC7FF9FFEF87FC0FF03C00F003C01F0C8
:1001A0000F807C07E03E01F00F003801FFF7FFDF12
:1001B000FF7FFC0FC0FF87FF3FFEF8FBC1E0078019
:1001C0003C07E01FC07F803E007C00F003FC0FF87E
:1001D0007FFFE7FF8FFC0FC001F00FC03F01FC075E
:1001E000F03BC0EF073C18F0E3C70F1C3CE0F3FF07
:1001F000FFFFFFFFFFFC03C00F003C00F03FF8FFD4
:10020000E3FF8FFE7801C0073C1DFC7FF1FFEF8705
:10021000C01F003C00F003FC0FF87FFFE7FF0FF862
:100220000FC007C07FC3FF9FFE787DE00F003CF842
:10023000FFF3FFEF87BC0FF03FC0FF03DC1F7879AF
:10024000FFE3FF07F80FC0FFFFFFFFFFFFFF0038CE
:1002500001E00F007801E00F003C01E007801C0086
:10026000F003C00F003801E007801E000FC07F833D
:10027000FF1FFE7879C0E7039E1E3FF07F87FF1EB9
:100280001EF03FC0FF03FC0FF87DFFE7FF8FFC0F60
:10029000C00FC07F83FF1FFEF87BC0EF03FC0FF091
:1002A0003FC0FF87DFFF7FFCFEF0F3C01EF879FF41
:1002B000E7FF0FF80F803401D2002C392304E0103F
:1002C000021C07123732292D29252B390001031072
:1002D000E110031D07062E2C292D2E2E373F00007E
:1002E000021013800A298064022A040000007F2B78
:1002F000040000009F0F0180961180FFB103012CC4
:100300002DB203012C2DB306012C2D012C2DB4018F
:1003100007C003A20284C101C5C2020A00C3028A47
:100320002AC4028AEEC5010E20003601C83A010532
:1003300000000000240027002A000000000800023E
:10034000010000030407000000000000000000009E
:100350000000003E5B4F5B3E3E6B4F6B3E1C3E7CA5
:100360003E1C183C7E3C181C577D571C1C5E7F5E53
:100370001C00183C1800FFE7C3E7FF001824180012
:10038000FFE7DBE7FF30483A060E262979292640A9
:100390007F050507407F05253F5A3CE73C5A7F3ED5
:1003A0001C1C08081C1C3E7F14227F22145F5F0067
:1003B0005F5F06097F017F006689956A6060606003
:1003C0006094A2FFA29408047E040810207E2010EE
:1003D00008082A1C08081C2A08081E101010100CF7
:1003E0001E0C1E0C30383E3830060E3E0E06000045
:1003F00000000000005F00000007000700147F14E9
:100400007F14242A7F2A1223130864623649562057
:10041000500008070300001C2241000041221C007C
:100420002A1C7F1C2A08083E08080080703000083B
:1004300008080808000060600020100804023E510F
:1004400049453E00427F40007249494946214149A1
:100450004D331814127F1027454545393C4A494908
:100460003141211109073649494936464949291E72
:100470000000140000004034000000081422411461
:1004800014141414004122140802015909063E41B3
:100490005D594E7C1211127C7F494949363E4141DB
:1004A00041227F4141413E7F494949417F09090934
:1004B000013E414151737F0808087F00417F4100A0
:1004C0002040413F017F081422417F404040407F4F
:1004D000021C027F7F0408107F3E4141413E7F099C
:1004E0000909063E4151215E7F09192946264949DD
:1004F000493203017F01033F4040403F1F2040201D
:100500001F3F4038403F631408146303047804031A
:100510006159494D43007F414141020408102000C8
:100520004141417F04020102044040404040000339
:1005300007080020545478407F2844443838444405
:100540004428384444287F385454541800087E09FD
:100550000218A4A49C787F0804047800447D40001D
:100560002040403D007F1028440000417F40007C37
:10057000047804787C080404783844444438FC182F
:1005800024241818242418FC7C0804040848545413
:10059000542404043F44243C4040207C1C20402040
:1005A0001C3C4030403C44281028444C9090907CA7
:1005B0004464544C440008364100000077000000B9
:1005C0004136080002010204023C2623263C1EA1FB
:1005D000A161123A4040207A38545455592155555A
:1005E0007941225454784221555478402054557909
:1005F000400C1E527212395555555939545454599C
:1006000039555454580000457C410002457D420054
:1006100001457C407D1211127DF0282528F07C5484
:100620005545002054547C547C0A097F493249497D
:1006300049323A4444443A324A4848303A414121E6
:100640007A3A42402078009DA0A07D3D4242423D42
:100650003D4040403D3C24FF2424487E4943662BD6
:100660002FFC2F2BFF0929F620C0887E0903205478
:100670005479410000447D413048484A3238404076
:10068000227A007A0A0A727D0D19317D2629292FD6
:1006900028262929292630484D40203808080808EE
:1006A00008080808382F10C8ACBA2F102834FA00F0
:1006B000007B000008142A142222142A1408550072
:1006C000550055AA55AA55AAFF55FF55FF00000031
:1006D000FF00101010FF00141414FF001010FF0092
:1006E000FF1010F010F0141414FC001414F700FFA5
:1006F0000000FF00FF1414F404FC141417101F1062
:10070000101F101F1414141F00101010F000000010
:10071000001F101010101F10101010F0100000001B
:10072000FF101010101010101010FF10000000FF2C
:10073000140000FF00FF00001F10170000FC04F46D
:1007400014141710171414F404F40000FF00F71425
:10075000141414141414F700F714141417141010AC
:100760001F101F141414F4141010F010F000001FC8
:10077000101F0000001F14000000FC140000F01007
:10078000F01010FF10FF141414FF141010101F00AD
:10079000000000F010FFFFFFFFFFF0F0F0F0F0FFAF
:1007A000FFFF0000000000FFFF0F0F0F0F0F384486
:1007B000443844FC4A4A4A347E02020606027E025B
:1007C0007E0263554941633844443C04407E201E08
:1007D0002006027E020299A5E7A5991C2A492A1C37
:1007E0004C7201724C304A4D4D303048784830BC24
:1007F000625A463D3E494949007E0101017E2A2A4E
:100800002A2A2A44445F444440514A444040444ACE
:1008100051400000FF0103E080FF000008086B6BFF
:10082000083612362436060F090F06000018180085
:1008300000001010003040FF0101001F01011E00E8
:10084000191D1712003C3C3C3C0000000000000059
:100850000000230026002900010204081020408027
:10086000010204081020010204081020000000000A
:10087000250028002B0004040404040404040202DC
:1008800002020202030303030303AA2F11241FBE63
:10089000CFEFD8E0DEBFCDBF11E0A0E0B1E0E4E1F2
:1008A000F0E702C005900D92AA3EB107D9F723E008
:1008B000AAEEB1E001C01D92A73FB207E1F714E034
:1008C000C6E4D4E004C02197FE010E941132C53471
:1008D000D107C9F70E94322C0C9408380C94000000
:1008E000089580E090E00895682F70E06A507109E3
:1008F000072E000C880B990B0E94BE340E9476359F
:100900009B01AC0160E070E080E293E40E941B3444
:100910000E948D3480EA861B08950F931F93CF9316
:10092000DF938B010E94740480FF8F5FF8010190B8
:100930000020E9F73197E01BF10B23ED3CE9309300
:100940004F0320934E031092510310925003C82F6F
:10095000D0E025E02E9FC0012F9F900D1124969589
:1009600087959E01281B390B30934B0320934A0334
:1009700088E490E090934D0380934C03C8010E945B
:10098000742503ED1CE925E030E040E550E0BE01B0
:100990008EE393E00E94D11FDF91CF911F910F91C1
:1009A00008952F923F924F925F926F927F928F9213
:1009B0009F92AF92BF92CF92DF92EF92FF920F93EE
:1009C0001F93CF93DF93CDB7DEB760970FB6F89440
:1009D000DEBF0FBECDBF9E838D838091F6019091C7
:1009E000F7019C012B5F3F4F3A8329838091F601E9
:1009F0009091F701AC01455051095C834B836091A4
:100A0000F6017091F70178876F838EE393E00E947F
:100A1000F2222F8138858B819C81281B390B8F8195
:100A20009885A981BA818A1B9B0BC12CD12C760198
:100A3000812C912C54014AE5242E312C55E0452E71
:100A4000512C612C712CAC01990F660B770B4F83E5
:100A5000588769877A87B901330F880B990B6B87A1
:100A60007C878D879E87C501B401A30192010E94F6
:100A7000F23189819A81820F931F988B8F87C701EA
:100A8000B601A30192010E94F231AB81BC812A0F11
:100A90003B1F4F81588569857A85840E951EA61E59
:100AA000B71E6B857C858D859E85C60ED71EE81E7C
:100AB000F91E8F8598892817390734F49F8588890E
:100AC000388B2F87292F382FAF85B8892A1B3B0BEE
:100AD0002F5F3F4F0D811E81A101BD018EE393E089
:100AE0000E942B20BFEF2B1A3B0A20E6221631046E
:100AF00009F0B9CF8EE393E060960FB6F894DEBFAD
:100B00000FBECDBFDF91CF911F910F91FF90EF905E
:100B1000DF90CF90BF90AF909F908F907F906F901D
:100B20005F904F903F902F900C9452204F925F9285
:100B30006F927F928F929F92AF92BF92DF92EF92CD
:100B4000FF920F931F93CF93DF93EC01288130E046
:100B5000F901E65CFC4F8491F901E85AF74F0491E2
:100B6000F901EA58F74F14911123A1F081110E9465
:100B70003D1FE12FF0E0EE0FFF1FE25BF74FA59165
:100B8000B491EC91E02391E080E009F490E0092F2A
:100B9000182F02C000E010E08FB7F8948090FC019D
:100BA0009090FD01A090FE01B090FF018FBF89E001
:100BB000D82ED09E7001D19EF00C1124EC0EFD1E9B
:100BC000F7018189882309F4A8C082899389A489BF
:100BD000B58924013501481A590A6A0A7B0A8D81B0
:100BE0009E81A0E0B0E084159505A605B70508F044
:100BF00099C049815A8160E070E02F8138854415A1
:100C0000550566057705D0F4EF85F889309709F426
:100C100064C02017310709F060C08B85882309F470
:100C20005CC081E08C870995F701828A938AA48A47
:100C3000B58A868A978AA08EB18E35C089859A85B5
:100C40008017910709F049C0D29EC001D39E900D34
:100C500011249E01280F391FF70186899789A08DDD
:100C6000B18DF90146885788608C718C841995097B
:100C7000A609B7094B805C80612C712C4816590677
:100C80006A067B0650F584179507A607B70728F56F
:100C9000ED85FE85309709F18B858823F1F08C85F1
:100CA00081111BC009958F81988529853A85D29E2F
:100CB000F001D39EF00D1124EC0FFD1F868A978A58
:100CC000A08EB18ED89EF001D99EF00D1124EC0FAC
:100CD000FD1F868A978AA08EB18E89E0809FF001E1
:100CE000819FF00D1124EC0FFD1F42895389648907
:100CF0007589468B578B608F718F29853A85829FC6
:100D0000F001839FF00D1124EC0FFD1F81898823D2
:100D100049F081E08B871C8605C0F701828A938A9F
:100D2000A48AB58A2F81388589E0829FF001839F4C
:100D3000F00D1124EC0FFD1F81E02017310709F0A1
:100D400080E0818B29853A8549E0429FC001439F1D
:100D5000900D1124C80FD91F81E02017310709F029
:100D600080E0898BDF91CF911F910F91FF90EF90E1
:100D7000DF90BF90AF909F908F907F906F905F902B
:100D80004F9008954F925F926F927F928F929F92B1
:100D9000AF92BF92CF92DF92EF92FF920F931F9389
:100DA000CF93DF93CDB7DEB72A970FB6F894DEBFA7
:100DB0000FBECDBFB82E80910D018830C1F0E091FB
:100DC0000D0185E08E9FF0011124EB58FE4F01814B
:100DD0001281E0910D018E9FF0011124EB58FE4F1E
:100DE0002381348142E350E05E834D8308C020E3D9
:100DF00035E708EE13E084EF91E09E838D836091E8
:100E00000201709103018091040190910501690133
:100E1000E12CF12C28EE33E040E050E00E94D0318C
:100E2000201B310B41095109A0EAB0E00E94353284
:100E3000A70196010E94D03129013A018091F60163
:100E40009091F7018217930719F4BB2009F492C01F
:100E500003ED1CE92FE930E040E650E060E070E08F
:100E60008EE393E00E94470F25E030E04EE550E02E
:100E700060E070E08EE393E00E94D11F25E030E057
:100E80004EE550E06FE970E08EE393E00E94D11FE1
:100E90008D819E81880F991F9C0140E050E029833D
:100EA0003A834B835C83812C912C5401AD81BE81AC
:100EB000CD01A0E0B0E08D839E83AF83B8878C1412
:100EC0009D04AE04BF04A0F5C501B40129813A8197
:100ED0004B815C810E94D031672B682B692B29F0F4
:100EE000A2E0B0E0BA87A98704C024E030E03A87E6
:100EF0002987A0EAB0E0A50194010E943532A7013C
:100F000096010E94D031CA01B90103ED1CE929857F
:100F10003A8540E650E08EE393E00E94D11F8D8138
:100F20009E81AF81B885880E991EAA1EBB1EC7CFB1
:100F300080E090E00E94D1045092F7014092F601C7
:100F400083E794E12A960FB6F894DEBF0FBECDBFBB
:100F5000DF91CF911F910F91FF90EF90DF90CF9095
:100F6000BF90AF909F908F907F906F905F904F90C9
:100F70000C94D1042A960FB6F894DEBF0FBECDBFF5
:100F8000DF91CF911F910F91FF90EF90DF90CF9065
:100F9000BF90AF909F908F907F906F905F904F9099
:100FA0000895CF92DF92EF92FF920F931F93CF930A
:100FB000DF93CDB7DEB72D970FB6F894DEBF0FBE27
:100FC000CDBF8FE00E94651197FD0396959587959B
:100FD000959587958A3008F48AE0482F50E0209153
:100FE000120130E02B5F3F4F241735074CF0209162
:100FF000120130E025503109421753070CF009C1A6
:101000008093120103ED1CE925E030E040E550E05B
:1010100060E070E08EE393E00E94D11F82EAE82E48
:1010200080E1F82E05E010E02FE930E040E550E0E7
:1010300060E070E08EE393E00E94140F8091120153
:101040000E947404E82EF12C90ECC92E96E9D92E5A
:101050008E2D90EA9E1508F480EAF81628F584E1B2
:101060000E947404F81648F08EE10E947404F81689
:1010700048F0C12C58EED52E09C040ECC42E46E9EC
:10108000D42E04C030EEC32EDD24DA946F2D70E030
:10109000860125E030E040E550E08EE393E00E94D9
:1010A000D11FF394F394D4CF83ED9CE990934F0335
:1010B00080934E03109251031092500310924B03F1
:1010C00010924A0388E490E090934D0380934C0380
:1010D00083EA91E00E9474252091190130911A0150
:1010E0003A832983FE01339686E0DF011D928A95BB
:1010F000E9F7809112013A872987389693E0DF015A
:101100001D929A95E9F77E01B9E0EB0EF11C4AE0D9
:10111000B70190E00E949231F70101900020E9F7B9
:1011200031979F012E193F091D82CE010196DC01E6
:1011300042E050E07EE2FA01319621153105A1F03E
:101140004130510539F413967C931397415051095E
:101150001197F1CF21503109F701E20FF31F6081A0
:1011600013966C931397F2CFE80FF91F20E2AF01AB
:10117000481B590B57FD03C020833197F8CFD092FD
:101180004F03C0924E03109251031092500324E17A
:1011900030E030934B0320934A0328E4E22EF12CF5
:1011A000F0924D03E0924C030E94742567EA71E0CF
:1011B0008FE00E948D046BEA71E084E10E948D044F
:1011C0006DEA71E08EE10E948D0469EA71E082E3CC
:1011D0000E948D046FEA71E084E60E948D0403EDA5
:1011E0001CE926E030E040E550E060E070E08EE38E
:1011F00093E00E94D11F8CE890E090934B03809382
:101200004A03F0924D03E0924C0382EB91E00E947E
:1012100074252D960FB6F894DEBF0FBECDBFDF91BB
:10122000CF911F910F91FF90EF90DF90CF90089595
:10123000EF92FF920F931F93CF93DF93CDB7DEB75B
:1012400068970FB6F894DEBF0FBECDBF209119018D
:1012500030911A013E872D878AE0FE013F96DF011B
:10126000482F1D924A95E9F790910A018E01035F7C
:101270001F4F9923C1F13A8329833C97DF011D92C7
:101280008A95E9F760910B0170910C01072E000C13
:10129000880B990B2AE0AE014F5F5F4F7A010E94E5
:1012A000613166EB71E0C8010E94F637F7010190E9
:1012B0000020E9F73197EE19FF09E530F10570F4E8
:1012C000D8010D900020E9F7CD0145E050E04E1B1C
:1012D0005F0B60E270E001970E94EF37B701C80131
:1012E0000E94F63707C04AE050E060E270E0C801B3
:1012F0000E94EF378FE198EF90934F0380934E0356
:10130000109251031092500384E690E090934B03A7
:1013100080934A0380E490E090934D0380934C03C4
:10132000C8010E94742568960FB6F894DEBF0FBE00
:10133000CDBFDF91CF911F910F91FF90EF90089556
:10134000CF92DF92EF92FF920F931F93CF93DF9391
:1013500087FF0EC08091060190910701A0910801BE
:10136000B09109010297A105B10508F090C028C00D
:10137000181634F5609106017091070180910801FB
:10138000909109010E94BC3420E034E244E759E422
:101390000E94163487FF76C0209106013091070124
:1013A0004091080150910901AAE0B0E00E94353255
:1013B00060930601709307018093080190930901DF
:1013C00083EDC82E8CE9D82ED0924F03C0924E03E5
:1013D000109251031092500380E590E090934B03DC
:1013E00080934A03C8E1D0E0D0934D03C0934C03EF
:1013F0008CEB91E00E9474256091060170910701C9
:1014000080910801909109012AE047EE53E00E9483
:101410007031E12CF12C0CE010E022E330E048E1E7
:1014200050E06EE670E08EE393E00E94140FD092DD
:101430004F03C0924E0310925103109250038EE658
:1014400090E090934B0380934A03D0934D03C09355
:101450004C0387EE93E00E94742502E010E020EA3E
:1014600030E043E450E060E070E08EE393E00E94FF
:10147000140FDF91CF911F910F91FF90EF90DF90AC
:10148000CF90089561E070E080E090E091CF6091AE
:1014900006017091070180910801909109012AE0ED
:1014A00030E040E050E00E94D031209306013093BC
:1014B0000701409308015093090182CF0F931F93B6
:1014C00080911001882339F001E410E92FEF3FEFFC
:1014D00043EC51E006C000EC19E220EC36E946ECA2
:1014E00051E068E280E00E9448281F910F91089522
:1014F0003F924F925F926F927F928F929F92AF92A4
:10150000BF92CF92DF92EF92FF920F931F93CF93F0
:10151000DF93CDB7DEB7A0970FB6F894DEBF0FBE4E
:10152000CDBF2091190130911A013A8329838AE0B5
:10153000FE013396DF01982F1D929A95E9F73E87B9
:101540002D873C96DF011D928A95E9F76091020193
:101550007091030180910401909105012AE0AE0190
:101560004F5F5F4F0E9470316E01BDE0CB0ED11C0A
:10157000F6019AE08AE026012FE24EE2A1E0B0E017
:10158000AC0FBD1FA80FB11D87FDBA953C9131115D
:1015900004C0181614F48150F1CF973011F42C8B3D
:1015A0000AC0933011F4488B06C087FD03C0328710
:1015B000815001C02287915031979F3FF9F681E019
:1015C000809352038091560390915703892B49F4DD
:1015D00080914C0390914D03069690934D03809318
:1015E0004C0386EB92E090935703809356036091EF
:1015F00002017091030180910401909105010E9404
:10160000BC3420E836E948E15BE40E94163487FDEB
:1016100004C07AE0A72EB12C03C064E1A62EB12C41
:101620004AEE842E41E0942E55EF652E51E0752E42
:10163000F40121914F012E3241F02F3219F436E09E
:10164000332E05C090E1392E02C087E0382ED60136
:101650009D916D019E3231F09F3211F486E003C0FE
:1016600080E101C087E02917B9F1831541F19E019E
:10167000275E3F4F88E0F90111928A95E9F7CE0184
:101680004F966C01DE015D967D018E01055E1F4F58
:1016900048E350E06AE070E08AEE91E00E9486251F
:1016A0000F8D18A12D8D3E8D4B8D5C8D698D7A8DA2
:1016B000E12CF12C8EE393E00E94140F13C0232D34
:1016C00030E0E12CF12C06E110E043E250E0B501FE
:1016D0008EE393E00E94140FA30CB11C68147904EC
:1016E00009F0A6CF6091020170910301809104017D
:1016F000909105010E94BC3420E836E948E15BE4A2
:101700000E94163487FD03C08AE090E002C084E1A5
:1017100090E020EC36E930934F0320934E03109273
:1017200051031092500390934B0380934A0388E334
:1017300090E090934D0380934C03C2010E94742566
:10174000B2018AEE91E00E94013810925703109284
:10175000560383ED9CE990934F0380934E031092C0
:1017600051031092500310924B0310924A0388E1E8
:1017700090E090934D0380934C0389EC91E00E949C
:101780007425A0960FB6F894DEBF0FBECDBFDF91D3
:10179000CF911F910F91FF90EF90DF90CF90BF906E
:1017A000AF909F908F907F906F905F904F903F9001
:1017B00008952F923F924F925F926F927F928F92F5
:1017C0009F92AF92BF92CF92DF92EF92FF920F93D0
:1017D0001F93CF93DF93CDB7DEB7E1970FB6F894A1
:1017E000DEBF0FBECDBF8091020190910301A09199
:1017F0000401B09105018093F8019093F901A09341
:10180000FA01B093FB018091020190910301A09134
:101810000401B091050120910A01820F911DA11DC3
:10182000B11D892B8A2B8B2BD9F08091100181114E
:1018300017C060910B0170910C01072E000C880BF2
:10184000990B24E630E040E050E00E949932322EBD
:10185000432E542E652E762EB72FF82FE92F08C071
:10186000312C412C512C612C712CB0E0F0E0E0E0E7
:10187000232D342D452D562D672D7B2F8F2F9E2FF9
:10188000AFEF0E94EA332E373A41464051056105D9
:1018900071058105910551F048F039A24AA25BA279
:1018A0006CA27DA2BEA3FFA3E8A70BC080E889A31A
:1018B0008AE18AA386E08BA31CA21DA21EA21FA2FE
:1018C00018A629A13AA14BA15CA16DA17EA18FA16F
:1018D00098A52115314C4A415D436540710581054C
:1018E000910569F060F019A281EC8AA38AE18BA3CB
:1018F0008DE38CA385E08DA31EA21FA218A679A05C
:10190000AAA00BA11CA1BDA1AEA1FFA1F8A4272DE7
:101910003A2DA8016B2F7A2F8F2F9F2D2115344E32
:101920004B405445624071058105910509F008F46A
:101930000BC1E090B402F090B50284EC482E82E036
:10194000582E8BEA92E09AA789A78C01F201D12C3C
:1019500020813181428153816481758186819781A3
:1019600038962115344E4B4054456240710581052F
:10197000910561F058F0DD2049F0D80119968D915C
:101980009C911A978E159F0509F44DC1D3940E5F53
:101990001F4FB6E0DB12DCCF80912A0381110BC010
:1019A00083E00E94512B682F6E7F83E00E94362BCC
:1019B00081E080932A0329A13AA14BA15CA16DA1EA
:1019C0007EA18FA198A52093C4023093C5024093B5
:1019D000C6025093C7026093C8027093C9028093F5
:1019E000CA029093CB02FE013D964F01A12CB12C6F
:1019F000C12CD12CE12CF12C00E010E00E94301819
:101A00002BA73CA74DA75EA76FA778AB382E292E32
:101A10000091B4021091B5020E942416612C712C21
:101A2000D201EC901196FC9011971296AC901297FF
:101A300013960C91139714961C9114971596BC91BC
:101A4000F201D680C780F8E04F0E511C97014A2D55
:101A5000502F612F7B2F8D2D9C2DA0E00E94F633FF
:101A600009F455C0E9A5FAA5218532858091B40213
:101A70009091B5022817390709F049C0E98EFA8E0E
:101A8000AB8E0C8F1D8FBE8FDF8EC8A2CE01499604
:101A90000E94371A89AB298D3A8D4B8D5C8D6D8DE7
:101AA0007E8DCE0101964C01ABA4BCA4CDA4DEA4D6
:101AB000EFA4F8A8032D122D8F8D98A10E94301845
:101AC000AA24A394298D3A8D4B8D5C8D6D8D7E8DCE
:101AD0008F8D98A12F3F354D41415E476340710581
:101AE0008105910509F008F4A12CAF9289A8C9805D
:101AF000DA80EB80FC800D811E812F81388549853D
:101B00005A856B857C85C3010E9435150F90BFEF08
:101B10006B1A7B0AE9A5FAA53296FAA7E9A7F6E0BF
:101B20006F16710409F07CCF8091B4029091B502D8
:101B3000009711F460E204C0019709F074C060E8F6
:101B400081EB0E94362B6FC07092C402A092C50236
:101B50000093C6021093C702B093C802A093C902B3
:101B6000F093CA02F092CB0280912A0381110BC03C
:101B700083E00E94512B682F6E7F83E00E94362BFA
:101B800081E080932A03CE0181960E94371A782E35
:101B9000E091B402F091B50229A13AA14BA15CA158
:101BA0006DA17EA18FA198A5EF2BA1F4A0900403B5
:101BB000B0900503C0900603D0900703E09008039F
:101BC000F090090300910A0310910B03DE011D96AA
:101BD0004D0113C0A0900C03B0900D03C0900E03F4
:101BE000D0900F03E0901003F090110300911203C6
:101BF00010911303FE013D964F010E9430181F9271
:101C0000872CA12CCD84DE84EF84F88809891A8979
:101C10002B893C894D895E896F89788D80E090E0C1
:101C20000E9435150F900E94780A0E94672A80E072
:101C30000E94C206E1960FB6F894DEBF0FBECDBF7C
:101C4000DF91CF911F910F91FF90EF90DF90CF9098
:101C5000BF90AF909F908F907F906F905F904F90CC
:101C60003F902F900895DC01ED91FD918081ED91E1
:101C7000FD919081ED91FD916C9163708E2309F03F
:101C800064609F2309F06860E0E5FEE0E60FF11D67
:101C9000659565956D936D917D918D919D9109945B
:101CA00023C01AC012C016C010C01EC009C014C084
:101CB00013C006C019C009C00DC007C00DC014C0B4
:101CC00062507040804090400BC061507040804036
:101CD000904006C06E5F01C06F5F7F4F8F4F9F4F78
:101CE0009E938E937E936E9308951F920F920FB6DC
:101CF0000F9211242F933F934F935F936F937F9392
:101D00008F939F93AF93BF93EF93FF9380915F0265
:101D1000909160020E94330EFF91EF91BF91AF91BD
:101D20009F918F917F916F915F914F913F912F91F3
:101D30000F900FBE0F901F9018951F920F920FB625
:101D40000F9211242F933F934F935F936F937F9341
:101D50008F939F93AF93BF93EF93FF9380915D0217
:101D600090915E020E94330EFF91EF91BF91AF916F
:101D70009F918F917F916F915F914F913F912F91A3
:101D80000F900FBE0F901F9018953FB7F894809159
:101D9000060290910702A0910802B091090226B5AF
:101DA000A89B05C02F3F19F00196A11DB11D3FBF93
:101DB000BA2FA92F982F8827820F911DA11DB11D21
:101DC000BC01CD0142E0660F771F881F991F4A951D
:101DD000D1F70895CF92DF92EF92FF920F931F9366
:101DE000CF93DF936C017A018B01C0E0D0E0CE1578
:101DF000DF0581F0D8016D918D01D601ED91FC9147
:101E00000190F081E02DC6010995892B11F02196F2
:101E1000EECF7E01C701DF91CF911F910F91FF900F
:101E2000EF90DF90CF9008958F929F92AF92BF92E4
:101E3000CF92DF92EF92FF920F931F93CF93DF9396
:101E4000EC016B015A014901E881F9810284F385B3
:101E5000E02D0995E881F9810684F785E02D94014C
:101E6000A501B601CE010995E881F9810688F789B7
:101E7000E02DCE01DF91CF911F910F91FF90EF9058
:101E8000DF90CF90BF90AF909F908F900994AF92CA
:101E9000BF92CF92DF92EF92FF920F931F93CF9357
:101EA000DF93EC017B016A015901E881F981028429
:101EB000F385E02D0995E881F9810288F389E02D09
:101EC0009501A601B701CE010995E881F98106883F
:101ED000F789E02DCE01DF91CF911F910F91FF90F7
:101EE000EF90DF90CF90BF90AF9009941F93CF9366
:101EF000DF93EC01162FE881F9810284F385E02D50
:101F00000995112311F06BA901C06CA9CE010E94A3
:101F10002925E881F9810688F789E02DCE01DF9136
:101F2000CF911F9109941F93CF93DF93EC016370BE
:101F30006D8B29AD8AAD30E0623091F06330B9F03D
:101F4000613039F03EAB2DAB90E098AF8FAB10EC29
:101F500014C038AF2FAB90E09EAB8DAB10EA0DC034
:101F60003EAB2DAB90E098AF8FAB10E006C038AF22
:101F70002FAB90E09EAB8DAB10E6E881F981028437
:101F8000F385E02DCE01099566E3CE010E94292557
:101F9000612FCE010E942924E881F9810688F78902
:101FA000E02DCE01DF91CF911F9109948F929F92E6
:101FB000AF92BF92CF92DF92EF92FF920F931F9357
:101FC000CF93DF93EC018DA99EA94B01880E991E3A
:101FD0008FA998AD480F591FC9010197880D991D08
:101FE000A0E0B0E0A12CB12C540199248824882AC7
:101FF000992AAA2ABB2A680181E0C81AD108C40E0E
:10200000D51EC601A0E0B0E06A01E12CF12C7601FA
:10201000DD24CC24C82AD92AEA2AFB2A6AE2CE0186
:102020000E94292529A16B2D77278827992727FF2B
:1020300018C06EBD0DB407FEFDCFC501AA27BB2792
:102040008EBD0DB407FEFDCFBB27AB2D9A2D892D7C
:102050008EBD0DB407FEFDCF8EBC0DB407FEFDCFC7
:1020600014C0CE010E942924B50188279927CE01EA
:102070000E94292499278B2D7A2D692DCE010E944B
:102080002924682DCE010E9429246BE2CE010E94F2
:10209000292529A16F2D77278827992727FF18C081
:1020A0006EBD0DB407FEFDCFC701AA27BB278EBDAD
:1020B0000DB407FEFDCFBB27AF2D9E2D8D2D8EBD00
:1020C0000DB407FEFDCFCEBC0DB407FEFDCF14C08E
:1020D000CE010E942924B70188279927CE010E94AA
:1020E000292499278F2D7E2D6D2DCE010E94292424
:1020F0006C2DCE010E9429246CE2CE01DF91CF919C
:102100001F910F91FF90EF90DF90CF90BF90AF9015
:102110009F908F900C9429251F93CF93DF93EC0110
:1021200063706D8B8BAD623009F443C0633009F48A
:1021300061C099AD4AAD6130F1F0823069F0843010
:1021400009F091C020EA30E03B872A8720E530E0A3
:102150003987288710EC09C010EC20EA30E03B8773
:102160002A8720E830E039872887892F90E09EABC6
:102170008DAB842F3BC0823069F0843009F07FC082
:1021800020EA30E03987288720E530E03B872A873E
:1021900010EA09C010EA20EA30E03987288720E8F1
:1021A00030E03B872A87892F90E098AF8FAB842F50
:1021B0003EC0823069F0843009F06DC080EA90E062
:1021C0009B878A8780E590E09987888710E009C01F
:1021D00010E080EA90E09B878A8780E890E099870A
:1021E000888789AD90E09EAB8DAB8AAD90E098AFCB
:1021F0008FAB20C0823069F0843009F058C080EA8B
:1022000090E09987888780E590E09B878A8710E631
:1022100009C010E680EA90E09987888780E890E01E
:102220009B878A8789AD90E098AF8FAB8AAD90E0AD
:102230009EAB8DABE881F9810284F385E02DCE0160
:10224000099566E3CE010E942925612FCE010E94E7
:102250002924E881F9810688F789E02DCE01DF91F4
:10226000CF911F910994813041F420E830E03B8701
:102270002A873987288718EC78CF18EC6ECF813001
:1022800041F420E830E0398728873B872A8718EA1D
:102290008ACF18EA80CF813041F480E890E09B87B4
:1022A0008A879987888718E09CCF18E092CF813081
:1022B00041F480E890E0998788879B878A8718E6B1
:1022C000B1CF18E6A7CF0E94EA378E3008F08E50C3
:1022D0008770806480937C0080917A008064809312
:1022E0007A0080917A0086FDFCCF80917800209161
:1022F000790090E0922B08958F929F92AF92BF92B7
:10230000CF92DF92EF92FF926B017C010E94C50E8B
:102310004B015C01C114D104E104F104F1F00E940D
:10232000C50EDC01CB0188199909AA09BB09883EB1
:102330009340A105B10570F321E0C21AD108E1086C
:10234000F10888EE880E83E0981EA11CB11CC11410
:10235000D104E104F10419F7DDCFFF90EF90DF9095
:10236000CF90BF90AF909F908F9008951F93CF9381
:10237000DF93EC01411551056105710521F440E041
:1023800054E264EF70E04A8F5B8F6C8F7D8F81E247
:102390008BAB80E28CAB8E8D87FD07C061E00E9425
:1023A000951F61E08E8D0E94661F61E08F8D0E94F7
:1023B000951F60E08F8D0E94661F89A187FD19C05F
:1023C00061E08AA10E94951F60E08AA10E94661FB9
:1023D00061E089A10E94951F61E089A10E94661FAA
:1023E0008BA187FD03C060E00E94951F89A187FF34
:1023F00033C01FB7F89480910002811127C0E0E834
:10240000F8E08491E2E6F8E09491E82FF0E0EE0F36
:10241000FF1FE05DFC4FA591B491EC91E92321F4FD
:1024200061E08AE00E94661F61E08AE00E94951FD9
:102430008CB580618CBD8CB580648CBD61E08DE015
:102440000E94951F61E08BE00E94951F8091000221
:102450008F5F809300021FBF88A187FD24C061E0C9
:102460000E94951F61E088A10E94661F64E670E0EB
:1024700080E090E00E947C1160E088A10E94661FCD
:1024800064E670E080E090E00E947C1161E088A149
:102490000E94661F68EC70E080E090E0DF91CF91D1
:1024A0001F910C947C11DF91CF911F9108951F9281
:1024B0000F920FB60F9211242F933F938F939F93F8
:1024C000AF93BF938091FC019091FD01A091FE011B
:1024D000B091FF013091050223E0230F2D3720F446
:1024E0000196A11DB11D05C026E8230F0296A11D6E
:1024F000B11D209305028093FC019093FD01A093F0
:10250000FE01B093FF018091060290910702A09115
:102510000802B09109020196A11DB11D8093060227
:1025200090930702A0930802B0930902BF91AF9164
:102530009F918F913F912F910F900FBE0F901F9001
:1025400018952F923F924F925F926F927F928F9247
:102550009F92AF92BF92CF92DF92EF92FF920F9332
:102560001F93CF93DF93CDB7DEB7A4970FB6F89440
:10257000DEBF0FBECDBF380149014C8F5E872B01F6
:10258000FF8AEE8A892B29F4E0911403F091150358
:1025900004C0E0911603F0911703FF27EE0FFF1F11
:1025A000EE0FFF1FE85EFC4F608171818281938195
:1025B00024E630E040E050E00E94A832322E232E84
:1025C0004D835E836F83788789879A87860175013B
:1025D000110FEE08FE2C87019501A6016E2D7E2DB0
:1025E0008E2D9E2D0FE10E94AA33A12CEAECBE2E67
:1025F000FAE9CF2EABE3DA2EE12CF12C00E010E06B
:102600000E94D532A32CB22CCD80DE80EF80F884DE
:1026100009851A850E9440320FE10E94C533590195
:102620006A01D601C501BB0F880B982FDC01898395
:102630009A83AB83BC839501A6016981762F862F8F
:10264000962FA32CB22CCD80DE80EF80F8840985F4
:102650001A850E94E133322E232E49835D836E83D7
:102660007F83888799879301A4016C8D7E85C20141
:102670002F3FA7E53A07A7E44A07A8EF5A07ADE0BE
:102680006A07710581059105A9F0A0F02115344074
:102690004B46544F6441710581059105B9F0B0F086
:1026A000612C04E0702E8BE6882E94EF992EF4E1D5
:1026B000FC8F09C0612C28E5722E37E4832E48EF89
:1026C000942EEDE0EC8F1E86412C512CA32CB22CC5
:1026D000C980DD80EE80FF80088519859301A40103
:1026E0006C8D7E85C2010E940633288F398F4A8FF8
:1026F0005B8F2A873B874C875D878A859B85AC8566
:10270000BD850F97A105B10518F41FE0A12E0BC0E0
:102710008A859B85AC85BD858B359105A105B10565
:10272000C0F0BAE5AB2EB12CC12CD12CE12CF12C90
:1027300000E010E0232D322D49815D816E817F8183
:10274000888599850E94403239014A016C8F7E87C5
:102750002C01A32CB22CC980DD80EE80FF8008857F
:1027600019859301A4016C8D7E85C2010E940433FA
:10277000E0E4AE2EF2E4BF2EAFE0CA2ED12CE12C65
:10278000F12C00E010E00E944032A32CB22CC98052
:10279000DD80EE80FF80088519850E940633C9011F
:1027A000DA010097A105B10529F4412C512C320121
:1027B000439407C060E4462E62E4562E6FE0662E16
:1027C000712C5C016D0187E0AA0CBB1CCC1CDD1CCC
:1027D0008A95D1F7AC8EBD8ECE8EDF8EA32CB22C17
:1027E000C980DD80EE80FF800885198560E070E09B
:1027F00080E090E00E94403263015201E12CF12C14
:1028000087014E86BF86C88AD98AEA8AFB8A0C8BE2
:102810001D8BE12CF12C00E010E00E9406332E8786
:1028200038A349A35AA34B018CA39BA3CA84DB847E
:10283000EC84FD8497E0CC0CDD1CEE1CFF1C9A950B
:10284000D1F702E0D01AE108F1086C8D7D8D8E8DF4
:102850009F8DA30192010E94D03189019A010C0D34
:102860001D1D2E1D3F1DAE89BF890D931D932D93F8
:102870003C931397FD016483758386839783189631
:102880004D925D926D927C921B97A32CB22CC980C5
:10289000DD80EE80FF8008851985288D398D4A8D71
:1028A0005B8D60E070E080E090E00E944032AE849A
:1028B000B8A0C9A0DAA074010CA11BA10E94E13349
:1028C000A4960FB6F894DEBF0FBECDBFDF91CF91B7
:1028D0001F910F91FF90EF90DF90CF90BF90AF903E
:1028E0009F908F907F906F905F904F903F902F9030
:1028F000089585ED8093BC008091BC0084FDFCCFE1
:102900001092C203089540912E02262F30E0240F2A
:10291000311D21323105DCF42091C2032430C9F489
:10292000FC0180E090E0861758F430912E0221914E
:10293000DC01A25FBD4FA30FB11D2C930196F3CF15
:1029400080912E02680F60932E0280E0089581E04E
:10295000089582E00895089508950895E0917B0315
:1029600080917A03E81730F4F0E0E458FC4F80815E
:1029700090E008958FEF9FEF089590917B038091F1
:102980007A03981750F4E92FF0E0E458FC4F2081C7
:1029900030E09F5F90937B0302C02FEF3FEFC901B0
:1029A000089580917A0390E020917B03821B910926
:1029B0000895CF92DF92EF92FF920F931F93CF93E0
:1029C000DF937C01CB018A012091C303222389F08C
:1029D000EB016B01C40ED51ECC15DD0569F06991C4
:1029E000D701ED91FC910190F081E02DC70109958F
:1029F000F3CF642F0E948314C801DF91CF911F9100
:102A00000F91FF90EF90DF90CF900895CF93DF93D9
:102A10001F92CDB7DEB769832091C3032223D1F083
:102A20002091E603203240F021E030E0FC013383C6
:102A3000228380E090E015C08091C403E82FF0E08D
:102A4000EB53FC4F998190838F5F8093C4038093F5
:102A5000E60305C061E0CE0101960E94831481E087
:102A600090E00F90DF91CF9108952F923F924F9277
:102A70005F926F927F928F929F92AF92BF92CF920E
:102A8000DF92EF92FF920F931F93CF93DF93CDB717
:102A9000DEB72D970FB6F894DEBF0FBECDBF3C0159
:102AA000C982DA82EB82FC820D831E832F833887F2
:102AB00049875A876B877C87BAA09C2C2D2C4E2C7B
:102AC000302E1D87522EC984DA84EB84FC8484E185
:102AD00090E00E94C9368C01C301992706973CF506
:102AE000F801D082C182862D880F880F880F845DFF
:102AF0000E94512B942D93708C7F892BF801828337
:102B000023829482D701C6012CE0B695A7959795AC
:102B100087952A95D1F7807F952D9F70C92EC80E75
:102B2000C5828D858683932C378268E001C060E082
:102B3000E8E06E16710408F06CC0F301EC5CFF4F26
:102B40000C941132A8018AE20E94032C6A2D80E0C5
:102B500090E00E94F02B4B2D682D80E090E057C054
:102B6000A80182E30E94032C6A2D81E090E00E947C
:102B7000F02B4B2D682D81E090E049C0A8018AE33D
:102B80000E94032C6A2D82E090E00E94F02B4B2DD6
:102B9000682D82E090E03BC0A80182E40E94032CF3
:102BA0006A2D83E090E00E94F02B4B2D682D83E08E
:102BB00090E02DC0A8018AE40E94032C6A2D84E0D5
:102BC00090E00E94F02B4B2D682D84E090E01FC018
:102BD000A80182E50E94032C6A2D85E090E00E9406
:102BE000F02B4B2D682D85E090E011C0692D8AE512
:102BF0000E94362B4B2D682D86E090E008C0692D91
:102C00008BE50E94362B4B2D682D87E090E00E94CB
:102C1000B92BC8012D960FB6F894DEBF0FBECDBFFD
:102C2000DF91CF911F910F91FF90EF90DF90CF90A8
:102C3000BF90AF909F908F907F906F905F904F90DC
:102C40003F902F900C9461372F923F924F925F925A
:102C50006F927F928F929F92AF92BF92CF92DF92AC
:102C6000EF92FF920F931F93CF93DF93CDB7DEB711
:102C70002E970FB6F894DEBF0FBECDBF19013A01F3
:102C80004B018D879E872801012BC9F4E091140325
:102C9000F0911503EE0FFF1FEE0FFF1FE05EFC4FDC
:102CA000A080B180C280D380CE0101967C018901D1
:102CB0009301AB016D857E8580E090E018C0E091C6
:102CC0001603F0911703EE0FFF1FEE0FFF1FE05EDC
:102CD000FC4FA080B180C280D380FE0131967F017D
:102CE00081019A01AB016D857E8581E090E00E94B3
:102CF000A11284E190E00E94C9368C0189859A85F1
:102D0000AB85BC85F8019083818339814A812B8111
:102D100023702283438334832CE0B695A79597953F
:102D200087952A95D1F7807F2D813E819F819F7065
:102D3000890F85833683278341145104C1F4A80188
:102D400068E08AE10E94032C20920403309205037C
:102D50006092060370920703809208039092090321
:102D6000FD85F0930A038E8580930B031AC04A9465
:102D70004528B9F4A80168E082E20E94032C209261
:102D80000C0330920D0360920E0370920F03809239
:102D9000100390921103ED85E0931203FE85F093EA
:102DA0001303C8012E960FB6F894DEBF0FBECDBF39
:102DB000DF91CF911F910F91FF90EF90DF90CF9017
:102DC000BF90AF909F908F907F906F905F904F904B
:102DD0003F902F900C946137DF92EF92FF920F9308
:102DE0001F93CF93DF93FC01E080F1800281138178
:102DF000D481C581B681D7809701A8016D2F7C2F22
:102E00008B2F9D2D285938424C4151096109710978
:102E100081099109273938424C41510561057105F5
:102E20008105910509F098F49701A8016D2F7C2F79
:102E30008B2F9D2D07E00E94AA332083318342838C
:102E40005383648375838683978387E001C19701E9
:102E5000A8016D2F7C2F8B2F9D2D2053314548438A
:102E6000510961097109810991092F32314548439E
:102E70005105610571058105910509F098F49701E7
:102E8000A8016D2F7C2F8B2F9D2D06E00E94AA3369
:102E9000208331834283538364837583868397833E
:102EA00086E0D6C09701A8016D2F7C2F8B2F9D2D1A
:102EB0002056324A40475109610971098109910937
:102EC0002F35324A4047510561057105810591054D
:102ED00009F098F49701A8016D2F7C2F8B2F9D2D61
:102EE00005E00E94AA3320833183428353836483A5
:102EF00075838683978385E0ABC09701A8016D2F0A
:102F00007C2F8B2F9D2D205C3444414E510961094B
:102F10007109810991092F3B3444414E51056105E6
:102F200071058105910509F098F49701A8016D2FAD
:102F30007C2F8B2F9D2D04E00E94AA3320833183A8
:102F400042835383648375838683978384E080C040
:102F50009701A8016D2F7C2F8B2F9D2D205839486C
:102F6000424C514061097109810991092F37394853
:102F7000424C5140610571058105910509F098F4B5
:102F80009701A8016D2F7C2F8B2F9D2D03E00E94B0
:102F9000AA3320833183428353836483758386837A
:102FA000978383E055C09701A8016D2F7C2F8B2F4D
:102FB0009D2D33514548534061097109810991099B
:102FC0002F3F324145485340610571058105910508
:102FD00009F098F49701A8016D2F7C2F8B2F9D2D60
:102FE00002E00E94AA3320833183428353836483A7
:102FF00075838683978382E02BC09701A8016D2F8C
:103000007C2F8B2F9D2D36524A4057406109710904
:10301000810991092F3F35424A40574061057105AA
:103020008105910509F098F49701A8016D2F7C2F77
:103030008B2F9D2D01E00E94AA3320833183428390
:103040005383648375838683978381E001C080E026
:10305000DF91CF911F910F91FF90EF90DF90089536
:103060002F923F924F925F926F927F928F929F9298
:10307000AF92BF92CF92DF92EF92FF920F931F9386
:10308000CF93DF93CDB7DEB768970FB6F894DEBF66
:103090000FBECDBF290149875A873B011C01A98278
:1030A000B98ACA8ADB8AEC8AFD8A0E8B1F8B988AC2
:1030B0008F86211501EC30070AE140070DE3500728
:1030C00005E0600771058105910509F0C8F42F3707
:1030D00010EF31071AEF410712E051076105710542
:1030E0008105910509F008F43BC12F3F354D414161
:1030F0005E47634071058105910509F068F40AC1D6
:10310000412CF1EC5F2EFAE1F9870DE30A87A5E087
:103110006A2E712C212C312C298139894A895B89AD
:103120006C897D898E899F89A0E00E94F63309F021
:1031300077C09924939414E0E12EF12C00E010E084
:10314000EB86FC860D871E87EB84FC840D851E852F
:10315000A801970160E070E0CB015201C984DA84D4
:103160007301810129833A834B835C836D837E8362
:103170008F83988760E070E080E090E00E944032AA
:103180002983398B4A8B5B8B6C8B7D8B8E8B9F8BD2
:10319000FF24F3949F1409F409C110E0812C912CB1
:1031A0005401839440E050E0BA0101C011E0CB012A
:1031B000BA01B7E0660F771F881F991FBA95D1F73C
:1031C000CB84DC84ED84FE8407E0CC0CDD1CEE1C9B
:1031D000FF1C0A95D1F7A2E0DA1AE108F108A5016F
:1031E00094010E94D031C20ED31EE41EF51EEF855D
:1031F000F889C082D182E282F382648375838683F8
:10320000978380869186A286B386111103C1298196
:1032100039894A895B896C897D898E899F890EC12C
:1032200011E0188F5201C984DA8473018101298168
:1032300039894A895B896C897D898E899F890E9439
:1032400006332B873C874D875E878B859C85AD85B4
:10325000BE850697A105B10520F406E0A02EB12C8D
:103260000FC0EB84FC840D851E8529E0E21627E063
:10327000F20601051105C8F0B8E0AB2E17E0B12E3B
:10328000C12CD12CE12CF12C00E010E029813989EE
:103290004A895B896C897D898E899F890E94063362
:1032A000290149875A873B011C015201C984DA84EC
:1032B00073018101298139894A895B896C897D89FA
:1032C0008E899F890E940433E0E4AE2EF2E4BF2E83
:1032D000AFE0CA2ED12CE12CF12C00E010E00E94CE
:1032E00040325201C984DA84730181010E9406339D
:1032F000A32FF42FE52F422F5A2F6F2F7E2F41152A
:1033000051056105710509F068C0812C912C5401AB
:1033100083946AC0298139894A895B896C897D894E
:103320008E899F89A0E00E94F633F1F55201C9848D
:10333000DA847301810120E034E04BE654EF64E16C
:1033400070E080E090E00E940633122FB32FF42F3C
:10335000E52FA7E00E94F63301F516E0B0E01BC0B0
:10336000298139894A895B896C897D898E899F8900
:10337000A0E00E94F63309F053C020E8422E30EF5F
:10338000532EBAEFB987E2E0EA87612C712C212C29
:10339000312C18E0B7E0F0E0E0E0CF011B87BC87FC
:1033A0009D87EE87912CD0CE188E3CCFAF85B88903
:1033B0001D921D921D921C921397FD01148215827D
:1033C00016821782C12CD12C7601C3941896CD9207
:1033D000DD92ED92FC921B9731C020E4822E22E414
:1033E000922E2FE0A22EB12CF88DF13009F0DECE16
:1033F000EF85F8891082118212821382148215825D
:103400001682178281E090E0A0E0B0E0808791878B
:10341000A287B387920149855A85B301C1010EC0C5
:10342000188E80E8482E90EF592E0AEF098712E097
:103430001A87612C712C212C312CF4CE68960FB692
:10344000F894DEBF0FBECDBFDF91CF911F910F91DA
:10345000FF90EF90DF90CF90BF90AF909F908F90B4
:103460007F906F905F904F903F902F900895DF92E4
:10347000EF92FF920F931F93CF93DF93FC01E080B5
:10348000F18002811381D481C581B681D7809701F3
:10349000A8016D2F7C2F8B2F9D2D20583A4146403F
:1034A000510961097109810991092F373A41464053
:1034B0005105610571058105910509F098F49701A1
:1034C000A8016D2F7C2F8B2F9D2D07E00E94AA3322
:1034D00020833183428353836483758386839783F8
:1034E00087E0FDC09701A8016D2F7C2F8B2F9D2DAC
:1034F00035534C40510961097109810991092F3FE8
:1035000034434C405105610571058105910509F071
:1035100098F49701A8016D2F7C2F8B2F9D2D06E02D
:103520000E94AA332083318342835383648375834B
:103530008683978386E0D3C09701A8016D2F7C2FE7
:103540008B2F9D2D3A564841510961097109810916
:1035500091092F3F394648415105610571058105A3
:10356000910509F098F49701A8016D2F7C2F8B2FFE
:103570009D2D05E00E94AA3320833183428353832B
:10358000648375838683978385E0A9C09701A8012A
:103590006D2F7C2F8B2F9D2D345D40435109610988
:1035A0007109810991092F3F334D40435105610550
:1035B00071058105910509F098F49701A8016D2F17
:1035C0007C2F8B2F9D2D04E00E94AA332083318312
:1035D00042835383648375838683978384E07FC0AB
:1035E0009701A8016D2F7C2F8B2F9D2D385A4146B6
:1035F000510961097109810991092F3F374A4146F3
:103600005105610571058105910509F098F497014F
:10361000A8016D2F7C2F8B2F9D2D03E00E94AA33D4
:1036200020833183428353836483758386839783A6
:1036300083E055C09701A8016D2F7C2F8B2F9D2D06
:103640003055434C510961097109810991092F3F96
:103650003F44434C5105610571058105910509F011
:1036600098F49701A8016D2F7C2F8B2F9D2D02E0E0
:103670000E94AA33208331834283538364837583FA
:103680008683978382E02BC09701A8016D2F7C2F42
:103690008B2F9D2D305A464851406109710981098F
:1036A00091092F3F3F494648514061057105810509
:1036B000910509F098F49701A8016D2F7C2F8B2FAD
:1036C0009D2D01E00E94AA332083318342835383DE
:1036D000648375838683978381E001C080E0DF91F6
:1036E000CF911F910F91FF90EF90DF900895FF927F
:1036F0000F931F93CF93DF93EC018B01F82E80E1A2
:10370000F80E8F2D0E94512B0115110511F48F7D9C
:1037100004C00130110509F48062682F8F2D0E94CA
:10372000362BDD27CC0FDD1FC555DD4F1A870987E6
:10373000DF91CF911F910F91FF900895CF92DF926B
:10374000EF92FF920F931F93CF93DF93EC0121969B
:10375000FC01F490FF2009F43FC08EE393E00E9447
:10376000F222FE0164918EE393E00E9429256E010E
:10377000F2E0CF0ED11CFE013196C4918C2F8078DF
:10378000E82ECF778601DC2FD15048F0F801649104
:103790008EE393E00E9429240F5F1F4FF5CFC601EF
:1037A0008C0F911DEC018EE393E00E945220E110FA
:1037B00002C0FA94CFCF8E010F5F1F4FFE016491BC
:1037C00070E06F3F710511F464EF71E080E090E00C
:1037D0000E947C11E801EDCFDF91CF911F910F91F5
:1037E000FF90EF90DF90CF9008952F923F924F92ED
:1037F0005F926F927F928F929F92AF92BF92CF9281
:10380000DF92EF92FF920F931F93CF93DF93CDB789
:10381000DEB76B970FB6F894DEBF0FBECDBF9B8FA0
:103820008A8F5B011A01D22E1F830E833701C98252
:10383000DC0158962D913C9159972115310509F0DD
:10384000E6C018968D919C911997681779070CF02E
:10385000CDC11A968D919C911B97481759070CF072
:10386000C5C18C2C912CFB0126E0C29EE00DF11D00
:103870001124FB87EA871E161F060CF0B7C1A401AE
:1038800083E0440F551F8A95E1F75D874C87CA0195
:10389000820D931D181619060CF0A8C157968C912D
:1038A000811104C05FEA5D1508F4D394AA8DBB8D25
:1038B000ED91FC9111970284F385E02DCD010995DE
:1038C000B5E0DB9EC0011124F5013596FF87EE8738
:1038D000BB82AA8225019C012A193B09398B288BBE
:1038E000A101485F5F4F5B8B4A8BE889F989E40D42
:1038F000F51DE25BFC4F5491588761013D822C829B
:10390000888580FF13C0AA8DBB8DED91FC91B98194
:10391000B13031F40484F585E02D2E813F8116C04D
:103920000684F785E02DEE80FF801AC0EE81FF81CE
:10393000E615F705F1F0AA8DBB8DED91FC91B981EB
:10394000B13051F40484F585E02D9301A601B20154
:103950008A8D9B8D09950DC00684F785E02D730136
:10396000840194014C815D816A817B818A8D9B8D6C
:103970000995E885E695E887FFEFCF1ADF0A2C81E5
:103980003D81280D391D3D832C834A895B89C416EE
:10399000D50609F0B5CF5FEF451A550A8A819B819C
:1039A000880D991D9B838A83AE85BF854A165B0669
:1039B00009F09BCFEE81FF81E615F70509F4F4C00D
:1039C000EA8DFB8DA081B181F981F13079F4B501E7
:1039D0006B5F7F4F5096ED91FC915197830128E0EA
:1039E00030E0A1018A8D9B8D0995DEC06A857B85BB
:1039F000681979091E96ED91FC911F9773010C854A
:103A00001D859401A1018A8D9B8D0995CDC0F90179
:103A10003496E491DE1AF901329685919491B7E0DB
:103A2000DB9E800D911D1124F901259134913B8B72
:103A30002A8BFC01259134912901FC013296C49016
:103A4000319634913E87329614913196D4904981C3
:103A5000423058F0612E012E000C77088D2D0D2C70
:103A6000000C990B9987888704C019861886612CE9
:103A7000712CAA8DBB8DED91FC9111970284F38579
:103A8000E02DCD010995B9818B2E912C689CC00148
:103A9000699C900D789C900D1124FC01EA0DFB1D92
:103AA000FD87EC871A82712C612CE12F110FFF0B1F
:103AB00095012E0F3F1F3B872A87AC0CB11CA50137
:103AC0004E0F5F1F5F8B4E8BC1018D0D911DD7FC7B
:103AD0009A95998F888F9E85691608F065C0862D06
:103AE00090E048855985480F591F489D9001499D90
:103AF000300D589D300D1124D101A20FB31FB98B89
:103B0000A88BEC85FD85FD83EC83AA84BB84DA80D9
:103B1000FA85DF1A288D398D280F391F3D8B2C8BA4
:103B20008D2D8A0D4E895F89A416B506C1F1877067
:103B300041F4C2010196EA89FB89E40DF51D7490F8
:103B40002C0177FE21C0AA8DBB8DED91FC91B9812E
:103B5000B13061F40484F585E02D2E813F814C89DC
:103B60005D89B5018A8D9B8D09950EC00684F78508
:103B7000E02DEE80FF8084019401488959896C8191
:103B80007D818A8D9B8D0995770CEFEFAE1ABE0A69
:103B90002C813D81280D391D3D832C83C1CF3A8175
:103BA0003C0D3A83639497CFAA8DBB8DED91FC9128
:103BB00011970688F789E02DCD016B960FB6F89422
:103BC000DEBF0FBECDBFDF91CF911F910F91FF9050
:103BD000EF90DF90CF90BF90AF909F908F907F90AD
:103BE0006F905F904F903F902F9009946B960FB617
:103BF000F894DEBF0FBECDBFDF91CF911F910F9123
:103C0000FF90EF90DF90CF90BF90AF909F908F90FC
:103C10007F906F905F904F903F902F9008951F92EC
:103C20000F920FB60F9211242F933F934F935F93F0
:103C30006F937F938F939F93AF93BF93EF93FF9374
:103C40008091B900887F803609F49CC068F588327D
:103C500009F45BC090F4803109F454C038F488232F
:103C600009F4F6C0883009F44DC0F6C0883109F473
:103C70004CC0803209F45DC0EFC0803409F468C0E4
:103C800048F4803309F455C0883309F0E5C08093C7
:103C9000C003D8C0803509F44FC0883509F45DC031
:103CA000883409F0D9C0D6C0883909F4C7C0A8F44F
:103CB000883709F467C038F4883609F463C0803760
:103CC00009F460C0C9C0883809F4B8C0803909F463
:103CD0005FC0803809F0C0C05BC0803B09F486C07B
:103CE00038F4803A09F466C0883A09F47FC0B4C059
:103CF000803C09F4A7C0883C09F4A4C0883B09F4BF
:103D00008AC0AAC080919D0310C09091BF0380918A
:103D1000BE03981770F5E091BF0381E08E0F80938A
:103D2000BF03F0E0E256FC4F80818093BB0085EC3E
:103D300086C08093C0038EC0E091BF0381E08E0FE8
:103D40008093BF038091BB00F0E0E256FC4F80837C
:103D50009091BF038091BE036EC0E091BF0381E0EC
:103D60008E0F8093BF038091BB00F0E0E256FC4FC2
:103D700080838091C10381116DC081E080939C0399
:103D800084EA61C083E08093C20310925002CFCFD7
:103D900080915002803208F051C0E091500281E0E1
:103DA0008E0F809350028091BB00F0E0E05DFD4FEC
:103DB0008083BDCF85EC8093BC001092C2038091BC
:103DC0005002803230F4E0915002F0E0E05DFD4FAF
:103DD00010826091500270E0E0910C02F0910D02AF
:103DE00080E392E009951092500236C084E08093FF
:103DF000C20310922F0210922E02E0910A02F0915B
:103E00000B02099580912E02811105C081E08093FB
:103E10002E0210920E02E0912F0281E08E0F80930D
:103E20002F02F0E0E25FFD4F80818093BB00909114
:103E30002F0280912E02981708F479CF85E880939D
:103E4000BC000AC085EC8093BC001092C20304C081
:103E50001092C0030E947914FF91EF91BF91AF912E
:103E60009F918F917F916F915F914F913F912F9192
:103E70000F900FBE0F901F901895833081F028F49B
:103E8000813099F08230A1F008958730A9F0883010
:103E9000B9F08430D1F4809180008F7D03C080918F
:103EA00080008F7780938000089584B58F7702C05B
:103EB00084B58F7D84BD08958091B0008F7703C055
:103EC0008091B0008F7D8093B00008951F93CF93B1
:103ED000DF93282F30E0F901E65CFC4F8491F90173
:103EE000E85AF74FD491F901EA58F74FC491CC231F
:103EF000C1F0162F81110E943D1FEC2FF0E0EE0F54
:103F0000FF1FE459F74FA591B4919FB7F894111191
:103F100004C08C91D095D82302C0EC91DE2BDC93A9
:103F20009FBFDF91CF911F910895CF93DF9390E0D2
:103F3000FC01E85AF74F2491FC01EA58F74F8491AD
:103F4000882361F190E0880F991FFC01E05DFC4F30
:103F5000C591D491FC01E459F74FA591B491611139
:103F600009C09FB7F8948881209582238883EC91BB
:103F70002E230BC0623061F49FB7F8948881322FF2
:103F8000309583238883EC912E2B2C939FBF06C002
:103F90008FB7F894E8812E2B28838FBFDF91CF91C4
:103FA0000895AF92BF92CF92DF92EF92FF920F935C
:103FB0001F93CF93DF93EC017B016A015901E881E4
:103FC000F9810284F385E02D0995E881F981008863
:103FD000F189E02D9501A601B701CE010995E8818F
:103FE000F9810688F789E02DCE01DF91CF911F91ED
:103FF0000F91FF90EF90DF90CF90BF90AF9009941A
:10400000CF92DF92EF92FF920F931F93CF93DF93A4
:10401000EC018B017A016901E881F9810284F38561
:10402000E02D0995E881F9810484F585E02D96015C
:10403000A701B801CE010995E881F9810688F789C1
:10404000E02DCE01DF91CF911F910F91FF90EF9066
:10405000DF90CF900994EF92FF920F931F93DC01B2
:10406000ED91FC910684F785E02D780101E010E0E8
:1040700009951F910F91FF90EF900895EF92FF9295
:104080000F931F93DC01ED91FC910684F785E02DE1
:104090007801890121E030E009951F910F91FF908F
:1040A000EF900895FC0191A904A4F5A5E02D80816D
:1040B000892B808308950895FC016370658B84814A
:1040C000958126813781613039F0633029F09187FD
:1040D0008087338722870895318720879387828757
:1040E00008956F927F928F929F92AF92BF92CF92DC
:1040F000DF92EF92FF920F931F93CF93DF93EC0128
:104100004B015A0169013801E881F9810284F38584
:10411000E02D0995E881F9810288F389E02D870176
:104120009601A501B401CE010995A501460D571DC3
:1041300041505109E881F9810288F389E02D960107
:10414000B401CE010995E881F9810088F189E02D5B
:104150009301A501B401CE010995C80CD91CB60183
:1041600061507109E881F9810088F189E02D93019E
:10417000A501CE010995E881F9810688F789E02D2E
:10418000CE01DF91CF911F910F91FF90EF90DF90C3
:10419000CF90BF90AF909F908F907F906F90099439
:1041A0008F929F92AF92BF92CF92DF92EF92FF9247
:1041B0000F931F93CF93DF934C016B015A01E901D9
:1041C000DC01ED91FC916217730781F40417150768
:1041D00024F48B2D5801042F182F0A191B0998015C
:1041E0002F5F3F4F048CF58DE02D12C04017510713
:1041F00009F52617370724F48D2D6901C62FD82F0E
:104200009E012C193D092F5F3F4F068CF78DE02D45
:104210008701A501B601C4010995DF91CF911F91D6
:104220000F91FF90EF90DF90CF90BF90AF909F9055
:104230008F9008950284F385E02D0995D401ED91C6
:10424000FC910488F589E02D9E01A501B601C40109
:104250000995D401ED91FC910688F789E02DC40100
:10426000DF91CF911F910F91FF90EF90DF90CF9052
:10427000BF90AF909F908F900994EF92FF920F9311
:104280001F93DC011A960D911C911B9718962D9186
:104290003C911997ED91FC9100A0F1A1E02D7B01DB
:1042A00040E050E060E070E009951F910F91FF90B1
:1042B000EF9008954F925F926F927F928F929F92AC
:1042C000AF92BF92CF92DF92EF92FF920F931F9324
:1042D000CF93DF936C012B015A0139014801DC01B6
:1042E000ED91FC910284F385E02D0995E201640CC7
:1042F000751CD601ED91FC91C615D7055CF40088BC
:10430000F189E02D87019401A501BE01C60109953F
:104310002196EFCF0688F789E02DC601DF91CF9176
:104320001F910F91FF90EF90DF90CF90BF90AF90D3
:104330009F908F907F906F905F904F9009948F9295
:104340009F92AF92BF92CF92DF92EF92FF920F9324
:104350001F93CF93DF93EC015B014A016901E88170
:10436000F9810284F385E02D099595012C0D3D1D01
:1043700021503109E881F9810488F589E02D78011F
:104380008401A401B501CE010995E881F98106886F
:10439000F789E02DCE01DF91CF911F910F91FF9012
:1043A000EF90DF90CF90BF90AF909F908F90099447
:1043B0008F929F92AF92BF92CF92DF92EF92FF9235
:1043C0000F931F93CF93DF93EC015B014A016901C7
:1043D0007801E881F9810284F385E02D0995C80C04
:1043E000D91C860101501109E881F9810488F589F9
:1043F000E02D9501A401B501CE010995E881F9816F
:104400000688F789E02DCE01DF91CF911F910F91A2
:10441000FF90EF90DF90CF90BF90AF909F908F90E4
:104420000994EF92FF920F931F93DC01ED91FC91A1
:1044300000A0F1A1E02D09951F910F91FF90EF9041
:1044400008950F931F93DC01ED91FC91068CF78D7D
:10445000E02D09951F910F9108950F931F93DC0193
:10446000ED91FC91048CF58DE02D09951F910F9134
:104470000895DC01ED91FC910084F185E02D099413
:104480002F923F924F925F926F927F928F929F9264
:10449000AF92BF92CF92DF92EF92FF920F931F9352
:1044A000CF93DF9300D000D000D0CDB7DEB72C0182
:1044B0007E836D836A015901C801FC82EB82480149
:1044C000841A950A97FE03C091948194910835014E
:1044D0002D813E81621A730A77FE03C07194619444
:1044E0007108681479045CF43A2D2B2D5C01832F3C
:1044F000922F3D812E81DE82CD82C32ED22EAD81C0
:10450000BE81AA16BB065CF43C2D2D2D6C01832FB9
:10451000922F3D812E81BE82AD82A32EB22E8501C7
:104520002D813E81021B130B1C012C183D0837FE08
:1045300003C0319421943108780117FF03C03FEF85
:10454000E31AF30AF594E794C816D9062CF08FEF16
:104550009FEF9A83898304C0A1E0B0E0BA83A98366
:104560002D813E81A216B30624F1D201ED91FC917A
:104570000484F585E02D2B813C816814790424F4B2
:104580004D815E81B60103C0A6016D817E81C201AD
:104590000995E218F308F7FE06C029813A81C20E98
:1045A000D31EE00EF11E8D819E8101969E838D8328
:1045B000D7CF26960FB6F894DEBF0FBECDBFDF91E2
:1045C000CF911F910F91FF90EF90DF90CF90BF9010
:1045D000AF909F908F907F906F905F904F903F90A3
:1045E0002F900895FC0181A187FF1EC0428D538D3D
:1045F000648D758D80E092E1AAE7B0E020E0481775
:1046000059076A077B0740F4B695A7959795879554
:104610002F5F2630A1F727E091E09227892F806A4B
:10462000869591708CBD9DBD81A904A4F5A5E02D52
:1046300090818095892380830895AF92BF92CF9215
:10464000EF92FF920F931F93CF93DF93EC01262FEE
:10465000888D998D009709F040C06A3059F41D8605
:104660001C862C898E859F8538E0239F800D911DA7
:10467000112441C06D3009F4AAC08E898823C1F08D
:104680003C898C859D8546E0349F800D911D1124C9
:1046900048855985481759075CF41D861C868E8508
:1046A0009F8548E0349F800D911D11249F878E8740
:1046B000EA88FB88088919894E855F856C857D8528
:1046C000CC88CE010E94F51B2C898C859D8536E017
:1046D000239F800D911D112442C06A3079F41D86FC
:1046E0001C862C89FC013696E4918E859F852E9F31
:1046F000800D911D11249F878E8769C06D3009F44C
:1047000066C0FC0134963491631708F460C031969A
:10471000E491E61708F45BC0FC0132966591749150
:10472000422F50E0431B510937E0349F5001359F21
:10473000B00C1124A60EB71EF501329634913196B5
:10474000E491332311F0E1110DC0F5013496E491A9
:104750002C898C859D85E29F800D911D11249D875C
:104760008C8735C0F501359644915E89552311F14A
:104770006C89E32FF0E0E40FF11D47FDFA956E9F81
:10478000D0016F9FB00D11244C855D854A0F5B1FD2
:10479000E885F985E417F5076CF41D861C86FC0195
:1047A0003696E4918E859F856E9F800D911D112414
:1047B0009F878E87EA88FB88088919894E855F85DF
:1047C0006C857D85CC88CE010E94F51BBECF81E033
:1047D00090E0DF91CF911F910F91FF90EF90CF90DC
:1047E000BF90AF900895E2E0F1E0908581E08927E5
:1047F00080870E9418090C94D90B20910D0130E09C
:104800008091000190E001972817390724F4E09186
:104810000D01EF5F01C0E0E085E0E802F001112446
:10482000EB58FE4F23813481369527958181928103
:10483000280F391FA8EEB3E00E941F3260930201D7
:1048400070930301809304019093050181E00C941F
:10485000C206FC0181A187FF05C06EBD0DB407FE35
:10486000FDCF089588E090E020E8A4A1B5A1362FFF
:10487000322321F046A53C91342B04C036A54C913F
:10488000309534233C9330A9A0A5B1A54C91309527
:1048900034233C9340A9A0A5B1A53C91342B3C9373
:1048A0002695019711F708954F925F926F927F922C
:1048B0008F929F92AF92BF92CF92DF92EF92FF9230
:1048C0000F931F93CF93DF93EC016B0159014801C4
:1048D00028853985621773070CF067C08A859B8528
:1048E000481759070CF061C08B010A0D1B1DF80118
:1048F0003197DA01A80DB91DBD0161507109F7FDAD
:1049000054C077FD52C0D7FE03C05801C12CD12C32
:1049100057FF03C04D0140E050E0E217F3071CF0E1
:104920005901AC18BD08681779071CF04C01841AAE
:10493000950A9501D4010E9417323B01582E492E49
:10494000E881F98102A4F3A5E02D8401B601CE012E
:1049500009954301A52CB42C89A187FF13C08114AC
:104960009104A104B10409F1FEBC0DB407FEFDCF12
:10497000EEBC0DB407FEFDCF81E0881A9108A108B6
:10498000B108EDCF81149104A104B10471F06F2D31
:10499000CE010E9429246E2DCE010E94292481E09F
:1049A000881A9108A108B108EDCFDF91CF911F912E
:1049B0000F91FF90EF90DF90CF90BF90AF909F90BE
:1049C0008F907F906F905F904F900895EF92FF923D
:1049D0000F931F93CF93DF93EC0177FD33C088854E
:1049E00099856817790774F557FD2CC08A859B85D2
:1049F000481759073CF5E32EF22EE881F98102A40D
:104A0000F3A5E02D01E010E021E030E0CE010995B2
:104A100089A187FF09C0EEBC0DB407FEFDCFFEBC27
:104A20000DB407FEFDCF0EC06E2DCE010E942924CD
:104A30006F2DCE01DF91CF911F910F91FF90EF90DD
:104A40000C942924DF91CF911F910F91FF90EF904B
:104A50000895CF93DF93EC018AA9EAA5FBA5908185
:104A6000809589238083CE010E9429249AA9EAA5F2
:104A7000FBA58081892B8083DF91CF9108950F93CF
:104A80001F9360E070E08EE393E00E943D21E0918F
:104A90000E01F0910F01EE0FFF1FEF5DFE4F408101
:104AA000518108E012E023E734E167E280E50E94EB
:104AB00048280E945E0A0E942A2A8FEF0E94A009BD
:104AC00081E00E94C2060E94780A8CE00E943F2981
:104AD00081E00E943F298CE00E943F290E94180932
:104AE0001F910F910C94D107009769F0FC01019080
:104AF0000020E9F73197AF01481B590BBC018EE349
:104B000093E00C94EA0E80E090E008952F923F929B
:104B10004F925F926F927F928F929F92AF92BF92CD
:104B2000CF92DF92EF92FF920F931F93CF93DF9379
:104B3000CDB7DEB76D970FB6F894DEBF0FBECDBF11
:104B40003C872B871E870D87F88AEF86DA8AC98A09
:104B5000F90171836083F80151834083F60111826A
:104B60001082F70111821082209046033090470393
:104B70000091480310914903409056035090570309
:104B800092012C5F3F4F3C8B2B8B2F5F3F4F3E8B17
:104B90002D8B23503109388F2F8B809054039090A8
:104BA0005203C92CD12CDC82CB822C5F3F4F3E8339
:104BB0002D8326E0929E60011124D886CF82CB807F
:104BC000DC80F3E0CC0CDD1CFA95E1F7DA82C982D7
:104BD0009A8789877101AFEFBFEF2FEF3FEF3B8FD0
:104BE0002A8FE985FA852191FA87E987222309F43A
:104BF000CCC04114510409F48DC02A3041F4ED8138
:104C0000FE818491899D400D511D112489C02D3054
:104C100041F3EB89FC89C490ED89FE898491022ED1
:104C2000000C330BD12C2C153D05DCF290E08217E3
:104C30009307BCF2EF89F88D859194912C193D0969
:104C4000E7E0CE2EC29EF001C39EF00D11248E0F20
:104C50009F1FFC013296C4903196D49031962491D6
:104C6000298F31963491319684918820E9F06C2C0B
:104C7000712C630E711C37FD7A94EB81FC816E9E62
:104C800050016F9EB00C7E9EB00C1124A60EB71E74
:104C90002A143B044CF4ED81FE819491999E400DC1
:104CA000511D112460E070E0292D3203F001112420
:104CB000E60FF71F382F3203C0011124840F951F10
:104CC0005F019C9CA00CB11C112421E0A21AB10828
:104CD0009C019D9C200D311D1124690131E0C31AF6
:104CE000D108EE15FF050CF47F01801791070CF435
:104CF0008C018A8D9B8D8A159B0514F4BB8EAA8E20
:104D0000AC15BD050CF4D601998D999E600D711DF1
:104D1000112467CF2A3039F4C980DA804C0D5D1D2B
:104D200060E070E05ECF2D3009F45BCF882069F041
:104D30008F819885860F971F2816390634F42981AC
:104D40003A81420F531F60E070E02F813885260FB3
:104D5000371FF901319789819A81840F951F019737
:104D6000CA8CDB8CCE16DF0614F4FB8FEA8FA817F3
:104D7000B9070CF4DC016E157F050CF47B014017BC
:104D800051070CF48A01B9012CCF2A8D3B8D2E15C9
:104D90003F0564F0EB85FC85F182E0822E193F0926
:104DA0002F5F3F4FEF85F88931832083A017B1072C
:104DB0005CF0ED85FE8511830083A01BB10B11967D
:104DC000E989FA89B183A0836D960FB6F894DEBFA6
:104DD0000FBECDBFDF91CF911F910F91FF90EF904C
:104DE000DF90CF90BF90AF909F908F907F906F900B
:104DF0005F904F903F902F9008956F927F928F9287
:104E00009F92AF92BF92CF92DF92EF92FF920F9359
:104E10001F93CF93DF937C016B015901C0E0D0E079
:104E200002E010E0842F8470882E842F8270782E08
:104E3000842F8870682E4170942E21968820B1F0BE
:104E40009501A8014C0D5D1DB7016C0F7D1F8EE310
:104E500093E00E94E6249501A6014C0F5D1FB80166
:104E60006E0D7F1D8EE393E00E94E6247720B1F063
:104E70009501A601401B510BB7016C0F7D1F8EE3FE
:104E800093E00E94E6249501A6014C1B5D0BB8013E
:104E90006E0D7F1D8EE393E00E94E6246620B1F044
:104EA0009501A6014C0F5D1FB701601B710B8EE3CE
:104EB00093E00E94E6249501A8014C0D5D1DB70109
:104EC0006C1B7D0B8EE393E00E94E6249920B1F0E9
:104ED0009501A6014C1B5D0BB701601B710B8EE3A6
:104EE00093E00E94E6249501A601401B510BB701F7
:104EF0006C1B7D0B8EE393E00E94E624C017D10764
:104F00001CF401E010E099CFDF91CF911F910F9138
:104F1000FF90EF90DF90CF90BF90AF909F908F90D9
:104F20007F906F9008952F923F924F925F926F9271
:104F30007F928F929F92AF92BF92CF92DF92EF9229
:104F4000FF920F931F93CF93DF9300D000D000D038
:104F5000CDB7DEB72C013B0149015801190183E0AF
:104F6000280E311CE12CF12C82E090E09E838D8391
:104F70008CEF9FEF9A838983CC24CA94DC2C942FE6
:104F800091709B8342704C838FEFE81AF80AC1013D
:104F900088199909C80ED91E9B81992309F12D8181
:104FA0003E81220F331F2F5F3F4F280D391D850192
:104FB000A3018D819E81481B590BB2016E0D7F1D8F
:104FC0008EE393E00E943E209101A3014E195F09F8
:104FD0006D817E81640D751D8EE393E00E943E20FD
:104FE0009C81911119C08D819E81E816F906BCF54E
:104FF000D7FC0AC089819A8102969A838983C80E58
:10500000D91E81E090E002C082E090E09E838D8313
:1050100092E0290E311CB8CF2D813E81220F331F23
:105020002F5F3F4F280D391D8501A3018D819E8182
:10503000481B590BB2016E197F098EE393E00E9461
:105040003E209101A3014E195F09B2018D819E811D
:10505000681B790B8EE393E00E943E20C4CF269616
:105060000FB6F894DEBF0FBECDBFDF91CF911F9179
:105070000F91FF90EF90DF90CF90BF90AF909F90F7
:105080008F907F906F905F904F903F902F900895FA
:105090002F923F924F925F926F927F928F929F9248
:1050A000AF92BF92CF92DF92EF92FF920F931F9336
:1050B000CF93DF93CDB7DEB72C970FB6F894DEBF52
:1050C0000FBECDBF5C874B8759014801262F30E0CA
:1050D0003A872987282E312C8EE393E00E94F22212
:1050E00069847A8434E0631A7108610142E0C40E75
:1050F000D11C78010FE010E0930140E050E0B601D0
:105100008EE393E00E945424E984FA84E20CF31CB9
:10511000270153E0451A510884012AE030E041E0BC
:1051200062E070E0C2010E9493272AE030E042E092
:1051300062E070E0C6010E9493278EE393E00E9434
:1051400052208EE393E00E94F2228501930140E019
:1051500050E0B6018EE393E00E942B2093014EE0D5
:1051600050E0B6018EE393E00E942B202BE030E06C
:1051700042E050E0B1018EE393E00E943E20B7018F
:10518000615071092BE030E042E050E08EE393E0A3
:105190000E943E20950141E062E070E0C6010E945D
:1051A000FD26950142E062E070E0C2010E94FD260A
:1051B000950144E06CE070E0C2010E94FD2695017B
:1051C00048E06CE070E0C6010E94FD268EE393E0AB
:1051D0000E9452209E012F5F3F4F88E0F9011192FB
:1051E0008A95E9F7AE01495F5F4F6A01CE010596E6
:1051F0007C018E010D5F1F4F40E050E0B1018B85B7
:105200009C850E9486258F8198852FE030E0281BA1
:10521000390B369527952F5F3F4F8D819E81E9850C
:10522000FA85E81BF90BCF0196958795280E391E54
:10523000EEE3F3E0B18AA08A938A828A35862486D7
:10524000378726878B859C850E9474252C960FB600
:10525000F894DEBF0FBECDBFDF91CF911F910F91AC
:10526000FF90EF90DF90CF90BF90AF909F908F9086
:105270007F906F905F904F903F902F9008953F9256
:105280004F925F926F927F928F929F92AF92BF9256
:10529000CF92DF92EF92FF920F931F93CF93DF9302
:1052A000C82FA8E0EA2EA2E0FA2E0AE010E020EAD9
:1052B00030E046E750E060E070E08EE393E00E946B
:1052C00071208091A7028C1709F4B2C0CD3020F470
:1052D000C11103C0C1E001C0CCE08091A7028C17CE
:1052E00008F076C0D091A7026EE0762E7BE2672EA2
:1052F000E0E35E2EFEE6AF2EB12CDC1708F066C0B0
:10530000E6EFED0FE33040F4F0E0EE0FFF1FE35661
:10531000FE4FC080D18006C040EEC42E47E0D42EA0
:10532000DA3010F022E001C020E08D2E912CC40173
:105330000197879D302C112432E0432E430CDB3043
:1053400011F462E001C060E030E0235F3F4F70E0A5
:10535000640D711D760106E010E048E750E08EE331
:1053600093E00E94140F4AE067EE73E0C401DA3064
:1053700090F001960E9456316092E7035092E90343
:105380001092EA03DA3019F42BEF422E02C09EEF9E
:10539000492E430C02C00E945631D0924F03C09256
:1053A0004E031092510310925003842D90E0049606
:1053B00090934B0380934A03B0924D03A0924C0309
:1053C00087EE93E00E947425DF5F97CFC093A7021A
:1053D0008091A702C81760F5D091A7028EE0D82E61
:1053E000CD1720F5DA3018F42EE030E002C020E1CD
:1053F00030E08D2F90E00197D89EA001D99E500DEE
:105400001124DB3019F062E070E002C064E070E06B
:10541000640F751FE12CF12C06E010E048E750E026
:105420008EE393E00E94140FD150DACFC093A7020D
:10543000DF91CF911F910F91FF90EF90DF90CF9070
:10544000BF90AF909F908F907F906F905F904F90A4
:105450003F900895EF92FF920F931F9390910D014B
:1054600080910001981307C000E018E620E038EEB4
:1054700045EE51E015C0E0910D0185E0E89FF00197
:105480001124EB58FE4F80814AE067EE73E090E014
:105490000E94563100EC19E220EC36E947EE53E069
:1054A00068E288E70E944828E12CF12C0AE010E02D
:1054B0002FE930E04EE550E060E070E08EE393E0ED
:1054C0000E94140F1F910F91FF90EF900895AF92DB
:1054D000BF92CF92DF92EF92FF920F931F93CF93E1
:1054E000DF93D091000105E711E0C0E088EEC82EFF
:1054F00083E0D82EE12CF12CDC17D9F16091020168
:10550000709103018091040190910501F801A1803F
:10551000B280A70196010E94D031C501A0E0B0E0A1
:10552000281739074A075B07B0F1609102017091B3
:1055300003018091040190910501A70196010E9449
:10554000D031F801838194818A0D9B1DA0E0B0E0E9
:1055500082179307A407B507F0F080910D01C817D3
:1055600021F0C0930D010E942A2A80910001C813E6
:1055700016C080910D018C1791F0C0930D01DF9141
:10558000CF911F910F91FF90EF90DF90CF90BF9040
:10559000AF900C942A2ACF5F0B5F1F4FADCFDF91E6
:1055A000CF911F910F91FF90EF90DF90CF90BF9020
:1055B000AF900895282F3091E603313208F04AC0A9
:1055C0008091C2038111FCCF9091E50342E04093AA
:1055D000C2032093C1032FEF2093C0031092BF0397
:1055E0003093BE03E5ECF3E0AEE9B3E020E0321720
:1055F00021F041914D932F5FFACF10929D0320919E
:105600009D03990F922B90939D0390919C03913051
:1056100061F410929C0390919D039093BB00909134
:10562000BC0093FDF8CF95EC01C095EE9093BC00C3
:105630009091C2039230E1F39091C0039F3F79F0C3
:105640008091C003803241F08091C003803331F0FB
:1056500084E005C081E003C082E001C083E01092D5
:10566000C4031092E6031092C3030895CF93C62F8C
:105670009091290321E02093C3039093E5031092B6
:10568000C4031092E603682F81E592E00E9406159C
:105690006C2F81E592E00E94061581E0CF910C9479
:1056A000DA2ACF939091290321E02093C3039093AA
:1056B000E5031092C4031092E603682F81E592E09F
:1056C0000E94061581E00E94DA2A809129039091B8
:1056D000C2039111FCCF91E09093C2031092C103D9
:1056E0002FEF2093C0031092BF031092BE0390933C
:1056F0009D0390919D03880F892B80939D0380913A
:105700009C03813061F410929C0380919D038093EF
:10571000BB008091BC0083FDF8CF85EC01C085EE15
:105720008093BC008091C2038130E1F38091BF037C
:10573000811103C0C091BF0301C0C1E0EEE9F3E0F5
:10574000ACE7B3E080E08C1721F091919D938F5FDF
:10575000FACF10927B03C0937A0380E090917B0391
:10576000C91729F081E592E00E94BD14F7CFCF91CF
:105770000895FF920F931F93CF93DF938C01C62F51
:10578000F42E8830910528F4FC01E359FE4FD081B6
:1057900001C0D0E08D2F0E94512B0630110544F43A
:1057A0008378F1108C6090E1C99FB00111240EC084
:1057B0000630110519F4887F8C2B09C007301105BC
:1057C00031F490E1C99FB00111248F78862B682FA6
:1057D0008D2FDF91CF911F910F91FF900C94362B5D
:1057E000CF93DF93D62FC0E1C80F8C2F0E94512B8F
:1057F000682FD13011F4606401C06F7B8C2FDF9172
:10580000CF910C94362BEF92FF920F931F93CF936F
:10581000DF93062F7A019091290321E02093C3039F
:105820009093E5031092C4031092E603682F81E57C
:1058300092E00E940615E70110E0CE018E199F0943
:105840008017910734F4699181E592E00E94061572
:10585000F4CF81E0DF91CF911F910F91FF90EF90F6
:105860000C94DA2A789484B5826084BD84B5816012
:1058700084BD85B5826085BD85B5816085BD80911B
:105880006E00816080936E00109281008091810093
:10589000826080938100809181008160809381008B
:1058A000809180008160809380008091B10084604D
:1058B0008093B1008091B00081608093B0008091AE
:1058C0007A00846080937A0080917A00826080936D
:1058D0007A0080917A00816080937A0080917A00CA
:1058E000806880937A001092C10040E050E0BA01D5
:1058F0008EE393E00E94B61185EF92E00E949E1B1A
:1059000088EE92E00E949E1B8DEB92E00E949E1B0F
:105910008EE393E00E94F22266E38EE393E00E941E
:10592000292560EC8EE393E00E9429248EE393E026
:105930000E94522082E08093790360E08EE393E03E
:105940000E948C1061E08DE00E94951F60E070E085
:105950008EE393E00E943D2161E08EE393E00E949C
:105960008C1010927B0310927A031092C403109251
:10597000E6031092C203C1E0C093C10310929C03DE
:1059800061E082E10E94661F61E083E10E94661F80
:105990008091B9008E7F8093B9008091B9008D7F8E
:1059A0008093B90088E48093B80085E48093BC00BC
:1059B0008BEA94E190930B0280930A028CEA94E1C3
:1059C00090930D0280930C0280912903C093C3032E
:1059D0008093E5031092C4031092E60381E00E94D5
:1059E000DA2A882309F449C080E399EBA2E4B1E004
:1059F0008093020190930301A0930401B0930501E9
:105A00000E94D90B8091010290910202A0910302A1
:105A1000B0910402F8948093390390933A03A093D1
:105A20003B03B0933C0378940E94D90B0E94672AF1
:105A30000E943F2562E0809161020E94951F62E012
:105A4000809184020E94951F0E943F258CE00E9455
:105A50003F2983EF93E290939202809391028DEF1E
:105A600093E290939402809393020CE510E0C9E0D6
:105A700030E0E32E30E0F32EAEC180E00E94512BE7
:105A800090E0880F892F881F990B0197B1F362E18D
:105A900087EB0E94362B80E498E7ADE7B1E0809376
:105AA000180390931903A0931A03B0931B03109249
:105AB00020031092210310922203109223032091BD
:105AC0000403309105034091060350910703609150
:105AD00008037091090300E010E080910A0390919F
