:100000000C9419040C944F0C0C94270C0C94410480
:100010000C9441040C9441040C9441040C9441044C
:100020000C9441040C9441040C9441040C9441043C
:100030000C9441040C9441040C9441040C9441042C
:100040000C94F20F0C9441040C9441040C94410460
:100050000C9441040C9441040C9441040C9441040C
:100060000C94AA1B0C9441043D134B1359136713B2
:100070007513831391139A13000004090701FD05FA
:100080000008040A01F7090004040701FD0000004C
:100090000006000120000E151001EC4500081510A7
:1000A00003EC5A000E151001EC7F000E151001EC48
:1000B000A4000E151001ECC9000E151001ECEE00A5
:1000C0000E151001EC13010E151001EC38010E1580
:1000D0001001EC5D010E151001ECFFFF337EC0FF37
:1000E000FFFFFFFFFF03030606060C0C0C0C18189D
:1000F0001830303030606060C0C00FC07F83FF1F99
:10010000FE78FBE1EF03FC0FF03FC0FF03FC0FF0B4
:100110003FC0FF03FE1F7879FFE3FF07F80FC0031E
:1001200007071FFFFFFF0F0F0F0F0F0F0F0F0F0F0F
:100130000F0F0F0F0FC0FFC7FF9FFEF87FC0FF0319
:10014000C00F003C01F00F807C07E03E01F00F0083
:100150003801FFF7FFDFFF7FFC0FC0FF87FF3FFE87
:10016000F8FBC1E007803C07E01FC07F803E007CB9
:1001700000F003FC0FF87FFFE7FF8FFC0FC001F0DA
:100180000FC03F01FC07F03BC0EF073C18F0E3C78E
:100190000F1C3CE0F3FFFFFFFFFFFFFC03C00F005D
:1001A0003C00F03FF8FFE3FF8FFE7801C0073C1DE5
:1001B000FC7FF1FFEF87C01F003C00F003FC0FF84D
:1001C0007FFFE7FF0FF80FC007C07FC3FF9FFE78D8
:1001D0007DE00F003CF8FFF3FFEF87BC0FF03FC05E
:1001E000FF03DC1F7879FFE3FF07F80FC0FFFFFF75
:1001F000FFFFFFFF003801E00F007801E00F003C37
:1002000001E007801C00F003C00F003801E0078008
:100210001E000FC07F83FF1FFE7879C0E7039E1E7C
:100220003FF07F87FF1E1EF03FC0FF03FC0FF87DED
:10023000FFE7FF8FFC0FC00FC07F83FF1FFEF87B1F
:10024000C0EF03FC0FF03FC0FF87DFFF7FFCFEF035
:10025000F3C01EF879FFE7FF0FF80F80DA0078008F
:100260002C392304E010021C07123732292D2925CE
:100270002B3900010310E110031D07062E2C292D38
:100280002E2E373F0000021013800A298064022AB4
:10029000040000007F2B040000009F0F01809611D6
:1002A00080FFB103012C2DB203012C2DB306012CCC
:1002B0002D012C2DB40107C003A20284C101C5C2C7
:1002C000020A00C3028A2AC4028AEEC5010E200077
:1002D0003601C83A010500000000240027002A006A
:1002E00000000008000201000003040700000000F5
:1002F0000000000000000000003E5B4F5B3E3E6BD4
:100300004F6B3E1C3E7C3E1C183C7E3C181C577DAF
:10031000571C1C5E7F5E1C00183C1800FFE7C3E7FB
:10032000FF0018241800FFE7DBE7FF30483A060E0D
:100330002629792926407F050507407F05253F5A54
:100340003CE73C5A7F3E1C1C08081C1C3E7F1422C4
:100350007F22145F5F005F5F06097F017F0066896F
:10036000956A606060606094A2FFA29408047E04B5
:100370000810207E201008082A1C08081C2A0808DB
:100380001E101010100C1E0C1E0C30383E3830069B
:100390000E3E0E06000000000000005F0000000797
:1003A000000700147F147F14242A7F2A12231308C5
:1003B000646236495620500008070300001C2241A1
:1003C000000041221C002A1C7F1C2A08083E080845
:1003D00000807030000808080808000060600020F5
:1003E000100804023E5149453E00427F40007249D8
:1003F0004949462141494D331814127F102745457C
:1004000045393C4A49493141211109073649494991
:1004100036464949291E00001400000040340000FF
:100420000008142241141414141400412214080268
:10043000015909063E415D594E7C1211127C7F49DB
:100440004949363E414141227F4141413E7F494930
:1004500049417F090909013E414151737F0808085C
:100460007F00417F41002040413F017F081422412D
:100470007F404040407F021C027F7F0408107F3E87
:100480004141413E7F090909063E4151215E7F09F4
:10049000192946264949493203017F01033F40405B
:1004A000403F1F2040201F3F4038403F6314081446
:1004B0006303047804036159494D43007F4141417E
:1004C0000204081020004141417F0402010204405F
:1004D00040404040000307080020545478407F28E3
:1004E0004444383844444428384444287F385454D9
:1004F000541800087E090218A4A49C787F080404FC
:100500007800447D40002040403D007F102844009A
:1005100000417F40007C047804787C08040478382B
:1005200044444438FC1824241818242418FC7C085B
:10053000040408485454542404043F44243C4040D8
:10054000207C1C2040201C3C4030403C442810288B
:10055000444C9090907C4464544C440008364100D4
:100560000000770000004136080002010204023C4E
:100570002623263C1EA1A161123A4040207A38541D
:100580005455592155557941225454784221555496
:10059000784020545579400C1E52721239555555E9
:1005A00059395454545939555454580000457C41D4
:1005B0000002457D420001457C407D1211127DF014
:1005C000282528F07C545545002054547C547C0A3E
:1005D000097F4932494949323A4444443A324A4807
:1005E00048303A4141217A3A42402078009DA0A00B
:1005F0007D3D4242423D3D4040403D3C24FF24245D
:10060000487E4943662B2FFC2F2BFF0929F620C07B
:10061000887E090320545479410000447D413048CC
:10062000484A32384040227A007A0A0A727D0D190F
:10063000317D2629292F28262929292630484D4071
:1006400020380808080808080808382F10C8ACBA6D
:100650002F102834FA00007B000008142A142222EC
:10066000142A14085500550055AA55AA55AAFF5535
:10067000FF55FF000000FF00101010FF00141414BD
:10068000FF001010FF00FF1010F010F0141414FC05
:10069000001414F700FF0000FF00FF1414F404FC22
:1006A000141417101F10101F101F1414141F001003
:1006B0001010F0000000001F101010101F1010107C
:1006C00010F010000000FF1010101010101010108B
:1006D000FF10000000FF140000FF00FF00001F10CB
:1006E000170000FC04F414141710171414F404F485
:1006F0000000FF00F714141414141414F700F71476
:100700001414171410101F101F141414F4141010C4
:10071000F010F000001F101F0000001F1400000068
:10072000FC140000F010F01010FF10FF141414FF60
:10073000141010101F00000000F010FFFFFFFFFF5B
:10074000F0F0F0F0F0FFFFFF0000000000FFFF0FEF
:100750000F0F0F0F3844443844FC4A4A4A347E0293
:10076000020606027E027E02635549416338444414
:100770003C04407E201E2006027E020299A5E7A5C9
:10078000991C2A492A1C4C7201724C304A4D4D303A
:100790003048784830BC625A463D3E494949007E5F
:1007A0000101017E2A2A2A2A2A44445F44444051F6
:1007B0004A444040444A51400000FF0103E080FFAA
:1007C000000008086B6B083612362436060F090F36
:1007D00006000018180000001010003040FF010152
:1007E000001F01011E00191D1712003C3C3C3C007B
:1007F0000000000000000000230026002900010284
:10080000040810204080010204081020010204089E
:10081000102000000000250028002B000404040420
:10082000040404040202020202020303030303039A
:100830004F2D11241FBECFEFD8E0DEBFCDBF11E09A
:10084000A0E0B1E0EEEAF6E602C005900D92A83D08
:10085000B107D9F723E0A8EDB1E001C01D92A73D93
:10086000B207E1F714E0C9E1D4E004C02197FE012A
:100870000E94B22FC831D107C9F70E94C5290C9434
:1008800055330C940000089580E090E008952F9275
:100890003F924F925F926F927F928F929F92AF9210
:1008A000BF92CF92DF92EF92FF920F931F93CF935D
:1008B000DF93CDB7DEB760970FB6F894DEBF0FBEFB
:1008C000CDBF9E838D838091D8019091D9019C01E9
:1008D0002B5F3F4F3A8329838091D8019091D901B2
:1008E000AC01455051095C834B836091D8017091F4
:1008F000D90178876F8387E993E00E94B7202F8121
:1009000038858B819C81281B390B8F819885A98123
:10091000BA818A1B9B0BC12CD12C7601812C912C86
:1009200054014AE5242E312C55E0452E512C612CE2
:10093000712CAC01990F660B770B4F835887698731
:100940007A87B901330F880B990B6B877C878D876A
:100950009E87C501B401A30192010E94932F898152
:100960009A81820F931F988B8F87C701B601A301CD
:1009700092010E94932FAB81BC812A0F3B1F4F81B4
:10098000588569857A85840E951EA61EB71E6B85CF
:100990007C858D859E85C60ED71EE81EF91E8F8527
:1009A00098892817390734F49F858889388B2F87D1
:1009B000292F382FAF85B8892A1B3B0B2F5F3F4F5C
:1009C0000D811E81A101BD0187E993E00E94C61D32
:1009D000BFEF2B1A3B0A20E62216310409F0B9CFEB
:1009E00087E993E060960FB6F894DEBF0FBECDBFE7
:1009F000DF91CF911F910F91FF90EF90DF90CF90FB
:100A0000BF90AF909F908F907F906F905F904F902E
:100A10003F902F900C94ED1D4F925F926F927F92BA
:100A20008F929F92AF92BF92DF92EF92FF920F93BD
:100A30001F93CF93DF93EC01288130E0F901E0525E
:100A4000FD4F8491F901E250F84F0491F901E45E01
:100A5000F74F14911123A1F081110E94D81CE12FAE
:100A6000F0E0EE0FFF1FEC50F84FA591B491EC9120
:100A7000E02391E080E009F490E0092F182F02C0F4
:100A800000E010E08FB7F8948090DE019090DF01D5
:100A9000A090E001B090E1018FBF89E0D82ED09EF8
:100AA0007001D19EF00C1124EC0EFD1EF70180891F
:100AB000882309F4A2C081899289A389B489240179
:100AC0003501481A590A6A0A7B0A8D819E81A0E085
:100AD000B0E084159505A605B70508F093C04981D7
:100AE0005A8160E070E02F81388544155505660510
:100AF0007705C0F4EE85FF85309709F45FC02017B5
:100B0000310709F05BC08B85882309F457C009952C
:100B1000F701818A928AA38AB48A858A968AA78AEB
:100B2000B08E32C089859A858017910709F046C03A
:100B3000D29EC001D39E900D11249E01280F391F13
:100B4000F70185899689A789B08DF901458856886E
:100B50006788708C84199509A609B7094B805C8059
:100B6000612C712C481659066A067B0638F58417E5
:100B70009507A607B70710F5EC85FD853097F1F0CE
:100B80008B858823D9F009958F81988529853A85A9
:100B9000D29EF001D39EF00D1124EC0FFD1F858A2B
:100BA000968AA78AB08ED89EF001D99EF00D1124A6
:100BB000EC0FFD1F858A968AA78AB08E89E0809FF8
:100BC000F001819FF00D1124EC0FFD1F4189528926
:100BD00063897489458B568B678B708F29853A851D
:100BE000829FF001839FF00D1124EC0FFD1F80897F
:100BF000882341F081E08B8705C0F701818A928AC2
:100C0000A38AB48A2F81388589E0829FF001839F6F
:100C1000F00D1124EC0FFD1F81E02017310709F0C2
:100C200080E0808B29853A8549E0429FC001439F3F
:100C3000900D1124C80FD91F81E02017310709F04A
:100C400080E0888BDF91CF911F910F91FF90EF9003
:100C5000DF90BF90AF909F908F907F906F905F904C
:100C60004F9008952F923F924F925F926F927F9292
:100C70008F929F92AF92BF92CF92DF92EF92FF92AC
:100C80000F931F93CF93DF9300D000D000D0CDB748
:100C9000DEB703ED1CE92FE930E040E650E060E00C
:100CA00070E087E993E00E94F90C25E030E04EE522
:100CB00050E060E070E087E993E00E946C1D25E061
:100CC00030E04EE550E06FE970E087E993E00E9484
:100CD0006C1D80910D018830B1F0E0910D0185E02F
:100CE0008E9FF0011124EB5CFE4F21803280E09159
:100CF0000D018E9FF0011124EB5CFE4F23813481A6
:100D000082E390E008C020E335E758EE252E53E05B
:100D1000352E84EF91E02C01440C551C612C712C74
:100D2000812C912C54016901E12CF12C9C0140E0B3
:100D300050E029833A834B835C838C149D04AE047A
:100D4000BF0490F5C501B401A30192010E94712F67
:100D5000672B682B692B29F042E050E05E834D83BE
:100D600004C084E090E09E838D83A0EAB0E0A501FA
:100D700094010E94D62FA70196010E94712FCA01EB
:100D8000B90103ED1CE92D813E8140E650E087E981
:100D900093E00E946C1D29813A814B815C81820E17
:100DA000931EA41EB51EC9CF60910201709103016C
:100DB000809104019091050128EE33E040E050E07D
:100DC0000E94712F2219330941095109A0EAB0E0AC
:100DD0000E94D62FA70196010E94712F69017A0106
:100DE0008091D8019091D9018217930721F180E079
:100DF00090E00E944704D092D901C092D80183E7C5
:100E000094E126960FB6F894DEBF0FBECDBFDF91FA
:100E1000CF911F910F91FF90EF90DF90CF90BF90F7
:100E2000AF909F908F907F906F905F904F903F908A
:100E30002F900C94470426960FB6F894DEBF0FBE91
:100E4000CDBFDF91CF911F910F91FF90EF90DF9079
:100E5000CF90BF90AF909F908F907F906F905F905A
:100E60004F903F902F900895EF92FF920F931F9312
:100E7000CF93DF93CDB7DEB768970FB6F894DEBF98
:100E80000FBECDBF20911701309118013E872D87ED
:100E90008AE0FE013F96DF01482F1D924A95E9F74F
:100EA00090910A018E01035F1F4F9923C1F13A838C
:100EB00029833C97DF011D928A95E9F760910B0128
:100EC00070910C01072E000C880B990B2AE0AE01E3
:100ED0004F5F5F4F7A010E94022F65EA71E0C801FF
:100EE0000E944A33F70101900020E9F73197EE198B
:100EF000FF09E530F10570F4D8010D900020E9F705
:100F0000CD0145E050E04E1B5F0B60E270E00197C1
:100F10000E944333B701C8010E944A3307C04AE028
:100F200050E060E270E0C8010E9443338FE198EF27
:100F30009093A8038093A7031092AA031092A90389
:100F400084E690E09093A4038093A30386E490E06A
:100F50009093A6038093A503C8010E94F12668968A
:100F60000FB6F894DEBF0FBECDBFDF91CF911F91BA
:100F70000F91FF90EF900895CF92DF92EF92FF9242
:100F80000F931F93CF93DF9387FF0EC080910601CD
:100F900090910701A0910801B09109010297A10564
:100FA000B10508F090C028C0181634F5609106010C
:100FB0007091070180910801909109010E94BC3154
:100FC00020E034E244E759E40E94B73187FF76C05D
:100FD00020910601309107014091080150910901CB
:100FE000AAE0B0E00E94D62F60930601709307013B
:100FF000809308019093090183EDC82E8CE9D82EC7
:10100000D092A803C092A7031092AA031092A9033A
:1010100080E590E09093A4038093A303C0E2D0E026
:10102000D093A603C093A5038BEA91E00E94F1261A
:10103000609106017091070180910801909109016A
:101040002AE040EA52E00E94112FE12CF12C0CE042
:1010500010E022E330E040E250E06EE670E087E925
:1010600093E00E94C60CD092A803C092A7031092EE
:10107000AA031092A9038EE690E09093A4038093B4
:10108000A303D093A603C093A50380EA92E00E9435
:10109000F12602E010E020EA30E043E450E060E0B6
:1010A00070E087E993E00E94C60CDF91CF911F9119
:1010B0000F91FF90EF90DF90CF90089561E070E086
:1010C00080E090E091CF60910601709107018091DE
:1010D0000801909109012AE030E040E050E00E94D0
:1010E000712F20930601309307014093080150931C
:1010F000090182CF0F931F9380911001882339F04B
:1011000001E410E92FEF3FEF42EB51E006C000ECA5
:1011100019E220EC36E945EB51E068E280E00E94FC
:1011200007231F910F910895AF92BF92CF92DF9244
:10113000EF92FF920F931F93CF93DF93CDB7DEB75C
:10114000A0970FB6F894DEBF0FBECDBF2091170158
:10115000309118013A8329838AE0FE013396DF013A
:10116000982F1D929A95E9F73E872D873C96DF01CF
:101170001D928A95E9F760910201709103018091B7
:101180000401909105012AE0AE014F5F5F4F0E947C
:10119000112FFE013D969AE08AE05F012FE24EE2B8
:1011A000A1E0B0E0AC0FBD1FA80FB11D87FDBA953F
:1011B0003C91311104C0181614F48150F1CF9730CE
:1011C00011F42C8B0AC0933011F4488B06C087FDB4
:1011D00003C03287815001C02287915031979F3FD1
:1011E000F9F681E08093AB038091AF039091B00357
:1011F000892B49F48091A5039091A60306969093BC
:10120000A6038093A5038CE592E09093B0038093AE
:10121000AF0380EC96E99093AA038093A90390937F
:10122000A8038093A7039E01275E3F4F88E0F90142
:1012300011928A95E9F7CE014F966C01DE015D9619
:101240007D018E01055E1F4F40E450E06AE070E0D2
:10125000C5010E9403270F8D18A12D8D3E8D265F9D
:101260003F4F4B8D5C8D698D7A8DE12CF12C87E998
:1012700093E00E94C60C609102017091030180917D
:101280000401909105010E94BC3120E836E948E153
:101290005BE40E94B73187FD03C08AE090E002C0A2
:1012A00084E190E09093A4038093A30380E490E012
:1012B0009093A6038093A503C5010E94F126109286
:1012C000B0031092AF0383ED9CE99093A803809341
:1012D000A7031092AA031092A9031092A4031092DC
:1012E000A30380E290E09093A6038093A50388EB8C
:1012F00091E00E94F126A0960FB6F894DEBF0FBED3
:10130000CDBFDF91CF911F910F91FF90EF90DF90B4
:10131000CF90BF90AF9008952F923F924F925F92DF
:101320006F927F928F929F92AF92BF92CF92DF92F5
:10133000EF92FF920F931F93CF93DF93CDB7DEB75A
:10134000E1970FB6F894DEBF0FBECDBF80910201CA
:1013500090910301A0910401B09105018093DA01FD
:101360009093DB01A093DC01B093DD018091020139
:1013700090910301A0910401B091050120910A010F
:10138000820F911DA11DB11D892B8A2B8B2BD9F0AA
:1013900080911001811117C060910B0170910C01B7
:1013A000072E000C880B990B24E630E040E050E05B
:1013B0000E943A30322E432E542E652E762EB72FB1
:1013C000F82FE92F08C0312C412C512C612C712CA5
:1013D000B0E0F0E0E0E0232D342D452D562D672DB3
:1013E0007B2F8F2F9E2FAFEF0E948B312E373A41EC
:1013F00046405105610571058105910551F048F0A0
:1014000039A24AA25BA26CA27DA2BEA3FFA3E8A759
:101410000BC080E889A38AE18AA386E08BA31CA283
:101420001DA21EA21FA218A629A13AA14BA15CA130
:101430006DA17EA18FA198A52115314C4A415D4334
:10144000654071058105910569F060F019A281EC94
:101450008AA38AE18BA38DE38CA385E08DA31EA2D2
:101460001FA218A679A0AAA00BA11CA1BDA1AEA184
:10147000FFA1F8A4272D3A2DA8016B2F7A2F8F2FCB
:101480009F2D2115344E4B40544562407105810516
:10149000910509F008F40BC1E0900D03F0900E03E4
:1014A0008DE1482E83E0582E84E093E09AA789A727
:1014B0008C01F201D12C20813181428153816481E0
:1014C00075818681978138962115344E4B4054455D
:1014D000624071058105910561F058F0DD2049F009
:1014E000D80119968D919C911A978E159F0509F434
:1014F0004DC1D3940E5F1F4FB6E0DB12DCCF80915D
:10150000830381110BC083E00E941026682F6E7F39
:1015100083E00E94F52581E08093830329A13AA10D
:101520004BA15CA16DA17EA18FA198A520931D0365
:1015300030931E0340931F035093200360932103B5
:10154000709322038093230390932403FE013D961E
:101550004F01A12CB12CC12CD12CE12CF12C00E09D
:1015600010E00E94CB152BA73CA74DA75EA76FA745
:1015700078AB382E292E00910D0310910E030E9496
:10158000BF13612C712CD201EC901196FC90119735
:101590001296AC90129713960C91139714961C9177
:1015A00014971596BC91F201D680C780F8E04F0ED3
:1015B000511C97014A2D502F612F7B2F8D2D9C2D73
:1015C000A0E00E94973109F455C0E9A5FAA521854C
:1015D000328580910D0390910E032817390709F089
:1015E00049C0E98EFA8EAB8E0C8F1D8FBE8FDF8EB9
:1015F000C8A2CE0149960E94D21789AB298D3A8D97
:101600004B8D5C8D6D8D7E8DCE0101964C01ABA412
:10161000BCA4CDA4DEA4EFA4F8A8032D122D8F8DB9
:1016200098A10E94CB15AA24A394298D3A8D4B8DA5
:101630005C8D6D8D7E8D8F8D98A12F3F354D4141F5
:101640005E47634071058105910509F008F4A12CFE
:10165000AF9289A8C980DA80EB80FC800D811E8161
:101660002F81388549855A856B857C85C3010E9409
:10167000D0120F90BFEF6B1A7B0AE9A5FAA532963C
:10168000FAA7E9A7F6E06F16710409F07CCF809104
:101690000D0390910E03009711F460E204C00197CE
:1016A00009F074C060E881EB0E94F5256FC070926C
:1016B0001D03A0921E0300931F0310932003B093F9
:1016C0002103A0932203F0932303F092240380913B
:1016D000830381110BC083E00E941026682F6E7F68
:1016E00083E00E94F52581E080938303CE018196FB
:1016F0000E94D217782EE0910D03F0910E0329A1DC
:101700003AA14BA15CA16DA17EA18FA198A5EF2B61
:10171000A1F4A0905D03B0905E03C0905F03D090F1
:101720006003E0906103F090620300916303109105
:101730006403DE011D964D0113C0A0906503B090B7
:101740006603C0906703D0906803E0906903F0904F
:101750006A0300916B0310916C03FE013D964F01EB
:101760000E94CB151F92872CA12CCD84DE84EF84A0
:10177000F88809891A892B893C894D895E896F8986
:10178000788D80E090E00E94D0120F900E94940823
:101790000E9426250E943206E1960FB6F894DEBF1D
:1017A0000FBECDBFDF91CF911F910F91FF90EF90B2
:1017B000DF90CF90BF90AF909F908F907F906F9071
:1017C0005F904F903F902F900895DC01ED91FD9137
:1017D0008081ED91FD919081ED91FD916C9163700F
:1017E0008E2309F064609F2309F06860E2E0FCE06A
:1017F000E60FF11D659565956D936D917D918D91C8
:101800009D91099423C01AC012C016C010C01EC0FA
:1018100009C014C013C006C019C009C00DC007C05C
:101820000DC014C062507040804090400BC06150A9
:1018300070408040904006C06E5F01C06F5F7F4F78
:101840008F4F9F4F9E938E937E936E9308951F921A
:101850000F920FB60F9211242F933F934F935F93E4
:101860006F937F938F939F93AF93BF93EF93FF9368
:101870008091BA029091BB020E94E50BFF91EF911B
:10188000BF91AF919F918F917F916F915F914F9198
:101890003F912F910F900FBE0F901F9018951F92A0
:1018A0000F920FB60F9211242F933F934F935F9394
:1018B0006F937F938F939F93AF93BF93EF93FF9318
:1018C0008091B8029091B9020E94E50BFF91EF91CF
:1018D000BF91AF919F918F917F916F915F914F9148
:1018E0003F912F910F900FBE0F901F9018953FB70B
:1018F000F8948091E8019091E901A091EA01B091FA
:10190000EB0126B5A89B05C02F3F19F00196A11D3C
:10191000B11D3FBFBA2FA92F982F8827820F911D85
:10192000A11DB11DBC01CD0142E0660F771F881FCC
:10193000991F4A95D1F70895CF92DF92EF92FF92C7
:101940000F931F93CF93DF936C017A018B01C0E05B
:10195000D0E0CE15DF0581F0D8016D918D01D60163
:10196000ED91FC910190F081E02DC6010995892B44
:1019700011F02196EECF7E01C701DF91CF911F912B
:101980000F91FF90EF90DF90CF9008958F929F92EC
:10199000AF92BF92CF92DF92EF92FF920F931F937D
:1019A000CF93DF93EC016B015A014901E881F98182
:1019B0000284F385E02D0995E881F9810684F78595
:1019C000E02D9401A501B601CE010995E881F981C8
:1019D0000688F789E02DCE01DF91CF911F910F91FD
:1019E000FF90EF90DF90CF90BF90AF909F908F903F
:1019F0000994AF92BF92CF92DF92EF92FF920F9332
:101A00001F93CF93DF93EC017B016A015901E881B9
:101A1000F9810284F385E02D0995E881F981028836
:101A2000F389E02D9501A601B701CE010995E88162
:101A3000F9810688F789E02DCE01DF91CF911F91C2
:101A40000F91FF90EF90DF90CF90BF90AF900994EF
:101A50001F93CF93DF93EC01162FE881F981028465
:101A6000F385E02D0995112311F06BA901C06CA934
:101A7000CE010E94C222E881F9810688F789E02D13
:101A8000CE01DF91CF911F9109941F93CF93DF93E4
:101A9000EC0163706D8B29AD8AAD30E0623091F05E
:101AA0006330B9F0613039F03EAB2DAB90E098AFC8
:101AB0008FAB10EC14C038AF2FAB90E09EAB8DAB6A
:101AC00010EA0DC03EAB2DAB90E098AF8FAB10E0AD
:101AD00006C038AF2FAB90E09EAB8DAB10E6E8812F
:101AE000F9810284F385E02DCE01099566E3CE01EC
:101AF0000E94C222612FCE010E94C221E881F98199
:101B00000688F789E02DCE01DF91CF911F910994CE
:101B10008F929F92AF92BF92CF92DF92EF92FF92FD
:101B20000F931F93CF93DF93EC018DA99EA94B01D7
:101B3000880E991E8FA998AD480F591FC9010197AA
:101B4000880D991DA0E0B0E0A12CB12C540199247E
:101B50008824882A992AAA2ABB2A680181E0C81AFF
:101B6000D108C40ED51EC601A0E0B0E06A01E12C88
:101B7000F12C7601DD24CC24C82AD92AEA2AFB2AB2
:101B80006AE2CE010E94C22229A16B2D7727882705
:101B9000992727FF18C06EBD0DB407FEFDCFC50104
:101BA000AA27BB278EBD0DB407FEFDCFBB27AB2DEB
:101BB0009A2D892D8EBD0DB407FEFDCF8EBC0DB4C0
:101BC00007FEFDCF14C0CE010E94C221B5018827B7
:101BD0009927CE010E94C22199278B2D7A2D692D3C
:101BE000CE010E94C221682DCE010E94C2216BE26B
:101BF000CE010E94C22229A16F2D7727882799271D
:101C000027FF18C06EBD0DB407FEFDCFC701AA2780
:101C1000BB278EBD0DB407FEFDCFBB27AF2D9E2D7C
:101C20008D2D8EBD0DB407FEFDCFCEBC0DB407FECD
:101C3000FDCF14C0CE010E94C221B7018827992789
:101C4000CE010E94C22199278F2D7E2D6D2DCE01B0
:101C50000E94C2216C2DCE010E94C2216CE2CE01F5
:101C6000DF91CF911F910F91FF90EF90DF90CF9078
:101C7000BF90AF909F908F900C94C2221F93CF93F0
:101C8000DF93EC0163706D8B8BAD623009F443C060
:101C9000633009F461C099AD4AAD6130F1F0823032
:101CA00069F0843009F091C020EA30E03B872A8750
:101CB00020E530E03987288710EC09C010EC20EAD5
:101CC00030E03B872A8720E830E039872887892F52
:101CD00090E09EAB8DAB842F3BC0823069F08430A6
:101CE00009F07FC020EA30E03987288720E530E01E
:101CF0003B872A8710EA09C010EA20EA30E03987DA
:101D0000288720E830E03B872A87892F90E098AF2A
:101D10008FAB842F3EC0823069F0843009F06DC0F3
:101D200080EA90E09B878A8780E590E099878887A2
:101D300010E009C010E080EA90E09B878A8780E885
:101D400090E09987888789AD90E09EAB8DAB8AAD96
:101D500090E098AF8FAB20C0823069F0843009F0FA
:101D600058C080EA90E09987888780E590E09B875B
:101D70008A8710E609C010E680EA90E09987888794
:101D800080E890E09B878A8789AD90E098AF8FAB21
:101D90008AAD90E09EAB8DABE881F9810284F3853A
:101DA000E02DCE01099566E3CE010E94C222612F8B
:101DB000CE010E94C221E881F9810688F789E02DD1
:101DC000CE01DF91CF911F910994813041F420E839
:101DD00030E03B872A873987288718EC78CF18ECC2
:101DE0006ECF813041F420E830E0398728873B8787
:101DF0002A8718EA8ACF18EA80CF813041F480E838
:101E000090E09B878A879987888718E09CCF18E0A5
:101E100092CF813041F480E890E0998788879B8752
:101E20008A8718E6B1CF18E6A7CF0E943E338F927B
:101E30009F92AF92BF92CF92DF92EF92FF926B018F
:101E40007C010E94770C4B015C01C114D104E104B8
:101E5000F104F1F00E94770CDC01CB01881999099B
:101E6000AA09BB09883E9340A105B10570F321E0A2
:101E7000C21AD108E108F10888EE880E83E0981EA6
:101E8000A11CB11CC114D104E104F10419F7DDCF88
:101E9000FF90EF90DF90CF90BF90AF909F908F908A
:101EA00008951F93CF93DF93EC0141155105610510
:101EB000710521F440E054E264EF70E04A8F5B8FDB
:101EC0006C8F7D8F81E28BAB80E28CAB8E8D87FD3A
:101ED00007C061E00E94301D61E08E8D0E94011DEF
:101EE00061E08F8D0E94301D60E08F8D0E94011D8A
:101EF00089A187FD19C061E08AA10E94301D60E0C0
:101F00008AA10E94011D61E089A10E94301D61E04B
:101F100089A10E94011D8BA187FD03C060E00E9482
:101F2000301D89A187FF33C01FB7F8948091E2016B
:101F3000811127C0E6E2F8E08491E8E0F8E09491AE
:101F4000E82FF0E0EE0FFF1FEA52FD4FA591B4918C
:101F5000EC91E92321F461E08AE00E94011D61E037
:101F60008AE00E94301D8CB580618CBD8CB5806488
:101F70008CBD61E08DE00E94301D61E08BE00E942D
:101F8000301D8091E2018F5F8093E2011FBF88A125
:101F900087FD24C061E00E94301D61E088A10E949D
:101FA000011D64E670E080E090E00E94170F60E0A1
:101FB00088A10E94011D64E670E080E090E00E942C
:101FC000170F61E088A10E94011D68EC70E080E0BD
:101FD00090E0DF91CF911F910C94170FDF91CF917B
:101FE0001F9108951F920F920FB60F9211242F93F5
:101FF0003F938F939F93AF93BF938091DE01909116
:10200000DF01A091E001B091E1013091E70123E00F
:10201000230F2D3720F40196A11DB11D05C026E820
:10202000230F0296A11DB11D2093E7018093DE01CD
:102030009093DF01A093E001B093E1018091E8016A
:102040009091E901A091EA01B091EB010196A11DE7
:10205000B11D8093E8019093E901A093EA01B09348
:10206000EB01BF91AF919F918F913F912F910F9075
:102070000FBE0F901F9018952F923F924F925F9234
:102080006F927F928F929F92AF92BF92CF92DF9288
:10209000EF92FF920F931F93CF93DF93CDB7DEB7ED
:1020A000A4970FB6F894DEBF0FBECDBF380149012B
:1020B0004C8F5E872B01FF8AEE8A892B29F4E091F1
:1020C0006D03F0916E0304C0E0916F03F091700313
:1020D000FF27EE0FFF1FEE0FFF1FEF58FC4F608131
:1020E00071818281938124E630E040E050E00E94DB
:1020F0004930322E232E4D835E836F837887898704
:102100009A8786017501110FEE08FE2C8701950153
:10211000A6016E2D7E2D8E2D9E2D0FE10E944B313E
:10212000A12CEAECBE2EFAE9CF2EABE3DA2EE12C9D
:10213000F12C00E010E00E947630A32CB22CCD8070
:10214000DE80EF80F88409851A850E94E12F0FE177
:102150000E94663159016A01D601C501BB0F880B87
:10216000982FDC0189839A83AB83BC839501A601F8
:102170006981762F862F962FA32CB22CCD80DE80FE
:10218000EF80F88409851A850E948231322E232E31
:1021900049835D836E837F83888799879301A40138
:1021A0006C8D7E85C2012F3FA7E53A07A7E44A0759
:1021B000A8EF5A07ADE06A07710581059105A9F0FE
:1021C000A0F0211534404B46544F64417105810500
:1021D0009105B9F0B0F0612C04E0702E8BE6882EEA
:1021E00094EF992EF4E1FC8F09C0612C28E5722E42
:1021F00037E4832E48EF942EEDE0EC8F1E86412CC1
:10220000512CA32CB22CC980DD80EE80FF80088584
:1022100019859301A4016C8D7E85C2010E94A730AF
:10222000288F398F4A8F5B8F2A873B874C875D8742
:102230008A859B85AC85BD850F97A105B10518F4EE
:102240001FE0A12E0BC08A859B85AC85BD858B3593
:102250009105A105B105C0F0BAE5AB2EB12CC12C9A
:10226000D12CE12CF12C00E010E0232D322D4981FE
:102270005D816E817F81888599850E94E12F39017A
:102280004A016C8F7E872C01A32CB22CC980DD8083
:10229000EE80FF80088519859301A4016C8D7E85F1
:1022A000C2010E94A530E0E4AE2EF2E4BF2EAFE002
:1022B000CA2ED12CE12CF12C00E010E00E94E12F7D
:1022C000A32CB22CC980DD80EE80FF8008851985A3
:1022D0000E94A730C901DA010097A105B10529F4D0
:1022E000412C512C3201439407C060E4462E62E435
:1022F000562E6FE0662E712C5C016D0187E0AA0CF2
:10230000BB1CCC1CDD1C8A95D1F7AC8EBD8ECE8E4D
:10231000DF8EA32CB22CC980DD80EE80FF80088583
:10232000198560E070E080E090E00E94E12F630199
:102330005201E12CF12C87014E86BF86C88AD98ACA
:10234000EA8AFB8A0C8B1D8BE12CF12C00E010E05B
:102350000E94A7302E8738A349A35AA34B018CA310
:102360009BA3CA84DB84EC84FD8497E0CC0CDD1C49
:10237000EE1CFF1C9A95D1F702E0D01AE108F10893
:102380006C8D7D8D8E8D9F8DA30192010E94712F8A
:1023900089019A010C0D1D1D2E1D3F1DAE89BF899F
:1023A0000D931D932D933C931397FD0164837583C7
:1023B0008683978318964D925D926D927C921B97BF
:1023C000A32CB22CC980DD80EE80FF8008851985A2
:1023D000288D398D4A8D5B8D60E070E080E090E063
:1023E0000E94E12FAE84B8A0C9A0DAA074010CA1AC
:1023F0001BA10E948231A4960FB6F894DEBF0FBED7
:10240000CDBFDF91CF911F910F91FF90EF90DF90A3
:10241000CF90BF90AF909F908F907F906F905F9084
:102420004F903F902F90089585ED8093BC00809150
:10243000BC0084FDFCCF10927B02089540911002F5
:10244000262F30E0240F311D21323105DCF420919C
:102450007B022430C9F4FC0180E090E0861758F438
:10246000309110022191DC01A051BE4FA30FB11D8C
:102470002C930196F3CF80911002680F60931002A5
:1024800080E0089581E0089582E008950895089518
:102490000895E091340280913302E81730F4F0E0BF
:1024A000EB5CFD4F808190E008958FEF9FEF0895E2
:1024B0009091340280913302981750F4E92FF0E0A4
:1024C000EB5CFD4F208130E09F5F9093340202C0AF
:1024D0002FEF3FEFC90108958091330290E02091E2
:1024E0003402821B91090895CF92DF92EF92FF92FE
:1024F0000F931F93CF93DF937C01CB018A0120912F
:102500007C02222389F0EB016B01C40ED51ECC1591
:10251000DD0569F06991D701ED91FC910190F081A1
:10252000E02DC7010995F3CF642F0E941E12C80148
:10253000DF91CF911F910F91FF90EF90DF90CF909F
:102540000895CF93DF931F92CDB7DEB769832091B3
:102550007C022223D1F020919F02203240F021E022
:1025600030E0FC013383228380E090E015C080914D
:102570007D02E82FF0E0E258FD4F998190838F5F54
:1025800080937D0280939F0205C061E0CE01019699
:102590000E941E1281E090E00F90DF91CF9108958C
:1025A0002F923F924F925F926F927F928F929F9263
:1025B000AF92BF92CF92DF92EF92FF920F931F9351
:1025C000CF93DF93CDB7DEB72D970FB6F894DEBF6C
:1025D0000FBECDBF3C01C982DA82EB82FC820D8343
:1025E0001E832F83388749875A876B877C87BAA0D9
:1025F0009C2C2D2C4E2C302E1D87522EC984DA8413
:10260000EB84FC8484E190E00E941D328C01C301C4
:10261000992706973CF5F801D082C182862D880F54
:10262000880F880F845D0E941026942D93708C7FF4
:10263000892BF801828323829482D701C6012CE082
:10264000B695A795979587952A95D1F7807F952D73
:102650009F70C92EC80EC5828D858683932C3782C4
:1026600068E001C060E0E8E06E16710408F06CC03C
:10267000F301EC5CFF4F0C94B22FA8018AE20E9498
:10268000C2266A2D80E090E00E94AF264B2D682D77
:1026900080E090E057C0A80182E30E94C2266A2D24
:1026A00081E090E00E94AF264B2D682D81E090E004
:1026B00049C0A8018AE30E94C2266A2D82E090E008
:1026C0000E94AF264B2D682D82E090E03BC0A80110
:1026D00082E40E94C2266A2D83E090E00E94AF2629
:1026E0004B2D682D83E090E02DC0A8018AE40E9464
:1026F000C2266A2D84E090E00E94AF264B2D682D03
:1027000084E090E01FC0A80182E50E94C2266A2DE5
:1027100085E090E00E94AF264B2D682D85E090E08B
:1027200011C0692D8AE50E94F5254B2D682D86E0A4
:1027300090E008C0692D8BE50E94F5254B2D682D92
:1027400087E090E00E947826C8012D960FB6F89495
:10275000DEBF0FBECDBFDF91CF911F910F91FF90D4
:10276000EF90DF90CF90BF90AF909F908F907F9031
:102770006F905F904F903F902F900C94B5322F92B6
:102780003F924F925F926F927F928F929F92AF9201
:10279000BF92CF92DF92EF92FF920F931F93CF934E
:1027A000DF93CDB7DEB72E970FB6F894DEBF0FBE1E
:1027B000CDBF19013A014B018D879E872801012B5E
:1027C000C9F4E0916D03F0916E03EE0FFF1FEE0F61
:1027D000FF1FE758FC4FA080B180C280D380CE019C
:1027E00001967C0189019301AB016D857E8580E0B6
:1027F00090E018C0E0916F03F0917003EE0FFF1F9F
:10280000EE0FFF1FE758FC4FA080B180C280D3803D
:10281000FE0131967F0181019A01AB016D857E85B4
:1028200081E090E00E943C1084E190E00E941D3223
:102830008C0189859A85AB85BC85F801908381835D
:1028400039814A812B8123702283438334832CE096
:10285000B695A795979587952A95D1F7807F2D8175
:102860003E819F819F70890F858336832783411422
:102870005104C1F4A80168E08AE10E94C2262092B6
:102880005D0330925E0360925F03709260038092FA
:10289000610390926203FD85F09363038E858093BC
:1028A00064031AC04A944528B9F4A80168E082E29A
:1028B0000E94C226209265033092660360926703ED
:1028C000709268038092690390926A03ED85E093A9
:1028D0006B03FE85F0936C03C8012E960FB6F89437
:1028E000DEBF0FBECDBFDF91CF911F910F91FF9043
:1028F000EF90DF90CF90BF90AF909F908F907F90A0
:102900006F905F904F903F902F900C94B532DF9274
:10291000EF92FF920F931F93CF93DF93FC01E08020
:10292000F18002811381D481C581B681D78097015E
:10293000A8016D2F7C2F8B2F9D2D285938424C419B
:1029400051096109710981099109273938424C41BE
:102950005105610571058105910509F098F497010C
:10296000A8016D2F7C2F8B2F9D2D07E00E944B31EE
:102970002083318342835383648375838683978363
:1029800087E001C19701A8016D2F7C2F8B2F9D2D12
:102990002053314548435109610971098109910961
:1029A0002F32314548435105610571058105910577
:1029B00009F098F49701A8016D2F7C2F8B2F9D2D86
:1029C00006E00E944B31208331834283538364832A
:1029D00075838683978386E0D6C09701A8016D2F03
:1029E0007C2F8B2F9D2D2056324A4047510961097B
:1029F0007109810991092F35324A40475105610516
:102A000071058105910509F098F49701A8016D2FD2
:102A10007C2F8B2F9D2D05E00E944B31208331832D
:102A200042835383648375838683978385E0ABC039
:102A30009701A8016D2F7C2F8B2F9D2D205C344496
:102A4000414E510961097109810991092F3B3444B3
:102A5000414E5105610571058105910509F098F414
:102A60009701A8016D2F7C2F8B2F9D2D04E00E94D4
:102A70004B31208331834283538364837583868300
:102A8000978384E080C09701A8016D2F7C2F8B2F46
:102A90009D2D20583948424C5140610971098109E6
:102AA00091092F373948424C514061057105810524
:102AB000910509F098F49701A8016D2F7C2F8B2FB9
:102AC0009D2D03E00E944B31208331834283538349
:102AD000648375838683978383E055C09701A8013B
:102AE0006D2F7C2F8B2F9D2D33514548534061090D
:102AF0007109810991092F3F3241454853406105D1
:102B000071058105910509F098F49701A8016D2FD1
:102B10007C2F8B2F9D2D02E00E944B31208331832F
:102B200042835383648375838683978382E02BC0BB
:102B30009701A8016D2F7C2F8B2F9D2D36524A4077
:102B4000574061097109810991092F3F35424A4077
:102B50005740610571058105910509F098F49701C9
:102B6000A8016D2F7C2F8B2F9D2D01E00E944B31F2
:102B70002083318342835383648375838683978361
:102B800081E001C080E0DF91CF911F910F91FF9014
:102B9000EF90DF9008952F923F924F925F926F9245
:102BA0007F928F929F92AF92BF92CF92DF92EF92DD
:102BB000FF920F931F93CF93DF93CDB7DEB7689744
:102BC0000FB6F894DEBF0FBECDBF290149875A87E3
:102BD0003B011C01A982B98ACA8ADB8AEC8AFD8A78
:102BE0000E8B1F8B988A8F86211501EC30070AE126
:102BF00040070DE3500705E0600771058105910569
:102C000009F0C8F42F3710EF31071AEF410712E02F
:102C10005107610571058105910509F008F43BC173
:102C20002F3F354D41415E47634071058105910558
:102C300009F068F40AC1412CF1EC5F2EFAE1F98742
:102C40000DE30A87A5E06A2E712C212C312C2981F5
:102C500039894A895B896C897D898E899F89A0E041
:102C60000E94973109F077C09924939414E0E12EE3
:102C7000F12C00E010E0EB86FC860D871E87EB84CC
:102C8000FC840D851E85A801970160E070E0CB01F2
:102C90005201C984DA847301810129833A834B8309
:102CA0005C836D837E838F83988760E070E080E033
:102CB00090E00E94E12F2983398B4A8B5B8B6C8BD0
:102CC0007D8B8E8B9F8BFF24F3949F1409F409C195
:102CD00010E0812C912C5401839440E050E0BA0123
:102CE00001C011E0CB01BA01B7E0660F771F881F62
:102CF000991FBA95D1F7CB84DC84ED84FE8407E07C
:102D0000CC0CDD1CEE1CFF1C0A95D1F7A2E0DA1AF0
:102D1000E108F108A50194010E94712FC20ED31E93
:102D2000E41EF51EEF85F889C082D182E282F3822B
:102D3000648375838683978380869186A286B38613
:102D4000111103C1298139894A895B896C897D897F
:102D50008E899F890EC111E0188F5201C984DA84CF
:102D600073018101298139894A895B896C897D894F
:102D70008E899F890E94A7302B873C874D875E876D
:102D80008B859C85AD85BE850697A105B10520F490
:102D900006E0A02EB12C0FC0EB84FC840D851E85AF
:102DA00029E0E21627E0F20601051105C8F0B8E0B7
:102DB000AB2E17E0B12EC12CD12CE12CF12C00E070
:102DC00010E0298139894A895B896C897D898E89DE
:102DD0009F890E94A730290149875A873B011C011E
:102DE0005201C984DA8473018101298139894A89B0
:102DF0005B896C897D898E899F890E94A530E0E47A
:102E0000AE2EF2E4BF2EAFE0CA2ED12CE12CF12C75
:102E100000E010E00E94E12F5201C984DA847301BE
:102E200081010E94A730A32FF42FE52F422F5A2FA4
:102E30006F2F7E2F411551056105710509F068C09E
:102E4000812C912C540183946AC0298139894A8943
:102E50005B896C897D898E899F89A0E00E9497316A
:102E6000F1F55201C984DA847301810120E034E074
:102E70004BE654EF64E170E080E090E00E94A73000
:102E8000122FB32FF42FE52FA7E00E94973101F501
:102E900016E0B0E01BC0298139894A895B896C89B9
:102EA0007D898E899F89A0E00E94973109F053C0E7
:102EB00020E8422E30EF532EBAEFB987E2E0EA87DE
:102EC000612C712C212C312C18E0B7E0F0E0E0E00F
:102ED000CF011B87BC879D87EE87912CD0CE188EA3
:102EE0003CCFAF85B8891D921D921D921C921397FD
:102EF000FD011482158216821782C12CD12C760115
:102F0000C3941896CD92DD92ED92FC921B9731C03E
:102F100020E4822E22E4922E2FE0A22EB12CF88DF6
:102F2000F13009F0DECEEF85F8891082118212822D
:102F30001382148215821682178281E090E0A0E04D
:102F4000B0E080879187A287B387920149855A852F
:102F5000B301C1010EC0188E80E8482E90EF592EA3
:102F60000AEF098712E01A87612C712C212C312C71
:102F7000F4CE68960FB6F894DEBF0FBECDBFDF91DA
:102F8000CF911F910F91FF90EF90DF90CF90BF9066
:102F9000AF909F908F907F906F905F904F903F90F9
:102FA0002F900895DF92EF92FF920F931F93CF938C
:102FB000DF93FC01E080F18002811381D481C5811F
:102FC000B681D7809701A8016D2F7C2F8B2F9D2D67
:102FD00020583A4146405109610971098109910916
:102FE0002F373A414640510561057105810591052C
:102FF00009F098F49701A8016D2F7C2F8B2F9D2D40
:1030000007E00E944B3120833183428353836483E2
:1030100075838683978387E0FDC09701A8016D2F94
:103020007C2F8B2F9D2D35534C405109610971091F
:10303000810991092F3F34434C40510561057105C9
:103040008105910509F098F49701A8016D2F7C2F57
:103050008B2F9D2D06E00E944B31208331834283CC
:103060005383648375838683978386E0D3C09701F7
:10307000A8016D2F7C2F8B2F9D2D3A564841510969
:1030800061097109810991092F3F3946484151056C
:10309000610571058105910509F098F49701A80172
:1030A0006D2F7C2F8B2F9D2D05E00E944B312083AF
:1030B000318342835383648375838683978385E05A
:1030C000A9C09701A8016D2F7C2F8B2F9D2D345DFA
:1030D0004043510961097109810991092F3F334D1D
:1030E00040435105610571058105910509F098F48A
:1030F0009701A8016D2F7C2F8B2F9D2D04E00E943E
:103100004B31208331834283538364837583868369
:10311000978384E07FC09701A8016D2F7C2F8B2FB0
:103120009D2D385A4146510961097109810991095A
:103130002F3F374A414651056105710581059105CB
:1031400009F098F49701A8016D2F7C2F8B2F9D2DEE
:1031500003E00E944B312083318342835383648395
:1031600075838683978383E055C09701A8016D2FEF
:103170007C2F8B2F9D2D3055434C510961097109CE
:10318000810991092F3F3F44434C51056105710569
:103190008105910509F098F49701A8016D2F7C2F06
:1031A0008B2F9D2D02E00E944B312083318342837F
:1031B0005383648375838683978382E02BC0970152
:1031C000A8016D2F7C2F8B2F9D2D305A46485140E2
:1031D00061097109810991092F3F3F4946485140D2
:1031E000610571058105910509F098F49701A80121
:1031F0006D2F7C2F8B2F9D2D01E00E944B31208362
:10320000318342835383648375838683978381E00C
:1032100001C080E0DF91CF911F910F91FF90EF905F
:10322000DF900895FF920F931F93CF93DF93EC01EC
:103230008B01F82E80E1F80E8F2D0E9410260115CB
:10324000110511F48F7D04C00130110509F480626D
:10325000682F8F2D0E94F525DD27CC0FDD1FCC5F59
:10326000DC4F1A870987DF91CF911F910F91FF9053
:103270000895CF92DF92EF92FF920F931F93CF9317
:10328000DF93EC012196FC01F490FF2009F43FC08C
:1032900087E993E00E94B720FE01649187E993E0FB
:1032A0000E94C2226E01F2E0CF0ED11CFE013196C7
:1032B000C4918C2F8078E82ECF778601DC2FD150F7
:1032C00048F0F801649187E993E00E94C2210F5F02
:1032D0001F4FF5CFC6018C0F911DEC0187E993E0DC
:1032E0000E94ED1DE11002C0FA94CFCF8E010F5F56
:1032F0001F4FFE01649170E06F3F710511F464EFA0
:1033000071E080E090E00E94170FE801EDCFDF91BF
:10331000CF911F910F91FF90EF90DF90CF90089584
:103320002F923F924F925F926F927F928F929F92D5
:10333000AF92BF92CF92DF92EF92FF920F931F93C3
:10334000CF93DF93CDB7DEB76B970FB6F894DEBFA0
:103350000FBECDBF9B8F8A8F5B011A01D22E1F83B8
:103360000E833701C982DC0158962D913C91599703
:103370002115310509F0E6C018968D919C91199799
:10338000681779070CF0CDC11A968D919C911B9707
:10339000481759070CF0C5C18C2C912CFB0126E075
:1033A000C29EE00DF11D1124FB87EA871E161F0641
:1033B0000CF0B7C1A40183E0440F551F8A95E1F7D3
:1033C0005D874C87CA01820D931D181619060CF0F3
:1033D000A8C157968C91811104C05FEA5D1508F46D
:1033E000D394AA8DBB8DED91FC9111970284F38546
:1033F000E02DCD010995B5E0DB9EC0011124F5015A
:103400003596FF87EE87BB82AA8225019C012A1987
:103410003B09398B288BA101485F5F4F5B8B4A8B3F
:10342000E889F989E40DF51DEC50FD4F549158875A
:1034300061013D822C82888580FF13C0AA8DBB8DDF
:10344000ED91FC91B981B13031F40484F585E02D22
:103450002E813F8116C00684F785E02DEE80FF8027
:103460001AC0EE81FF81E615F705F1F0AA8DBB8D3C
:10347000ED91FC91B981B13051F40484F585E02DD2
:103480009301A601B2018A8D9B8D09950DC006841A
:10349000F785E02D7301840194014C815D816A817F
:1034A0007B818A8D9B8D0995E885E695E887FFEFFE
:1034B000CF1ADF0A2C813D81280D391D3D832C83D5
:1034C0004A895B89C416D50609F0B5CF5FEF451A66
:1034D000550A8A819B81880D991D9B838A83AE85BD
:1034E000BF854A165B0609F09BCFEE81FF81E6158A
:1034F000F70509F4F4C0EA8DFB8DA081B181F98153
:10350000F13079F4B5016B5F7F4F5096ED91FC91EE
:103510005197830128E030E0A1018A8D9B8D0995A8
:10352000DEC06A857B85681979091E96ED91FC914C
:103530001F9773010C851D859401A1018A8D9B8DB8
:103540000995CDC0F9013496E491DE1AF90132965D
:1035500085919491B7E0DB9E800D911D1124F901B6
:10356000259134913B8B2A8BFC01259134912901C3
:10357000FC013296C490319634913E873296149174
:103580003196D4904981423058F0612E012E000CC2
:1035900077088D2D0D2C000C990B9987888704C016
:1035A00019861886612C712CAA8DBB8DED91FC912A
:1035B00011970284F385E02DCD010995B9818B2EF9
:1035C000912C689CC001699C900D789C900D1124F1
:1035D000FC01EA0DFB1DFD87EC871A82712C612C22
:1035E000E12F110FFF0B95012E0F3F1F3B872A87FD
:1035F000AC0CB11CA5014E0F5F1F5F8B4E8BC10140
:103600008D0D911DD7FC9A95998F888F9E8569168F
:1036100008F065C0862D90E048855985480F591FF0
:10362000489D9001499D300D589D300D1124D101C8
:10363000A20FB31FB98BA88BEC85FD85FD83EC83AE
:10364000AA84BB84DA80FA85DF1A288D398D280F89
:10365000391F3D8B2C8B8D2D8A0D4E895F89A416C9
:10366000B506C1F1877041F4C2010196EA89FB8970
:10367000E40DF51D74902C0177FE21C0AA8DBB8D41
:10368000ED91FC91B981B13061F40484F585E02DB0
:103690002E813F814C895D89B5018A8D9B8D09956D
:1036A0000EC00684F785E02DEE80FF808401940132
:1036B000488959896C817D818A8D9B8D0995770C0C
:1036C000EFEFAE1ABE0A2C813D81280D391D3D83D6
:1036D0002C83C1CF3A813C0D3A83639497CFAA8D56
:1036E000BB8DED91FC9111970688F789E02DCD01F6
:1036F0006B960FB6F894DEBF0FBECDBFDF91CF91B2
:103700001F910F91FF90EF90DF90CF90BF90AF90FF
:103710009F908F907F906F905F904F903F902F90F1
:1037200009946B960FB6F894DEBF0FBECDBFDF9144
:10373000CF911F910F91FF90EF90DF90CF90BF90AE
:10374000AF909F908F907F906F905F904F903F9041
:103750002F9008951F920F920FB60F9211242F935E
:103760003F934F935F936F937F938F939F93AF9309
:10377000BF93EF93FF938091B900887F803609F45F
:103780009CC068F5883209F45BC090F4803109F47C
:1037900054C038F4882309F4F6C0883009F44DC0C9
:1037A000F6C0883109F44CC0803209F45DC0EFC026
:1037B000803409F468C048F4803309F455C0883374
:1037C00009F0E5C080937902D8C0803509F44FC074
:1037D000883509F45DC0883409F0D9C0D6C088396D
:1037E00009F4C7C0A8F4883709F467C038F48836EC
:1037F00009F463C0803709F460C0C9C0883809F48F
:10380000B8C0803909F45FC0803809F0C0C05BC01F
:10381000803B09F486C038F4803A09F466C0883ADF
:1038200009F47FC0B4C0803C09F4A7C0883C09F407
:10383000A4C0883B09F48AC0AAC08091560210C077
:103840009091780280917702981770F5E091780254
:1038500081E08E0F80937802F0E0E95AFD4F80817D
:103860008093BB0085EC86C0809379028EC0E09186
:10387000780281E08E0F809378028091BB00F0E0A7
:10388000E95AFD4F808390917802809177026EC053
:10389000E091780281E08E0F809378028091BB00E6
:1038A000F0E0E95AFD4F808380917A0281116DC06A
:1038B00081E08093550284EA61C083E080937B02BB
:1038C00010923202CFCF80913202803208F051C084
:1038D000E091320281E08E0F809332028091BB0032
:1038E000F0E0EE5EFD4F8083BDCF85EC8093BC00A1
:1038F00010927B0280913202803230F4E0913202E9
:10390000F0E0EE5EFD4F10826091320270E0E091D7
:10391000EE01F091EF0182E192E0099510923202FE
:1039200036C084E080937B02109211021092100244
:10393000E091EC01F091ED01099580911002811167
:1039400005C081E0809310021092F001E091110215
:1039500081E08E0F80931102F0E0E051FE4F8081F4
:103960008093BB009091110280911002981708F487
:1039700079CF85E88093BC000AC085EC8093BC00B9
:1039800010927B0204C0109279020E941412FF91DF
:10399000EF91BF91AF919F918F917F916F915F91C7
:1039A0004F913F912F910F900FBE0F901F90189540
:1039B000833081F028F4813099F08230A1F00895AD
:1039C0008730A9F08830B9F08430D1F4809180003C
:1039D0008F7D03C0809180008F7780938000089551
:1039E00084B58F7702C084B58F7D84BD08958091A2
:1039F000B0008F7703C08091B0008F7D8093B000BE
:103A000008951F93CF93DF93282F30E0F901E05200
:103A1000FD4F8491F901E250F84FD491F901E45E31
:103A2000F74FC491CC23C1F0162F81110E94D81CEE
:103A3000EC2FF0E0EE0FFF1FEE5EF74FA591B49173
:103A40009FB7F894111104C08C91D095D82302C06F
:103A5000EC91DE2BDC939FBFDF91CF911F910895F6
:103A6000CF93DF9390E0FC01E250F84F2491FC01EA
:103A7000E45EF74F8491882361F190E0880F991FED
:103A8000FC01EA52FD4FC591D491FC01EE5EF74F67
:103A9000A591B491611109C09FB7F89488812095D0
:103AA00082238883EC912E230BC0623061F49FB790
:103AB000F8948881322F309583238883EC912E2BC4
:103AC0002C939FBF06C08FB7F894E8812E2B2883D4
:103AD0008FBFDF91CF910895AF92BF92CF92DF92C7
:103AE000EF92FF920F931F93CF93DF93EC017B0133
:103AF0006A015901E881F9810284F385E02D099575
:103B0000E881F9810088F189E02D9501A601B701CE
:103B1000CE010995E881F9810688F789E02DCE016B
:103B2000DF91CF911F910F91FF90EF90DF90CF9099
:103B3000BF90AF900994CF92DF92EF92FF920F93D4
:103B40001F93CF93DF93EC018B017A016901E88128
:103B5000F9810284F385E02D0995E881F9810484D7
:103B6000F585E02D9601A701B801CE010995E88100
:103B7000F9810688F789E02DCE01DF91CF911F9161
:103B80000F91FF90EF90DF90CF900994EF92FF920A
:103B90000F931F93DC01ED91FC910684F785E02DD6
:103BA000780101E010E009951F910F91FF90EF90CF
:103BB0000895EF92FF920F931F93DC01ED91FC911A
:103BC0000684F785E02D7801890121E030E0099530
:103BD0001F910F91FF90EF900895FC0191A904A40B
:103BE000F5A5E02D8081892B808308950895FC013F
:103BF0006370658B8481958126813781613039F0CE
:103C0000633029F091878087338722870895318731
:103C100020879387828708956F927F928F929F92D9
:103C2000AF92BF92CF92DF92EF92FF920F931F93CA
:103C3000CF93DF93EC014B015A0169013801E88110
:103C4000F9810284F385E02D0995E881F9810288E4
:103C5000F389E02D87019601A501B401CE010995F4
:103C6000A501460D571D41505109E881F98102888F
:103C7000F389E02D9601B401CE010995E881F9811F
:103C80000088F189E02D9301A501B401CE010995C9
:103C9000C80CD91CB60161507109E881F98100880E
:103CA000F189E02D9301A501CE010995E881F98103
:103CB0000688F789E02DCE01DF91CF911F910F91FA
:103CC000FF90EF90DF90CF90BF90AF909F908F903C
:103CD0007F906F9009948F929F92AF92BF92CF92F4
:103CE000DF92EF92FF920F931F93CF93DF934C01DC
:103CF0006B015A01E901DC01ED91FC916217730738
:103D000081F40417150724F48B2D5801042F182F64
:103D10000A191B0998012F5F3F4F048CF58DE02D88
:103D200012C04017510709F52617370724F48D2DC7
:103D30006901C62FD82F9E012C193D092F5F3F4FD7
:103D4000068CF78DE02D8701A501B601C401099508
:103D5000DF91CF911F910F91FF90EF90DF90CF9067
:103D6000BF90AF909F908F9008950284F385E02DCF
:103D70000995D401ED91FC910488F589E02D9E010F
:103D8000A501B601C4010995D401ED91FC91068805
:103D9000F789E02DC401DF91CF911F910F91FF9022
:103DA000EF90DF90CF90BF90AF909F908F9009944D
:103DB000EF92FF920F931F93DC011A960D911C91C5
:103DC0001B9718962D913C911997ED91FC9100A0AD
:103DD000F1A1E02D7B0140E050E060E070E009954A
:103DE0001F910F91FF90EF9008954F925F926F9205
:103DF0007F928F929F92AF92BF92CF92DF92EF927B
:103E0000FF920F931F93CF93DF936C012B015A0105
:103E100039014801DC01ED91FC910284F385E02D2C
:103E20000995E201640C751CD601ED91FC91C61553
:103E3000D7055CF40088F189E02D87019401A50184
:103E4000BE01C60109952196EFCF0688F789E02DBE
:103E5000C601DF91CF911F910F91FF90EF90DF90FE
:103E6000CF90BF90AF909F908F907F906F905F901A
:103E70004F9009948F929F92AF92BF92CF92DF9210
:103E8000EF92FF920F931F93CF93DF93EC015B01AF
:103E90004A016901E881F9810284F385E02D0995E1
:103EA00095012C0D3D1D21503109E881F9810488CF
:103EB000F589E02D78018401A401B501CE010995B1
:103EC000E881F9810688F789E02DCE01DF91CF9155
:103ED0001F910F91FF90EF90DF90CF90BF90AF9028
:103EE0009F908F9009948F929F92AF92BF92CF92A2
:103EF000DF92EF92FF920F931F93CF93DF93EC012A
:103F00005B014A0169017801E881F9810284F38546
:103F1000E02D0995C80CD91C860101501109E881D2
:103F2000F9810488F589E02D9501A401B501CE0140
:103F30000995E881F9810688F789E02DCE01DF91A6
:103F4000CF911F910F91FF90EF90DF90CF90BF9096
:103F5000AF909F908F900994EF92FF920F931F93D1
:103F6000DC01ED91FC9100A0F1A1E02D09951F91DC
:103F70000F91FF90EF9008950F931F93DC01ED9147
:103F8000FC91068CF78DE02D09951F910F910895F6
:103F90000F931F93DC01ED91FC91048CF58DE02DC6
:103FA00009951F910F910895DC01ED91FC9100841A
:103FB000F185E02D09942F923F924F925F926F927C
:103FC0007F928F929F92AF92BF92CF92DF92EF92A9
:103FD000FF920F931F93CF93DF9300D000D000D0B8
:103FE000CDB7DEB72C017E836D836A015901C8010C
:103FF000FC82EB824801841A950A97FE03C09194D3
:104000008194910835012D813E81621A730A77FEF1
:1040100003C0719461947108681479045CF43A2DBA
:104020002B2D5C01832F922F3D812E81DE82CD824C
:10403000C32ED22EAD81BE81AA16BB065CF43C2DE8
:104040002D2D6C01832F922F3D812E81BE82AD825A
:10405000A32EB22E85012D813E81021B130B1C0164
:104060002C183D0837FE03C03194219431087801A3
:1040700017FF03C03FEFE31AF30AF594E794C8165D
:10408000D9062CF08FEF9FEF9A83898304C0A1E0BB
:10409000B0E0BA83A9832D813E81A216B30624F134
:1040A000D201ED91FC910484F585E02D2B813C81BA
:1040B0006814790424F44D815E81B60103C0A60121
:1040C0006D817E81C2010995E218F308F7FE06C0F2
:1040D00029813A81C20ED31EE00EF11E8D819E8190
:1040E00001969E838D83D7CF26960FB6F894DEBFB8
:1040F0000FBECDBFDF91CF911F910F91FF90EF9039
:10410000DF90CF90BF90AF909F908F907F906F90F7
:104110005F904F903F902F90089520910D0130E0D7
:104120008091000190E001972817390724F4E0916D
:104130000D01EF5F01C0E0E085E0E802F00111242D
:10414000EB5CFE4F238134813695279581819281E6
:10415000280F391FA8EEB3E00E94C02F6093020120
:104160007093030180930401909305010895FC016D
:1041700081A187FF1EC0428D538D648D758D80E0B7
:1041800092E1AAE7B0E020E0481759076A077B07E9
:1041900040F4B695A795979587952F5F2630A1F7A0
:1041A00027E091E09227892F806A869591708CBDD7
:1041B0009DBD81A904A4F5A5E02D9081809589235A
:1041C00080830895AF92BF92CF92EF92FF920F93A8
:1041D0001F93CF93DF93EC01262F888D998D009745
:1041E00009F040C06A3059F41D861C862C898E85E2
:1041F0009F8538E0239F800D911D112441C06D30B3
:1042000009F4AAC08E898823C1F03C898C859D85DC
:1042100046E0349F800D911D11244885598548172B
:1042200059075CF41D861C868E859F8548E0349F67
:10423000800D911D11249F878E87EA88FB8808894D
:1042400019894E855F856C857D85CC88CE010E945D
:1042500090192C898C859D8536E0239F800D911DBA
:10426000112442C06A3079F41D861C862C89FC0119
:104270003696E4918E859F852E9F800D911D112489
:104280009F878E8769C06D3009F466C0FC01349643
:104290003491631708F460C03196E491E61708F48E
:1042A0005BC0FC01329665917491422F50E0431B34
:1042B000510937E0349F5001359FB00C1124A60EF0
:1042C000B71EF501329634913196E491332311F003
:1042D000E1110DC0F5013496E4912C898C859D8502
:1042E000E29F800D911D11249D878C8735C0F501BB
:1042F000359644915E89552311F16C89E32FF0E0E6
:10430000E40FF11D47FDFA956E9FD0016F9FB00D30
:1043100011244C855D854A0F5B1FE885F985E417FC
:10432000F5076CF41D861C86FC013696E4918E859B
:104330009F856E9F800D911D11249F878E87EA882F
:10434000FB88088919894E855F856C857D85CC88B9
:10435000CE010E949019BECF81E090E0DF91CF9115
:104360001F910F91FF90EF90CF90BF90AF90089565
:10437000E2E0F1E0908581E0892780870E943407A0
:104380000C948C09FC0181A187FF05C06EBD0DB4A2
:1043900007FEFDCF089588E090E020E8A4A1B5A134
:1043A000362F322321F046A53C91342B04C036A58C
:1043B0004C91309534233C9330A9A0A5B1A54C91E4
:1043C000309534233C9340A9A0A5B1A53C91342B52
:1043D0003C932695019711F708954F925F926F9243
:1043E0007F928F929F92AF92BF92CF92DF92EF9285
:1043F000FF920F931F93CF93DF93EC016B01590151
:10440000480128853985621773070CF067C08A85D3
:104410009B85481759070CF061C08B010A0D1B1DC5
:10442000F8013197DA01A80DB91DBD01615071097C
:10443000F7FD54C077FD52C0D7FE03C05801C12C10
:10444000D12C57FF03C04D0140E050E0E217F307C5
:104450001CF05901AC18BD08681779071CF04C0115
:10446000841A950A9501D4010E94B82F3B01582E59
:10447000492EE881F98102A4F3A5E02D8401B6015B
:10448000CE0109954301A52CB42C89A187FF13C047
:1044900081149104A104B10409F1FEBC0DB407FE1E
:1044A000FDCFEEBC0DB407FEFDCF81E0881A910868
:1044B000A108B108EDCF81149104A104B10471F0F9
:1044C0006F2DCE010E94C2216E2DCE010E94C2210D
:1044D00081E0881A9108A108B108EDCFDF91CF9152
:1044E0001F910F91FF90EF90DF90CF90BF90AF9012
:1044F0009F908F907F906F905F904F900895EF9274
:10450000FF920F931F93CF93DF93EC0177FD33C09E
:10451000888599856817790774F557FD2CC08A85B9
:104520009B85481759073CF5E32EF22EE881F98167
:1045300002A4F3A5E02D01E010E021E030E0CE017F
:10454000099589A187FF09C0EEBC0DB407FEFDCF18
:10455000FEBC0DB407FEFDCF0EC06E2DCE010E9435
:10456000C2216F2DCE01DF91CF911F910F91FF904E
:10457000EF900C94C221DF91CF911F910F91FF908A
:10458000EF900895CF93DF93EC018AA9EAA5FBA5EC
:104590009081809589238083CE010E94C2219AA9AF
:1045A000EAA5FBA58081892B8083DF91CF910895B7
:1045B0000F931F9360E070E087E993E00E94D81E9C
:1045C000E0910E01F0910F01EE0FFF1FED5DFE4F28
:1045D0004081518108E012E023E734E167E280E5A1
:1045E0000E9407230E947A080E94E9248FEF0E940C
:1045F000BC070E9432060E94940881E00E94FE23BC
:104600008CE00E94FE231F910F910C9434072F928F
:104610003F924F925F926F927F928F929F92AF9252
:10462000BF92CF92DF92EF92FF920F931F93CF939F
:10463000DF93CDB7DEB72C970FB6F894DEBF0FBE71
:10464000CDBF5C874B8759014801262F30E03A8760
:104650002987282E312C87E993E00E94B7206984AE
:104660007A8434E0631A7108610142E0C40ED11CFF
:1046700078010FE010E0930140E050E0B60187E9D7
:1046800093E00E94ED21E984FA84E20CF31C2701F7
:1046900053E0451A510884012AE030E041E062E02D
:1046A00070E0C2010E9410292AE030E042E062E09E
:1046B00070E0C6010E94102987E993E00E94ED1D79
:1046C00087E993E00E94B7208501930140E050E024
:1046D000B60187E993E00E94C61D93014EE050E0C9
:1046E000B60187E993E00E94C61D2BE030E042E06E
:1046F00050E0B10187E993E00E94D91DB7016150F4
:1047000071092BE030E042E050E087E993E00E943D
:10471000D91D950141E062E070E0C6010E947A284F
:10472000950142E062E070E0C2010E947A289501A2
:1047300044E06CE070E0C2010E947A28950148E0F4
:104740006CE070E0C6010E947A2887E993E00E943D
:10475000ED1D9E012F5F3F4F88E0F90111928A9570
:10476000E9F7AE01495F5F4F6A01CE0105967C0112
:104770008E010D5F1F4F40E050E0B1018B859C859D
:104780000E9403278F8198852FE030E0281B390B8A
:10479000369527952F5F3F4F8D819E81E985FA855C
:1047A000E81BF90BCF0196958795280E391EE7E98E
:1047B000F3E0B18AA08A938A828A35862486378775
:1047C00026878B859C850E94F1262C960FB6F8943F
:1047D000DEBF0FBECDBFDF91CF911F910F91FF9034
:1047E000EF90DF90CF90BF90AF909F908F907F9091
:1047F0006F905F904F903F902F9008953F924F920F
:104800005F926F927F928F929F92AF92BF92CF9260
:10481000DF92EF92FF920F931F93CF93DF93C82FF6
:10482000A8E0EA2EA2E0FA2E0AE010E020EA30E04A
:1048300046E750E060E070E087E993E00E940C1EDC
:10484000809100038C1709F4B2C0CD3020F4C1115F
:1048500003C0C1E001C0CCE0809100038C1708F0D8
:1048600076C0D09100036EE0762E7BE2672EE0E307
:104870005E2EFEE6AF2EB12CDC1708F066C0E6EF28
:10488000ED0FE33040F4F0E0EE0FFF1FE35AFE4F70
:10489000C080D18006C040EEC42E47E0D42EDA306E
:1048A00010F022E001C020E08D2E912CC401019770
:1048B000879D302C112432E0432E430CDB3011F461
:1048C00062E001C060E030E0235F3F4F70E0640DC4
:1048D000711D760106E010E048E750E087E993E0BB
:1048E0000E94C60C4AE060EA72E0C401DA3090F03F
:1048F00001960E94F72E6092A0025092A20210929E
:10490000A302DA3019F42BEF422E02C09EEF492E9B
:10491000430C02C00E94F72ED092A803C092A703B6
:104920001092AA031092A903842D90E0049690930C
:10493000A4038093A303B092A603A092A50380EAE8
:1049400092E00E94F126DF5F97CFC0930003809131
:104950000003C81760F5D09100038EE0D82ECD1764
:1049600020F5DA3018F42EE030E002C020E130E02B
:104970008D2F90E00197D89EA001D99E500D112453
:10498000DB3019F062E070E002C064E070E0640FB8
:10499000751FE12CF12C06E010E048E750E087E9B4
:1049A00093E00E94C60CD150DACFC0930003DF9190
:1049B000CF911F910F91FF90EF90DF90CF90BF901C
:1049C000AF909F908F907F906F905F904F903F90AF
:1049D0000895EF92FF920F931F9390910D01809194
:1049E0000001981307C000E018E620E038EE44ED1F
:1049F00051E015C0E0910D0185E0E89FF001112420
:104A0000EB5CFE4F80814AE060EA72E090E00E9439
:104A1000F72E00EC19E220EC36E940EA52E068E2B9
:104A200088E70E940723E12CF12C0AE010E02FE92F
:104A300030E04EE550E060E070E087E993E00E94EE
:104A4000C60C1F910F91FF90EF900895AF92BF9207
:104A5000CF92DF92EF92FF920F931F93CF93DF934A
:104A6000D091000105E311E0C0E088EEC82E83E09C
:104A7000D82EE12CF12CDC17D9F160910201709154
:104A800003018091040190910501F801A180B28099
:104A9000A70196010E94712FC501A0E0B0E0281780
:104AA00039074A075B07B0F1609102017091030179
:104AB0008091040190910501A70196010E94712F38
:104AC000F801838194818A0D9B1DA0E0B0E08217DC
:104AD0009307A407B507F0F080910D01C81721F0E6
:104AE000C0930D010E94E92480910001C81316C0F3
:104AF00080910D018C1791F0C0930D01DF91CF9142
:104B00001F910F91FF90EF90DF90CF90BF90AF90EB
:104B10000C94E924CF5F0B5F1F4FADCFDF91CF9196
:104B20001F910F91FF90EF90DF90CF90BF90AF90CB
:104B30000895282F30919F02313208F04AC08091A9
:104B40007B028111FCCF90919E0242E040937B0258
:104B500020937A022FEF20937902109278023093FB
:104B60007702EEE7F2E0A7E5B2E020E0321721F0AD
:104B700041914D932F5FFACF109256022091560229
:104B8000990F922B9093560290915502913061F4B7
:104B900010925502909156029093BB009091BC00E8
:104BA00093FDF8CF95EC01C095EE9093BC009091E9
:104BB0007B029230E1F3909179029F3F79F08091EE
:104BC0007902803241F080917902803331F084E0C3
:104BD00005C081E003C082E001C083E010927D0245
:104BE00010929F0210927C020895CF93C62F90914D
:104BF000820321E020937C0290939E0210927D021A
:104C000010929F02682F8CEA92E00E94A1126C2FF2
:104C10008CEA92E00E94A11281E0CF910C94992538
:104C2000CF939091820321E020937C0290939E0287
:104C300010927D0210929F02682F8CEA92E00E94EF
:104C4000A11281E00E9499258091820390917B02BC
:104C50009111FCCF91E090937B0210927A022FEF9A
:104C60002093790210927802109277029093560264
:104C700090915602880F892B80935602809155029D
:104C8000813061F410925502809156028093BB00EE
:104C90008091BC0083FDF8CF85EC01C085EE809348
:104CA000BC0080917B028130E1F380917802811118
:104CB00003C0C091780201C0C1E0E7E5F2E0A5E3DE
:104CC000B2E080E08C1721F091919D938F5FFACF35
:104CD00010923402C093330280E090913402C917DD
:104CE00029F08CEA92E00E945812F7CFCF910895F4
:104CF000FF920F931F93CF93DF938C01C62FF42E57
:104D00008830910528F4FC01E35DFE4FD08101C09D
:104D1000D0E08D2F0E9410260630110544F48378D0
:104D2000F1108C6090E1C99FB00111240EC00630D3
:104D3000110519F4887F8C2B09C00730110531F457
:104D400090E1C99FB00111248F78862B682F8D2F99
:104D5000DF91CF911F910F91FF900C94F525CF9388
:104D6000DF93D62FC0E1C80F8C2F0E941026682F2A
:104D7000D13011F4606401C06F7B8C2FDF91CF9133
:104D80000C94F525EF92FF920F931F93CF93DF932F
:104D9000062F7A019091820321E020937C02909368
:104DA0009E0210927D0210929F02682F8CEA92E080
:104DB0000E94A112E70110E0CE018E199F09801711
:104DC000910734F469918CEA92E00E94A112F4CF29
:104DD00081E0DF91CF911F910F91FF90EF900C94A4
:104DE0009925009769F0FC0101900020E9F73197BF
:104DF000AF01481B590BBC0187E993E00C949C0C54
:104E000080E090E008952F923F924F925F926F92D0
:104E10007F928F929F92AF92BF92CF92DF92EF924A
:104E2000FF920F931F93CF93DF93CDB7DEB76D97AC
:104E30000FB6F894DEBF0FBECDBF3C872B871E8711
:104E40000D87F88AEF86DA8AC98AF901718360834F
:104E5000F80151834083F60111821082F70111821B
:104E6000108220909F033090A0030091A103109125
:104E7000A2034090AF035090B00392012C5F3F4FCC
:104E80003C8B2B8B2F5F3F4F3E8B2D8B235031095B
:104E9000388F2F8B8090AD039090AB03C92CD12C11
:104EA000DC82CB822C5F3F4F3E832D8326E0929E97
:104EB00060011124D886CF82CB80DC80F3E0CC0C5B
:104EC000DD1CFA95E1F7DA82C9829A878987710138
:104ED000AFEFBFEF2FEF3FEF3B8F2A8FE985FA85CA
:104EE0002191FA87E987222309F4CCC041145104A7
:104EF00009F48DC02A3041F4ED81FE818491899DB1
:104F0000400D511D112489C02D3041F3EB89FC89DE
:104F1000C490ED89FE898491022E000C330BD12CB4
:104F20002C153D05DCF290E082179307BCF2EF8967
:104F3000F88D859194912C193D09E7E0CE2EC29E03
:104F4000F001C39EF00D11248E0F9F1FFC013296BD
:104F5000C4903196D49031962491298F3196349112
:104F6000319684918820E9F06C2C712C630E711CB1
:104F700037FD7A94EB81FC816E9E50016F9EB00CE0
:104F80007E9EB00C1124A60EB71E2A143B044CF4CE
:104F9000ED81FE819491999E400D511D112460E098
:104FA00070E0292D3203F0011124E60FF71F382F8E
:104FB0003203C0011124840F951F5F019C9CA00C3B
:104FC000B11C112421E0A21AB1089C019D9C200D66
:104FD000311D1124690131E0C31AD108EE15FF0516
:104FE0000CF47F01801791070CF48C018A8D9B8D46
:104FF0008A159B0514F4BB8EAA8EAC15BD050CF466
:10500000D601998D999E600D711D112467CF2A30AC
:1050100039F4C980DA804C0D5D1D60E070E05ECF30
:105020002D3009F45BCF882069F08F819885860F39
:10503000971F2816390634F429813A81420F531FED
:1050400060E070E02F813885260F371FF901319716
:1050500089819A81840F951F0197CA8CDB8CCE16AB
:10506000DF0614F4FB8FEA8FA817B9070CF4DC01F4
:105070006E157F050CF47B01401751070CF48A0173
:10508000B9012CCF2A8D3B8D2E153F0564F0EB85A1
:10509000FC85F182E0822E193F092F5F3F4FEF859B
:1050A000F88931832083A017B1075CF0ED85FE8578
:1050B00011830083A01BB10B1196E989FA89B18392
:1050C000A0836D960FB6F894DEBF0FBECDBFDF9103
:1050D000CF911F910F91FF90EF90DF90CF90BF90F5
:1050E000AF909F908F907F906F905F904F903F9088
:1050F0002F9008956F927F928F929F92AF92BF925E
:10510000CF92DF92EF92FF920F931F93CF93DF9393
:105110007C016B015901C0E0D0E002E010E0842F77
:105120008470882E842F8270782E842F8870682E49
:105130004170942E21968820B1F09501A8014C0D64
:105140005D1DB7016C0F7D1F87E993E00E947F22F0
:105150009501A6014C0F5D1FB8016E0D7F1D87E9FB
:1051600093E00E947F227720B1F09501A601401BB9
:10517000510BB7016C0F7D1F87E993E00E947F22DE
:105180009501A6014C1B5D0BB8016E0D7F1D87E9D3
:1051900093E00E947F226620B1F09501A6014C0F9A
:1051A0005D1FB701601B710B87E993E00E947F22AE
:1051B0009501A8014C0D5D1DB7016C1B7D0B87E9A6
:1051C00093E00E947F229920B1F09501A6014C1B2B
:1051D0005D0BB701601B710B87E993E00E947F2292
:1051E0009501A601401B510BB7016C1B7D0B87E994
:1051F00093E00E947F22C017D1071CF401E010E069
:1052000099CFDF91CF911F910F91FF90EF90DF9099
:10521000CF90BF90AF909F908F907F906F900895A8
:105220002F923F924F925F926F927F928F929F92B6
:10523000AF92BF92CF92DF92EF92FF920F931F93A4
:10524000CF93DF9300D000D000D0CDB7DEB72C01D4
:105250003B0149015801190183E0280E311CE12C62
:10526000F12C82E090E09E838D838CEF9FEF9A83F8
:105270008983CC24CA94DC2C942F91709B83427038
:105280004C838FEFE81AF80AC10188199909C80EF2
:10529000D91E9B81992309F12D813E81220F331F55
:1052A0002F5F3F4F280D391D8501A3018D819E8100
:1052B000481B590BB2016E0D7F1D87E993E00E94D8
:1052C000D91D9101A3014E195F096D817E81640D85
:1052D000751D87E993E00E94D91D9C81911119C029
:1052E0008D819E81E816F906BCF5D7FC0AC089813C
:1052F0009A8102969A838983C80ED91E81E090E034
:1053000002C082E090E09E838D8392E0290E311CE2
:10531000B8CF2D813E81220F331F2F5F3F4F280DC5
:10532000391D8501A3018D819E81481B590BB20156
:105330006E197F0987E993E00E94D91D9101A301AD
:105340004E195F09B2018D819E81681B790B87E937
:1053500093E00E94D91DC4CF26960FB6F894DEBF05
:105360000FBECDBFDF91CF911F910F91FF90EF90B6
:10537000DF90CF90BF90AF909F908F907F906F9075
:105380005F904F903F902F900895789484B58260FD
:1053900084BD84B5816084BD85B5826085BD85B5D9
:1053A000816085BD80916E00816080936E00109257
:1053B00081008091810082608093810080918100D2
:1053C0008160809381008091800081608093800063
:1053D0008091B10084608093B1008091B0008160C1
:1053E0008093B00080917A00846080937A008091ED
:1053F0007A00826080937A0080917A008160809345
:105400007A0080917A00806880937A001092C100BF
:1054100040E050E0BA0187E993E00E94510F8BE928
:1054200092E00E9439198EE892E00E94391983E6D1
:1054300092E00E94391987E993E00E94B72066E361
:1054400087E993E00E94C22260EC87E993E00E9422
:10545000C22187E993E00E94ED1D82E08093D20390
:1054600060E087E993E00E943E0E61E08DE00E94DB
:10547000301D60E070E087E993E00E94D81E61E093
:1054800087E993E00E943E0E10923402109233029C
:1054900010927D0210929F0210927B02C1E0C09395
:1054A0007A021092550261E082E10E94011D61E0E2
:1054B00083E10E94011D8091B9008E7F8093B90025
:1054C0008091B9008D7F8093B90088E48093B80003
:1054D00085E48093BC0086E492E19093ED01809393
:1054E000EC0187E492E19093EF018093EE018091CB
:1054F0008203C0937C0280939E0210927D021092E0
:105500009F0281E00E949925882309F448C080E326
:1055100099EBA2E4B1E08093020190930301A09380
:105520000401B09305010E948C098091E3019091E0
:10553000E401A091E501B091E601F8948093920313
:1055400090939303A0939403B093950378940E944F
:105550008C090E9426250E94D82262E08091BC021C
:105560000E94301D62E08091DE020E94301D0E9488
:10557000D8228CE00E94FE2388EB91E29093EB020C
:105580008093EA028DE890E29093ED028093EC0222
:10559000CCE5D0E039E0F32E00E010E0D0C180E0AF
:1055A0000E94102690E0880F892F881F990B019781
:1055B000B1F362E187EB0E94F52580E498E7ADE75F
:1055C000B1E08093710390937203A0937303B0933F
:1055D00074031092790310927A0310927B03109255
:1055E0007C0320915D0330915E0340915F035091F5
:1055F0006003609161037091620300E010E08091AC
:105600006303909164030E94BF132091650330915E
:10561000660340916703509168036091690370913C
:105620006A0301E010E080916B0390916C030E948B
:10563000BF1360E880E10E94F52560E881E10E94E7
:10564000F52560E882E10E94F52560E883E10E948B
:10565000F52560E884E10E94F52560E885E10E9477
:10566000F52560E886E10E94F52560E887E10E9463
:10567000F5256CE080E10E94F5256CE081E10E9457
:10568000F5256CE082E10E94F5256CE083E10E9443
:10569000F5256CE084E10E94F5256CE085E10E942F
:1056A000F5256CE086E10E94F5256CE087E10E941B
:1056B000F52500E010E020E030E24FE550EA62E13D
:1056C00070E080E090E00E94BF1301E010E020E075
:1056D00030E24FE550EA62E170E080E090E00E9445
:1056E000BF1310920E0310920D031092100310922C
:1056F0000F031092120310921103109214031092D0
:1057000013031092160310921503109218031092AF
:10571000170381E090E090931A038093190390930C
:105720001C0380931B0360E070E080E090E00E9427
:10573000121960E070E081E090E00E94121960E0D0
:1057400070E082E090E00E94121960E070E083E077
:1057500090E00E94121960E070E084E090E00E9406
:10576000121960E070E085E090E00E94121961E09B
:1057700070E086E090E00E94121961E070E087E03E
:1057800090E00E94121960E082EA0E94F52560E034
:1057900083EA0E94F52560E084EA0E94F52560E234
:1057A00081EB0E94F52560E881EB0E94F525CDE1B3
:1057B000D3E083E8A82E83E0B82E00E010E0882430
:1057C0008394912C188219821A821B821C821D825A
:1057D0001E821F82289683E00E941026B401002EAC
:1057E00001C0660F0A94EAF7682B83E00E94F52552
:1057F000F50111925F010F5F1F4F0830110511F77E
:1058000086CE8770806480937C0080917A0080646B
:1058100080937A0080917A0086FDFCCF8091780099
:105820002091790090E0922B2091010330910203A6
:105830002817390751F09093020380930103BE01AA
:105840000E945D2F862F0E94FE238CEB92E00E9427
:105850000C058EED92E00E940C058091960382303B
:1058600008F074C0F8948BE893E00E94E50B8090F8
:10587000920390909303A0909403B0909503789432
:105880008091E3019091E401A091E501B091E601DE
:1058900088159905AA05BB0509F05AC0AC01BD01E0
:1058A0004E5F5F4F6F4F7F4F481559056A057B0567
:1058B0000CF45DC00297A109B10988169906AA06E1
:1058C000BB060CF48BC04091020150910301609122
:1058D0000401709105018091DA019091DB01A091A2
:1058E000DC01B091DD01481759076A077B0711F009
:1058F0000E948C098091C3029091C402F89EF0012D
:10590000F99EF00D1124E454FD4F80898111B4C03B
:105910008091C5029091C602F89EF001F99EF00DAB
:105920001124E454FD4F8089882321F080911001D7
:105930008111AEC00115110511F00E940000809187
:1059400003038E3008F45DCF8E505BCFF8948FCF79
:105950002091E5023091E602F29EF001F39EF00DF7
:105960001124E252FD4F208921118BC097CF8091E5
:10597000E5029091E602F89EF001F99EF00D1124E7
:10598000E252FD4F8089882311F08FEF36C080915D
:105990000A01882371F080910B0190910C01823FE4
:1059A000984D0CF441C080910B0190910C0101972E
:1059B00037C0409106015091070160910801709134
:1059C00009018091020190910301A0910401B0911D
:1059D0000501841B950BA60BB70B3DC08091E5021A
:1059E0009091E602F89EF001F99EF00D1124E2522A
:1059F000FD4F8089882321F081E00E94BC0733C0DD
:105A000080910A01882399F080910B0190910C01FB
:105A10008F3097424CF480910B0190910C010196CC
:105A200090930C0180930B010E9434071CC040919D
:105A30000601509107016091080170910901809160
:105A4000020190910301A0910401B0910501840F1E
:105A5000951FA61FB71F8093020190930301A09387
:105A60000401B09305018092E3019092E401A092B9
:105A7000E501B092E60127CF80911001811148CF56
:105A800003C01092E9020ACF81E08093100102C0A6
:105A9000109210010E947A080E948C094BCF0F933C
:105AA0001F93CF93DF931092AF021092AE0288EE55
:105AB00093E0A0E0B0E08093B0029093B102A09395
:105AC000B202B093B30287E691E09093AD02809367
:105AD000AC0210929A031092990320E830E03093C0
