:100000000C9425040C944D040C944D040C944D0454
:100010000C944D040C944D040C944D040C944D041C
:100020000C944D040C944D040C944D040C944D040C
:100030000C944D040C944D040C944D040C944D04FC
:100040000C94322A0C944D040C944D040C944D04E1
:100050000C944D040C944D040C944D040C944D04DC
:100060000C941F280C944D04B11BBF1BCD1BDB1B34
:10007000E91BF71B051C0E1C000004090701FD0508
:100080000008040A01F7090004040701FD0000004C
:100090000006000120000E151001EC4500081510A7
:1000A00003EC5A000E151001EC7F000E151001EC48
:1000B000A4000E151001ECC9000E151001ECEE00A5
:1000C0000E151001EC13010E151001EC38010E1580
:1000D0001001EC5D010E151001ECFFFF337EC0FF37
:1000E000FFFFFFFFFF03030606060C0C0C0C18189D
:1000F0001830303030606060C0C00FC07F83FF1F99
:10010000FE78FBE1EF03FC0FF03FC0FF03FC0FF0B4
:100110003FC0FF03FE1F7879FFE3FF07F80FC0031E
:1001200007071FFFFFFF0F0F0F0F0F0F0F0F0F0F0F
:100130000F0F0F0F0FC0FFC7FF9FFEF87FC0FF0319
:10014000C00F003C01F00F807C07E03E01F00F0083
:100150003801FFF7FFDFFF7FFC0FC0FF87FF3FFE87
:10016000F8FBC1E007803C07E01FC07F803E007CB9
:1001700000F003FC0FF87FFFE7FF8FFC0FC001F0DA
:100180000FC03F01FC07F03BC0EF073C18F0E3C78E
:100190000F1C3CE0F3FFFFFFFFFFFFFC03C00F005D
:1001A0003C00F03FF8FFE3FF8FFE7801C0073C1DE5
:1001B000FC7FF1FFEF87C01F003C00F003FC0FF84D
:1001C0007FFFE7FF0FF80FC007C07FC3FF9FFE78D8
:1001D0007DE00F003CF8FFF3FFEF87BC0FF03FC05E
:1001E000FF03DC1F7879FFE3FF07F80FC0FFFFFF75
:1001F000FFFFFFFF003801E00F007801E00F003C37
:1002000001E007801C00F003C00F003801E0078008
:100210001E000FC07F83FF1FFE7879C0E7039E1E7C
:100220003FF07F87FF1E1EF03FC0FF03FC0FF87DED
:10023000FFE7FF8FFC0FC00FC07F83FF1FFEF87B1F
:10024000C0EF03FC0FF03FC0FF87DFFF7FFCFEF035
:10025000F3C01EF879FFE7FF0FF80F804672657153
:1002600075656E63793A00DA0078002C39235458AA
:1002700000525800537465703A20000000000023BB
:10028000002600290004E010021C07123732292D35
:1002900029252B3900010310E110031D07062E2C20
:1002A000292D2E2E373F0000021013800A2980646A
:1002B000022A040000007F2B040000009F0F018031
:1002C000961180FFB103012C2DB203012C2DB30632
:1002D000012C2D012C2DB40107C003A20284C10101
:1002E000C5C2020A00C3028A2AC4028AEEC5010EF0
:1002F00020003601C83A0105000000002400270054
:100300002A000000000800020100000304070000AA
:1003100000000000000000000000003E5B4F5B3E5C
:100320003E6B4F6B3E1C3E7C3E1C183C7E3C181CBA
:10033000577D571C1C5E7F5E1C00183C1800FFE7B1
:10034000C3E7FF0018241800FFE7DBE7FF30483A57
:10035000060E2629792926407F050507407F0525B9
:100360003F5A3CE73C5A7F3E1C1C08081C1C3E7F41
:1003700014227F22145F5F005F5F06097F017F0008
:100380006689956A606060606094A2FFA294080428
:100390007E040810207E201008082A1C08081C2A49
:1003A00008081E101010100C1E0C1E0C30383E38A1
:1003B00030060E3E0E06000000000000005F000048
:1003C0000007000700147F147F14242A7F2A1223B9
:1003D0001308646236495620500008070300001CC9
:1003E0002241000041221C002A1C7F1C2A08083ED2
:1003F00008080080703000080808080800006060E5
:100400000020100804023E5149453E00427F400052
:1004100072494949462141494D331814127F10272A
:10042000454545393C4A4949314121110907364979
:10043000494936464949291E00001400000040344D
:100440000000000814224114141414140041221452
:100450000802015909063E415D594E7C1211127C79
:100460007F494949363E414141227F4141413E7FDA
:10047000494949417F090909013E414151737F08BA
:1004800008087F00417F41002040413F017F081460
:1004900022417F404040407F021C027F7F040810C1
:1004A0007F3E4141413E7F090909063E4151215E9F
:1004B0007F09192946264949493203017F01033F33
:1004C0004040403F1F2040201F3F4038403F6314C2
:1004D00008146303047804036159494D43007F41C4
:1004E00041410204081020004141417F0402010201
:1004F0000440404040400003070800205454784026
:100500007F284444383844444428384444287F38B9
:100510005454541800087E090218A4A49C787F083B
:1005200004047800447D40002040403D007F1028B6
:10053000440000417F40007C047804787C08040477
:10054000783844444438FC1824241818242418FC0F
:100550007C08040408485454542404043F44243CB4
:100560004040207C1C2040201C3C4030403C442823
:100570001028444C9090907C4464544C44000836BD
:10058000410000007700000041360800020102042B
:10059000023C2623263C1EA1A161123A4040207A4B
:1005A0003854545559215555794122545478422193
:1005B0005554784020545579400C1E5272123955CA
:1005C00055555939545454593955545458000045C7
:1005D0007C410002457D420001457C407D121112A4
:1005E0007DF0282528F07C545545002054547C5437
:1005F0007C0A097F4932494949323A4444443A32F3
:100600004A4848303A4141217A3A42402078009D98
:10061000A0A07D3D4242423D3D4040403D3C24FF44
:100620002424487E4943662B2FFC2F2BFF0929F6F3
:1006300020C0887E090320545479410000447D4144
:100640003048484A32384040227A007A0A0A727D9D
:100650000D19317D2629292F2826292929263048B8
:100660004D4020380808080808080808382F10C826
:10067000ACBA2F102834FA00007B000008142A14AA
:100680002222142A14085500550055AA55AA55AA25
:10069000FF55FF55FF000000FF00101010FF001471
:1006A0001414FF001010FF00FF1010F010F01414CD
:1006B00014FC001414F700FF0000FF00FF1414F4F2
:1006C00004FC141417101F10101F101F1414141FF3
:1006D00000101010F0000000001F101010101F106C
:1006E000101010F010000000FF101010101010106B
:1006F0001010FF10000000FF140000FF00FF0000BA
:100700001F10170000FC04F414141710171414F42D
:1007100004F40000FF00F714141414141414F70068
:10072000F7141414171410101F101F141414F414B9
:100730001010F010F000001F101F0000001F140028
:100740000000FC140000F010F01010FF10FF141453
:1007500014FF141010101F00000000F010FFFFFF26
:10076000FFFFF0F0F0F0F0FFFFFF0000000000FFDF
:10077000FF0F0F0F0F0F3844443844FC4A4A4A34E5
:100780007E02020606027E027E02635549416338FC
:1007900044443C04407E201E2006027E020299A5AD
:1007A000E7A5991C2A492A1C4C7201724C304A4D0B
:1007B0004D303048784830BC625A463D3E49494940
:1007C000007E0101017E2A2A2A2A2A44445F4444E9
:1007D00040514A444040444A51400000FF0103E078
:1007E00080FF000008086B6B083612362436060FAF
:1007F000090F06000018180000001010003040FF1C
:100800000101001F01011E00191D1712003C3C3C94
:100810003C0000000000010204081020408001029A
:100820000408102001020408102000000000250028
:1008300028002B000404040404040404020202023D
:1008400002020303030303037E3111241FBECFEF13
:10085000D8E0DEBFCDBF11E0A0E0B1E0E6E1FEE60A
:1008600002C005900D92A23CB107D9F725E0A2EC99
:10087000B1E001C01D92A13AB207E1F714E0C5E270
:10088000D4E004C02197FE010E948233C432D10714
:10089000C9F70E94502D0C9409370C9400008F92D8
:1008A0009F92AF92BF92CF92DF92EF92FF920F93FF
:1008B0001F93CF93DF93EC016B015A014901E8814B
:1008C000F9810284F385E02D0995E881F981068498
:1008D000F785E02D9401A501B601CE010995E881C7
:1008E000F9810688F789E02DCE01DF91CF911F9124
:1008F0000F91FF90EF90DF90CF90BF90AF909F90BF
:100900008F900994AF92BF92CF92DF92EF92FF92B5
:100910000F931F93CF93DF93EC017B016A01590181
:10092000E881F9810284F385E02D0995E881F98158
:100930000288F389E02D9501A601B701CE01099542
:10094000E881F9810688F789E02DCE01DF91CF910A
:100950001F910F91FF90EF90DF90CF90BF90AF90DD
:100960000994AF92BF92CF92DF92EF92FF920F93D2
:100970001F93CF93DF93EC017B016A015901E8815A
:10098000F9810284F385E02D0995E881F9810088D9
:10099000F189E02D9501A601B701CE010995E88105
:1009A000F9810688F789E02DCE01DF91CF911F9163
:1009B0000F91FF90EF90DF90CF90BF90AF90099490
:1009C000CF92DF92EF92FF920F931F93CF93DF931B
:1009D000EC018B017A016901E881F9810284F385D8
:1009E000E02D0995E881F9810484F585E02D9601D3
:1009F000A701B801CE010995E881F9810688F78938
:100A0000E02DCE01DF91CF911F910F91FF90EF90DC
:100A1000DF90CF900994EF92FF920F931F93DC0128
:100A2000ED91FC910684F785E02D780101E010E05E
:100A300009951F910F91FF90EF900895EF92FF920B
:100A40000F931F93DC01ED91FC910684F785E02D57
:100A50007801890121E030E009951F910F91FF9005
:100A6000EF900895FC0191A904A4F5A5E02D8081E3
:100A7000892B808308950895FC016370658B8481C0
:100A8000958126813781613039F0633029F0918773
:100A900080873387228708953187208793878287CD
:100AA00008956F927F928F929F92AF92BF92CF9252
:100AB000DF92EF92FF920F931F93CF93DF93EC019E
:100AC0004B015A0169013801E881F9810284F385FB
:100AD000E02D0995E881F9810288F389E02D8701ED
:100AE0009601A501B401CE010995A501460D571D3A
:100AF00041505109E881F9810288F389E02D96017E
:100B0000B401CE010995E881F9810088F189E02DD1
:100B10009301A501B401CE010995C80CD91CB601F9
:100B200061507109E881F9810088F189E02D930114
:100B3000A501CE010995E881F9810688F789E02DA4
:100B4000CE01DF91CF911F910F91FF90EF90DF9039
:100B5000CF90BF90AF909F908F907F906F900994AF
:100B60008F929F92AF92BF92CF92DF92EF92FF92BD
:100B70000F931F93CF93DF934C016B015A01E9014F
:100B8000DC01ED91FC916217730781F404171507DE
:100B900024F48B2D5801042F182F0A191B099801D2
:100BA0002F5F3F4F048CF58DE02D12C04017510789
:100BB00009F52617370724F48D2D6901C62FD82F84
:100BC0009E012C193D092F5F3F4F068CF78DE02DBC
:100BD0008701A501B601C4010995DF91CF911F914D
:100BE0000F91FF90EF90DF90CF90BF90AF909F90CC
:100BF0008F9008950284F385E02D0995D401ED913D
:100C0000FC910488F589E02D9E01A501B601C4017F
:100C10000995D401ED91FC910688F789E02DC40176
:100C2000DF91CF911F910F91FF90EF90DF90CF90C8
:100C3000BF90AF909F908F900994EF92FF920F9387
:100C40001F93DC011A960D911C911B9718962D91FC
:100C50003C911997ED91FC9100A0F1A1E02D7B0151
:100C600040E050E060E070E009951F910F91FF9027
:100C7000EF9008954F925F926F927F928F929F9222
:100C8000AF92BF92CF92DF92EF92FF920F931F939A
:100C9000CF93DF936C012B015A0139014801DC012C
:100CA000ED91FC910284F385E02D0995E201640C3D
:100CB000751CD601ED91FC91C615D7055CF4008832
:100CC000F189E02D87019401A501BE01C6010995B6
:100CD0002196EFCF0688F789E02DC601DF91CF91ED
:100CE0001F910F91FF90EF90DF90CF90BF90AF904A
:100CF0009F908F907F906F905F904F9009948F920C
:100D00009F92AF92BF92CF92DF92EF92FF920F939A
:100D10001F93CF93DF93EC015B014A016901E881E6
:100D2000F9810284F385E02D099595012C0D3D1D77
:100D300021503109E881F9810488F589E02D780195
:100D40008401A401B501CE010995E881F9810688E5
:100D5000F789E02DCE01DF91CF911F910F91FF9088
:100D6000EF90DF90CF90BF90AF909F908F900994BD
:100D70008F929F92AF92BF92CF92DF92EF92FF92AB
:100D80000F931F93CF93DF93EC015B014A0169013D
:100D90007801E881F9810284F385E02D0995C80C7A
:100DA000D91C860101501109E881F9810488F5896F
:100DB000E02D9501A401B501CE010995E881F981E5
:100DC0000688F789E02DCE01DF91CF911F910F9119
:100DD000FF90EF90DF90CF90BF90AF909F908F905B
:100DE0000994EF92FF920F931F93DC01ED91FC9118
:100DF00000A0F1A1E02D09951F910F91FF90EF90B8
:100E000008950F931F93DC01ED91FC91068CF78DF3
:100E1000E02D09951F910F9108950F931F93DC0109
:100E2000ED91FC91048CF58DE02D09951F910F91AA
:100E30000895DC01ED91FC910084F185E02D099489
:100E40002F923F924F925F926F927F928F929F92DA
:100E5000AF92BF92CF92DF92EF92FF920F931F93C8
:100E6000CF93DF9300D000D000D0CDB7DEB72C01F8
:100E70007E836D836A015901C801FC82EB824801BF
:100E8000841A950A97FE03C09194819491083501C4
:100E90002D813E81621A730A77FE03C071946194BA
:100EA0007108681479045CF43A2D2B2D5C01832FB2
:100EB000922F3D812E81DE82CD82C32ED22EAD8136
:100EC000BE81AA16BB065CF43C2D2D2D6C01832F30
:100ED000922F3D812E81BE82AD82A32EB22E85013E
:100EE0002D813E81021B130B1C012C183D0837FE7F
:100EF00003C0319421943108780117FF03C03FEFFC
:100F0000E31AF30AF594E794C816D9062CF08FEF8C
:100F10009FEF9A83898304C0A1E0B0E0BA83A983DC
:100F20002D813E81A216B30624F1D201ED91FC91F0
:100F30000484F585E02D2B813C816814790424F428
:100F40004D815E81B60103C0A6016D817E81C20123
:100F50000995E218F308F7FE06C029813A81C20E0E
:100F6000D31EE00EF11E8D819E8101969E838D839E
:100F7000D7CF26960FB6F894DEBF0FBECDBFDF9158
:100F8000CF911F910F91FF90EF90DF90CF90BF9086
:100F9000AF909F908F907F906F905F904F903F9019
:100FA0002F900895089580E090E00895FC0181A1BC
:100FB00087FF1EC0428D538D648D758D80E092E158
:100FC000AAE7B0E020E0481759076A077B0740F41A
:100FD000B695A795979587952F5F2630A1F727E0BF
:100FE00091E09227892F806A869591708CBD9DBD76
:100FF00081A904A4F5A5E02D9081809589238083A3
:1010000008952F923F924F925F926F927F928F92AC
:101010009F92AF92BF92CF92DF92EF92FF920F9387
:101020001F93CF93DF93CDB7DEB760970FB6F894D9
:10103000DEBF0FBECDBF9E838D838091CE01909188
:10104000CF019C012B5F3F4F3A8329838091CE01D2
:101050009091CF01AC01455051095C834B83609165
:10106000CE017091CF0178876F8381E695E00E9471
:10107000D6072F8138858B819C81281B390B8F8166
:101080009885A981BA818A1B9B0BC12CD12C760132
:10109000812C912C54014AE5242E312C55E0452E0B
:1010A000512C612C712CAC01990F660B770B4F837F
:1010B000588769877A87B901330F880B990B6B873B
:1010C0007C878D879E87C501B401A30192010E9490
:1010D000633389819A81820F931F988B8F87C70111
:1010E000B601A30192010E946333AB81BC812A0F38
:1010F0003B1F4F81588569857A85840E951EA61EF3
:10110000B71E6B857C858D859E85C60ED71EE81E15
:10111000F91E8F8598892817390734F49F858889A7
:10112000388B2F87292F382FAF85B8892A1B3B0B87
:101130002F5F3F4F0D811E81A101BD0181E695E02A
:101140000E940B05BFEF2B1A3B0A20E62216310442
:1011500009F0B9CF81E695E060960FB6F894DEBF4E
:101160000FBECDBFDF91CF911F910F91FF90EF90F8
:10117000DF90CF90BF90AF909F908F907F906F90B7
:101180005F904F903F902F900C9432054F925F925A
:101190006F927F928F929F92AF92BF92CF92DF9287
:1011A000EF92FF920F931F93CF93DF93CDB7DEB7EC
:1011B0002A970FB6F894DEBF0FBECDBFB82E809130
:1011C0000D018830C1F0E0910D0185E08E9FF001A6
:1011D0001124EA5CFE4F01811281E0910D018E9F86
:1011E000F0011124EA5CFE4F2381348142E350E098
:1011F0005E834D8308C020E335E708EE13E084EFFB
:1012000091E09E838D836091020170910301809132
:101210000401909105016901E12CF12C28EE33E0E5
:1012200040E050E00E944133201B310B410951093D
:10123000A0EAB0E00E94A633A70196010E944133C4
:1012400029013A018091CE019091CF018217930735
:1012500019F4BB2009F492C003ED1CE92FE930E03A
:1012600040E650E060E070E081E695E00E94820494
:1012700025E030E04EE550E060E070E081E695E08A
:101280000E94B10425E030E04EE550E06FE970E0E7
:1012900081E695E00E94B1048D819E81880F991F9F
:1012A0009C0140E050E029833A834B835C83812C8E
:1012B000912C5401AD81BE81CD01A0E0B0E08D83C1
:1012C0009E83AF83B8878C149D04AE04BF04A0F541
:1012D000C501B40129813A814B815C810E9441336F
:1012E000672B682B692B29F0A2E0B0E0BA87A987A9
:1012F00004C024E030E03A872987A0EAB0E0A501E5
:1013000094010E94A633A70196010E944133CA01AD
:10131000B90103ED1CE929853A8540E650E081E6F4
:1013200095E00E94B1048D819E81AF81B885880EC1
:10133000991EAA1EBB1EC7CF80E090E00E94010844
:101340005092CF014092CE0183E794E12A960FB6E6
:10135000F894DEBF0FBECDBFDF91CF911F910F91EB
:10136000FF90EF90DF90CF90BF90AF909F908F90C5
:101370007F906F905F904F900C9401082A960FB663
:10138000F894DEBF0FBECDBFDF91CF911F910F91BB
:10139000FF90EF90DF90CF90BF90AF909F908F9095
:1013A0007F906F905F904F90089520910D0130E0F5
:1013B0008091000190E001972817390724F4E0910B
:1013C0000D01EF5F01C0E0E085E0E802F0011124CB
:1013D000EA5CFE4F23813481369527958181928185
:1013E000280F391FA8EEB3E00E94903360930201EA
:1013F00070930301809304019093050181E00C94A4
:10140000C608AF92BF92CF92EF92FF920F931F93B5
:10141000CF93DF93EC01262F888D998D009709F0EB
:1014200040C06A3059F41D861C862C898E859F85A4
:1014300038E0239F800D911D112441C06D3009F4C7
:10144000AAC08E898823C1F03C898C859D8546E0A1
:10145000349F800D911D11244885598548175907DF
:101460005CF41D861C868E859F8548E0349F800D28
:10147000911D11249F878E87EA88FB880889198926
:101480004E855F856C857D85CC88CE010E940526C2
:101490002C898C859D8536E0239F800D911D11241C
:1014A00042C06A3079F41D861C862C89FC01369670
:1014B000E4918E859F852E9F800D911D11249F871D
:1014C0008E8769C06D3009F466C0FC013496349192
:1014D000631708F460C03196E491E61708F45BC026
:1014E000FC01329665917491422F50E0431B5109E3
:1014F00037E0349F5001359FB00C1124A60EB71E63
:10150000F501329634913196E491332311F0E111D3
:101510000DC0F5013496E4912C898C859D85E29F60
:10152000800D911D11249D878C8735C0F50135965E
:1015300044915E89552311F16C89E32FF0E0E40FAB
:10154000F11D47FDFA956E9FD0016F9FB00D1124DC
:101550004C855D854A0F5B1FE885F985E417F50723
:101560006CF41D861C86FC013696E4918E859F8561
:101570006E9F800D911D11249F878E87EA88FB88BE
:10158000088919894E855F856C857D85CC88CE015B
:101590000E940526BECF81E090E0DF91CF911F91A0
:1015A0000F91FF90EF90CF90BF90AF9008953F9232
:1015B0004F925F926F927F928F929F92AF92BF9263
:1015C000CF92DF92EF92FF920F931F93CF93DF930F
:1015D000CDB7DEB7A0970FB6F894DEBF0FBECDBF74
:1015E00020911801309119013A8329838AE0FE0184
:1015F0003396DF01982F1D929A95E9F73E872D8744
:101600003C96DF011D928A95E9F760910201709185
:10161000030180910401909105012AE0AE014F5F22
:101620005F4F0E94CD326E01BDE0CB0ED11CF601A2
:101630009AE08AE026012FE24EE2A1E0B0E0AC0F92
:10164000BD1FA80FB11D87FDBA953C91311104C093
:10165000181614F48150F1CF973011F42C8B0AC076
:10166000933011F4488B06C087FD03C03287815048
:1016700001C02287915031979F3FF9F681E0809316
:1016800075058091790590917A05892B49F48091AF
:101690006F059091700506969093700580936F0585
:1016A00087E692E090937A05809379056091020134
:1016B0007091030180910401909105010E946935A8
:1016C00020E836E948E15BE40E94643587FD04C008
:1016D0007AE0A72EB12C03C064E1A62EB12C42EC17
:1016E000842E41E0942E5DEC652E51E0752EF401C0
:1016F00021914F012E3241F02F3219F436E0332E72
:1017000005C090E1392E02C087E0382ED6019D91A8
:101710006D019E3231F09F3211F486E003C080E10A
:1017200001C087E02917B9F1831541F19E01275EB9
:101730003F4F88E0F90111928A95E9F7CE014F9663
:101740006C01DE015D967D018E01055E1F4F48E351
:1017500050E06AE070E082EC91E00E948E2A0F8DEA
:1017600018A12D8D3E8D4B8D5C8D698D7A8DE12C70
:10177000F12C81E695E00E944F0413C0232D30E048
:10178000E12CF12C06E110E043E250E0B50181E6E6
:1017900095E00E944F04A30CB11C6814790409F071
:1017A000A6CF609102017091030180910401909194
:1017B00005010E94693520E836E948E15BE40E94B2
:1017C000643587FD03C08AE090E002C084E190E0C8
:1017D00020EC36E930937205209371051092740560
:1017E0001092730590936E0580936D0588E390E0E9
:1017F0009093700580936F05C2010E947C2AB2010C
:1018000082EC91E00E94023710927A0510927905DD
:1018100083ED9CE990937205809371051092740595
:101820001092730510926E0510926D0588E190E09C
:101830009093700580936F058CE592E00E947C2A5E
:10184000A0960FB6F894DEBF0FBECDBFDF91CF914B
:101850001F910F91FF90EF90DF90CF90BF90AF90CE
:101860009F908F907F906F905F904F903F900895E2
:10187000FC0181A187FF05C06EBD0DB407FEFDCF41
:10188000089588E090E020E8A4A1B5A1362F322386
:1018900021F046A53C91342B04C036A54C913095DF
:1018A00034233C9330A9A0A5B1A54C9130953423A5
:1018B0003C9340A9A0A5B1A53C91342B3C9326951F
:1018C000019711F708954F925F926F927F928F92D6
:1018D0009F92AF92BF92CF92DF92EF92FF920F93BF
:1018E0001F93CF93DF93EC016B01590148012885C9
:1018F0003985621773070CF067C08A859B85481786
:1019000059070CF061C08B010A0D1B1DF8013197BE
:10191000DA01A80DB91DBD0161507109F7FD54C070
:1019200077FD52C0D7FE03C05801C12CD12C57FF00
:1019300003C04D0140E050E0E217F3071CF05901ED
:10194000AC18BD08681779071CF04C01841A950A79
:101950009501D4010E9488333B01582E492EE8811D
:10196000F98102A4F3A5E02D8401B601CE01099509
:101970004301A52CB42C89A187FF13C081149104C5
:10198000A104B10409F1FEBC0DB407FEFDCFEEBC0D
:101990000DB407FEFDCF81E0881A9108A108B108B7
:1019A000EDCF81149104A104B10471F06F2DCE012B
:1019B0000E94380C6E2DCE010E94380C81E0881AEE
:1019C0009108A108B108EDCFDF91CF911F910F9140
:1019D000FF90EF90DF90CF90BF90AF909F908F904F
:1019E0007F906F905F904F900895EF92FF920F93CA
:1019F0001F93CF93DF93EC0177FD33C088859985E2
:101A00006817790774F557FD2CC08A859B854817A0
:101A100059073CF5E32EF22EE881F98102A4F3A5E3
:101A2000E02D01E010E021E030E0CE01099589A130
:101A300087FF09C0EEBC0DB407FEFDCFFEBC0DB4A0
:101A400007FEFDCF0EC06E2DCE010E94380C6F2D0B
:101A5000CE01DF91CF911F910F91FF90EF900C94E9
:101A6000380CDF91CF911F910F91FF90EF90089567
:101A7000CF93DF93EC018AA9EAA5FBA5908180951D
:101A800089238083CE010E94380C9AA9EAA5FBA580
:101A90008081892B8083DF91CF9108950F931F93CD
:101AA0008091020190910301A0910401B091050180
:101AB0008093D0019093D101A093D201B093D30130
:101AC0004091020150910301609104017091050160
:101AD00080910A01882369F080911001811109C069
:101AE00080910B0190910C01092E000CAA0BBB0BED
:101AF00003C080E090E0DC015E5E65487F4F8A01B4
:101B00009B01080F191F2A1F3B1FC901B80124E6BA
:101B100030E040E050E00E940A3400E010E00E9413
:101B2000171D0E94D70A0E94592380E01F910F9130
:101B30000C94C6084F925F926F927F928F929F9201
:101B4000AF92BF92DF92EF92FF920F931F93CF93CA
:101B5000DF93EC01288130E0F901EE5FFC4F8491C6
:101B6000F901EA5EF74F0491F901EC5CF74F14912B
:101B70001123A1F081110E944D29E12FF0E0EE0F19
:101B8000FF1FE558FD4FA591B491EC91E02391E042
:101B900080E009F490E0092F182F02C000E010E067
:101BA0008FB7F8948090340490903504A090360458
:101BB000B09037048FBF89E0D82ED09E7001D19E9F
:101BC000F00C1124EC0EFD1EF7018189882309F425
:101BD000A8C082899389A489B58924013501481A4E
:101BE000590A6A0A7B0A8D819E81A0E0B0E08415C3
:101BF0009505A605B70508F099C049815A8160E0AE
:101C000070E02F8138854415550566057705D0F4B9
:101C1000EF85F889309709F464C02017310709F07F
:101C200060C08B85882309F45CC081E08C870995AE
:101C3000F701828A938AA48AB58A868A978AA08EB7
:101C4000B18E35C089859A858017910709F049C002
:101C5000D29EC001D39E900D11249E01280F391FE2
:101C6000F70186899789A08DB18DF901468857883B
:101C7000608C718C84199509A609B7094B805C802A
:101C8000612C712C481659066A067B0650F584179C
:101C90009507A607B70728F5ED85FE85309709F16A
:101CA0008B858823F1F08C8581111BC009958F816C
:101CB000988529853A85D29EF001D39EF00D112496
:101CC000EC0FFD1F868A978AA08EB18ED89EF001F8
:101CD000D99EF00D1124EC0FFD1F868A978AA08EE5
:101CE000B18E89E0809FF001819FF00D1124EC0FEF
:101CF000FD1F4289538964897589468B578B608F94
:101D0000718F29853A85829FF001839FF00D112400
:101D1000EC0FFD1F8189882349F081E08B871C86A9
:101D200005C0F701828A938AA48AB58A2F813885F3
:101D300089E0829FF001839FF00D1124EC0FFD1FBD
:101D400081E02017310709F080E0818B29853A85F1
:101D500049E0429FC001439F900D1124C80FD91F35
:101D600081E02017310709F080E0898BDF91CF9166
:101D70001F910F91FF90EF90DF90BF90AF909F90D9
:101D80008F907F906F905F904F900895EF92FF92A9
:101D90000F931F93CF93DF93CDB7DEB768970FB63E
:101DA000F894DEBF0FBECDBF20911801309119010C
:101DB0003E872D878AE0FE013F96DF01482F1D9266
:101DC0004A95E9F790910A018E01035F1F4F99230D
:101DD000C1F13A8329833C97DF011D928A95E9F787
:101DE00060910B0170910C01072E000C880B990B70
:101DF0002AE0AE014F5F5F4F7A010E94BE3266EA71
:101E000071E0C8010E94F736F70101900020E9F760
:101E10003197EE19FF09E530F10570F4D8010D9006
:101E20000020E9F7CD0145E050E04E1B5F0B60E27A
:101E300070E001970E94F036B701C8010E94F736A2
:101E400007C04AE050E060E270E0C8010E94F0364E
:101E50008FE198EF9093720580937105109274054D
:101E60001092730584E690E090936E0580936D0563
:101E700080E490E09093700580936F05C8010E9404
:101E80007C2A68960FB6F894DEBF0FBECDBFDF91F7
:101E9000CF911F910F91FF90EF900895E2E0F1E054
:101EA000908581E0892780870E94C60E0C944E0D94
:101EB000CF92DF92EF92FF920F931F93CF93DF9316
:101EC00087FF0EC08091060190910701A091080143
:101ED000B09109010297A105B10508F090C028C092
:101EE000181634F560910601709107018091080180
:101EF000909109010E94693520E034E244E759E4F9
:101F00000E94643587FF76C0209106013091070159
:101F10004091080150910901AAE0B0E00E94A63367
:101F20006093060170930701809308019093090163
:101F300083EDC82E8CE9D82ED0927205C09271051F
:101F4000109274051092730580E590E090936E05F1
:101F500080936D05C8E1D0E0D0937005C0936F0504
:101F600084E792E00E947C2A60910601709107014B
:101F700080910801909109012AE048E254E00E9412
:101F8000CD32E12CF12C0CE010E022E330E048E10E
:101F900050E06EE670E081E695E00E944F04D0923A
:101FA0007205C092710510927405109273058EE649
:101FB00090E090936E0580936D05D0937005C0936B
:101FC0006F0588E294E00E947C2A02E010E020EA9B
:101FD00030E043E450E060E070E081E695E00E948C
:101FE0004F04DF91CF911F910F91FF90EF90DF9001
:101FF000CF90089561E070E080E090E091CF609133
:1020000006017091070180910801909109012AE071
:1020100030E040E050E00E944133209306013093CD
:102020000701409308015093090182CF0F931F933A
:1020300080911001882339F001E410E92FEF3FEF80
:102040004EE652E006C000EC19E220EC36E941E72A
:1020500052E068E280E00E943A211F910F910895BA
:102060000F931F9360E070E081E695E00E941D06EB
:10207000E0910E01F0910F01EE0FFF1FEC5DFE4F9E
:102080004081518108E012E023E734E167E280E516
:102090000E943A210E9416100E941C238FEF0E947A
:1020A000580F81E00E94C6080E94D70A8CE00E9467
:1020B000312281E00E9431228CE00E9431221F9166
:1020C0000F910C94C60ECF92DF92EF92FF920F9376
:1020D0001F93CF93DF936C017A018B01C0E0D0E0B6
:1020E000CE15DF0581F0D8016D918D01D601ED91FE
:1020F000FC910190F081E02DC6010995892B11F02A
:102100002196EECF7E01C701DF91CF911F910F91F4
:10211000FF90EF90DF90CF9008951F93CF93DF93C0
:10212000EC01162FE881F9810284F385E02D0995F1
:10213000112311F06BA901C06CA9CE010E94380DCA
:10214000E881F9810688F789E02DCE01DF91CF91F2
:102150001F9109941F93CF93DF93EC0163706D8BF4
:1021600029AD8AAD30E0623091F06330B9F0613072
:1021700039F03EAB2DAB90E098AF8FAB10EC14C0B4
:1021800038AF2FAB90E09EAB8DAB10EA0DC03EABED
:102190002DAB90E098AF8FAB10E006C038AF2FABFF
:1021A00090E09EAB8DAB10E6E881F9810284F38567
:1021B000E02DCE01099566E3CE010E94380D612F16
:1021C000CE010E94380CE881F9810688F789E02D5C
:1021D000CE01DF91CF911F9109948F929F92AF9280
:1021E000BF92CF92DF92EF92FF920F931F93CF9304
:1021F000DF93EC018DA99EA94B01880E991E8FA932
:1022000098AD480F591FC9010197880D991DA0E08D
:10221000B0E0A12CB12C540199248824882A992A51
:10222000AA2ABB2A680181E0C81AD108C40ED51EAB
:10223000C601A0E0B0E06A01E12CF12C7601DD24BA
:10224000CC24C82AD92AEA2AFB2A6AE2CE010E94B3
:10225000380D29A16B2D77278827992727FF18C0CC
:102260006EBD0DB407FEFDCFC501AA27BB278EBDED
:102270000DB407FEFDCFBB27AB2D9A2D892D8EBD4A
:102280000DB407FEFDCF8EBC0DB407FEFDCF14C00C
:10229000CE010E94380CB50188279927CE010E94F3
:1022A000380C99278B2D7A2D692DCE010E94380C80
:1022B000682DCE010E94380C6BE2CE010E94380DD1
:1022C00029A16F2D77278827992727FF18C06EBD72
:1022D0000DB407FEFDCFC701AA27BB278EBD0DB4E5
:1022E00007FEFDCFBB27AF2D9E2D8D2D8EBD0DB4CE
:1022F00007FEFDCFCEBC0DB407FEFDCF14C0CE014E
:102300000E94380CB70188279927CE010E94380C0B
:1023100099278F2D7E2D6D2DCE010E94380C6C2DAE
:10232000CE010E94380C6CE2CE01DF91CF911F915B
:102330000F91FF90EF90DF90CF90BF90AF909F9064
:102340008F900C94380D1F93CF93DF93EC01637043
:102350006D8B8BAD623009F443C0633009F461C00A
:1023600099AD4AAD6130F1F0823069F0843009F006
:1023700091C020EA30E03B872A8720E530E03987AA
:10238000288710EC09C010EC20EA30E03B872A8750
:1023900020E830E039872887892F90E09EAB8DAB0D
:1023A000842F3BC0823069F0843009F07FC020EA7E
:1023B00030E03987288720E530E03B872A8710EA1C
:1023C00009C010EA20EA30E03987288720E830E0A9
:1023D0003B872A87892F90E098AF8FAB842F3EC030
:1023E000823069F0843009F06DC080EA90E09B870C
:1023F0008A8780E590E09987888710E009C010E01F
:1024000080EA90E09B878A8780E890E099878887B8
:1024100089AD90E09EAB8DAB8AAD90E098AF8FAB6D
:1024200020C0823069F0843009F058C080EA90E022
:102430009987888780E590E09B878A8710E609C0A6
:1024400010E680EA90E09987888780E890E09B8793
:102450008A8789AD90E098AF8FAB8AAD90E09EAB54
:102460008DABE881F9810284F385E02DCE010995D9
:1024700066E3CE010E94380D612FCE010E94380C18
:10248000E881F9810688F789E02DCE01DF91CF91AF
:102490001F910994813041F420E830E03B872A877E
:1024A0003987288718EC78CF18EC6ECF813041F44B
:1024B00020E830E0398728873B872A8718EA8ACFC7
:1024C00018EA80CF813041F480E890E09B878A87CA
:1024D0009987888718E09CCF18E092CF813041F42B
:1024E00080E890E0998788879B878A8718E6B1CF34
:1024F00018E6A7CF0E94EB361F93CF93DF93EC0132
:10250000411551056105710521F440E054E264EF85
:1025100070E04A8F5B8F6C8F7D8F81E28BAB80E2A6
:102520008CAB8E8D87FD07C061E00E94A52961E01C
:102530008E8D0E94762961E08F8D0E94A52960E032
:102540008F8D0E94762989A187FD19C061E08AA13B
:102550000E94A52960E08AA10E94762961E089A1F4
:102560000E94A52961E089A10E9476298BA187FD9F
:1025700003C060E00E94A52989A187FF33C01FB76F
:10258000F8948091D401811127C0EEE3F8E08491A2
:10259000E0E2F8E09491E82FF0E0EE0FFF1FE85042
:1025A000FD4FA591B491EC91E92321F461E08AE01B
:1025B0000E94762961E08AE00E94A5298CB580619D
:1025C0008CBD8CB580648CBD61E08DE00E94A52936
:1025D00061E08BE00E94A5298091D4018F5F8093F8
:1025E000D4011FBF88A187FD24C061E00E94A529F6
:1025F00061E088A10E94762964E670E080E090E0C6
:102600000E94F82960E088A10E94762964E670E0C3
:1026100080E090E00E94F82961E088A10E9476297C
:1026200068EC70E080E090E0DF91CF911F910C9416
:10263000F829DF91CF911F9108952F923F924F92E9
:102640005F926F927F928F929F92AF92BF92CF9242
:10265000DF92EF92FF920F931F93CF93DF93CDB74B
:10266000DEB7A4970FB6F894DEBF0FBECDBF38011A
:1026700049014C8F5E872B01FF8AEE8A892B29F452
:10268000E0914305F091440504C0E0914505F091C7
:102690004605FF27EE0FFF1FEE0FFF1FE95BFA4F06
:1026A000608171818281938124E630E040E050E0D6
:1026B0000E940A34322E232E4D835E836F837887E7
:1026C00089879A8786017501110FEE08FE2C870114
:1026D0009501A6016E2D7E2D8E2D9E2D0FE10E945F
:1026E0000C35A12CEAECBE2EFAE9CF2EABE3DA2EA4
:1026F000E12CF12C00E010E00E943734A32CB22C26
:10270000CD80DE80EF80F88409851A850E94B13380
:102710000FE10E94273559016A01D601C501BB0F9F
:10272000880B982FDC0189839A83AB83BC83950146
:10273000A6016981762F862F962FA32CB22CCD80EF
:10274000DE80EF80F88409851A850E944335322E99
:10275000232E49835D836E837F83888799879301C6
:10276000A4016C8D7E85C2012F3FA7E53A07A7E43F
:102770004A07A8EF5A07ADE06A0771058105910580
:10278000A9F0A0F0211534404B46544F6441710527
:1027900081059105B9F0B0F0612C04E0702E8BE654
:1027A000882E94EF992EF4E1FC8F09C0612C28E566
:1027B000722E37E4832E48EF942EEDE0EC8F1E86C8
:1027C000412C512CA32CB22CC980DD80EE80FF80DF
:1027D000088519859301A4016C8D7E85C2010E9434
:1027E0006834288F398F4A8F5B8F2A873B874C87C5
:1027F0005D878A859B85AC85BD850F97A105B10551
:1028000018F41FE0A12E0BC08A859B85AC85BD8581
:102810008B359105A105B105C0F0BAE5AB2EB12C01
:10282000C12CD12CE12CF12C00E010E0232D322D15
:1028300049815D816E817F81888599850E94B13350
:1028400039014A016C8F7E872C01A32CB22CC980E0
:10285000DD80EE80FF80088519859301A4016C8DD1
:102860007E85C2010E946634E0E4AE2EF2E4BF2E03
:10287000AFE0CA2ED12CE12CF12C00E010E00E9438
:10288000B133A32CB22CC980DD80EE80FF80088597
:1028900019850E946834C901DA010097A105B105C4
:1028A00029F4412C512C3201439407C060E4462E98
:1028B00062E4562E6FE0662E712C5C016D0187E09C
:1028C000AA0CBB1CCC1CDD1C8A95D1F7AC8EBD8E2E
:1028D000CE8EDF8EA32CB22CC980DD80EE80FF80EF
:1028E0000885198560E070E080E090E00E94B133D7
:1028F00063015201E12CF12C87014E86BF86C88A04
:10290000D98AEA8AFB8A0C8B1D8BE12CF12C00E022
:1029100010E00E9468342E8738A349A35AA34B01C4
:102920008CA39BA3CA84DB84EC84FD8497E0CC0C4D
:10293000DD1CEE1CFF1C9A95D1F702E0D01AE108CD
:10294000F1086C8D7D8D8E8D9F8DA30192010E946B
:10295000413389019A010C0D1D1D2E1D3F1DAE89AD
:10296000BF890D931D932D933C931397FD016483B1
:1029700075838683978318964D925D926D927C92B3
:102980001B97A32CB22CC980DD80EE80FF800885C8
:102990001985288D398D4A8D5B8D60E070E080E06F
:1029A00090E00E94B133AE84B8A0C9A0DAA074014F
:1029B0000CA11BA10E944335A4960FB6F894DEBF6C
:1029C0000FBECDBFDF91CF911F910F91FF90EF9080
:1029D000DF90CF90BF90AF909F908F907F906F903F
:1029E0005F904F903F902F9008952F923F924F927B
:1029F0005F926F927F928F929F92AF92BF92CF928F
:102A0000DF92EF92FF920F931F93CF93DF93CDB797
:102A1000DEB769970FB6F894DEBF0FBECDBF29872A
:102A20003A874B875C876D877E871C014A2CBB8A5F
:102A3000CC8ADD8AEE8AFF8A088F198F988A8F8662
:102A40002115E6ED3E07E1E14E07EEE75E07E3E024
:102A50006E0771058105910509F068F52F37304F34
:102A60004A4F5240610571058105910509F008F44E
:102A700059C02A2D3B2DA601B701C801A0E00E9434
:102A8000583509F001C1A984BA84CB84DC84ED8473
:102A9000FE84810120E033E245E75EEE64E170E010
:102AA00080E090E00E946834422E532E642E752EF2
:102AB00020FD1FC024C02A2D3B894C895D896E8969
:102AC0007F89888D998DA0E00E94583509F028C132
:102AD00025E0422E512C612C712C198626ED2A8777
:102AE00031E13B874EE74C8753E05D871E86212C02
:102AF000312C6FEF461A560A660A760A06C075E050
:102B0000471651046104710439F08FEF48165104DF
:102B10006104710400F524C096E0492E512C612C0B
:102B2000712C1EC02A2D3B894C895D896E897F8955
:102B3000888D998DA0E00E94583509F099C090E8E1
:102B40009987E0EFEA87FAEFFB8722E02C871D8662
:102B50001E86212C312C8EEF482E512C612C712C8D
:102B6000A301920160E070E0CB01A984BA84CB8418
:102B7000DC84ED84FE84810149823A834B835C834B
:102B80006D837E838F83988760E070E080E090E0C3
:102B90000E94B133B22FA32FF42EE52E4B018C01EE
:102BA0002115E4E03E07EBE64E07E4EF5E07E4E1C3
:102BB0006E07710581059105A1F098F0F2E04F1ABA
:102BC000510861087108A301920160E070E0CB0137
:102BD00049823A834B835C836D837E838F8398879E
:102BE00020C02F3F37454744584F6D407105810540
:102BF000910509F028F5F2E04F0E511C611C711C83
:102C0000A301920160E070E0CB0149823A834B83DB
:102C10005C836D837E838F839887A984BA84CB84F9
:102C2000DC84ED84FE84810160E070E080E090E06F
:102C30000E94B133B22FA32FF42EE52E4B018C014D
:102C4000552466247724EF85F88940825182628278
:102C5000738214821582168217821086118612865C
:102C60001386B9835A2E6F2C7E2C098B1A8B62C067
:102C700020E8298730EF3A874AEF4B8752E05C879C
:102C80001D861E86212C312CA984BA84CB84DC8439
:102C9000ED84FE848101242D3B894C895D896E89F8
:102CA0007F89888D998D0E9466342983532E3A013D
:102CB0004B01898B9A8BA0E00E94583541F5242D59
:102CC0003B894C895D896E897F89888D998D0E94A9
:102CD0006834C901DA01AC01BD01465051096109EE
:102CE0007109493F51056105710520F5EF85F889A6
:102CF00080839183A283B383148215821682178204
:102D00001086118612861386F1E0F98301C01982BC
:102D1000512C612C712C812C912C198A1A8A0AC091
:102D2000198666ED6A8771E17B878EE78C8793E071
:102D30009D87A7CF2981352DA301B40189899A895F
:102D400069960FB6F894DEBF0FBECDBFDF91CF916D
:102D50001F910F91FF90EF90DF90CF90BF90AF90B9
:102D60009F908F907F906F905F904F903F902F90AB
:102D70000895DF92EF92FF920F931F93CF93DF930B
:102D8000FC01E080F18002811381D481C581B6818C
:102D9000D7809701A8016D2F7C2F8B2F9D2D28594F
:102DA00038424C415109610971098109910927395A
:102DB00038424C415105610571058105910509F0C5
:102DC00098F49701A8016D2F7C2F8B2F9D2D07E084
:102DD0000E940C352083318342835383648375833F
:102DE0008683978387E001C19701A8016D2F7C2F0F
:102DF0008B2F9D2D2053314548435109610971099D
:102E0000810991092F32314548435105610571050A
:102E10008105910509F098F49701A8016D2F7C2F89
:102E20008B2F9D2D06E00E940C3520833183428339
:102E30005383648375838683978386E0D6C0970126
:102E4000A8016D2F7C2F8B2F9D2D2056324A404795
:102E5000510961097109810991092F35324A4047A9
:102E60005105610571058105910509F098F49701F7
:102E7000A8016D2F7C2F8B2F9D2D05E00E940C3516
:102E8000208331834283538364837583868397834E
:102E900085E0ABC09701A8016D2F7C2F8B2F9D2D56
:102EA000205C3444414E510961097109810991093D
:102EB0002F3B3444414E5105610571058105910553
:102EC00009F098F49701A8016D2F7C2F8B2F9D2D71
:102ED00004E00E940C352083318342835383648352
:102EE00075838683978384E080C09701A8016D2F46
:102EF0007C2F8B2F9D2D20583948424C5140610921
:102F00007109810991092F373948424C51406105B7
:102F100071058105910509F098F49701A8016D2FBD
:102F20007C2F8B2F9D2D03E00E940C352083318355
:102F300042835383648375838683978383E055C07C
:102F40009701A8016D2F7C2F8B2F9D2D3351454864
:102F5000534061097109810991092F3F3241454868
:102F60005340610571058105910509F098F49701B9
:102F7000A8016D2F7C2F8B2F9D2D02E00E940C3518
:102F8000208331834283538364837583868397834D
:102F900082E02BC09701A8016D2F7C2F8B2F9D2DD8
:102FA00036524A40574061097109810991092F3F02
:102FB00035424A405740610571058105910509F088
:102FC00098F49701A8016D2F7C2F8B2F9D2D01E088
:102FD0000E940C352083318342835383648375833D
:102FE0008683978381E001C080E0DF91CF911F91BC
:102FF0000F91FF90EF90DF9008952F923F924F92A4
:103000005F926F927F928F929F92AF92BF92CF9278
:10301000DF92EF92FF920F931F93CF93DF93CDB781
:10302000DEB768970FB6F894DEBF0FBECDBF29019B
:1030300049875A873B011C01A982B98ACA8ADB8A5F
:10304000EC8AFD8A0E8B1F8B988A8F86211501ECE6
:1030500030070AE140070DE3500705E060077105FE
:103060008105910509F0C8F42F3710EF31071AEFE9
:10307000410712E05107610571058105910509F0CD
:1030800008F43BC12F3F354D41415E476340710518
:103090008105910509F068F40AC1412CF1EC5F2E1D
:1030A000FAE1F9870DE30A87A5E06A2E712C212C3D
:1030B000312C298139894A895B896C897D898E897E
:1030C0009F89A0E00E94583509F077C09924939415
:1030D00014E0E12EF12C00E010E0EB86FC860D8779
:1030E0001E87EB84FC840D851E85A801970160E096
:1030F00070E0CB015201C984DA8473018101298314
:103100003A834B835C836D837E838F83988760E0F3
:1031100070E080E090E00E94B1332983398B4A8BC4
:103120005B8B6C8B7D8B8E8B9F8BFF24F3949F141A
:1031300009F409C110E0812C912C5401839440E0E2
:1031400050E0BA0101C011E0CB01BA01B7E0660F4F
:10315000771F881F991FBA95D1F7CB84DC84ED8443
:10316000FE8407E0CC0CDD1CEE1CFF1C0A95D1F799
:10317000A2E0DA1AE108F108A50194010E944133A6
:10318000C20ED31EE41EF51EEF85F889C082D182DF
:10319000E282F38264837583868397838086918637
:1031A000A286B386111103C1298139894A895B89B5
:1031B0006C897D898E899F890EC111E0188F52011B
:1031C000C984DA8473018101298139894A895B893B
:1031D0006C897D898E899F890E9468342B873C8702
:1031E0004D875E878B859C85AD85BE850697A1053D
:1031F000B10520F406E0A02EB12C0FC0EB84FC84B6
:103200000D851E8529E0E21627E0F206010511056D
:10321000C8F0B8E0AB2E17E0B12EC12CD12CE12CB8
:10322000F12C00E010E0298139894A895B896C8999
:103230007D898E899F890E946834290149875A8730
:103240003B011C015201C984DA8473018101298187
:1032500039894A895B896C897D898E899F890E9419
:103260006634E0E4AE2EF2E4BF2EAFE0CA2ED12CDD
:10327000E12CF12C00E010E00E94B1335201C9842E
:10328000DA84730181010E946834A32FF42FE52FA3
:10329000422F5A2F6F2F7E2F411551056105710561
:1032A00009F068C0812C912C540183946AC0298153
:1032B00039894A895B896C897D898E899F89A0E0DB
:1032C0000E945835F1F55201C984DA8473018101F5
:1032D00020E034E04BE654EF64E170E080E090E001
:1032E0000E946834122FB32FF42FE52FA7E00E941D
:1032F000583501F516E0B0E01BC0298139894A89AB
:103300005B896C897D898E899F89A0E00E945835F0
:1033100009F053C020E8422E30EF532EBAEFB987A0
:10332000E2E0EA87612C712C212C312C18E0B7E007
:10333000F0E0E0E0CF011B87BC879D87EE87912CF2
:10334000D0CE188E3CCFAF85B8891D921D921D92AC
:103350001C921397FD011482158216821782C12CCC
:10336000D12C7601C3941896CD92DD92ED92FC9209
:103370001B9731C020E4822E22E4922E2FE0A22E51
:10338000B12CF88DF13009F0DECEEF85F88910828E
:10339000118212821382148215821682178281E0B2
:1033A00090E0A0E0B0E080879187A287B387920188
:1033B00049855A85B301C1010EC0188E80E8482E98
:1033C00090EF592E0AEF098712E01A87612C712CB1
:1033D000212C312CF4CE68960FB6F894DEBF0FBEC8
:1033E000CDBFDF91CF911F910F91FF90EF90DF90B4
:1033F000CF90BF90AF909F908F907F906F905F9095
:103400004F903F902F900895DF92EF92FF920F938D
:103410001F93CF93DF93FC01E080F1800281138141
:10342000D481C581B681D7809701A8016D2F7C2FEB
:103430008B2F9D2D20583A41464051096109710951
:10344000810991092F373A414640510561057105BF
:103450008105910509F098F49701A8016D2F7C2F43
:103460008B2F9D2D07E00E940C35208331834283F2
:103470005383648375838683978387E0FDC09701B8
:10348000A8016D2F7C2F8B2F9D2D35534C4051095A
:1034900061097109810991092F3F34434C4051055D
:1034A000610571058105910509F098F49701A8015E
:1034B0006D2F7C2F8B2F9D2D06E00E940C352083D5
:1034C000318342835383648375838683978386E045
:1034D000D3C09701A8016D2F7C2F8B2F9D2D3A56BD
:1034E0004841510961097109810991092F3F394604
:1034F00048415105610571058105910509F098F470
:103500009701A8016D2F7C2F8B2F9D2D05E00E9428
:103510000C35208331834283538364837583868390
:10352000978385E0A9C09701A8016D2F7C2F8B2F71
:103530009D2D345D4043510961097109810991094B
:103540002F3F334D404351056105710581059105BC
:1035500009F098F49701A8016D2F7C2F8B2F9D2DDA
:1035600004E00E940C3520833183428353836483BB
:1035700075838683978384E07FC09701A8016D2FB0
:103580007C2F8B2F9D2D385A4146510961097109B5
:10359000810991092F3F374A41465105610571055F
:1035A0008105910509F098F49701A8016D2F7C2FF2
:1035B0008B2F9D2D03E00E940C35208331834283A5
:1035C0005383648375838683978383E055C0970113
:1035D000A8016D2F7C2F8B2F9D2D3055434C510909
:1035E00061097109810991092F3F3F44434C5105FD
:1035F000610571058105910509F098F49701A8010D
:103600006D2F7C2F8B2F9D2D02E00E940C35208387
:10361000318342835383648375838683978382E0F7
:103620002BC09701A8016D2F7C2F8B2F9D2D305A19
:103630004648514061097109810991092F3F3F496D
:1036400046485140610571058105910509F098F4DE
:103650009701A8016D2F7C2F8B2F9D2D01E00E94DB
:103660000C3520833183428353836483758386833F
:10367000978381E001C080E0DF91CF911F910F918E
:10368000FF90EF90DF9008952F923F924F925F92BC
:103690006F927F928F929F92AF92BF92CF92DF9262
:1036A000EF92FF920F931F93CF93DF93CDB7DEB7C7
:1036B0002D970FB6F894DEBF0FBECDBF3C01C98277
:1036C000DA82EB82FC820D831E832F833887498741
:1036D0005A876B877C87BAA09C2C2D2C4E2C302EC1
:1036E0001D87522EC984DA84EB84FC8484E190E047
:1036F0000E94CA358C01C301992706973CF5F80151
:10370000D082C182862D880F880F880F845D0E9429
:103710004324942D93708C7F892BF801828323821C
:103720009482D701C6012CE0B695A7959795879509
:103730002A95D1F7807F952D9F70C92EC80EC5821E
:103740008D858683932C378268E001C060E0E8E0D5
:103750006E16710408F06CC0F301EC5CFF4F0C9422
:103760008233A8018AE20E94F5246A2D80E090E06D
:103770000E94E2244B2D682D80E090E057C0A80104
:1037800082E30E94F5246A2D81E090E00E94E22409
:103790004B2D682D81E090E049C0A8018AE30E948A
:1037A000F5246A2D82E090E00E94E2244B2D682DE2
:1037B00082E090E03BC0A80182E40E94F5246A2DDB
:1037C00083E090E00E94E2244B2D682D83E090E09E
:1037D0002DC0A8018AE40E94F5246A2D84E090E0BF
:1037E0000E94E2244B2D682D84E090E01FC0A801C8
:1037F00082E50E94F5246A2D85E090E00E94E22493
:103800004B2D682D85E090E011C0692D8AE50E945E
:1038100028244B2D682D86E090E008C0692D8BE5AB
:103820000E9428244B2D682D87E090E00E94AB2455
:10383000C8012D960FB6F894DEBF0FBECDBFDF9145
:10384000CF911F910F91FF90EF90DF90CF90BF909D
:10385000AF909F908F907F906F905F904F903F9030
:103860002F900C9462362F923F924F925F926F92FC
:103870007F928F929F92AF92BF92CF92DF92EF9200
:10388000FF920F931F93CF93DF93CDB7DEB72E97A1
:103890000FB6F894DEBF0FBECDBF19013A014B0140
:1038A0008D879E872801012BC9F4E0914305F09193
:1038B0004405EE0FFF1FEE0FFF1FE15BFA4FA080E4
:1038C000B180C280D380CE0101967C018901930131
:1038D000AB016D857E8580E090E018C0E0914505E4
:1038E000F0914605EE0FFF1FEE0FFF1FE15BFA4F51
:1038F000A080B180C280D380FE0131967F0181011A
:103900009A01AB016D857E8581E090E00E941D13D8
:1039100084E190E00E94CA358C0189859A85AB8547
:10392000BC85F8019083818339814A812B81237082
:103930002283438334832CE0B695A795979587958A
:103940002A95D1F7807F2D813E819F819F70890FBD
:1039500085833683278341145104C1F4A80168E0AC
:103960008AE10E94F524209233053092340560925A
:103970003505709236058092370590923805FD85A1
:10398000F09339058E8580933A051AC04A944528EC
:10399000B9F4A80168E082E20E94F52420923B0578
:1039A00030923C0560923D0570923E0580923F0545
:1039B00090924005ED85E0934105FE85F093420528
:1039C000C8012E960FB6F894DEBF0FBECDBFDF91B3
:1039D000CF911F910F91FF90EF90DF90CF90BF900C
:1039E000AF909F908F907F906F905F904F903F909F
:1039F0002F900C9462361F93CF93DF93EC01162F18
:103A000083E00E9443249E01332761E070E001C0FF
:103A1000660F2A95EAF7113019F46095682301C002
:103A2000682B83E0DF91CF911F910C9428242F9273
:103A30003F924F925F926F927F928F929F92AF923E
:103A4000BF92CF92DF92EF92FF920F931F93CF938B
:103A5000DF93CDB7DEB7E6970FB6F894DEBF0FBEA3
:103A6000CDBF29A33AA34BA35CA36DA37EA38FA3D1
:103A700098A71801980133273AA729A726303105BE
:103A80000CF0E3C129A13AA1AFEF0E944C352E37CB
:103A90003A4146405105610571058105910509F0DE
:103AA00058F480E889A38AE18AA386E08BA31CA24C
:103AB0001DA21EA21FA218A629A13AA14BA15CA17A
:103AC0006DA17EA18FA198A52115314C4A415D437E
:103AD000654071058105910569F060F019A281ECDE
:103AE0008AA38AE18BA38DE38CA385E08DA31EA21C
:103AF0001FA218A659A06AA07BA08CA09DA0AEA072
:103B00000FA118A5252D362D472D582D692D7A2D5D
:103B1000C8012115344E4B40544562407105810562
:103B2000910509F008F42DC1A3EF4A2EA4E05A2E06
:103B30002AED34E03CA72BA76901F201E12CF12C1E
:103B4000C101880F991FDC01AD51BB4F4D01208190
:103B50003181428153816481758186819781389654
:103B60002115344E4B405445624071058105910545
:103B700099F090F029A53AA52E153F0569F0D601D8
:103B800019962D913C911A97D4018D919C912817EB
:103B9000390711F481E0D7C2BFEFEB1AFB0A12E03C
:103BA000C10ED11C26E0E216F10489F609A51AA57A
:103BB000075A1A4FD8018C91811107C061E0C101E9
:103BC0000E94FB1C81E0F801808329A13AA14BA14E
:103BD0005CA16DA17EA18FA198A5A9A5BAA5E3E0DE
:103BE000AA0FBB1FEA95E1F7A652BB4FFD017996DC
:103BF00059962C93318342835383648375838683E0
:103C00009783DE011D964D01A12CB12CC12CD12C26
:103C1000E12CF12C00E010E00E94FD1729A73DA740
:103C20004EA75FA768AB79AB8AAB9BABC101880F8E
:103C3000991FFC01E652FB4F4F01018512858AA9AD
:103C40009BA90E94331C612C712C9401275F3F4F6C
:103C50003EAB2DABD2018C9011969C901197129691
:103C6000AC90129713960C91139714961C9114977D
:103C70001596BC91F201F680E780F8E04F0E511CDA
:103C800094014A2D502F612F7B2F8F2D9E2DA0E068
:103C90000E94583509F455C0EBA5FCA52185328555
:103CA000EDA9FEA9808191812817390709F049C043
:103CB000898E9A8EAB8E0C8F1D8FBE8FFF8EE8A2E1
:103CC000CE0149960E94041A8CAB298D3A8D4B8DFA
:103CD0005C8D6D8D7E8DCE0101964C01A9A4BDA495
:103CE000CEA4DFA4E8A8F9A80AA91BA98F8D98A1E2
:103CF0000E94FD17AA24A394298D3A8D4B8D5C8DCB
:103D00006D8D7E8D8F8D98A12F3F354D41415E4742
:103D1000634071058105910509F008F4A12CAF926B
:103D20008CA8C980DA80EB80FC800D811E812F81F8
:103D3000388549855A856B857C85C3010E94441B63
:103D40000F90BFEF6B1A7B0AEBA5FCA53296FCA780
:103D5000EBA7F6E06F16710409F07CCFF101EE0FCE
:103D6000FF1FE652FB4F81859285009711F460E2B8
:103D700004C0019709F0E6C160E881EB0E942824A5
:103D8000E1C1A9A5BAA593E0AA0FBB1F9A95E1F7D7
:103D9000A652BB4FFD01799659965C926182728260
:103DA00083829482A5820683178309A51AA5075AE0
:103DB0001A4FD8018C91811107C061E0C1010E94A6
:103DC000FB1C81E0F8018083CE0181960E94041AD9
:103DD000782EF101EE0FFF1FE652FB4F0184F285B2
:103DE000E02D29A13AA14BA15CA16DA17EA18FA1DB
:103DF00098A5EF2BA1F4A0903305B0903405C090A6
:103E00003505D0903605E0903705F09038050091E3
:103E1000390510913A05DE011D964D0113C0A090A1
:103E20003B05B0903C05C0903D05D0903E05E0902C
:103E30003F05F09040050091410510914205FE01BB
:103E40003D964F010E94FD176AC129A13AA14BA1DD
:103E50005CA16DA17EA18FA198A5AFEF0E944C350A
:103E6000263938424C41510561057105810591059E
:103E700009F058F480E889A38AE18AA386E08BA33D
:103E80001CA21DA21EA21FA218A629A13AA14BA1E5
:103E90005CA16DA17EA18FA198A52F3F354D414119
:103EA0005E47634071058105910571F068F08FEF01
:103EB00089A385ED8AA381E18BA38EE78CA383E0A0
:103EC0008DA31EA21FA218A629A12BA73AA13DA728
:103ED0004BA05CA06DA07EA08FA098A486E02816C1
:103EE000310409F048C020912B0530912C054091F8
:103EF0002D0550912E0560912F0570913005809110
:103F0000310590913205A0E00E94583509F048C073
:103F1000A9A5BAA503E0AA0FBB1F0A95E1F7A6520F
:103F2000BB4FFD0179961BA559961C932DA52183A6
:103F3000428253826482758286829782CE01819604
:103F40000E94B916782E29A13AA14BA15CA16DA1BE
:103F50007EA1CE010D964C01A12CB12CC12CD12CEF
:103F6000E12CF12C00E010E08FA198A50E94F5143F
:103F700001E010E0D2C0209123053091240540914A
:103F8000250550912605609127057091280580919F
:103F9000290590912A05A0E00E94583509F47AC0BD
:103FA00090913B059EA7A0913C05AFA7B0913D0520
:103FB000B8ABE0913E05E9ABF0913F05FAAB10914B
:103FC00040051BAB209141052CAB309142053DAB28
:103FD000ABA4BDA4620173018401292F3A2F4B2F9A
:103FE0005E2F6F2F7BA98CA99DA90E946634A0E04B
:103FF0000E94583509F0CECD2EA53FA548A959A954
:104000006AA97BA98CA99DA90E946834217030E01F
:1040100040E050E060E070E080E090E0A0E00E94CE
:10402000583509F0B7CDA9A5BAA513E0AA0FBB1F53
:104030001A95E1F7A652BB4FFD0179965996AC92BD
:10404000B182428253826482758286829782CE01D7
:1040500081960E94B916782EA0903B05B0903C0541
:10406000C0903D05D0903E05E0903F05F0904005A2
:10407000009141051091420529A13AA14BA15CA1F3
:104080006DA17EA1DE011D964D018FA198A50E9414
:10409000F51445C0E9A5FAA583E0EE0FFF1F8A9548
:1040A000E1F7E652FB4FDF0159961BA5118F2DA5B5
:1040B00011962C93119712964C92129713965C922C
:1040C000139714966C92149715967C9215971696E2
:1040D0008C92169717969C92CE0181960E94B916E3
:1040E000782E29A13AA14BA15CA16DA17EA1CE01A0
:1040F0000D964C01A12CB12CC12CD12CE12CF12C12
:1041000000E010E08FA198A50E94F514F101EE0FD8
:10411000FF1FE652FB4F018512850E94331C1F9240
:10412000872CA12CCD84DE84EF84F88809891A8934
:104130002B893C894D895E896F89788DC1010E94E8
:10414000441B0F9080E0E6960FB6F894DEBF0FBEDA
:10415000CDBFDF91CF911F910F91FF90EF90DF9036
:10416000CF90BF90AF909F908F907F906F905F9017
:104170004F903F902F900895FF920F931F93CF93EE
:10418000DF93EC018B01F82E80E1F80E8F2D0E9459
:1041900043240115110511F48F7D04C00130110570
:1041A00009F48062682F8F2D0E942824DD27CC0F10
:1041B000DD1FC652DB4F1A870987DF91CF911F9110
:1041C0000F91FF900895CF92DF92EF92FF920F939D
:1041D0001F93CF93DF93EC012196FC01F490FF2015
:1041E00009F43FC081E695E00E94D607FE01649184
:1041F00081E695E00E94380D6E01F2E0CF0ED11CF1
:10420000FE013196C4918C2F8078E82ECF778601FD
:10421000DC2FD15048F0F801649181E695E00E94CE
:10422000380C0F5F1F4FF5CFC6018C0F911DEC01AD
:1042300081E695E00E943205E11002C0FA94CFCFEA
:104240008E010F5F1F4FFE01649170E06F3F71059B
:1042500011F464EF71E080E090E00E94F829E80139
:10426000EDCFDF91CF911F910F91FF90EF90DF90F5
:10427000CF9008952F923F924F925F926F927F92CC
:104280008F929F92AF92BF92CF92DF92EF92FF9266
:104290000F931F93CF93DF93CDB7DEB72C970FB655
:1042A000F894DEBF0FBECDBF5C874B875901480134
:1042B000262F30E03A872987282E312C81E695E099
:1042C0000E94D60769847A8434E0631A7108610118
:1042D00042E0C40ED11C78010FE010E0930140E0F1
:1042E00050E0B60181E695E00E94630CE984FA840F
:1042F000E20CF31C270153E0451A510884012AE01F
:1043000030E041E062E070E0C2010E949B2C2AE0B4
:1043100030E042E062E070E0C6010E949B2C81E642
:1043200095E00E94320581E695E00E94D60785015E
:10433000930140E050E0B60181E695E00E940B0554
:1043400093014EE050E0B60181E695E00E940B0536
:104350002BE030E042E050E0B10181E695E00E94C0
:104360001E05B701615071092BE030E042E050E0DA
:1043700081E695E00E941E05950141E062E070E053
:10438000C6010E94052C950142E062E070E0C20186
:104390000E94052C950144E06CE070E0C2010E948F
:1043A000052C950148E06CE070E0C6010E94052CE8
:1043B00081E695E00E9432059E012F5F3F4F88E025
:1043C000F90111928A95E9F7AE01495F5F4F6A01E1
:1043D000CE0105967C018E010D5F1F4F40E050E03D
:1043E000B1018B859C850E948E2A8F8198852FE054
:1043F00030E0281B390B369527952F5F3F4F8D8175
:104400009E81E985FA85E81BF90BCF019695879582
:10441000280E391EE1E6F5E0B18AA08A938A828AE5
:1044200035862486378726878B859C850E947C2A43
:104430002C960FB6F894DEBF0FBECDBFDF91CF91A3
:104440001F910F91FF90EF90DF90CF90BF90AF90B2
:104450009F908F907F906F905F904F903F902F90A4
:1044600008953F924F925F926F927F928F929F92A8
:10447000AF92BF92CF92DF92EF92FF920F931F9372
:10448000CF93DF93C82FA8E0EA2EA2E0FA2E0AE02D
:1044900010E020EA30E046E750E060E070E081E6BE
:1044A00095E00E9451058091D6048C1709F4B2C0A2
:1044B000CD3020F4C11103C0C1E001C0CCE0809137
:1044C000D6048C1708F076C0D091D6046EE0762E14
:1044D0007BE2672EE0E35E2EFEE6AF2EB12CDC170A
:1044E00008F066C0E6EFED0FE33040F4F0E0EE0FC9
:1044F000FF1FE25AFE4FC080D18006C040EEC42E9E
:1045000047E0D42EDA3010F022E001C020E08D2EFA
:10451000912CC4010197879D302C112432E0432E49
:10452000430CDB3011F462E001C060E030E0235F57
:104530003F4F70E0640D711D760106E010E048E722
:1045400050E081E695E00E944F044AE068E274E0A2
:10455000C401DA3090F001960E94B33260922804D0
:1045600050922A0410922B04DA3019F42BEF422EC9
:1045700002C09EEF492E430C02C00E94B332D0927B
:104580007205C09271051092740510927305842D06
:1045900090E0049690936E0580936D05B09270053F
:1045A000A0926F0588E294E00E947C2ADF5F97CF9B
:1045B000C093D6048091D604C81760F5D091D60474
:1045C0008EE0D82ECD1720F5DA3018F42EE030E04A
:1045D00002C020E130E08D2F90E00197D89EA0012D
:1045E000D99E500D1124DB3019F062E070E002C05A
:1045F00064E070E0640F751FE12CF12C06E010E020
:1046000048E750E081E695E00E944F04D150DACFB0
:10461000C093D604DF91CF911F910F91FF90EF903F
:10462000DF90CF90BF90AF909F908F907F906F90D2
:104630005F904F903F900895EF92FF920F931F93DA
:1046400090910D0180910001981307C000E018E6D9
:1046500020E038EE4DEB51E015C0E0910D0185E012
:10466000E89FF0011124EA5CFE4F80814AE068E295
:1046700074E090E00E94B33200EC19E220EC36E9DD
:1046800048E254E068E288E70E943A21E12CF12CEC
:104690000AE010E02FE930E04EE550E060E070E025
:1046A00081E695E00E944F041F910F91FF90EF90DB
:1046B0000895AF92BF92CF92DF92EF92FF920F9345
:1046C0001F93CF93DF93D091000106E311E0C0E088
:1046D00088EEC82E83E0D82EE12CF12CDC17D9F11E
:1046E0006091020170910301809104019091050194
:1046F000F801A180B280A70196010E944133C50153
:10470000A0E0B0E0281739074A075B07B0F16091D5
:104710000201709103018091040190910501A701AC
:1047200096010E944133F801838194818A0D9B1D7B
:10473000A0E0B0E082179307A407B507F0F08091DE
:104740000D01C81721F0C0930D010E941C23809118
:104750000001C81316C080910D018C1791F0C09311
:104760000D01DF91CF911F910F91FF90EF90DF909E
:10477000CF90BF90AF900C941C23CF5F0B5F1F4F67
:10478000ADCFDF91CF911F910F91FF90EF90DF9010
:10479000CF90BF90AF900895282F309127043132E9
:1047A00008F04AC0809103048111FCCF9091260447
:1047B00042E040930304209302042FEF209301046E
:1047C000109200043093FF03E6E0F4E0AFEDB3E0B5
:1047D00020E0321721F041914D932F5FFACF1092D4
:1047E000DE032091DE03990F922B9093DE039091CC
:1047F000DD03913061F41092DD039091DE0390931C
:10480000BB009091BC0093FDF8CF95EC01C095EEF4
:104810009093BC00909103049230E1F390910104D5
:104820009F3F79F080910104803241F08091010432
:10483000803331F084E005C081E003C082E001C034
:1048400083E0109205041092270410920404089546
:10485000CF93C62F9091580521E0209304049093A4
:1048600026041092050410922704682F84E894E02F
:104870000E94B1256C2F84E894E00E94B12581E06C
:10488000CF910C94CC23CF939091580521E02093A5
:104890000404909326041092050410922704682FB4
:1048A00084E894E00E94B12581E00E94CC238091AD
:1048B0005805909103049111FCCF91E0909303046B
:1048C000109202042FEF2093010410920004109222
:1048D000FF039093DE039091DE03880F892B809372
:1048E000DE038091DD03813061F41092DD0380915D
:1048F000DE038093BB008091BC0083FDF8CF85EC84
:1049000001C085EE8093BC00809103048130E1F307
:1049100080910004811103C0C091000401C0C1E076
:10492000EFEDF3E0ADEBB3E080E08C1721F0919177
:104930009D938F5FFACF1092BC03C093BB0380E0BE
:104940009091BC03C91729F084E894E00E9468257F
:10495000F7CFCF910895FF920F931F93CF93DF93DB
:104960008C01C62FF42E8830910528F4FC01E25DFD
:10497000FE4FD08101C0D0E08D2F0E94432406302D
:10498000110544F48378F1108C6090E1C99FB00167
:1049900011240EC00630110519F4887F8C2B09C034
:1049A0000730110531F490E1C99FB00111248F78CF
:1049B000862B682F8D2FDF91CF911F910F91FF9044
:1049C0000C942824CF93DF93D62FC0E1C80F8C2FEF
:1049D0000E944324682FD13011F4606401C06F7BC2
:1049E0008C2FDF91CF910C942824EF92FF920F939C
:1049F0001F93CF93DF93062F7A019091580521E002
:104A00002093040490932604109205041092270426
:104A1000682F84E894E00E94B125E70110E0CE0100
:104A20008E199F098017910734F4699184E894E006
:104A30000E94B125F4CF81E0DF91CF911F910F91BA
:104A4000FF90EF900C94CC2385ED8093BC00809177
:104A5000BC0084FDFCCF10920304089540916104D2
:104A6000262F30E0240F311D21323105DCF4209156
:104A700003042430C9F4FC0180E090E0861758F468
:104A8000309161042191DC01AF5BBB4FA30FB11DDD
:104A90002C930196F3CF80916104680F60936104B9
:104AA00080E0089581E0089582E0089508950895D2
:104AB0000895E091BC038091BB03E81730F4F0E067
:104AC000E354FC4F808190E008958FEF9FEF0895AD
:104AD0009091BC038091BB03981750F4E92FF0E04C
:104AE000E354FC4F208130E09F5F9093BC0302C0F1
:104AF0002FEF3FEFC90108958091BB0390E0209113
:104B0000BC03821B91090895CF92DF92EF92FF922E
:104B10000F931F93CF93DF937C01CB018A012091E8
:104B20000404222389F0EB016B01C40ED51ECC15C1
:104B3000DD0569F06991D701ED91FC910190F0815B
:104B4000E02DC7010995F3CF642F0E942E25C801DF
:104B5000DF91CF911F910F91FF90EF90DF90CF9059
:104B60000895CF93DF931F92CDB7DEB7698320916D
:104B700004042223D1F020912704203240F021E0C8
:104B800030E0FC013383228380E090E015C0809107
:104B90000504E82FF0E0EA5FFB4F998190838F5F77
:104BA000809305048093270405C061E0CE0101963F
:104BB0000E942E2581E090E00F90DF91CF91089523
:104BC0003FB7F89480913D0490913E04A0913F043A
:104BD000B091400426B5A89B05C02F3F19F001965F
:104BE000A11DB11D3FBFBA2FA92F982F8827820F73
:104BF000911DA11DB11DBC01CD0142E0660F771FC3
:104C0000881F991F4A95D1F708952F923F924F928E
:104C10005F926F927F928F929F92AF92BF92CF924C
:104C2000DF92EF92FF920F931F93CF93DF93CDB755
:104C3000DEB76B970FB6F894DEBF0FBECDBF9B8F6C
:104C40008A8F5B011A01D22E1F830E833701C9821E
:104C5000DC0158962D913C9159972115310509F0A9
:104C6000E6C018968D919C911997681779070CF0FA
:104C7000CDC11A968D919C911B97481759070CF03E
:104C8000C5C18C2C912CFB0126E0C29EE00DF11DCC
:104C90001124FB87EA871E161F060CF0B7C1A4017A
:104CA00083E0440F551F8A95E1F75D874C87CA0161
:104CB000820D931D181619060CF0A8C157968C91F9
:104CC000811104C05FEA5D1508F4D394AA8DBB8DF1
:104CD000ED91FC9111970284F385E02DCD010995AA
:104CE000B5E0DB9EC0011124F5013596FF87EE8704
:104CF000BB82AA8225019C012A193B09398B288B8A
:104D0000A101485F5F4F5B8B4A8BE889F989E40D0D
:104D1000F51DEA5EFC4F5491588761013D822C825B
:104D2000888580FF13C0AA8DBB8DED91FC91B98160
:104D3000B13031F40484F585E02D2E813F8116C019
:104D40000684F785E02DEE80FF801AC0EE81FF819A
:104D5000E615F705F1F0AA8DBB8DED91FC91B981B7
:104D6000B13051F40484F585E02D9301A601B20120
:104D70008A8D9B8D09950DC00684F785E02D730102
:104D8000840194014C815D816A817B818A8D9B8D38
:104D90000995E885E695E887FFEFCF1ADF0A2C81B1
:104DA0003D81280D391D3D832C834A895B89C416BA
:104DB000D50609F0B5CF5FEF451A550A8A819B8168
:104DC000880D991D9B838A83AE85BF854A165B0635
:104DD00009F09BCFEE81FF81E615F70509F4F4C0D9
:104DE000EA8DFB8DA081B181F981F13079F4B501B3
:104DF0006B5F7F4F5096ED91FC915197830128E0B6
:104E000030E0A1018A8D9B8D0995DEC06A857B8586
:104E1000681979091E96ED91FC911F9773010C8515
:104E20001D859401A1018A8D9B8D0995CDC0F90145
:104E30003496E491DE1AF901329685919491B7E0A7
:104E4000DB9E800D911D1124F901259134913B8B3E
:104E50002A8BFC01259134912901FC013296C490E2
:104E6000319634913E87329614913196D49049818F
:104E7000423058F0612E012E000C77088D2D0D2C3C
:104E8000000C990B9987888704C019861886612CB5
:104E9000712CAA8DBB8DED91FC9111970284F38545
:104EA000E02DCD010995B9818B2E912C689CC00114
:104EB000699C900D789C900D1124FC01EA0DFB1D5E
:104EC000FD87EC871A82712C612CE12F110FFF0BEB
:104ED00095012E0F3F1F3B872A87AC0CB11CA50103
:104EE0004E0F5F1F5F8B4E8BC1018D0D911DD7FC47
:104EF0009A95998F888F9E85691608F065C0862DD2
:104F000090E048855985480F591F489D9001499D5B
:104F1000300D589D300D1124D101A20FB31FB98B54
:104F2000A88BEC85FD85FD83EC83AA84BB84DA80A5
:104F3000FA85DF1A288D398D280F391F3D8B2C8B70
:104F40008D2D8A0D4E895F89A416B506C1F1877033
:104F500041F4C2010196EA89FB89E40DF51D7490C4
:104F60002C0177FE21C0AA8DBB8DED91FC91B981FA
:104F7000B13061F40484F585E02D2E813F814C89A8
:104F80005D89B5018A8D9B8D09950EC00684F785D4
:104F9000E02DEE80FF8084019401488959896C815D
:104FA0007D818A8D9B8D0995770CEFEFAE1ABE0A35
:104FB0002C813D81280D391D3D832C83C1CF3A8141
:104FC0003C0D3A83639497CFAA8DBB8DED91FC91F4
:104FD00011970688F789E02DCD016B960FB6F894EE
:104FE000DEBF0FBECDBFDF91CF911F910F91FF901C
:104FF000EF90DF90CF90BF90AF909F908F907F9079
:105000006F905F904F903F902F9009946B960FB6E2
:10501000F894DEBF0FBECDBFDF91CF911F910F91EE
:10502000FF90EF90DF90CF90BF90AF909F908F90C8
:105030007F906F905F904F903F902F9008951F92B8
:105040000F920FB60F9211242F933F934F935F93BC
:105050006F937F938F939F93AF93BF93EF93FF9340
:105060008091B900887F803609F49CC068F5883249
:1050700009F45BC090F4803109F454C038F48823FB
:1050800009F4F6C0883009F44DC0F6C0883109F43F
:105090004CC0803209F45DC0EFC0803409F468C0B0
:1050A00048F4803309F455C0883309F0E5C0809393
:1050B0000104D8C0803509F44FC0883509F45DC0BB
:1050C000883409F0D9C0D6C0883909F4C7C0A8F41B
:1050D000883709F467C038F4883609F463C080372C
:1050E00009F460C0C9C0883809F4B8C0803909F42F
:1050F0005FC0803809F0C0C05BC0803B09F486C047
:1051000038F4803A09F466C0883A09F47FC0B4C024
:10511000803C09F4A7C0883C09F4A4C0883B09F48A
:105120008AC0AAC08091DE0310C0909100048091D3
:10513000FF03981770F5E091000481E08E0F8093D3
:105140000004F0E0E152FC4F80818093BB0085ECCD
:1051500086C0809301048EC0E091000481E08E0F30
:10516000809300048091BB00F0E0E152FC4F80830B
:10517000909100048091FF036EC0E091000481E0F3
:105180008E0F809300048091BB00F0E0E152FC4F51
:1051900080838091020481116DC081E08093DD03E2
:1051A00084EA61C083E08093030410928304CFCF2C
:1051B00080918304803208F051C0E091830481E043
:1051C0008E0F809383048091BB00F0E0ED59FB4F7C
:1051D0008083BDCF85EC8093BC0010920304809146
:1051E0008304803230F4E0918304F0E0ED59FB4F0A
:1051F00010826091830470E0E0913A04F0913B04E6
:1052000083E694E009951092830436C084E080938D
:1052100003041092620410926104E0913804F0914A
:105220003904099580916104811105C081E0809362
:10523000610410924104E091620481E08E0F80933A
:105240006204F0E0EF5BFB4F80818093BB009091A4
:10525000620480916104981708F479CF85E88093FF
:10526000BC000AC085EC8093BC001092030404C00B
:10527000109201040E942425FF91EF91BF91AF91FC
:105280009F918F917F916F915F914F913F912F915E
:105290000F900FBE0F901F901895833081F028F467
:1052A000813099F08230A1F008958730A9F08830DC
:1052B000B9F08430D1F4809180008F7D03C080915B
:1052C00080008F7780938000089584B58F7702C027
:1052D00084B58F7D84BD08958091B0008F7703C021
:1052E0008091B0008F7D8093B00008951F93CF937D
:1052F000DF93282F30E0F901EE5FFC4F8491F90134
:10530000EA5EF74FD491F901EC5CF74FC491CC23DE
:10531000C1F0162F81110E944D29EC2FF0E0EE0F05
:10532000FF1FE65DF74FA591B4919FB7F894111157
:1053300004C08C91D095D82302C0EC91DE2BDC9375
:105340009FBFDF91CF911F910895CF93DF9390E09E
:10535000FC01EA5EF74F2491FC01EC5CF74F84916D
:10536000882361F190E0880F991FFC01E850FD4F00
:10537000C591D491FC01E65DF74FA591B4916111FF
:1053800009C09FB7F8948881209582238883EC9187
:105390002E230BC0623061F49FB7F8948881322FBE
:1053A000309583238883EC912E2B2C939FBF06C0CE
:1053B0008FB7F894E8812E2B28838FBFDF91CF9190
:1053C00008958E3008F08E508770806480937C0042
:1053D00080917A00806480937A0080917A0086FDC3
:1053E000FCCF809178002091790090E0922B089575
:1053F0008F929F92AF92BF92CF92DF92EF92FF92E5
:105400006B017C010E94E0254B015C01C114D104B9
:10541000E104F104F1F00E94E025DC01CB018819E0
:105420009909AA09BB09883E9340A105B10570F30B
:1054300021E0C21AD108E108F10888EE880E83E065
:10544000981EA11CB11CC114D104E104F10419F788
:10545000DDCFFF90EF90DF90CF90BF90AF909F9007
:105460008F9008951F920F920FB60F9211242F93D1
:105470003F938F939F93AF93BF9380913404909108
:105480003504A0913604B091370430913C0423E0F8
:10549000230F2D3720F40196A11DB11D05C026E86C
:1054A000230F0296A11DB11D20933C048093340468
:1054B00090933504A0933604B093370480913D0453
:1054C00090913E04A0913F04B09140040196A11D2B
:1054D000B11D80933D0490933E04A0933F04B0938C
:1054E0004004BF91AF919F918F913F912F910F9069
:1054F0000FBE0F901F901895009769F0FC01019066
:105500000020E9F73197AF01481B590BBC0181E638
:1055100095E00C94631080E090E008952F923F9204
:105520004F925F926F927F928F929F92AF92BF92B3
:10553000CF92DF92EF92FF920F931F93CF93DF935F
:10554000CDB7DEB76D970FB6F894DEBF0FBECDBFF7
:105550003C872B871E870D87F88AEF86DA8AC98AEF
:10556000F90171836083F80151834083F601118250
:105570001082F701118210822090690530906A052F
:1055800000916B0510916C054090790550907A055B
:1055900092012C5F3F4F3C8B2B8B2F5F3F4F3E8BFD
:1055A0002D8B23503109388F2F8B80907705909069
:1055B0007505C92CD12CDC82CB822C5F3F4F3E83FA
:1055C0002D8326E0929E60011124D886CF82CB8065
:1055D000DC80F3E0CC0CDD1CFA95E1F7DA82C982BD
:1055E0009A8789877101AFEFBFEF2FEF3FEF3B8FB6
:1055F0002A8FE985FA852191FA87E987222309F420
:10560000CCC04114510409F48DC02A3041F4ED811D
:10561000FE818491899D400D511D112489C02D303A
:1056200041F3EB89FC89C490ED89FE898491022EB7
:10563000000C330BD12C2C153D05DCF290E08217C9
:105640009307BCF2EF89F88D859194912C193D094F
:10565000E7E0CE2EC29EF001C39EF00D11248E0F06
:105660009F1FFC013296C4903196D49031962491BC
:10567000298F31963491319684918820E9F06C2CF1
:10568000712C630E711C37FD7A94EB81FC816E9E48
:1056900050016F9EB00C7E9EB00C1124A60EB71E5A
:1056A0002A143B044CF4ED81FE819491999E400DA7
:1056B000511D112460E070E0292D3203F001112406
:1056C000E60FF71F382F3203C0011124840F951FF6
:1056D0005F019C9CA00CB11C112421E0A21AB1080E
:1056E0009C019D9C200D311D1124690131E0C31ADC
:1056F000D108EE15FF050CF47F01801791070CF41B
:105700008C018A8D9B8D8A159B0514F4BB8EAA8E05
:10571000AC15BD050CF4D601998D999E600D711DD7
:10572000112467CF2A3039F4C980DA804C0D5D1D11
:1057300060E070E05ECF2D3009F45BCF882069F027
:105740008F819885860F971F2816390634F4298192
:105750003A81420F531F60E070E02F813885260F99
:10576000371FF901319789819A81840F951F01971D
:10577000CA8CDB8CCE16DF0614F4FB8FEA8FA817D9
:10578000B9070CF4DC016E157F050CF47B014017A2
:1057900051070CF48A01B9012CCF2A8D3B8D2E15AF
:1057A0003F0564F0EB85FC85F182E0822E193F090C
:1057B0002F5F3F4FEF85F88931832083A017B10712
:1057C0005CF0ED85FE8511830083A01BB10B119663
:1057D000E989FA89B183A0836D960FB6F894DEBF8C
:1057E0000FBECDBFDF91CF911F910F91FF90EF9032
:1057F000DF90CF90BF90AF909F908F907F906F90F1
:105800005F904F903F902F9008956F927F928F926C
:105810009F92AF92BF92CF92DF92EF92FF920F933F
:105820001F93CF93DF937C016B015901C0E0D0E05F
:1058300002E010E0842F8470882E842F8270782EEE
:10584000842F8870682E4170942E21968820B1F0A4
:105850009501A8014C0D5D1DB7016C0F7D1F81E600
:1058600095E00E94F50C9501A6014C0F5D1FB80153
:105870006E0D7F1D81E695E00E94F50C7720B1F05A
:105880009501A601401B510BB7016C0F7D1F81E6EE
:1058900095E00E94F50C9501A6014C1B5D0BB8012B
:1058A0006E0D7F1D81E695E00E94F50C6620B1F03B
:1058B0009501A6014C0F5D1FB701601B710B81E6BE
:1058C00095E00E94F50C9501A8014C0D5D1DB701F6
:1058D0006C1B7D0B81E695E00E94F50C9920B1F0E0
:1058E0009501A6014C1B5D0BB701601B710B81E696
:1058F00095E00E94F50C9501A601401B510BB701E4
:105900006C1B7D0B81E695E00E94F50CC017D1075A
:105910001CF401E010E099CFDF91CF911F910F911E
:10592000FF90EF90DF90CF90BF90AF909F908F90BF
:105930007F906F9008952F923F924F925F926F9257
:105940007F928F929F92AF92BF92CF92DF92EF920F
:10595000FF920F931F93CF93DF9300D000D000D01E
:10596000CDB7DEB72C013B0149015801190183E095
:10597000280E311CE12CF12C82E090E09E838D8377
:105980008CEF9FEF9A838983CC24CA94DC2C942FCC
:1059900091709B8342704C838FEFE81AF80AC10123
:1059A00088199909C80ED91E9B81992309F12D8167
:1059B0003E81220F331F2F5F3F4F280D391D850178
:1059C000A3018D819E81481B590BB2016E0D7F1D75
:1059D00081E695E00E941E059101A3014E195F0921
:1059E0006D817E81640D751D81E695E00E941E0526
:1059F0009C81911119C08D819E81E816F906BCF534
:105A0000D7FC0AC089819A8102969A838983C80E3D
:105A1000D91E81E090E002C082E090E09E838D83F9
:105A200092E0290E311CB8CF2D813E81220F331F09
:105A30002F5F3F4F280D391D8501A3018D819E8168
:105A4000481B590BB2016E197F0981E695E00E944F
:105A50001E059101A3014E195F09B2018D819E813E
:105A6000681B790B81E695E00E941E05C4CF26963F
:105A70000FB6F894DEBF0FBECDBFDF91CF911F915F
:105A80000F91FF90EF90DF90CF90BF90AF909F90DD
:105A90008F907F906F905F904F903F902F900895E0
:105AA000CF93DF9300D01F92CDB7DEB7789484B543
:105AB000826084BD84B5816084BD85B5826085BD0A
:105AC00085B5816085BD80916E00816080936E0098
:105AD000109281008091810082608093810080918A
