:100000000C9446040C94C40E0C949C0E0C946E0438
:100010000C946E040C946E040C946E040C946E0498
:100020000C946E040C946E040C946E040C946E0488
:100030000C946E040C946E040C946E040C946E0478
:100040000C9438250C946E040C946E040C946E047D
:100050000C946E040C946E040C946E040C946E0458
:100060000C94DB210C946E04521960196E197C19E2
:100070008A199819A619AF1908000000BE922449E0
:10008000123EABAAAA2ABECDCCCC4C3E00000080CA
:10009000BEABAAAAAA3E00000000BF000000803F3D
:1000A0000000000000084178D3BB4387D1133D19FD
:1000B0000E3CC3BD4282AD2B3E68EC8276BED98F2A
:1000C000E1A93E4C80EFFFBE01C4FF7F3F0000006E
:1000D0000000000004090701FD050008040A01F7FB
:1000E000090004040701FD000000000600012000D3
:1000F0000E151001EC450008151003EC5A000E1502
:100100001001EC7F000E151001ECA4000E1510017B
:10011000ECC9000E151001ECEE000E151001EC13E9
:10012000010E151001EC38010E151001EC5D010EE9
:10013000151001ECFFFF337EC0FFFFFFFFFFFF0341
:10014000030606060C0C0C0C181818303030306002
:100150006060C0C00FC07F83FF1FFE78FBE1EF032C
:10016000FC0FF03FC0FF03FC0FF03FC0FF03FE1F7A
:100170007879FFE3FF07F80FC00307071FFFFFFFB2
:100180000F0F0F0F0F0F0F0F0F0F0F0F0F0F0FC0CE
:10019000FFC7FF9FFEF87FC0FF03C00F003C01F0C8
:1001A0000F807C07E03E01F00F003801FFF7FFDF12
:1001B000FF7FFC0FC0FF87FF3FFEF8FBC1E0078019
:1001C0003C07E01FC07F803E007C00F003FC0FF87E
:1001D0007FFFE7FF8FFC0FC001F00FC03F01FC075E
:1001E000F03BC0EF073C18F0E3C70F1C3CE0F3FF07
:1001F000FFFFFFFFFFFC03C00F003C00F03FF8FFD4
:10020000E3FF8FFE7801C0073C1DFC7FF1FFEF8705
:10021000C01F003C00F003FC0FF87FFFE7FF0FF862
:100220000FC007C07FC3FF9FFE787DE00F003CF842
:10023000FFF3FFEF87BC0FF03FC0FF03DC1F7879AF
:10024000FFE3FF07F80FC0FFFFFFFFFFFFFF0038CE
:1002500001E00F007801E00F003C01E007801C0086
:10026000F003C00F003801E007801E000FC07F833D
:10027000FF1FFE7879C0E7039E1E3FF07F87FF1EB9
:100280001EF03FC0FF03FC0FF87DFFE7FF8FFC0F60
:10029000C00FC07F83FF1FFEF87BC0EF03FC0FF091
:1002A0003FC0FF87DFFF7FFCFEF0F3C01EF879FF41
:1002B000E7FF0FF80F803401D2002C392300000033
:1002C0000800020100000304070000000000000015
:1002D0000000000000003E5B4F5B3E3E6B4F6B3EFC
:1002E0001C3E7C3E1C183C7E3C181C577D571C1C39
:1002F0005E7F5E1C00183C1800FFE7C3E7FF001894
:10030000241800FFE7DBE7FF30483A060E2629797C
:100310002926407F050507407F05253F5A3CE73CDD
:100320005A7F3E1C1C08081C1C3E7F14227F22148E
:100330005F5F005F5F06097F017F006689956A60E5
:100340006060606094A2FFA29408047E04081020FC
:100350007E201008082A1C08081C2A08081E1010F5
:1003600010100C1E0C1E0C30383E3830060E3E0E9F
:1003700006000000000000005F000000070007000A
:10038000147F147F14242A7F2A12231308646236F0
:10039000495620500008070300001C22410000417C
:1003A000221C002A1C7F1C2A08083E0808008070B6
:1003B00030000808080808000060600020100804E9
:1003C000023E5149453E00427F400072494949463C
:1003D0002141494D331814127F1027454545393CBA
:1003E0004A494931412111090736494949364649A7
:1003F00049291E00001400000040340000000814C9
:100400002241141414141400412214080201590941
:10041000063E415D594E7C1211127C7F4949493696
:100420003E414141227F4141413E7F494949417F0F
:10043000090909013E414151737F0808087F0041C5
:100440007F41002040413F017F081422417F40400E
:1004500040407F021C027F7F0408107F3E414141E3
:100460003E7F090909063E4151215E7F091929464F
:10047000264949493203017F01033F4040403F1F65
:100480002040201F3F4038403F631408146303049A
:100490007804036159494D43007F414141020408FA
:1004A0001020004141417F040201020440404040CD
:1004B00040000307080020545478407F2844443803
:1004C0003844444428384444287F3854545418004D
:1004D000087E090218A4A49C787F080404780044CC
:1004E0007D40002040403D007F1028440000417FB7
:1004F00040007C047804787C080404783844444440
:1005000038FC1824241818242418FC7C0804040837
:10051000485454542404043F44243C4040207C1C50
:100520002040201C3C4030403C44281028444C9043
:1005300090907C4464544C4400083641000000779D
:100540000000004136080002010204023C26232676
:100550003C1EA1A161123A4040207A3854545559AA
:1005600021555579412254547842215554784020E0
:10057000545579400C1E52721239555555593954FB
:1005800054545939555454580000457C4100024593
:100590007D420001457C407D1211127DF028252806
:1005A000F07C545545002054547C547C0A097F4902
:1005B00032494949323A4444443A324A4848303A46
:1005C0004141217A3A42402078009DA0A07D3D42E1
:1005D00042423D3D4040403D3C24FF2424487E496A
:1005E00043662B2FFC2F2BFF0929F620C0887E099C
:1005F0000320545479410000447D413048484A3238
:10060000384040227A007A0A0A727D0D19317D261F
:1006100029292F28262929292630484D4020380805
:1006200008080808080808382F10C8ACBA2F102886
:1006300034FA00007B000008142A142222142A1421
:10064000085500550055AA55AA55AAFF55FF55FF54
:10065000000000FF00101010FF00141414FF001021
:1006600010FF00FF1010F010F0141414FC0014140C
:10067000F700FF0000FF00FF1414F404FC1414172B
:10068000101F10101F101F1414141F00101010F052
:10069000000000001F101010101F10101010F0109C
:1006A000000000FF101010101010101010FF1000AC
:1006B0000000FF140000FF00FF00001F10170000E3
:1006C000FC04F414141710171414F404F40000FFBD
:1006D00000F714141414141414F700F71414141756
:1006E0001410101F101F141414F4141010F010F034
:1006F00000001F101F0000001F14000000FC140069
:1007000000F010F01010FF10FF141414FF1410105C
:10071000101F00000000F010FFFFFFFFFFF0F0F0DF
:10072000F0F0FFFFFF0000000000FFFF0F0F0F0FB2
:100730000F3844443844FC4A4A4A347E02020606D2
:10074000027E027E0263554941633844443C0440C2
:100750007E201E2006027E020299A5E7A5991C2A8A
:10076000492A1C4C7201724C304A4D4D3030487849
:100770004830BC625A463D3E494949007E0101016C
:100780007E2A2A2A2A2A44445F444440514A44404B
:1007900040444A51400000FF0103E080FF00000890
:1007A000086B6B083612362436060F090F06000058
:1007B00018180000001010003040FF0101001F0158
:1007C000011E00191D1712003C3C3C3C00000000BB
:1007D0000004E010021C07123732292D29252B397D
:1007E00000010310E110031D07062E2C292D2E2ECB
:1007F000373F0000021013800A298064022A040097
:1008000000007F2B040000009F0F0180961180FFE5
:10081000B103012C2DB203012C2DB306012C2D01A7
:100820002C2DB40107C003A20284C101C5C2020A73
:1008300000C3028A2AC4028AEEC5010E20003601D6
:10084000C83A010500000000240027002A0000002B
:100850000000230026002900010204081020408027
:10086000010204081020010204081020000000000A
:10087000250028002B0004040404040404040202DC
:1008800002020202030303030303BA2F11241FBE53
:10089000CFEFD8E0DEBFCDBF11E0A0E0B1E0E6E1F0
:1008A000F0E702C005900D92AE3EB107D9F723E004
:1008B000AEEEB1E001C01D92AB3FB207E1F714E02C
:1008C000C6E4D4E004C02197FE010E942132C53461
:1008D000D107C9F70E94402C0C9409380C940000F1
:1008E000089580E090E00895682F70E06A507109E3
:1008F000072E000C880B990B0E94BF340E9477359D
:100900009B01AC0160E070E080E293E40E941C3443
:100910000E948E3480EA861B08950F931F93CF9315
:10092000DF938B010E94740480FF8F5FF8010190B8
:100930000020E9F73197E01BF10B23ED3CE9309300
:100940005303209352031092550310925403C82F5F
:10095000D0E025E02E9FC0012F9F900D1124969589
:1009600087959E01281B390B30934F0320934E032C
:1009700088E490E09093510380935003C8010E9453
:10098000822503ED1CE925E030E040E550E0BE01A2
:1009900082E493E00E944E0FDF91CF911F910F915F
:1009A00008952F923F924F925F926F927F928F9213
:1009B0009F92AF92BF92CF92DF92EF92FF920F93EE
:1009C0001F93CF93DF93CDB7DEB760970FB6F89440
:1009D000DEBF0FBECDBF9E838D838091FA019091C3
:1009E000FB019C012B5F3F4F3A8329838091FA01E1
:1009F0009091FB01AC01455051095C834B836091A0
:100A0000FA017091FB0178876F8382E493E00E9482
:100A100010132F8138858B819C81281B390B8F8186
:100A20009885A981BA818A1B9B0BC12CD12C760198
:100A3000812C912C54014AE5242E312C55E0452E71
:100A4000512C612C712CAC01990F660B770B4F83E5
:100A5000588769877A87B901330F880B990B6B87A1
:100A60007C878D879E87C501B401A30192010E94F6
:100A7000023289819A81820F931F988B8F87C701D9
:100A8000B601A30192010E940232AB81BC812A0F00
:100A90003B1F4F81588569857A85840E951EA61E59
:100AA000B71E6B857C858D859E85C60ED71EE81E7C
:100AB000F91E8F8598892817390734F49F8588890E
:100AC000388B2F87292F382FAF85B8892A1B3B0BEE
:100AD0002F5F3F4F0D811E81A101BD0182E493E094
:100AE0000E94A80FBFEF2B1A3B0A20E62216310402
:100AF00009F0B9CF82E493E060960FB6F894DEBFB8
:100B00000FBECDBFDF91CF911F910F91FF90EF905E
:100B1000DF90CF90BF90AF909F908F907F906F901D
:100B20005F904F903F902F900C94CF0F3F924F9239
:100B30005F926F927F928F929F92AF92BF92CF926D
:100B4000DF92EF92FF920F931F93CF93DF93CDB776
:100B5000DEB7A0970FB6F894DEBF0FBECDBF2091D1
:100B6000190130911A013A8329838AE0FE013396F4
:100B7000DF01982F1D929A95E9F73E872D873C96C5
:100B8000DF011D928A95E9F76091020170910301DE
:100B900080910401909105012AE0AE014F5F5F4F03
:100BA0000E9480316E01BDE0CB0ED11CF6019AE0AF
:100BB0008AE026012FE24EE2A1E0B0E0AC0FBD1FBB
:100BC000A80FB11D87FDBA953C91311104C01816CC
:100BD00014F48150F1CF973011F42C8B0AC093306C
:100BE00011F4488B06C087FD03C03287815001C0D5
:100BF0002287915031979F3FF9F681E08093560309
:100C000080915A0390915B03892B49F480915003A2
:100C1000909151030696909351038093500386EB75
:100C200092E090935B0380935A036091020170916C
:100C3000030180910401909105010E94BD3420E8D8
:100C400036E948E15BE40E94173487FD04C07AE08E
:100C5000A72EB12C03C064E1A62EB12C4EEE842E3B
:100C600041E0942E59EF652E51E0752EF40121914B
:100C70004F012E3241F02F3219F436E0332E05C0E9
:100C800090E1392E02C087E0382ED6019D916D018A
:100C90009E3231F09F3211F486E003C080E101C042
:100CA00087E02917B9F1831541F19E01275E3F4F77
:100CB00088E0F90111928A95E9F7CE014F966C010F
:100CC000DE015D967D018E01055E1F4F48E350E019
:100CD0006AE070E08EEE91E00E9494250F8D18A1DD
:100CE0002D8D3E8D4B8D5C8D698D7A8DE12CF12C97
:100CF00082E493E00E94EC0E13C0232D30E0E12C3F
:100D0000F12C06E110E043E250E0B50182E493E00B
:100D10000E94EC0EA30CB11C6814790409F0A6CF54
:100D2000609102017091030180910401909105018D
:100D30000E94BD3420E836E948E15BE40E941734A4
:100D400087FD03C08AE090E002C084E190E020ECDF
:100D500036E93093530320935203109255031092B7
:100D6000540390934F0380934E0388E390E0909355
:100D7000510380935003C2010E948225B2018EEE7E
:100D800091E00E94023810925B0310925A0383EDA7
:100D90009CE9909353038093520310925503109251
:100DA000540310924F0310924E0388E190E0909309
:100DB00051038093500387EA91E00E948225A09618
:100DC0000FB6F894DEBF0FBECDBFDF91CF911F915C
:100DD0000F91FF90EF90DF90CF90BF90AF909F90DA
:100DE0008F907F906F905F904F903F9008954F92BB
:100DF0005F926F927F928F929F92AF92BF92DF929B
:100E0000EF92FF920F931F93CF93DF93EC01288112
:100E100030E0F901E354FD4F8491F901E85AF74FAE
:100E20000491F901EA58F74F14911123A1F08111AF
:100E30000E948224E12FF0E0EE0FFF1FE25BF74FEC
:100E4000A591B491EC91E02391E080E009F490E069
:100E5000092F182F02C000E010E08FB7F89480909F
:100E6000480290904902A0904A02B0904B028FBF76
:100E700089E0D82ED09E7001D19EF00C1124EC0E8A
:100E8000FD1EF7018189882309F4A8C0828993890E
:100E9000A489B58924013501481A590A6A0A7B0ACE
:100EA0008D819E81A0E0B0E084159505A605B7056B
:100EB00008F099C049815A8160E070E02F8138853F
:100EC0004415550566057705D0F4EF85F889309708
:100ED00009F464C02017310709F060C08B858823AE
:100EE00009F45CC081E08C870995F701828A938AB6
:100EF000A48AB58A868A978AA08EB18E35C08985E4
:100F00009A858017910709F049C0D29EC001D39EEF
:100F1000900D11249E01280F391FF70186899789AA
:100F2000A08DB18DF90146885788608C718C841929
:100F30009509A609B7094B805C80612C712C481675
:100F400059066A067B0650F584179507A607B7076A
:100F500028F5ED85FE85309709F18B858823F1F022
:100F60008C8581111BC009958F81988529853A85CB
:100F7000D29EF001D39EF00D1124EC0FFD1F868A46
:100F8000978AA08EB18ED89EF001D99EF00D1124C3
:100F9000EC0FFD1F868A978AA08EB18E89E0809F14
:100FA000F001819FF00D1124EC0FFD1F4289538940
:100FB00064897589468B578B608F718F29853A8537
:100FC000829FF001839FF00D1124EC0FFD1F81899A
:100FD000882349F081E08B871C8605C0F701828A4F
:100FE000938AA48AB58A2F81388589E0829FF0018F
:100FF000839FF00D1124EC0FFD1F81E020173107B6
:1010000009F080E0818B29853A8549E0429FC00143
:10101000439F900D1124C80FD91F81E0201731077D
:1010200009F080E0898BDF91CF911F910F91FF90A4
:10103000EF90DF90BF90AF909F908F907F906F90D8
:101040005F904F9008954F925F926F927F928F9230
:101050009F92AF92BF92CF92DF92EF92FF920F9347
:101060001F93CF93DF93CDB7DEB72A970FB6F894CF
:10107000DEBF0FBECDBFB82E80910D018830C1F00C
:10108000E0910D0185E08E9FF0011124E758FE4F9D
:1010900001811281E0910D018E9FF0011124E7582A
:1010A000FE4F2381348142E350E05E834D8308C0CC
:1010B00020E335E708EE13E084EF91E09E838D8313
:1010C00060910201709103018091040190910501EA
:1010D0006901E12CF12C28EE33E040E050E00E9461
:1010E000E031201B310B41095109A0EAB0E00E9418
:1010F0004532A70196010E94E03129013A01809111
:10110000FA019091FB018217930719F4BB2009F4AF
:1011100092C003ED1CE92FE930E040E650E060E0CA
:1011200070E082E493E00E941F0F25E030E04EE57E
:1011300050E060E070E082E493E00E944E0F25E012
:1011400030E04EE550E06FE970E082E493E00E9409
:101150004E0F8D819E81880F991F9C0140E050E0C9
:1011600029833A834B835C83812C912C5401AD817C
:10117000BE81CD01A0E0B0E08D839E83AF83B887B0
:101180008C149D04AE04BF04A0F5C501B4012981EF
:101190003A814B815C810E94E031672B682B692B7F
:1011A00029F0A2E0B0E0BA87A98704C024E030E0CB
:1011B0003A872987A0EAB0E0A50194010E94453250
:1011C000A70196010E94E031CA01B90103ED1CE9B3
:1011D00029853A8540E650E082E493E00E944E0F74
:1011E0008D819E81AF81B885880E991EAA1EBB1E77
:1011F000C7CF80E090E00E94D1045092FB01409262
:10120000FA0183E794E12A960FB6F894DEBF0FBE89
:10121000CDBFDF91CF911F910F91FF90EF90DF90A5
:10122000CF90BF90AF909F908F907F906F905F9086
:101230004F900C94D1042A960FB6F894DEBF0FBEDF
:10124000CDBFDF91CF911F910F91FF90EF90DF9075
:10125000CF90BF90AF909F908F907F906F905F9056
:101260004F9008952F923F924F925F926F927F928C
:101270008F929F92AF92BF92CF92DF92EF92FF92A6
:101280000F931F93CF93DF93CDB7DEB7E1970FB6E0
:10129000F894DEBF0FBECDBF809102019091030193
:1012A000A0910401B09105018093440290934502FE
:1012B000A0934602B093470240910201509103016E
:1012C000609104017091050180910A01882369F001
:1012D00080911001811109C080910B0190910C0146
:1012E000092E000CAA0BBB0B03C080E090E0DC01D0
:1012F0005E5E65487F4F8A019B01080F191F2A1FF8
:101300003B1FC901B80124E630E040E050E00E94F4
:10131000A932A22EE32EF42E052F162FB72FF82F69
:10132000E92FAFEF0E94EB332E373A41464051058B
:10133000610571058105910551F048F0A9A2EAA265
:10134000FBA20CA31DA3BEA3FFA3E8A70BC080E8CC
:1013500089A38AE18AA386E08BA31CA21DA21EA2F8
:101360001FA218A629A13AA14BA15CA16DA17EA143
:101370008FA198A52115314C4A415D436540710507
:101380008105910569F060F019A281EC8AA38AE1D8
:101390008BA38DE38CA385E08DA31EA21FA218A6AC
:1013A00079A0AAA00BA11CA1BDA1AEA1FFA1F8A488
:1013B000272D3A2DA8016B2F7A2F8F2F9F2D2115C6
:1013C000344E4B405445624071058105910509F04A
:1013D00008F408C1E090B802F090B90288EC482EF9
:1013E00082E0582E0FEA12E01AA709A7F201D12CC9
:1013F0002081318142815381648175818681978109
:1014000038962115344E4B40544562407105810594
:10141000910561F058F0DD2049F0D80119968D91C1
:101420009C911A978E159F0509F448C1D3940E5FBD
:101430001F4FB6E0DB12DCCF80912E03811108C074
:1014400061E080E090E00E94271F81E080932E03FE
:1014500029A13AA14BA15CA16DA17EA18FA198A564
:101460002093C8023093C9024093CA025093CB0222
:101470006093CC027093CD028093CE029093CF0202
:10148000FE013D964F01A12CB12CC12CD12CE12C99
:10149000F12C00E010E00E94E01B2BA73CA74DA719
:1014A0005EA76FA778AB382E292E0091B802109155
:1014B000B9020E94D419612C712CD201EC901196C2
:1014C000FC9011971296AC90129713960C9113976B
:1014D00014961C9114971596BC91F201D680C78082
:1014E000F8E04F0E511C97014A2D502F612F7B2F92
:1014F0008D2D9C2DA0E00E94F73309F456C0E9A57C
:10150000FAA5218532858091B8029091B9022817F9
:10151000390709F04AC0E98EFA8EAB8E0C8F1D8F09
:10152000BE8FDF8EC8A2CE0149960E94E71D89AB0F
:10153000298D3A8D4B8D5C8D6D8D7E8D8E010F5F6B
:101540001F4F4801ABA4BCA4CDA4DEA4EFA4F8A80F
:10155000032D122D8F8D98A10E94E01BAA24A39425
:10156000298D3A8D4B8D5C8D6D8D7E8D8F8D98A1E3
:101570002F3F354D41415E4763407105810591051F
:1015800009F008F4A12CAF9289A8C980DA80EB8019
:10159000FC800D811E812F81388549855A856B8598
:1015A0007C85C3010E94E5180F902FEF621A720A22
:1015B00089A59AA502969AA789A796E0691671044B
:1015C00009F07BCF8091B8029091B902009711F495
:1015D00060E204C0019709F071C060E881EB0E94ED
:1015E000442B6CC07092C802A092C9020093CA0238
:1015F0001093CB02B093CC02A093CD02F093CE0215
:10160000F092CF0280912E03811108C061E080E04A
:1016100090E00E94271F81E080932E03CE018196E7
:101620000E94E71D782EE091B802F091B90229A13D
:101630003AA14BA15CA16DA17EA18FA198A5EF2B32
:10164000A1F4A0900803B0900903C0900A03D090C1
:101650000B03E0900C03F0900D0300910E0310912A
:101660000F03DE011D964D0113C0A0901003B09032
:101670001103C0901203D0901303E0901403F09074
:1016800015030091160310911703FE013D964F01BB
:101690000E94E01B1F92872CA12CCD84DE84EF8456
:1016A000F88809891A892B893C894D895E896F8957
:1016B000788D80E090E00E94E5180F900E949605DA
:1016C0000E94752A80E00E942308E1960FB6F894E4
:1016D000DEBF0FBECDBFDF91CF911F910F91FF9065
:1016E000EF90DF90CF90BF90AF909F908F907F90C2
:1016F0006F905F904F903F902F900895CF92DF9220
:10170000EF92FF920F931F93CF93DF93CDB7DEB786
:101710002D970FB6F894DEBF0FBECDBF8FE00E94AD
:10172000E72497FD039695958795959587958A303B
:1017300008F48AE0482F50E02091120130E02B5F3E
:101740003F4F241735074CF02091120130E025500F
:101750003109421753070CF009C18093120103EDC0
:101760001CE925E030E040E550E060E070E082E414
:1017700093E00E944E0F82EAE82E80E1F82E05E009
:1017800010E02FE930E040E550E060E070E082E4F6
:1017900093E00E94EC0E809112010E947404E82EE6
:1017A000F12C90ECC92E96E9D92E8E2D90EA9E153B
:1017B00008F480EAF81628F584E10E947404F8160B
:1017C00048F08EE10E947404F81648F0C12C58EEDF
:1017D000D52E09C040ECC42E46E9D42E04C030EE0C
:1017E000C32EDD24DA946F2D70E0860125E030E011
:1017F00040E550E082E493E00E944E0FF394F394AE
:10180000D4CF83ED9CE990935303809352031092BD
:1018100055031092540310924F0310924E0388E424
:1018200090E0909351038093500382EB91E00E94EB
:1018300082252091190130911A013A832983FE01F2
:10184000339686E0DF011D928A95E9F780911201B7
:101850003A872987389693E0DF011D929A95E9F738
:101860007E01B9E0EB0EF11C4AE0B70190E00E9466
:10187000A231F70101900020E9F731979F012E195D
:101880003F091D82CE010196DC0142E050E07EE27C
:10189000FA01319621153105A1F04130510539F495
:1018A00013967C931397415051091197F1CF215012
:1018B0003109F701E20FF31F608113966C931397C0
:1018C000F2CFE80FF91F20E2AF01481B590B57FD7B
:1018D00003C020833197F8CFD0925303C0925203B4
:1018E000109255031092540324E130E030934F03DB
:1018F00020934E0328E4E22EF12CF0925103E09263
:1019000050030E94822566EB71E08FE00E948D04F7
:101910006AEB71E084E10E948D046CEB71E08EE172
:101920000E948D0468EB71E082E30E948D046EEBEF
:1019300071E084E60E948D0403ED1CE926E030E0AE
:1019400040E550E060E070E082E493E00E944E0FDA
:101950008CE890E090934F0380934E03F0925103F4
:10196000E092500381EC91E00E9482252D960FB603
:10197000F894DEBF0FBECDBFDF91CF911F910F91C5
:10198000FF90EF90DF90CF900895EF92FF920F932A
:101990001F93CF93DF93CDB7DEB768970FB6F89458
:1019A000DEBF0FBECDBF2091190130911A013E87D5
:1019B0002D878AE0FE013F96DF01482F1D924A9550
:1019C000E9F790910A018E01035F1F4F9923C1F13E
:1019D0003A8329833C97DF011D928A95E9F760914C
:1019E0000B0170910C01072E000C880B990B2AE05B
:1019F000AE014F5F5F4F7A010E94713165EC71E07B
:101A0000C8010E94F737F70101900020E9F73197EC
:101A1000EE19FF09E530F10570F4D8010D900020B2
:101A2000E9F7CD0145E050E04E1B5F0B60E270E04E
:101A300001970E94F037B701C8010E94F73707C02D
:101A40004AE050E060E270E0C8010E94F0378FE1A8
:101A500098EF909353038093520310925503109282
:101A6000540384E690E090934F0380934E0380E408
:101A700090E09093510380935003C8010E94822507
:101A800068960FB6F894DEBF0FBECDBFDF91CF9141
:101A90001F910F91FF90EF900895CF92DF92EF92F8
:101AA000FF920F931F93CF93DF9387FF0EC0809118
:101AB000060190910701A0910801B09109010297D8
:101AC000A105B10508F090C028C0181634F5609142
:101AD00006017091070180910801909109010E940F
:101AE000BD3420E034E244E759E40E94173487FF14
:101AF00076C0209106013091070140910801509174
:101B00000901AAE0B0E00E9445326093060170939B
:101B10000701809308019093090183EDC82E8CE999
:101B2000D82ED0925303C0925203109255031092B4
:101B3000540380E590E090934F0380934E03C8E1F7
:101B4000D0E0D0935103C09350038BEC91E00E94FE
:101B500082256091060170910701809108019091A2
:101B600009012AE04BEE53E00E948031E12CF12C78
:101B70000CE010E022E330E048E150E06EE670E077
:101B800082E493E00E94EC0ED0925303C092520381
:101B900010925503109254038EE690E090934F03F9
:101BA00080934E03D0935103C09350038BEE93E088
:101BB0000E94822502E010E020EA30E043E450E099
:101BC00060E070E082E493E00E94EC0EDF91CF9140
:101BD0001F910F91FF90EF90DF90CF90089561E0FB
:101BE00070E080E090E091CF609106017091070174
:101BF00080910801909109012AE030E040E050E036
:101C00000E94E031209306013093070140930801C0
:101C10005093090182CF0F931F9380911001882365
:101C200039F001E410E92FEF3FEF42ED51E006C03B
:101C300000EC19E220EC36E945ED51E068E280E085
:101C40000E9456281F910F9108950F931F9360E0F3
:101C500070E082E493E00E94BA10E0910E01F091EE
:101C60000F01EE0FFF1FEB5DFE4F4081518108E039
:101C700012E023E734E167E280E50E9456280E94E3
:101C80000B0E0E94382A8FEF0E944D0D81E00E94BA
:101C900023080E9496058CE00E944D2981E00E9455
:101CA0004D298CE00E944D290E94C50C1F910F9177
:101CB0000C947E0BDC01ED91FD918081ED91FD9105
:101CC0009081ED91FD916C9163708E2309F06460B9
:101CD0009F2309F06860E7E7FEE0E60FF11D6595D8
:101CE00065956D936D917D918D919D91099423C022
:101CF0001AC012C016C010C01EC009C014C013C044
:101D000006C019C009C00DC007C00DC014C0625084
:101D10007040804090400BC06150704080409040C7
:101D200006C06E5F01C06F5F7F4F8F4F9F4F9E93C6
:101D30008E937E936E9308951F920F920FB60F921B
:101D400011242F933F934F935F936F937F938F93C0
:101D50009F93AF93BF93EF93FF9380916302909112
:101D600064020E945A0EFF91EF91BF91AF919F9133
:101D70008F917F916F915F914F913F912F910F9034
:101D80000FBE0F901F9018951F920F920FB60F92D3
:101D900011242F933F934F935F936F937F938F9370
:101DA0009F93AF93BF93EF93FF93809161029091C4
:101DB00062020E945A0EFF91EF91BF91AF919F91E5
:101DC0008F917F916F915F914F913F912F910F90E4
:101DD0000FBE0F901F9018958F929F92AF92BF9257
:101DE000CF92DF92EF92FF920F931F93CF93DF93E7
:101DF000EC016B015A014901E881F9810284F38504
:101E0000E02D0995E881F9810684F785E02D94019C
:101E1000A501B601CE010995E881F9810688F78907
:101E2000E02DCE01DF91CF911F910F91FF90EF90A8
:101E3000DF90CF90BF90AF909F908F900994AF921A
:101E4000BF92CF92DF92EF92FF920F931F93CF93A7
:101E5000DF93EC017B016A015901E881F981028479
:101E6000F385E02D0995E881F9810288F389E02D59
:101E70009501A601B701CE010995E881F98106888F
:101E8000F789E02DCE01DF91CF911F910F91FF9047
:101E9000EF90DF90CF90BF90AF900994AF92BF9238
:101EA000CF92DF92EF92FF920F931F93CF93DF9326
:101EB000EC017B016A015901E881F9810284F38513
:101EC000E02D0995E881F9810088F189E02D9501DF
:101ED000A601B701CE010995E881F9810688F78945
:101EE000E02DCE01DF91CF911F910F91FF90EF90E8
:101EF000DF90CF90BF90AF900994CF92DF92EF9296
:101F0000FF920F931F93CF93DF93EC018B017A0124
:101F10006901E881F9810284F385E02D0995E88162
:101F2000F9810484F585E02D9601A701B801CE0161
:101F30000995E881F9810688F789E02DCE01DF91C6
:101F4000CF911F910F91FF90EF90DF90CF90099468
:101F5000EF92FF920F931F93DC01ED91FC910684A9
:101F6000F785E02D780101E010E009951F910F91B0
:101F7000FF90EF900895EF92FF920F931F93DC0173
:101F8000ED91FC910684F785E02D7801890121E02F
:101F900030E009951F910F91FF90EF900895FC019B
:101FA00091A904A4F5A5E02D8081892B8083089553
:101FB0000895FC016370658B84819581268137814A
:101FC000613039F0633029F0918780873387228729
:101FD0000895318720879387828708956F927F9233
:101FE0008F929F92AF92BF92CF92DF92EF92FF9229
:101FF0000F931F93CF93DF93EC014B015A016901BB
:102000003801E881F9810284F385E02D0995E881A2
:10201000F9810288F389E02D87019601A501B401B9
:10202000CE010995A501460D571D41505109E88182
:10203000F9810288F389E02D9601B401CE0109955A
:10204000E881F9810088F189E02D9301A501B401AF
:10205000CE010995C80CD91CB60161507109E881FF
:10206000F9810088F189E02D9301A501CE01099540
:10207000E881F9810688F789E02DCE01DF91CF91C3
:102080001F910F91FF90EF90DF90CF90BF90AF9096
:102090009F908F907F906F9009948F929F92AF92B4
:1020A000BF92CF92DF92EF92FF920F931F93CF9345
:1020B000DF934C016B015A01E901DC01ED91FC91C8
:1020C0006217730781F40417150724F48B2D580148
:1020D000042F182F0A191B0998012F5F3F4F048CFA
:1020E000F58DE02D12C04017510709F52617370767
:1020F00024F48D2D6901C62FD82F9E012C193D097E
:102100002F5F3F4F068CF78DE02D8701A501B601AB
:10211000C4010995DF91CF911F910F91FF90EF902E
:10212000DF90CF90BF90AF909F908F9008950284E2
:10213000F385E02D0995D401ED91FC910488F58992
:10214000E02D9E01A501B601C4010995D401ED91D0
:10215000FC910688F789E02DC401DF91CF911F9192
:102160000F91FF90EF90DF90CF90BF90AF909F9036
:102170008F900994EF92FF920F931F93DC011A96B0
:102180000D911C911B9718962D913C911997ED91EB
:10219000FC9100A0F1A1E02D7B0140E050E060E067
:1021A00070E009951F910F91FF90EF9008954F9265
:1021B0005F926F927F928F929F92AF92BF92CF92D7
:1021C000DF92EF92FF920F931F93CF93DF936C01F7
:1021D0002B015A0139014801DC01ED91FC91028487
:1021E000F385E02D0995E201640C751CD601ED9193
:1021F000FC91C615D7055CF40088F189E02D8701B4
:102200009401A501BE01C60109952196EFCF06886C
:10221000F789E02DC601DF91CF911F910F91FF90BB
:10222000EF90DF90CF90BF90AF909F908F907F9076
:102230006F905F904F9009948F929F92AF92BF9250
:10224000CF92DF92EF92FF920F931F93CF93DF9382
:10225000EC015B014A016901E881F9810284F3859F
:10226000E02D099595012C0D3D1D21503109E88186
:10227000F9810488F589E02D78018401A401B50174
:10228000CE010995E881F9810688F789E02DCE0114
:10229000DF91CF911F910F91FF90EF90DF90CF9042
:1022A000BF90AF909F908F9009948F929F92AF9222
:1022B000BF92CF92DF92EF92FF920F931F93CF9333
:1022C000DF93EC015B014A0169017801E881F98142
:1022D0000284F385E02D0995C80CD91C86010150B4
:1022E0001109E881F9810488F589E02D9501A4019F
:1022F000B501CE010995E881F9810688F789E02DBD
:10230000CE01DF91CF911F910F91FF90EF90DF9061
:10231000CF90BF90AF909F908F900994EF92FF92D3
:102320000F931F93DC01ED91FC9100A0F1A1E02D32
:1023300009951F910F91FF90EF9008950F931F93B0
:10234000DC01ED91FC91068CF78DE02D09951F9134
:102350000F9108950F931F93DC01ED91FC91048C74
:10236000F58DE02D09951F910F910895DC01ED91F8
:10237000FC910084F185E02D09942F923F924F92B9
:102380005F926F927F928F929F92AF92BF92CF9205
:10239000DF92EF92FF920F931F93CF93DF9300D0C2
:1023A00000D000D0CDB7DEB72C017E836D836A01EB
:1023B0005901C801FC82EB824801841A950A97FEF4
:1023C00003C091948194910835012D813E81621A58
:1023D000730A77FE03C071946194710868147904DC
:1023E0005CF43A2D2B2D5C01832F922F3D812E81A1
:1023F000DE82CD82C32ED22EAD81BE81AA16BB064F
:102400005CF43C2D2D2D6C01832F922F3D812E816C
:10241000BE82AD82A32EB22E85012D813E81021B8C
:10242000130B1C012C183D0837FE03C03194219476
:102430003108780117FF03C03FEFE31AF30AF59460
:10244000E794C816D9062CF08FEF9FEF9A83898303
:1024500004C0A1E0B0E0BA83A9832D813E81A21619
:10246000B30624F1D201ED91FC910484F585E02DB1
:102470002B813C816814790424F44D815E81B6017E
:1024800003C0A6016D817E81C2010995E218F3089F
:10249000F7FE06C029813A81C20ED31EE00EF11E5E
:1024A0008D819E8101969E838D83D7CF26960FB610
:1024B000F894DEBF0FBECDBFDF91CF911F910F917A
:1024C000FF90EF90DF90CF90BF90AF909F908F9054
:1024D0007F906F905F904F903F902F9008951F9343
:1024E000CF93DF93EC01411551056105710521F48E
:1024F00040E054E264EF70E04A8F5B8F6C8F7D8F19
:1025000081E28BAB80E28CAB8E8D87FD07C061E0F2
:102510000E94AB2461E08E8D0E94092361E08F8DC3
:102520000E94AB2460E08F8D0E94092389A187FD62
:1025300019C061E08AA10E94AB2460E08AA10E94D8
:10254000092361E089A10E94AB2461E089A10E9476
:1025500009238BA187FD03C060E00E94AB2489A101
:1025600087FF33C01FB7F8948091FC01811127C009
:10257000E0E8F8E08491E2E6F8E09491E82FF0E0FA
:10258000EE0FFF1FEC5BF74FA591B491EC91E9239F
:1025900021F461E08AE00E94092361E08AE00E9460
:1025A000AB248CB580618CBD8CB580648CBD61E042
:1025B0008DE00E94AB2461E08BE00E94AB2480910F
:1025C000FC018F5F8093FC011FBF88A187FD24C0A1
:1025D00061E00E94AB2461E088A10E94092364E6C7
:1025E00070E080E090E00E94FE2460E088A10E94FC
:1025F000092364E670E080E090E00E94FE2461E040
:1026000088A10E94092368EC70E080E090E0DF91EF
:10261000CF911F910C94FE24DF91CF911F910895CB
:10262000FC0181A187FF1EC0428D538D648D758D85
:1026300080E092E1AAE7B0E020E0481759076A0776
:102640007B0740F4B695A795979587952F5F263021
:10265000A1F727E091E09227892F806A86959170F3
:102660008CBD9DBD81A904A4F5A5E02D9081809528
:10267000892380830895AF92BF92CF92EF92FF9209
:102680000F931F93CF93DF93EC01262F888D998DA5
:10269000009709F040C06A3059F41D861C862C89C9
:1026A0008E859F8538E0239F800D911D112441C0A8
:1026B0006D3009F4AAC08E898823C1F03C898C85CD
:1026C0009D8546E0349F800D911D112448855985D4
:1026D000481759075CF41D861C868E859F8548E047
:1026E000349F800D911D11249F878E87EA88FB8877
:1026F000088919894E855F856C857D85CC88CE01DA
:102700000E94C11F2C898C859D8536E0239F800DFA
:10271000911D112442C06A3079F41D861C862C89D3
:10272000FC013696E4918E859F852E9F800D911D2C
:1027300011249F878E8769C06D3009F466C0FC0143
:1027400034963491631708F460C03196E491E6172B
:1027500008F45BC0FC01329665917491422F50E001
:10276000431B510937E0349F5001359FB00C1124B1
:10277000A60EB71EF501329634913196E4913323BB
:1027800011F0E1110DC0F5013496E4912C898C858E
:102790009D85E29F800D911D11249D878C8735C0FA
:1027A000F501359644915E89552311F16C89E32F2B
:1027B000F0E0E40FF11D47FDFA956E9FD0016F9F89
:1027C000B00D11244C855D854A0F5B1FE885F985A6
:1027D000E417F5076CF41D861C86FC013696E4911F
:1027E0008E859F856E9F800D911D11249F878E87FA
:1027F000EA88FB88088919894E855F856C857D8507
:10280000CC88CE010E94C11FBECF81E090E0DF9155
:10281000CF911F910F91FF90EF90CF90BF90AF900D
:102820000895E2E0F1E0908581E0892780870E94A9
:10283000C50C0C94320920910D0130E0809100010B
:1028400090E001972817390724F4E0910D01EF5F1C
:1028500001C0E0E085E0E802F0011124E758FE4FF6
:10286000238134813695279581819281280F391FE4
:10287000A8EEB3E00E942F3260930201709303012F
:10288000809304019093050181E00C942308FC01DE
:1028900081A187FF05C06EBD0DB407FEFDCF089571
:1028A00088E090E020E8A4A1B5A1362F322321F0E2
:1028B00046A53C91342B04C036A54C913095342369
:1028C0003C9330A9A0A5B1A54C91309534233C93FD
:1028D00040A9A0A5B1A53C91342B3C932695019726
:1028E00011F708954F925F926F927F928F929F920D
:1028F000AF92BF92CF92DF92EF92FF920F931F930E
:10290000CF93DF93EC016B0159014801288539858C
:10291000621773070CF067C08A859B8548175907B3
:102920000CF061C08B010A0D1B1DF8013197DA0113
:10293000A80DB91DBD0161507109F7FD54C077FDA7
:1029400052C0D7FE03C05801C12CD12C57FF03C081
:102950004D0140E050E0E217F3071CF05901AC18BC
:10296000BD08681779071CF04C01841A950A950177
:10297000D4010E9427323B01582E492EE881F9816B
:1029800002A4F3A5E02D8401B601CE01099543010F
:10299000A52CB42C89A187FF13C081149104A10434
:1029A000B10409F1FEBC0DB407FEFDCFEEBC0DB4C1
:1029B00007FEFDCF81E0881A9108A108B108EDCF8C
:1029C00081149104A104B10471F06F2DCE010E9415
:1029D00047146E2DCE010E94471481E0881A910899
:1029E000A108B108EDCFDF91CF911F910F91FF901A
:1029F000EF90DF90CF90BF90AF909F908F907F909F
:102A00006F905F904F900895EF92FF920F931F93F6
:102A1000CF93DF93EC0177FD33C0888599856817E4
:102A2000790774F557FD2CC08A859B85481759078F
:102A30003CF5E32EF22EE881F98102A4F3A5E02D06
:102A400001E010E021E030E0CE01099589A187FF87
:102A500009C0EEBC0DB407FEFDCFFEBC0DB407FEF1
:102A6000FDCF0EC06E2DCE010E9447146F2DCE01FA
:102A7000DF91CF911F910F91FF90EF900C9447142D
:102A8000DF91CF911F910F91FF90EF900895CF9319
:102A9000DF93EC018AA9EAA5FBA5908180958923A3
:102AA0008083CE010E9447149AA9EAA5FBA58081E4
:102AB000892B8083DF91CF9108951F93CF93DF936C
:102AC000EC0163706D8B8BAD623009F443C06330F1
:102AD00009F461C099AD4AAD6130F1F0823069F01E
:102AE000843009F091C020EA30E03B872A8720E556
:102AF00030E03987288710EC09C010EC20EA30E07C
:102B00003B872A8720E830E039872887892F90E0A3
:102B10009EAB8DAB842F3BC0823069F0843009F0CE
:102B20007FC020EA30E03987288720E530E03B8706
:102B30002A8710EA09C010EA20EA30E0398728879E
:102B400020E830E03B872A87892F90E098AF8FAB51
:102B5000842F3EC0823069F0843009F06DC080EA75
:102B600090E09B878A8780E590E09987888710E0CE
:102B700009C010E080EA90E09B878A8780E890E0B7
:102B80009987888789AD90E09EAB8DAB8AAD90E048
:102B900098AF8FAB20C0823069F0843009F058C004
:102BA00080EA90E09987888780E590E09B878A8714
:102BB00010E609C010E680EA90E09987888780E8EF
:102BC00090E09B878A8789AD90E098AF8FAB8AAD04
:102BD00090E09EAB8DABE881F9810284F385E02D16
:102BE000CE01099566E3CE010E944715612FCE0103
:102BF0000E944714E881F9810688F789E02DCE010B
:102C0000DF91CF911F910994813041F420E830E0A9
:102C10003B872A873987288718EC78CF18EC6ECF46
:102C2000813041F420E830E0398728873B872A87C4
:102C300018EA8ACF18EA80CF813041F480E890E02A
:102C40009B878A879987888718E09CCF18E092CF66
:102C5000813041F480E890E0998788879B878A8754
:102C600018E6B1CF18E6A7CF1F93CF93DF93EC01FF
:102C7000162FE881F9810284F385E02D099511234F
:102C800011F06BA901C06CA9CE010E944715E88123
:102C9000F9810688F789E02DCE01DF91CF911F9150
:102CA00009942F923F924F925F926F927F928F92F0
:102CB0009F92AF92BF92CF92DF92EF92FF920F93CB
:102CC0001F93CF93DF93CDB7DEB7A4970FB6F894D9
:102CD000DEBF0FBECDBF380149014C8F5E872B018F
:102CE000FF8AEE8A892B29F4E0911803F0911903E9
:102CF00004C0E0911A03F0911B03FF27EE0FFF1FA2
:102D0000EE0FFF1FE45EFC4F608171818281938131
:102D100024E630E040E050E00E94A932322E232E1B
:102D20004D835E836F83788789879A8786017501D3
:102D3000110FEE08FE2C87019501A6016E2D7E2D48
:102D40008E2D9E2D0FE10E94AB33A12CEAECBE2EFE
:102D5000FAE9CF2EABE3DA2EE12CF12C00E010E003
:102D60000E94D632A32CB22CCD80DE80EF80F88476
:102D700009851A850E9450320FE10E94C63359011D
:102D80006A01D601C501BB0F880B982FDC0189832E
:102D90009A83AB83BC839501A6016981762F862F28
:102DA000962FA32CB22CCD80DE80EF80F88409858D
:102DB0001A850E94E233322E232E49835D836E836F
:102DC0007F83888799879301A4016C8D7E85C201DA
:102DD0002F3FA7E53A07A7E44A07A8EF5A07ADE057
:102DE0006A07710581059105A9F0A0F0211534400D
:102DF0004B46544F6441710581059105B9F0B0F01F
:102E0000612C04E0702E8BE6882E94EF992EF4E16D
:102E1000FC8F09C0612C28E5722E37E4832E48EF21
:102E2000942EEDE0EC8F1E86412C512CA32CB22C5D
:102E3000C980DD80EE80FF80088519859301A4019B
:102E40006C8D7E85C2010E940733288F398F4A8F8F
:102E50005B8F2A873B874C875D878A859B85AC85FE
:102E6000BD850F97A105B10518F41FE0A12E0BC079
:102E70008A859B85AC85BD858B359105A105B105FE
:102E8000C0F0BAE5AB2EB12CC12CD12CE12CF12C29
:102E900000E010E0232D322D49815D816E817F811C
:102EA000888599850E94503239014A016C8F7E874E
:102EB0002C01A32CB22CC980DD80EE80FF80088518
:102EC00019859301A4016C8D7E85C2010E94053392
:102ED000E0E4AE2EF2E4BF2EAFE0CA2ED12CE12CFE
:102EE000F12C00E010E00E945032A32CB22CC980DB
:102EF000DD80EE80FF80088519850E940733C901B7
:102F0000DA010097A105B10529F4412C512C3201B9
:102F1000439407C060E4462E62E4562E6FE0662EAE
:102F2000712C5C016D0187E0AA0CBB1CCC1CDD1C64
:102F30008A95D1F7AC8EBD8ECE8EDF8EA32CB22CAF
:102F4000C980DD80EE80FF800885198560E070E033
:102F500080E090E00E94503263015201E12CF12C9C
:102F600087014E86BF86C88AD98AEA8AFB8A0C8B7B
:102F70001D8BE12CF12C00E010E00E9407332E871E
:102F800038A349A35AA34B018CA39BA3CA84DB8417
:102F9000EC84FD8497E0CC0CDD1CEE1CFF1C9A95A4
:102FA000D1F702E0D01AE108F1086C8D7D8D8E8D8D
:102FB0009F8DA30192010E94E03189019A010C0DBD
:102FC0001D1D2E1D3F1DAE89BF890D931D932D9391
:102FD0003C931397FD0164837583868397831896CA
:102FE0004D925D926D927C921B97A32CB22CC9805E
:102FF000DD80EE80FF8008851985288D398D4A8D0A
:103000005B8D60E070E080E090E00E945032AE8422
:10301000B8A0C9A0DAA074010CA11BA10E94E233E0
:10302000A4960FB6F894DEBF0FBECDBFDF91CF914F
:103030001F910F91FF90EF90DF90CF90BF90AF90D6
:103040009F908F907F906F905F904F903F902F90C8
:10305000089585ED8093BC008091BC0084FDFCCF79
:103060001092C603089540912102262F30E0240FCC
:10307000311D21323105DCF42091C6032430C9F41E
:10308000FC0180E090E0861758F4309121022191F4
:10309000DC01AF5FBD4FA30FB11D2C930196F3CFA1
:1030A00080912102680F6093210280E0089581E001
:1030B000089582E00895089508950895E0917F03AA
:1030C00080917E03E81730F4F0E0E058FC4F8081F7
:1030D00090E008958FEF9FEF089590917F03809186
:1030E0007E03981750F4E92FF0E0E058FC4F208160
:1030F00030E09F5F90937F0302C02FEF3FEFC90145
:10310000089580917E0390E020917F03821B9109B6
:103110000895CF92DF92EF92FF920F931F93CF9378
:10312000DF937C01CB018A012091C703222389F020
:10313000EB016B01C40ED51ECC15DD0569F069915C
:10314000D701ED91FC910190F081E02DC701099527
:10315000F3CF642F0E943318C801DF91CF911F91E4
:103160000F91FF90EF90DF90CF900895CF93DF9372
:103170001F92CDB7DEB769832091C7032223D1F018
:103180002091EA03203240F021E030E0FC0133835B
:10319000228380E090E015C08091C803E82FF0E022
:1031A000E753FC4F998190838F5F8093C80380938E
:1031B000EA0305C061E0CE0101960E94331881E068
:1031C00090E00F90DF91CF9108952F923F924F9210
:1031D0005F926F927F928F929F92AF92BF92CF92A7
:1031E000DF92EF92FF920F931F93CF93DF93CDB7B0
:1031F000DEB72D970FB6F894DEBF0FBECDBF3C01F2
:10320000C982DA82EB82FC820D831E832F8338878A
:1032100049875A876B877C87BAA09C2C2D2C4E2C13
:10322000302E1D87522EC984DA84EB84FC8484E11D
:1032300090E00E94CA368C01C301992706973CF59D
:10324000F801D082C182862D880F880F880F845D97
:103250000E945F2B942D93708C7F892BF8018283C1
:1032600023829482D701C6012CE0B695A795979545
:1032700087952A95D1F7807F952D9F70C92EC80E0E
:10328000C5828D858683932C378268E001C060E01B
:10329000E8E06E16710408F06CC0F301EC5CFF4FBF
:1032A0000C942132A8018AE20E94112C6A2D80E040
:1032B00090E00E94FE2B4B2D682D80E090E057C0DF
:1032C000A80182E30E94112C6A2D81E090E00E9407
:1032D000FE2B4B2D682D81E090E049C0A8018AE3C8
:1032E0000E94112C6A2D82E090E00E94FE2B4B2D53
:1032F000682D82E090E03BC0A80182E40E94112C7E
:103300006A2D83E090E00E94FE2B4B2D682D83E018
:1033100090E02DC0A8018AE40E94112C6A2D84E05F
:1033200090E00E94FE2B4B2D682D84E090E01FC0A2
:10333000A80182E50E94112C6A2D85E090E00E9490
:10334000FE2B4B2D682D85E090E011C0692D8AE59C
:103350000E94442B4B2D682D86E090E008C0692D1B
:103360008BE50E94442B4B2D682D87E090E00E9456
:10337000C72BC8012D960FB6F894DEBF0FBECDBF88
:10338000DF91CF911F910F91FF90EF90DF90CF9041
:10339000BF90AF909F908F907F906F905F904F9075
:1033A0003F902F900C9462372F923F924F925F92F2
:1033B0006F927F928F929F92AF92BF92CF92DF9245
:1033C000EF92FF920F931F93CF93DF93CDB7DEB7AA
:1033D0002E970FB6F894DEBF0FBECDBF19013A018C
:1033E0004B018D879E872801012BC9F4E0911803BA
:1033F000F0911903EE0FFF1FEE0FFF1FEC5DFC4F66
:10340000A080B180C280D380CE0101967C01890169
:103410009301AB016D857E8580E090E018C0E0915E
:103420001A03F0911B03EE0FFF1FEE0FFF1FEC5D61
:10343000FC4FA080B180C280D380FE0131967F0115
:1034400081019A01AB016D857E8581E090E00E944B
:10345000511684E190E00E94CA368C0189859A85D4
:10346000AB85BC85F8019083818339814A812B81AA
:1034700023702283438334832CE0B695A7959795D8
:1034800087952A95D1F7807F2D813E819F819F70FE
:10349000890F85833683278341145104C1F4A80121
:1034A00068E08AE10E94112C2092080330920903FF
:1034B00060920A0370920B0380920C0390920D03AA
:1034C000FD85F0930E038E8580930F031AC04A94F6
:1034D0004528B9F4A80168E082E20E94112C2092EC
:1034E00010033092110360921203709213038092C2
:1034F000140390921503ED85E0931603FE85F09377
:103500001703C8012E960FB6F894DEBF0FBECDBFCD
:10351000DF91CF911F910F91FF90EF90DF90CF90AF
:10352000BF90AF909F908F907F906F905F904F90E3
:103530003F902F900C946237DF92EF92FF920F939F
:103540001F93CF93DF93FC01E080F1800281138110
:10355000D481C581B681D7809701A8016D2F7C2FBA
:103560008B2F9D2D285938424C4151096109710911
:1035700081099109273938424C415105610571058E
:103580008105910509F098F49701A8016D2F7C2F12
:103590008B2F9D2D07E00E94AB3320833183428324
:1035A0005383648375838683978387E001C1970182
:1035B000A8016D2F7C2F8B2F9D2D20533145484323
:1035C000510961097109810991092F323145484337
:1035D0005105610571058105910509F098F4970180
:1035E000A8016D2F7C2F8B2F9D2D06E00E94AB3301
:1035F00020833183428353836483758386839783D7
:1036000086E0D6C09701A8016D2F7C2F8B2F9D2DB2
:103610002056324A404751096109710981099109CF
:103620002F35324A404751056105710581059105E5
:1036300009F098F49701A8016D2F7C2F8B2F9D2DF9
:1036400005E00E94AB33208331834283538364833C
:1036500075838683978385E0ABC09701A8016D2FA2
:103660007C2F8B2F9D2D205C3444414E51096109E4
:103670007109810991092F3B3444414E510561057F
:1036800071058105910509F098F49701A8016D2F46
:103690007C2F8B2F9D2D04E00E94AB332083318340
:1036A00042835383648375838683978384E080C0D9
:1036B0009701A8016D2F7C2F8B2F9D2D2058394805
:1036C000424C514061097109810991092F373948EC
:1036D000424C5140610571058105910509F098F44E
:1036E0009701A8016D2F7C2F8B2F9D2D03E00E9449
:1036F000AB33208331834283538364837583868312
:10370000978383E055C09701A8016D2F7C2F8B2FE5
:103710009D2D335145485340610971098109910933
:103720002F3F3241454853406105710581059105A0
:1037300009F098F49701A8016D2F7C2F8B2F9D2DF8
:1037400002E00E94AB33208331834283538364833E
:1037500075838683978382E02BC09701A8016D2F24
:103760007C2F8B2F9D2D36524A405740610971099D
:10377000810991092F3F35424A4057406105710543
:103780008105910509F098F49701A8016D2F7C2F10
:103790008B2F9D2D01E00E94AB3320833183428328
:1037A0005383648375838683978381E001C080E0BF
:1037B000DF91CF911F910F91FF90EF90DF900895CF
:1037C0002F923F924F925F926F927F928F929F9231
:1037D000AF92BF92CF92DF92EF92FF920F931F931F
:1037E000CF93DF93CDB7DEB768970FB6F894DEBFFF
:1037F0000FBECDBF290149875A873B011C01A98211
:10380000B98ACA8ADB8AEC8AFD8A0E8B1F8B988A5A
:103810008F86211501EC30070AE140070DE35007C0
:1038200005E0600771058105910509F0C8F42F379F
:1038300010EF31071AEF410712E0510761057105DA
:103840008105910509F008F43BC12F3F354D4141F9
:103850005E47634071058105910509F068F40AC16E
:10386000412CF1EC5F2EFAE1F9870DE30A87A5E020
:103870006A2E712C212C312C298139894A895B8946
:103880006C897D898E899F89A0E00E94F73309F0B9
:1038900077C09924939414E0E12EF12C00E010E01D
:1038A000EB86FC860D871E87EB84FC840D851E85C8
:1038B000A801970160E070E0CB015201C984DA846D
:1038C0007301810129833A834B835C836D837E83FB
:1038D0008F83988760E070E080E090E00E94503233
:1038E0002983398B4A8B5B8B6C8B7D8B8E8B9F8B6B
:1038F000FF24F3949F1409F409C110E0812C912C4A
:103900005401839440E050E0BA0101C011E0CB01C2
:10391000BA01B7E0660F771F881F991FBA95D1F7D4
:10392000CB84DC84ED84FE8407E0CC0CDD1CEE1C33
:10393000FF1C0A95D1F7A2E0DA1AE108F108A50107
:1039400094010E94E031C20ED31EE41EF51EEF85E5
:10395000F889C082D182E282F38264837583868390
:10396000978380869186A286B386111103C129812F
:1039700039894A895B896C897D898E899F890EC1C5
:1039800011E0188F5201C984DA8473018101298101
:1039900039894A895B896C897D898E899F890E94D2
:1039A00007332B873C874D875E878B859C85AD854C
:1039B000BE850697A105B10520F406E0A02EB12C26
:1039C0000FC0EB84FC840D851E8529E0E21627E0FC
:1039D000F20601051105C8F0B8E0AB2E17E0B12ED4
:1039E000C12CD12CE12CF12C00E010E02981398987
:1039F0004A895B896C897D898E899F890E940733FA
:103A0000290149875A873B011C015201C984DA8484
:103A100073018101298139894A895B896C897D8992
:103A20008E899F890E940533E0E4AE2EF2E4BF2E1A
:103A3000AFE0CA2ED12CE12CF12C00E010E00E9466
:103A400050325201C984DA84730181010E94073324
:103A5000A32FF42FE52F422F5A2F6F2F7E2F4115C2
:103A600051056105710509F068C0812C912C540144
:103A700083946AC0298139894A895B896C897D89E7
:103A80008E899F89A0E00E94F733F1F55201C98425
:103A9000DA847301810120E034E04BE654EF64E105
:103AA00070E080E090E00E940733122FB32FF42FD4
:103AB000E52FA7E00E94F73301F516E0B0E01BC048
:103AC000298139894A895B896C897D898E899F8999
:103AD000A0E00E94F73309F053C020E8422E30EFF7
:103AE000532EBAEFB987E2E0EA87612C712C212CC2
:103AF000312C18E0B7E0F0E0E0E0CF011B87BC8795
:103B00009D87EE87912CD0CE188E3CCFAF85B8899B
:103B10001D921D921D921C921397FD011482158215
:103B200016821782C12CD12C7601C3941896CD929F
:103B3000DD92ED92FC921B9731C020E4822E22E4AC
:103B4000922E2FE0A22EB12CF88DF13009F0DECEAE
:103B5000EF85F889108211821282138214821582F5
:103B60001682178281E090E0A0E0B0E08087918724
:103B7000A287B387920149855A85B301C1010EC05E
:103B8000188E80E8482E90EF592E0AEF098712E030
:103B90001A87612C712C212C312CF4CE68960FB62B
:103BA000F894DEBF0FBECDBFDF91CF911F910F9173
:103BB000FF90EF90DF90CF90BF90AF909F908F904D
:103BC0007F906F905F904F903F902F900895DF927D
:103BD000EF92FF920F931F93CF93DF93FC01E0804E
:103BE000F18002811381D481C581B681D78097018C
:103BF000A8016D2F7C2F8B2F9D2D20583A414640D8
:103C0000510961097109810991092F373A414640EB
:103C10005105610571058105910509F098F4970139
:103C2000A8016D2F7C2F8B2F9D2D07E00E94AB33B9
:103C30002083318342835383648375838683978390
:103C400087E0FDC09701A8016D2F7C2F8B2F9D2D44
:103C500035534C40510961097109810991092F3F80
:103C600034434C405105610571058105910509F00A
:103C700098F49701A8016D2F7C2F8B2F9D2D06E0C6
:103C80000E94AB33208331834283538364837583E3
:103C90008683978386E0D3C09701A8016D2F7C2F80
:103CA0008B2F9D2D3A5648415109610971098109AF
:103CB00091092F3F3946484151056105710581053C
:103CC000910509F098F49701A8016D2F7C2F8B2F97
:103CD0009D2D05E00E94AB332083318342835383C3
:103CE000648375838683978385E0A9C09701A801C3
:103CF0006D2F7C2F8B2F9D2D345D40435109610921
:103D00007109810991092F3F334D404351056105E8
:103D100071058105910509F098F49701A8016D2FAF
:103D20007C2F8B2F9D2D04E00E94AB3320833183A9
:103D300042835383648375838683978384E07FC043
:103D40009701A8016D2F7C2F8B2F9D2D385A41464E
:103D5000510961097109810991092F3F374A41468B
:103D60005105610571058105910509F098F49701E8
:103D7000A8016D2F7C2F8B2F9D2D03E00E94AB336C
:103D8000208331834283538364837583868397833F
:103D900083E055C09701A8016D2F7C2F8B2F9D2D9F
:103DA0003055434C510961097109810991092F3F2F
:103DB0003F44434C5105610571058105910509F0AA
:103DC00098F49701A8016D2F7C2F8B2F9D2D02E079
:103DD0000E94AB3320833183428353836483758392
:103DE0008683978382E02BC09701A8016D2F7C2FDB
:103DF0008B2F9D2D305A4648514061097109810928
:103E000091092F3F3F4946485140610571058105A1
:103E1000910509F098F49701A8016D2F7C2F8B2F45
:103E20009D2D01E00E94AB33208331834283538375
:103E3000648375838683978381E001C080E0DF918E
:103E4000CF911F910F91FF90EF90DF9008951F93F6
:103E5000CF93DF93EC01162F83E00E945F2B9E012E
:103E6000332761E070E001C0660F2A95EAF7113050
:103E700019F46095682301C0682B83E0DF91CF912E
:103E80001F910C94442BFF920F931F93CF93DF93BA
:103E9000EC018B01F82E80E1F80E8F2D0E945F2B34
:103EA0000115110511F48F7D04C00130110509F4CD
:103EB0008062682F8F2D0E94442BDD27CC0FDD1FE1
:103EC000C155DD4F1A870987DF91CF911F910F915F
:103ED000FF900895CF92DF92EF92FF920F931F937E
:103EE000CF93DF93EC012196FC01F490FF2009F4BD
:103EF0003FC082E493E00E941013FE01649182E4CB
:103F000093E00E9447156E01F2E0CF0ED11CFE0136
:103F10003196C4918C2F8078E82ECF778601DC2FE4
:103F2000D15048F0F801649182E493E00E94471474
:103F30000F5F1F4FF5CFC6018C0F911DEC0182E47E
:103F400093E00E94CF0FE11002C0FA94CFCF8E0110
:103F50000F5F1F4FFE01649170E06F3F710511F418
:103F600064EF71E080E090E00E94FE24E801EDCF74
:103F7000DF91CF911F910F91FF90EF90DF90CF9045
:103F800008952F923F924F925F926F927F928F92FD
:103F90009F92AF92BF92CF92DF92EF92FF920F93D8
:103FA0001F93CF93DF93CDB7DEB76B970FB6F8941F
:103FB000DEBF0FBECDBF9B8F8A8F5B011A01D22E51
:103FC0001F830E833701C982DC0158962D913C91E5
:103FD00059972115310509F0E6C018968D919C91ED
:103FE0001997681779070CF0CDC11A968D919C919D
:103FF0001B97481759070CF0C5C18C2C912CFB015D
:1040000026E0C29EE00DF11D1124FB87EA871E16F3
:104010001F060CF0B7C1A40183E0440F551F8A9519
:10402000E1F75D874C87CA01820D931D18161906AA
:104030000CF0A8C157968C91811104C05FEA5D1500
:1040400008F4D394AA8DBB8DED91FC911197028455
:10405000F385E02DCD010995B5E0DB9EC00111246B
:10406000F5013596FF87EE87BB82AA8225019C0168
:104070002A193B09398B288BA101485F5F4F5B8B65
:104080004A8BE889F989E40DF51DEF52FD4F5491F3
:10409000588761013D822C82888580FF13C0AA8DDC
:1040A000BB8DED91FC91B981B13031F40484F5857B
:1040B000E02D2E813F8116C00684F785E02DEE802D
:1040C000FF801AC0EE81FF81E615F705F1F0AA8D99
:1040D000BB8DED91FC91B981B13051F40484F5852B
:1040E000E02D9301A601B2018A8D9B8D09950DC02B
:1040F0000684F785E02D7301840194014C815D8174
:104100006A817B818A8D9B8D0995E885E695E88794
:10411000FFEFCF1ADF0A2C813D81280D391D3D8329
:104120002C834A895B89C416D50609F0B5CF5FEFA9
:10413000451A550A8A819B81880D991D9B838A8324
:10414000AE85BF854A165B0609F09BCFEE81FF81E5
:10415000E615F70509F4F4C0EA8DFB8DA081B18165
:10416000F981F13079F4B5016B5F7F4F5096ED9195
:10417000FC915197830128E030E0A1018A8D9B8D4D
:104180000995DEC06A857B85681979091E96ED91CF
:10419000FC911F9773010C851D859401A1018A8DE7
:1041A0009B8D0995CDC0F9013496E491DE1AF90191
:1041B000329685919491B7E0DB9E800D911D11247C
:1041C000F901259134913B8B2A8BFC012591349187
:1041D0002901FC013296C490319634913E87329683
:1041E00014913196D4904981423058F0612E012EBD
:1041F000000C77088D2D0D2C000C990B9987888762
:1042000004C019861886612C712CAA8DBB8DED9186
:10421000FC9111970284F385E02DCD010995B981B8
:104220008B2E912C689CC001699C900D789C900D00
:104230001124FC01EA0DFB1DFD87EC871A82712C0D
:10424000612CE12F110FFF0B95012E0F3F1F3B87B4
:104250002A87AC0CB11CA5014E0F5F1F5F8B4E8BE4
:10426000C1018D0D911DD7FC9A95998F888F9E85E0
:10427000691608F065C0862D90E048855985480F7D
:10428000591F489D9001499D300D589D300D1124B6
:10429000D101A20FB31FB98BA88BEC85FD85FD83DF
:1042A000EC83AA84BB84DA80FA85DF1A288D398DE5
:1042B000280F391F3D8B2C8B8D2D8A0D4E895F89E0
:1042C000A416B506C1F1877041F4C2010196EA89CE
:1042D000FB89E40DF51D74902C0177FE21C0AA8D99
:1042E000BB8DED91FC91B981B13061F40484F58509
:1042F000E02D2E813F814C895D89B5018A8D9B8D92
:1043000009950EC00684F785E02DEE80FF808401BC
:104310009401488959896C817D818A8D9B8D09958D
:10432000770CEFEFAE1ABE0A2C813D81280D391DA6
:104330003D832C83C1CF3A813C0D3A83639497CF60
:10434000AA8DBB8DED91FC9111970688F789E02D20
:10435000CD016B960FB6F894DEBF0FBECDBFDF91D7
:10436000CF911F910F91FF90EF90DF90CF90BF9072
:10437000AF909F908F907F906F905F904F903F9005
:104380002F9009946B960FB6F894DEBF0FBECDBF89
:10439000DF91CF911F910F91FF90EF90DF90CF9021
:1043A000BF90AF909F908F907F906F905F904F9055
:1043B0003F902F9008951F920F920FB60F921124E5
:1043C0002F933F934F935F936F937F938F939F931D
:1043D000AF93BF93EF93FF938091B900887F8036AE
:1043E00009F49CC068F5883209F45BC090F4803110
:1043F00009F454C038F4882309F4F6C0883009F46D
:104400004DC0F6C0883109F44CC0803209F45DC05B
:10441000EFC0803409F468C048F4803309F455C013
:10442000883309F0E5C08093C403D8C0803509F40F
:104430004FC0883509F45DC0883409F0D9C0D6C0B2
:10444000883909F4C7C0A8F4883709F467C038F47C
:10445000883609F463C0803709F460C0C9C0883861
:1044600009F4B8C0803909F45FC0803809F0C0C0D1
:104470005BC0803B09F486C038F4803A09F466C01A
:10448000883A09F47FC0B4C0803C09F4A7C0883CD6
:1044900009F4A4C0883B09F48AC0AAC08091A10392
:1044A00010C09091C3038091C203981770F5E091FA
:1044B000C30381E08E0F8093C303F0E0EE55FC4F01
:1044C00080818093BB0085EC86C08093C4038EC03E
:1044D000E091C30381E08E0F8093C3038091BB0002
:1044E000F0E0EE55FC4F80839091C3038091C203AE
:1044F0006EC0E091C30381E08E0F8093C30380916F
:10450000BB00F0E0EE55FC4F80838091C503811124
:104510006DC081E08093A00384EA61C083E0809352
:10452000C60310924302CFCF80914302803208F03D
:1045300051C0E091430281E08E0F8093430280914D
:10454000BB00F0E0ED5DFD4F8083BDCF85EC809337
:10455000BC001092C60380914302803230F4E09197
:104560004302F0E0ED5DFD4F10826091430270E088
:10457000E091FF01F091000283E292E00995109230
:10458000430236C084E08093C60310922202109248
:104590002102E091FD01F091FE0109958091210237
:1045A000811105C081E08093210210920102E09107
:1045B000220281E08E0F80932202F0E0EF5FFD4F38
:1045C00080818093BB0090912202809121029817F4
:1045D00008F479CF85E88093BC000AC085EC80930D
:1045E000BC001092C60304C01092C4030E94291894
:1045F000FF91EF91BF91AF919F918F917F916F91BB
:104600005F914F913F912F910F900FBE0F901F9090
:1046100018951F93CF93DF93282F30E0F901E354CF
:10462000FD4F8491F901E85AF74FD491F901EA5806
:10463000F74FC491CC23C1F0162F81110E94822420
:10464000EC2FF0E0EE0FFF1FE459F74FA591B49166
:104650009FB7F894111104C08C91D095D82302C053
:10466000EC91DE2BDC939FBFDF91CF911F910895DA
:104670003FB7F8948091510290915202A091530259
:10468000B091540226B5A89B05C02F3F19F00196A2
:10469000A11DB11D3FBFBA2FA92F982F8827820FC8
:1046A000911DA11DB11DBC01CD0142E0660F771F18
:1046B000881F991F4A95D1F70895CF92DF92EF9204
:1046C000FF920F931F93CF93DF936C017A018B01BD
:1046D000C0E0D0E0CE15DF0581F0D8016D918D01ED
:1046E000D601ED91FC910190F081E02DC601099574
:1046F000892B11F02196EECF7E01C701DF91CF917A
:104700001F910F91FF90EF90DF90CF9008951F932E
:10471000CF93DF93EC0163706D8B29AD8AAD30E0F0
:10472000623091F06330B9F0613039F03EAB2DABBF
:1047300090E098AF8FAB10EC14C038AF2FAB90E087
:104740009EAB8DAB10EA0DC03EAB2DAB90E098AFA9
:104750008FAB10E006C038AF2FAB90E09EAB8DABB7
:1047600010E6E881F9810284F385E02DCE010995F8
:1047700066E3CE010E944715612FCE010E944714C7
:10478000E881F9810688F789E02DCE01DF91CF918C
:104790001F9109948F929F92AF92BF92CF92DF9216
:1047A000EF92FF920F931F93CF93DF93EC018DA9AC
:1047B0009EA94B01880E991E8FA998AD480F591FCD
:1047C000C9010197880D991DA0E0B0E0A12CB12C82
:1047D000540199248824882A992AAA2ABB2A680184
:1047E00081E0C81AD108C40ED51EC601A0E0B0E011
:1047F0006A01E12CF12C7601DD24CC24C82AD92AC7
:10480000EA2AFB2A6AE2CE010E94471529A16B2DF4
:1048100077278827992727FF18C06EBD0DB407FE9C
:10482000FDCFC501AA27BB278EBD0DB407FEFDCF66
:10483000BB27AB2D9A2D892D8EBD0DB407FEFDCF64
:104840008EBC0DB407FEFDCF14C0CE010E944714EC
:10485000B50188279927CE010E94471499278B2DEF
:104860007A2D692DCE010E944714682DCE010E9439
:1048700047146BE2CE010E94471529A16F2D7727BF
:104880008827992727FF18C06EBD0DB407FEFDCFFE
:10489000C701AA27BB278EBD0DB407FEFDCFBB27DE
:1048A000AF2D9E2D8D2D8EBD0DB407FEFDCFCEBC40
:1048B0000DB407FEFDCF14C0CE010E944714B7010E
:1048C00088279927CE010E94471499278F2D7E2D86
:1048D0006D2DCE010E9447146C2DCE010E9447140D
:1048E0006CE2CE01DF91CF911F910F91FF90EF907D
:1048F000DF90CF90BF90AF909F908F900C94471512
:104900000E94EB37833081F028F4813099F08230B7
:10491000A1F008958730A9F08830B9F08430D1F43F
:10492000809180008F7D03C0809180008F7780937D
:104930008000089584B58F7702C084B58F7D84BDD3
:1049400008958091B0008F7703C08091B0008F7D73
:104950008093B0000895CF93DF9390E0FC01E85A74
:10496000F74F2491FC01EA58F74F8491882361F1B5
:1049700090E0880F991FFC01EC5BF74FC591D49133
:10498000FC01E459F74FA591B491611109C09FB79B
:10499000F8948881209582238883EC912E230BC084
:1049A000623061F49FB7F8948881322F3095832369
:1049B0008883EC912E2B2C939FBF06C08FB7F89461
:1049C000E8812E2B28838FBFDF91CF9108958E3001
:1049D00008F08E508770806480937C0080917A000C
:1049E000806480937A0080917A0086FDFCCF80916C
:1049F00078002091790090E0922B08958F929F92F9
:104A0000AF92BF92CF92DF92EF92FF926B017C0147
:104A10000E9438234B015C01C114D104E104F1046C
:104A2000F1F00E943823DC01CB0188199909AA0909
:104A3000BB09883E9340A105B10570F321E0C21A7D
:104A4000D108E108F10888EE880E83E0981EA11CC9
:104A5000B11CC114D104E104F10419F7DDCFFF90BA
:104A6000EF90DF90CF90BF90AF909F908F90089580
:104A70001F920F920FB60F9211242F933F938F9393
:104A80009F93AF93BF938091480290914902A09168
:104A90004A02B0914B023091500223E0230F2D3790
:104AA00020F40196A11DB11D05C026E8230F029632
:104AB000A11DB11D2093500280934802909349029A
:104AC000A0934A02B0934B028091510290915202FE
:104AD000A0915302B09154020196A11DB11D809383
:104AE000510290935202A0935302B0935402BF918B
:104AF000AF919F918F913F912F910F900FBE0F908B
:104B00001F901895009769F0FC0101900020E9F7CB
:104B10003197AF01481B590BBC0182E493E00C9420
:104B20005D2380E090E008952F923F924F925F9234
:104B30006F927F928F929F92AF92BF92CF92DF92AD
:104B4000EF92FF920F931F93CF93DF93CDB7DEB712
:104B50006D970FB6F894DEBF0FBECDBF3C872B8795
:104B60001E870D87F88AEF86DA8AC98AF901718370
:104B70006083F80151834083F60111821082F701AE
:104B80001182108220904A0330904B0300914C0315
:104B900010914D0340905A0350905B0392012C5F9B
:104BA0003F4F3C8B2B8B2F5F3F4F3E8B2D8B2350EA
:104BB0003109388F2F8B8090580390905603C92C61
:104BC000D12CDC82CB822C5F3F4F3E832D8326E0AD
:104BD000929E60011124D886CF82CB80DC80F3E0E6
:104BE000CC0CDD1CFA95E1F7DA82C9829A878987B5
:104BF0007101AFEFBFEF2FEF3FEF3B8F2A8FE985BA
:104C0000FA852191FA87E987222309F4CCC041145F
:104C1000510409F48DC02A3041F4ED81FE81849164
:104C2000899D400D511D112489C02D3041F3EB8920
:104C3000FC89C490ED89FE898491022E000C330B0F
:104C4000D12C2C153D05DCF290E082179307BCF2C5
:104C5000EF89F88D859194912C193D09E7E0CE2ECE
:104C6000C29EF001C39EF00D11248E0F9F1FFC0108
:104C70003296C4903196D49031962491298F3196F2
:104C80003491319684918820E9F06C2C712C630E5C
:104C9000711C37FD7A94EB81FC816E9E50016F9EF2
:104CA000B00C7E9EB00C1124A60EB71E2A143B0435
:104CB0004CF4ED81FE819491999E400D511D11247B
:104CC00060E070E0292D3203F0011124E60FF71F98
:104CD000382F3203C0011124840F951F5F019C9C63
:104CE000A00CB11C112421E0A21AB1089C019D9CCA
:104CF000200D311D1124690131E0C31AD108EE15D0
:104D0000FF050CF47F01801791070CF48C018A8D4C
:104D10009B8D8A159B0514F4BB8EAA8EAC15BD0520
:104D20000CF4D601998D999E600D711D112467CFE9
:104D30002A3039F4C980DA804C0D5D1D60E070E0E6
:104D40005ECF2D3009F45BCF882069F08F81988584
:104D5000860F971F2816390634F429813A81420FAD
:104D6000531F60E070E02F813885260F371FF9014F
:104D7000319789819A81840F951F0197CA8CDB8CAA
:104D8000CE16DF0614F4FB8FEA8FA817B9070CF4D0
:104D9000DC016E157F050CF47B01401751070CF404
:104DA0008A01B9012CCF2A8D3B8D2E153F0564F069
:104DB000EB85FC85F182E0822E193F092F5F3F4F82
:104DC000EF85F88931832083A017B1075CF0ED856A
:104DD000FE8511830083A01BB10B1196E989FA8926
:104DE000B183A0836D960FB6F894DEBF0FBECDBF22
:104DF000DF91CF911F910F91FF90EF90DF90CF90B7
:104E0000BF90AF909F908F907F906F905F904F90EA
:104E10003F902F9008956F927F928F929F92AF92C2
:104E2000BF92CF92DF92EF92FF920F931F93CF9397
:104E3000DF937C016B015901C0E0D0E002E010E09B
:104E4000842F8470882E842F8270782E842F88700F
:104E5000682E4170942E21968820B1F09501A8010A
:104E60004C0D5D1DB7016C0F7D1F82E493E00E9425
:104E700004159501A6014C0F5D1FB8016E0D7F1D35
:104E800082E493E00E9404157720B1F09501A60119
:104E9000401B510BB7016C0F7D1F82E493E00E9411
:104EA00004159501A6014C1B5D0BB8016E0D7F1D0D
:104EB00082E493E00E9404156620B1F09501A601FA
:104EC0004C0F5D1FB701601B710B82E493E00E94E1
:104ED00004159501A8014C0D5D1DB7016C1B7D0BE0
:104EE00082E493E00E9404159920B1F09501A60197
:104EF0004C1B5D0BB701601B710B82E493E00E94B9
:104F000004159501A601401B510BB7016C1B7D0BCD
:104F100082E493E00E940415C017D1071CF401E05D
:104F200010E099CFDF91CF911F910F91FF90EF90FB
:104F3000DF90CF90BF90AF909F908F907F906F90B9
:104F400008952F923F924F925F926F927F928F922D
:104F50009F92AF92BF92CF92DF92EF92FF920F9308
:104F60001F93CF93DF9300D000D000D0CDB7DEB732
:104F70002C013B0149015801190183E0280E311C25
:104F8000E12CF12C82E090E09E838D838CEF9FEFEB
:104F90009A838983CC24CA94DC2C942F91709B83B0
:104FA00042704C838FEFE81AF80AC10188199909F9
:104FB000C80ED91E9B81992309F12D813E81220FB4
:104FC000331F2F5F3F4F280D391D8501A3018D81B0
:104FD0009E81481B590BB2016E0D7F1D82E493E048
:104FE0000E94BB0F9101A3014E195F096D817E8163
:104FF000640D751D82E493E00E94BB0F9C819111AA
:1050000019C08D819E81E816F906BCF5D7FC0AC04F
:1050100089819A8102969A838983C80ED91E81E07C
:1050200090E002C082E090E09E838D8392E0290EA2
:10503000311CB8CF2D813E81220F331F2F5F3F4F90
:10504000280D391D8501A3018D819E81481B590BB7
:10505000B2016E197F0982E493E00E94BB0F9101B7
:10506000A3014E195F09B2018D819E81681B790BE6
:1050700082E493E00E94BB0FC4CF26960FB6F8944B
:10508000DEBF0FBECDBFDF91CF911F910F91FF907B
:10509000EF90DF90CF90BF90AF909F908F907F90D8
:1050A0006F905F904F903F902F9008952F923F9276
:1050B0004F925F926F927F928F929F92AF92BF9228
:1050C000CF92DF92EF92FF920F931F93CF93DF93D4
:1050D000CDB7DEB72C970FB6F894DEBF0FBECDBFAD
:1050E0005C874B8759014801262F30E03A87298792
:1050F000282E312C82E493E00E94101369847A8474
:1051000034E0631A7108610142E0C40ED11C7801D9
:105110000FE010E0930140E050E0B60182E493E03C
:105120000E947214E984FA84E20CF31C270153E014
:10513000451A510884012AE030E041E062E070E065
:10514000C2010E94A1272AE030E042E062E070E064
:10515000C6010E94A12782E493E00E94CF0F82E45F
:1051600093E00E9410138501930140E050E0B601E6
:1051700082E493E00E94A80F93014EE050E0B60154
:1051800082E493E00E94A80F2BE030E042E050E080
:10519000B10182E493E00E94BB0FB7016150710935
:1051A0002BE030E042E050E082E493E00E94BB0F4D
:1051B000950141E062E070E0C6010E940B27950175
:1051C00042E062E070E0C2010E940B27950144E0DA
:1051D0006CE070E0C2010E940B27950148E06CE092
:1051E00070E0C6010E940B2782E493E00E94CF0F7B
:1051F0009E012F5F3F4F88E0F90111928A95E9F7F0
:10520000AE01495F5F4F6A01CE0105967C018E01B8
:105210000D5F1F4F40E050E0B1018B859C850E94DF
:1052200094258F8198852FE030E0281B390B369527
:1052300027952F5F3F4F8D819E81E985FA85E81B79
:10524000F90BCF0196958795280E391EE2E4F3E01D
:10525000B18AA08A938A828A3586248637872687F0
:105260008B859C850E9482252C960FB6F894DEBF14
:105270000FBECDBFDF91CF911F910F91FF90EF90A7
:10528000DF90CF90BF90AF909F908F907F906F9066
:105290005F904F903F902F9008953F924F925F9272
:1052A0006F927F928F929F92AF92BF92CF92DF9236
:1052B000EF92FF920F931F93CF93DF93C82FA8E035
:1052C000EA2EA2E0FA2E0AE010E020EA30E046E7FB
:1052D00050E060E070E082E493E00E94EE0F809185
:1052E000AB028C1709F4B2C0CD3020F4C11103C059
:1052F000C1E001C0CCE08091AB028C1708F076C011
:10530000D091AB026EE0762E7BE2672EE0E35E2E5C
:10531000FEE6AF2EB12CDC1708F066C0E6EFED0F0D
:10532000E33040F4F0E0EE0FFF1FEF55FE4FC0807A
:10533000D18006C040EEC42E47E0D42EDA3010F003
:1053400022E001C020E08D2E912CC4010197879DA1
:10535000302C112432E0432E430CDB3011F462E098
:1053600001C060E030E0235F3F4F70E0640D711DCD
:10537000760106E010E048E750E082E493E00E9406
:10538000EC0E4AE06BEE73E0C401DA3090F0019667
:105390000E9466316092EB035092ED031092EE038F
:1053A000DA3019F42BEF422E02C09EEF492E430C47
:1053B00002C00E946631D0925303C09252031092F1
:1053C000550310925403842D90E0049690934F035C
:1053D00080934E03B0925103A09250038BEE93E062
:1053E0000E948225DF5F97CFC093AB028091AB0212
:1053F000C81760F5D091AB028EE0D82ECD1720F5FE
:10540000DA3018F42EE030E002C020E130E08D2FD9
:1054100090E00197D89EA001D99E500D1124DB3059
:1054200019F062E070E002C064E070E0640F751F84
:10543000E12CF12C06E010E048E750E082E493E034
:105440000E94EC0ED150DACFC093AB02DF91CF9126
:105450001F910F91FF90EF90DF90CF90BF90AF9092
:105460009F908F907F906F905F904F903F900895A6
:10547000EF92FF920F931F9390910D018091000185
:10548000981307C000E018E620E038EE49EE51E03E
:1054900015C0E0910D0185E0E89FF0011124E75867
:1054A000FE4F80814AE06BEE73E090E00E9466312F
:1054B00000EC19E220EC36E94BEE53E068E288E7B5
:1054C0000E945628E12CF12C0AE010E02FE930E090
:1054D0004EE550E060E070E082E493E00E94EC0E64
:1054E0001F910F91FF90EF900895AF92BF92CF92CE
:1054F000DF92EF92FF920F931F93CF93DF93D091A0
:10550000000109E711E0C0E088EEC82E83E0D82E44
:10551000E12CF12CDC17D9F16091020170910301AB
:105520008091040190910501F801A180B280A7014A
:1055300096010E94E031C501A0E0B0E028173907CC
:105540004A075B07B0F160910201709103018091FD
:10555000040190910501A70196010E94E031F80134
:10556000838194818A0D9B1DA0E0B0E08217930790
:10557000A407B507F0F080910D01C81721F0C09382
:105580000D010E94382A80910001C81316C0809135
:105590000D018C1791F0C0930D01DF91CF911F91F8
:1055A0000F91FF90EF90DF90CF90BF90AF900C9451
:1055B000382ACF5F0B5F1F4FADCFDF91CF911F9187
:1055C0000F91FF90EF90DF90CF90BF90AF90089534
:1055D000282F3091EA03313208F04AC08091C60387
:1055E0008111FCCF9091E90342E04093C6032093E0
:1055F000C5032FEF2093C4031092C3033093C2035B
:10560000E9ECF3E0A2EAB3E020E0321721F04191A7
:105610004D932F5FFACF1092A1032091A103990F10
:10562000922B9093A1039091A003913061F410927A
:10563000A0039091A1039093BB009091BC0093FDB7
:10564000F8CF95EC01C095EE9093BC009091C60305
:105650009230E1F39091C4039F3F79F08091C403AD
:10566000803241F08091C403803331F084E005C082
:1056700081E003C082E001C083E01092C803109271
:10568000EA031092C7030895CF93C62F90912D037C
:1056900021E02093C7039093E9031092C80310926E
:1056A000EA03682F85E592E00E94B6186C2F85E525
:1056B00092E00E94B61881E0CF910C94E82ACF9333
:1056C00090912D0321E02093C7039093E90310925A
:1056D000C8031092EA03682F85E592E00E94B6188D
:1056E00081E00E94E82A80912D039091C6039111D8
:1056F000FCCF91E09093C6031092C5032FEF209347
:10570000C4031092C3031092C2039093A10390911B
:10571000A103880F892B8093A1038091A00381307E
:1057200061F41092A0038091A1038093BB0080914B
:10573000BC0083FDF8CF85EC01C085EE8093BC00F2
:105740008091C6038130E1F38091C303811103C0CE
:10575000C091C30301C0C1E0E2EAF3E0A0E8B3E016
:1057600080E08C1721F091919D938F5FFACF10927A
:105770007F03C0937E0380E090917F03C91729F0D7
:1057800085E592E00E946D18F7CFCF910895FF92C2
:105790000F931F93CF93DF938C01C62FF42E883085
:1057A000910528F4FC01EF58FE4FD08101C0D0E0F4
:1057B0008D2F0E945F2B0630110544F48378F11081
:1057C0008C6090E1C99FB00111240EC00630110514
:1057D00019F4887F8C2B09C00730110531F490E152
:1057E000C99FB00111248F78862B682F8D2FDF91F0
:1057F000CF911F910F91FF900C94442BCF93DF9387
:10580000D62FC0E1C80F8C2F0E945F2B682FD1309C
:1058100011F4606401C06F7B8C2FDF91CF910C94E9
:10582000442BEF92FF920F931F93CF93DF93062F9A
:105830007A0190912D0321E02093C7039093E9030F
:105840001092C8031092EA03682F85E592E00E9447
:10585000B618E70110E0CE018E199F098017910755
:1058600034F4699185E592E00E94B618F4CF81E0A6
:10587000DF91CF911F910F91FF90EF900C94E82A48
:10588000789484B5826084BD84B5816084BD85B51B
:10589000826085BD85B5816085BD80916E00816027
:1058A00080936E00109281008091810082608093CD
:1058B00081008091810081608093810080918000CF
:1058C0008160809380008091B10084608093B100FA
:1058D0008091B00081608093B00080917A008460F4
:1058E00080937A0080917A00826080937A00809120
:1058F0007A00816080937A0080917A00806880933A
:105900007A001092C10040E050E0BA0182E493E0D6
:105910000E946F1289E098E00E946A1F8CEF97E066
:105920000E946A1F81ED97E00E946A1F82E493E063
:105930000E94101366E382E493E00E94471560EC36
:1059400082E493E00E94471482E493E00E94CF0F28
:1059500082E080937D0360E082E493E00E945D1525
:1059600061E08DE00E94AB2460E070E082E493E0AF
:105970000E94BA1061E082E493E00E945D151092EB
:105980007F0310927E031092C8031092EA031092D4
:10599000C603C1E0C093C5031092A00361E082E199
:1059A0000E94092361E083E10E9409238091B900EC
:1059B0008E7F8093B9008091B9008D7F8093B9006C
:1059C00088E48093B80085E48093BC008BE598E17F
:1059D0009093FE018093FD018CE598E19093000285
:1059E0008093FF0180912D03C093C7038093E90347
:1059F0001092C8031092EA0381E00E94E82A8823EB
:105A000009F457C061E080E090E00E94271F80E128
:105A10000E945F2B8C7F682F616080E10E94442B85
:105A200088E79EE7ABE3B0E0809302019093030127
:105A3000A0930401B09305010E94320980914C02A9
:105A400090914D02A0914E02B0914F02F894809334
:105A50003D0390933E03A0933F03B093400378949B
:105A60000E9432090E94752A0E94250E62E08091F0
:105A700065020E94AB2462E0809188020E94AB2400
:105A80000E94250E8CE00E944D2981E194E19093C3
:105A90009602809395028BE194E190939802809313
:105AA00097020CE510E0C9E030E0E32E30E0F32E81
:105AB000A2C180E00E945F2B90E0880F892F881F91
:105AC000990B0197B1F362E187EB0E94442B80E4CC
:105AD00098E7ADE7B1E080931C0390931D03A0937A
