:100000000C9419040C942A0D0C94020D0C944104C8
:100010000C9441040C9441040C9441040C9441044C
:100020000C9441040C9441040C9441040C9441043C
:100030000C9441040C9441040C9441040C9441042C
:100040000C943F160C9441040C94AF160C94891632
:100050000C9441040C9441040C9441040C9441040C
:100060000C9444220C944104D719E519F319011A90
:100070000F1A1D1A2B1A341A000004090701FD0576
:100080000008040A01F7090004040701FD0000004C
:100090000006000120000E151001EC4500081510A7
:1000A00003EC5A000E151001EC7F000E151001EC48
:1000B000A4000E151001ECC9000E151001ECEE00A5
:1000C0000E151001EC13010E151001EC38010E1580
:1000D0001001EC5D010E151001ECFFFF337EC0FF37
:1000E000FFFFFFFFFF03030606060C0C0C0C18189D
:1000F0001830303030606060C0C00FC07F83FF1F99
:10010000FE78FBE1EF03FC0FF03FC0FF03FC0FF0B4
:100110003FC0FF03FE1F7879FFE3FF07F80FC0031E
:1001200007071FFFFFFF0F0F0F0F0F0F0F0F0F0F0F
:100130000F0F0F0F0FC0FFC7FF9FFEF87FC0FF0319
:10014000C00F003C01F00F807C07E03E01F00F0083
:100150003801FFF7FFDFFF7FFC0FC0FF87FF3FFE87
:10016000F8FBC1E007803C07E01FC07F803E007CB9
:1001700000F003FC0FF87FFFE7FF8FFC0FC001F0DA
:100180000FC03F01FC07F03BC0EF073C18F0E3C78E
:100190000F1C3CE0F3FFFFFFFFFFFFFC03C00F005D
:1001A0003C00F03FF8FFE3FF8FFE7801C0073C1DE5
:1001B000FC7FF1FFEF87C01F003C00F003FC0FF84D
:1001C0007FFFE7FF0FF80FC007C07FC3FF9FFE78D8
:1001D0007DE00F003CF8FFF3FFEF87BC0FF03FC05E
:1001E000FF03DC1F7879FFE3FF07F80FC0FFFFFF75
:1001F000FFFFFFFF003801E00F007801E00F003C37
:1002000001E007801C00F003C00F003801E0078008
:100210001E000FC07F83FF1FFE7879C0E7039E1E7C
:100220003FF07F87FF1E1EF03FC0FF03FC0FF87DED
:10023000FFE7FF8FFC0FC00FC07F83FF1FFEF87B1F
:10024000C0EF03FC0FF03FC0FF87DFFF7FFCFEF035
:10025000F3C01EF879FFE7FF0FF80F80DA0078008F
:100260002C392304E010021C07123732292D2925CE
:100270002B3900010310E110031D07062E2C292D38
:100280002E2E373F0000021013800A298064022AB4
:10029000040000007F2B040000009F0F01809611D6
:1002A00080FFB103012C2DB203012C2DB306012CCC
:1002B0002D012C2DB40107C003A20284C101C5C2C7
:1002C000020A00C3028A2AC4028AEEC5010E200077
:1002D0003601C83A010500000000240027002A006A
:1002E00000000008000201000003040700000000F5
:1002F0000000000000000000003E5B4F5B3E3E6BD4
:100300004F6B3E1C3E7C3E1C183C7E3C181C577DAF
:10031000571C1C5E7F5E1C00183C1800FFE7C3E7FB
:10032000FF0018241800FFE7DBE7FF30483A060E0D
:100330002629792926407F050507407F05253F5A54
:100340003CE73C5A7F3E1C1C08081C1C3E7F1422C4
:100350007F22145F5F005F5F06097F017F0066896F
:10036000956A606060606094A2FFA29408047E04B5
:100370000810207E201008082A1C08081C2A0808DB
:100380001E101010100C1E0C1E0C30383E3830069B
:100390000E3E0E06000000000000005F0000000797
:1003A000000700147F147F14242A7F2A12231308C5
:1003B000646236495620500008070300001C2241A1
:1003C000000041221C002A1C7F1C2A08083E080845
:1003D00000807030000808080808000060600020F5
:1003E000100804023E5149453E00427F40007249D8
:1003F0004949462141494D331814127F102745457C
:1004000045393C4A49493141211109073649494991
:1004100036464949291E00001400000040340000FF
:100420000008142241141414141400412214080268
:10043000015909063E415D594E7C1211127C7F49DB
:100440004949363E414141227F4141413E7F494930
:1004500049417F090909013E414151737F0808085C
:100460007F00417F41002040413F017F081422412D
:100470007F404040407F021C027F7F0408107F3E87
:100480004141413E7F090909063E4151215E7F09F4
:10049000192946264949493203017F01033F40405B
:1004A000403F1F2040201F3F4038403F6314081446
:1004B0006303047804036159494D43007F4141417E
:1004C0000204081020004141417F0402010204405F
:1004D00040404040000307080020545478407F28E3
:1004E0004444383844444428384444287F385454D9
:1004F000541800087E090218A4A49C787F080404FC
:100500007800447D40002040403D007F102844009A
:1005100000417F40007C047804787C08040478382B
:1005200044444438FC1824241818242418FC7C085B
:10053000040408485454542404043F44243C4040D8
:10054000207C1C2040201C3C4030403C442810288B
:10055000444C9090907C4464544C440008364100D4
:100560000000770000004136080002010204023C4E
:100570002623263C1EA1A161123A4040207A38541D
:100580005455592155557941225454784221555496
:10059000784020545579400C1E52721239555555E9
:1005A00059395454545939555454580000457C41D4
:1005B0000002457D420001457C407D1211127DF014
:1005C000282528F07C545545002054547C547C0A3E
:1005D000097F4932494949323A4444443A324A4807
:1005E00048303A4141217A3A42402078009DA0A00B
:1005F0007D3D4242423D3D4040403D3C24FF24245D
:10060000487E4943662B2FFC2F2BFF0929F620C07B
:10061000887E090320545479410000447D413048CC
:10062000484A32384040227A007A0A0A727D0D190F
:10063000317D2629292F28262929292630484D4071
:1006400020380808080808080808382F10C8ACBA6D
:100650002F102834FA00007B000008142A142222EC
:10066000142A14085500550055AA55AA55AAFF5535
:10067000FF55FF000000FF00101010FF00141414BD
:10068000FF001010FF00FF1010F010F0141414FC05
:10069000001414F700FF0000FF00FF1414F404FC22
:1006A000141417101F10101F101F1414141F001003
:1006B0001010F0000000001F101010101F1010107C
:1006C00010F010000000FF1010101010101010108B
:1006D000FF10000000FF140000FF00FF00001F10CB
:1006E000170000FC04F414141710171414F404F485
:1006F0000000FF00F714141414141414F700F71476
:100700001414171410101F101F141414F4141010C4
:10071000F010F000001F101F0000001F1400000068
:10072000FC140000F010F01010FF10FF141414FF60
:10073000141010101F00000000F010FFFFFFFFFF5B
:10074000F0F0F0F0F0FFFFFF0000000000FFFF0FEF
:100750000F0F0F0F3844443844FC4A4A4A347E0293
:10076000020606027E027E02635549416338444414
:100770003C04407E201E2006027E020299A5E7A5C9
:10078000991C2A492A1C4C7201724C304A4D4D303A
:100790003048784830BC625A463D3E494949007E5F
:1007A0000101017E2A2A2A2A2A44445F44444051F6
:1007B0004A444040444A51400000FF0103E080FFAA
:1007C000000008086B6B083612362436060F090F36
:1007D00006000018180000001010003040FF010152
:1007E000001F01011E00191D1712003C3C3C3C007B
:1007F0000000000000000000230026002900010284
:10080000040810204080010204081020010204089E
:10081000102000000000250028002B000404040420
:10082000040404040202020202020303030303039A
:10083000C22D11241FBECFEFD8E0DEBFCDBF11E027
:10084000A0E0B1E0ECE9F7E602C005900D92A83E09
:10085000B107D9F724E0A8EEB1E001C01D92A83895
:10086000B207E1F714E0C9E1D4E004C02197FE012A
:100870000E944A30C831D107C9F70E94E0290C9480
:10088000CC330C9400004F925F926F927F928F92C4
:100890009F92AF92BF92CF92DF92EF92FF920F930F
:1008A0001F93CF93DF936C012B015A01390148014B
:1008B000DC01ED91FC910284F385E02D0995E201C4
:1008C000640C751CD601ED91FC91C615D7055CF43E
:1008D0000088F189E02D87019401A501BE01C601C0
:1008E00009952196EFCF0688F789E02DC601DF91A3
:1008F000CF911F910F91FF90EF90DF90CF90BF901D
:10090000AF909F908F907F906F905F904F900994E1
:100910008F929F92AF92BF92CF92DF92EF92FF920F
:100920000F931F93CF93DF93EC015B014A016901A1
:10093000E881F9810284F385E02D099595012C0D5C
:100940003D1D21503109E881F9810488F589E02DA8
:1009500078018401A401B501CE010995E881F981EE
:100960000688F789E02DCE01DF91CF911F910F917D
:10097000FF90EF90DF90CF90BF90AF909F908F90BF
:1009800009948F929F92AF92BF92CF92DF92EF9293
:10099000FF920F931F93CF93DF93EC015B014A010A
:1009A00069017801E881F9810284F385E02D0995D8
:1009B000C80CD91C860101501109E881F98104880D
:1009C000F589E02D9501A401B501CE010995E881D5
:1009D000F9810688F789E02DCE01DF91CF911F9133
:1009E0000F91FF90EF90DF90CF90BF90AF909F90CE
:1009F0008F900994EF92FF920F931F93DC01ED917A
:100A0000FC9100A0F1A1E02D09951F910F91FF909D
:100A1000EF9008950F931F93DC01ED91FC91068CEC
:100A2000F78DE02D09951F910F9108950F931F9356
:100A3000DC01ED91FC91048CF58DE02D09951F9161
:100A40000F910895DC01ED91FC910084F185E02D7A
:100A500009942F923F924F925F926F927F928F9262
:100A60009F92AF92BF92CF92DF92EF92FF920F933D
:100A70001F93CF93DF9300D000D000D0CDB7DEB767
:100A80002C017E836D836A015901C801FC82EB82CF
:100A90004801841A950A97FE03C0919481949108A5
:100AA00035012D813E81621A730A77FE03C071946D
:100AB00061947108681479045CF43A2D2B2D5C0163
:100AC000832F922F3D812E81DE82CD82C32ED22EA6
:100AD000AD81BE81AA16BB065CF43C2D2D2D6C01A8
:100AE000832F922F3D812E81BE82AD82A32EB22E06
:100AF00085012D813E81021B130B1C012C183D0822
:100B000037FE03C0319421943108780117FF03C0E8
:100B10003FEFE31AF30AF594E794C816D9062CF0D0
:100B20008FEF9FEF9A83898304C0A1E0B0E0BA837E
:100B3000A9832D813E81A216B30624F1D201ED9145
:100B4000FC910484F585E02D2B813C8168147904A7
:100B500024F44D815E81B60103C0A6016D817E81C2
:100B6000C2010995E218F308F7FE06C029813A810F
:100B7000C20ED31EE00EF11E8D819E8101969E83D2
:100B80008D83D7CF26960FB6F894DEBF0FBECDBFAC
:100B9000DF91CF911F910F91FF90EF90DF90CF9059
:100BA000BF90AF909F908F907F906F905F904F908D
:100BB0003F902F900895089580E090E008952F923F
:100BC0003F924F925F926F927F928F929F92AF92DD
:100BD000BF92CF92DF92EF92FF920F931F93CF932A
:100BE000DF93CDB7DEB760970FB6F894DEBF0FBEC8
:100BF000CDBF9E838D838091E8019091E9019C0196
:100C00002D5F3F4F3A8329838091E8019091E9015C
:100C1000AC01435051095C834B836091E8017091B2
:100C2000E90178876F8388E494E00E9416102F8191
:100C300038858B819C81281B390B8F819885A981F0
:100C4000BA818A1B9B0BC12CD12C7601812C912C53
:100C500054014CE5242E312C53E0452E512C612CAF
:100C6000712CAC01990F660B770B4F8358876987FE
:100C70007A87B901330F880B990B6B877C878D8737
:100C80009E87C501B401A30192010E942B30898186
:100C90009A81820F931F988B8F87C701B601A3019A
:100CA00092010E942B30AB81BC812A0F3B1F4F81E8
:100CB000588569857A85840E951EA61EB71E6B859C
:100CC0007C858D859E85C60ED71EE81EF91E8F85F4
:100CD00098892817390734F49F858889388B2F879E
:100CE000292F382FAF85B8892A1B3B0B2F5F3F4F29
:100CF0000D811E81A101BD0188E494E00E94460E91
:100D0000BFEF2B1A3B0A20E62216310409F0B9CFB7
:100D100088E494E060960FB6F894DEBF0FBECDBFB6
:100D2000DF91CF911F910F91FF90EF90DF90CF90C7
:100D3000BF90AF909F908F907F906F905F904F90FB
:100D40003F902F900C946D0E2F923F924F925F9296
:100D50006F927F928F929F92AF92BF92CF92DF92CB
:100D6000EF92FF920F931F93CF93DF9300D000D0A9
:100D700000D0CDB7DEB703ED1CE92FE930E040E647
:100D800050E060E070E088E494E00E94BD0D25E052
:100D900030E04EE550E060E070E088E494E00E94CE
:100DA000EC0D25E030E04EE550E06FE970E088E4BE
:100DB00094E00E94EC0D80910D018830B1F0E0913B
:100DC0000D0185E08E9FF0011124EB5CFE4F218028
:100DD0003280E0910D018E9FF0011124EB5CFE4FFB
:100DE0002381348182E390E008C020E335E758EEA8
:100DF000252E53E0352E84EF91E02C01440C551C38
:100E0000612C712C812C912C54016901E12CF12C65
:100E10009C0140E050E029833A834B835C838C142F
:100E20009D04AE04BF0490F5C501B401A301920175
:100E30000E940930672B682B692B29F042E050E0B3
:100E40005E834D8304C084E090E09E838D83A0EA9E
:100E5000B0E0A50194010E946E30A70196010E94A6
:100E60000930CA01B90103ED1CE92D813E8140E63C
:100E700050E088E494E00E94EC0D29813A814B8196
:100E80005C81820E931EA41EB51EC9CF6091020123
:100E900070910301809104019091050128EE33E0E7
:100EA00040E050E00E9409302219330941095109FC
:100EB000A0EAB0E00E946E30A70196010E940930BE
:100EC00069017A018091E8019091E9018217930705
:100ED00021F180E090E00E94DF05D092E901C0920C
:100EE000E80183E794E126960FB6F894DEBF0FBEC3
:100EF000CDBFDF91CF911F910F91FF90EF90DF90C9
:100F0000CF90BF90AF909F908F907F906F905F90A9
:100F10004F903F902F900C94DF0526960FB6F894D3
:100F2000DEBF0FBECDBFDF91CF911F910F91FF901C
:100F3000EF90DF90CF90BF90AF909F908F907F9079
:100F40006F905F904F903F902F900895AF92BF9217
:100F5000CF92DF92EF92FF920F931F93CF93DF9385
:100F6000CDB7DEB7A0970FB6F894DEBF0FBECDBFEA
:100F700020911701309118013A8329838AE0FE01FC
:100F80003396DF01982F1D929A95E9F73E872D87BA
:100F90003C96DF011D928A95E9F7609102017091FC
:100FA000030180910401909105012AE0AE014F5F99
:100FB0005F4F0E94A92FFE013D969AE08AE05F01F3
:100FC0002FE24EE2A1E0B0E0AC0FBD1FA80FB11DB3
:100FD00087FDBA953C91311104C0181614F4815064
:100FE000F1CF973011F42C8B0AC0933011F4488B59
:100FF00006C087FD03C03287815001C0228791500F
:1010000031979F3FF9F681E080935C048091600402
:1010100090916104892B49F4809156049091570472
:10102000069690935704809356048CE592E0909333
:1010300061048093600480EC96E990935B04809354
:101040005A0490935904809358049E01275E3F4FA1
:1010500088E0F90111928A95E9F7CE014F966C016B
:10106000DE015D967D018E01055E1F4F40E450E07C
:101070006AE070E0C5010E94D3270F8D18A12D8D65
:101080003E8D265F3F4F4B8D5C8D698D7A8DE12CB7
:10109000F12C88E494E00E948A0D60910201709125
:1010A000030180910401909105010E94453220E8DE
:1010B00036E948E15BE40E94403287FD03C08AE0E4
:1010C00090E002C084E190E0909355048093540432
:1010D00080E490E09093570480935604C5010E94E9
:1010E000C127109261041092600483ED9CE99093F3
:1010F00059048093580410925B0410925A04109281
:1011000055041092540480E290E090935704809329
:1011100056048AEB91E00E94C127A0960FB6F8947E
:10112000DEBF0FBECDBFDF91CF911F910F91FF901A
:10113000EF90DF90CF90BF90AF9008952F923F92A5
:101140004F925F926F927F928F929F92AF92BF92D7
:10115000CF92DF92EF92FF920F931F93CF93DF9383
:10116000CDB7DEB7E1970FB6F894DEBF0FBECDBFA7
:101170008091020190910301A0910401B0910501B9
:101180008093EB019093EC01A093ED01B093EE01FD
:101190006091020170910301809104019091050119
:1011A00024E630E040E050E00E94D230A22EE32E50
:1011B000F42E052F162FB72FF82FE92FAFEF0E942F
:1011C00014322E373A4146405105610571058105BB
:1011D000910551F048F0A9A2EAA2FBA20CA31DA31D
:1011E000BEA3FFA3E8A70BC080E889A38AE18AA376
:1011F00086E08BA31CA21DA21EA21FA218A629A1D5
:101200003AA14BA15CA16DA17EA18FA198A521154A
:10121000314C4A415D43654071058105910569F096
:1012200060F019A281EC8AA38AE18BA38DE38CA3E1
:1012300085E08DA31EA21FA218A679A0AAA00BA1CB
:101240001CA1BDA1AEA1FFA1F8A4272D3A2DA80194
:101250006B2F7A2F8F2F9F2D2115344E4B405445E5
:10126000624071058105910509F008F40BC1E09019
:10127000BE03F090BF038EEC482E83E0582E85EB22
:1012800093E09AA789A78C01F201D12C20813181AA
:1012900042815381648175818681978138962115B9
:1012A000344E4B405445624071058105910561F013
:1012B00058F0DD2049F0D80119968D919C911A972C
:1012C0008E159F0509F44DC1D3940E5F1F4FB6E0F4
:1012D000DB12DCCF8091340481110BC083E00E94CB
:1012E0005927682F6E7F83E00E943E2781E080931C
:1012F000340429A13AA14BA15CA16DA17EA18FA1CB
:1013000098A52093CE033093CF034093D0035093FE
:10131000D1036093D2037093D3038093D40390934B
:10132000D503FE013D964F01A12CB12CC12CD12C2F
:10133000E12CF12C00E010E00E94651C2BA73CA7DB
:101340004DA75EA76FA778AB382E292E0091BE035C
:101350001091BF030E94591A612C712CD201EC909C
:101360001196FC9011971296AC90129713960C91CF
:10137000139714961C9114971596BC91F201D68080
:10138000C780F8E04F0E511C97014A2D502F612F56
:101390007B2F8D2D9C2DA0E00E94203209F455C09A
:1013A000E9A5FAA5218532858091BE039091BF03FE
:1013B0002817390709F049C0E98EFA8EAB8E0C8FD9
:1013C0001D8FBE8FDF8EC8A2CE0149960E946C1E73
:1013D00089AB298D3A8D4B8D5C8D6D8D7E8DCE01C7
:1013E00001964C01ABA4BCA4CDA4DEA4EFA4F8A844
:1013F000032D122D8F8D98A10E94651CAA24A39401
:10140000298D3A8D4B8D5C8D6D8D7E8D8F8D98A144
:101410002F3F354D41415E47634071058105910580
:1014200009F008F4A12CAF9289A8C980DA80EB807A
:10143000FC800D811E812F81388549855A856B85F9
:101440007C85C3010E946A190F90BFEF6B1A7B0A5B
:10145000E9A5FAA53296FAA7E9A7F6E06F16710496
:1014600009F07CCF8091BE039091BF03009711F4E7
:1014700060E204C0019709F074C060E881EB0E944B
:101480003E276FC07092CE03A092CF030093D0038B
:101490001093D103B093D203A093D303F093D4035A
:1014A000F092D5038091340481110BC083E00E9437
:1014B0005927682F6E7F83E00E943E2781E080934A
:1014C0003404CE0181960E946C1E782EE091BE03FA
:1014D000F091BF0329A13AA14BA15CA16DA17EA10E
:1014E0008FA198A5EF2BA1F4A0900E04B0900F044B
:1014F000C0901004D0901104E0901204F0901304F6
:101500000091140410911504DE011D964D0113C0C5
:10151000A0901604B0901704C0901804D09019043D
:10152000E0901A04F0901B0400911C0410911D041B
:10153000FE013D964F010E94651C1F92872CA12C35
:10154000CD84DE84EF84F88809891A892B893C8947
:101550004D895E896F89788D80E090E00E946A19DC
:101560000F900E94A6070E946F260E94A406E19693
:101570000FB6F894DEBF0FBECDBFDF91CF911F91A4
:101580000F91FF90EF90DF90CF90BF90AF909F9022
:101590008F907F906F905F904F903F902F90089525
:1015A0004F925F926F927F928F929F92AF92BF9273
:1015B000CF92DF92EF92FF920F931F93CF93DF931F
:1015C000EC01288130E0F901E052FD4F8491F901EE
:1015D000E250F84F0491F901E45EF74F14911123A2
:1015E000A1F081110E947115E12FF0E0EE0FFF1FB5
:1015F000EC50F84FA591B491EC91E02331E020E05C
:1016000009F430E0832F922F02C080E090E02FB7E2
:10161000F8948090EF019090F001A090F101B090CB
:10162000F2012FBF2BE0722E789EF001799EF00D13
:101630001124EC0FFD1F45850B851C8529853A85F6
:10164000442309F46EC0C088D188E288F3888C18DE
:101650009D08AE08BF084D815E8160E070E04815CE
:1016600059056A057B0508F062C049815A8160E02E
:1016700070E0481559056A057B0560F44F8158856F
:10168000749EF001759EF00D1124EC0FFD1F41E0DA
:10169000468737C00817190761F5729ED001739EFF
:1016A000B00D1124AC0FBD1F84889588A688B7881B
:1016B00054964D905D906D907C9057978418950846
:1016C000A608B708EB81FC812F01612C712C48140E
:1016D00059046A047B0468F484169506A606B706C6
:1016E00040F41E965C911E9741E045271F964C934F
:1016F00009C04BE0429FF001439FF00D1124EC0F15
:10170000FD1F178698878F834BE0489FF001499F04
:10171000F00D1124EC0FFD1FC48AD58AE68AF78AE2
:1017200006C0808A918AA28AB38A98878F834BE009
:10173000429FF001439FF00D1124EC0FFD1F9C010F
:1017400051E0252721702587409F9001419F300D52
:101750001124C20FD31F81708D87DF91CF911F910C
:101760000F91FF90EF90DF90CF90BF90AF909F9040
:101770008F907F906F905F904F900895CF92DF92FF
:10178000EF92FF920F931F93CF93DF9387FF0EC0CB
:101790008091060190910701A0910801B091090183
:1017A0000B97A105B10508F08DC003C018160CF405
:1017B00062C083EDC82E8CE9D82ED0925904C09215
:1017C000580410925B0410925A0480E590E09093C4
:1017D000550480935404C0E2D0E0D0935704C093E2
:1017E000560485EC91E00E94C1276091060170913A
:1017F000070180910801909109012AE040EB52E035
:101800000E94A92FE12CF12C0CE010E022E330E043
:1018100040E250E06EE670E088E494E00E948A0DB9
:10182000D0925904C092580410925B0410925A044A
:101830008EE690E09093550480935404D09357041F
:10184000C093560480EB92E00E94C12702E010E0B2
:1018500020EA30E043E450E060E070E088E494E0A7
:101860000E948A0DDF91CF911F910F91FF90EF9011
:10187000DF90CF90089560910601709107018091EB
:101880000801909109010E94453220E836E948E1BB
:101890005BE40E94403287FF8CCF2091060130919B
:1018A00007014091080150910901AAE0B0E00E94AF
:1018B0006E30609306017093070180930801909346
:1018C000090177CF609106017091070180910801AD
:1018D000909109012AE030E040E050E00E94093098
:1018E00020930601309307014093080150930901AA
:1018F00060CF0F931F9380911001882339F001E48A
:1019000010E92FEF3FEF4CEC51E006C000EC19E27C
:1019100020EC36E94FEC51E068E280E00E944F2471
:101920001F910F9108950F931F9360E070E088E47A
:1019300094E00E94580FE0910E01F0910F01EE0F1C
:10194000FF1FED5DFE4F4081518108E012E023E76B
:1019500034E167E280E50E944F240E94790C0E94E6
:1019600032268FEF0E94BE0B0E94A4060E94A6079B
:1019700081E00E9446258CE01F910F910C94462532
:10198000DC01ED91FD918081ED91FD919081ED91D2
:10199000FD916C9163708E2309F064609F2309F0C0
:1019A0006860EDEDFCE0E60FF11D659565956D93C2
:1019B0006D917D918D919D91099423C01AC012C0A3
:1019C00016C010C01EC009C014C013C006C019C084
:1019D00009C00DC007C00DC014C0625070408040E7
:1019E00090400BC0615070408040904006C06E5FD8
:1019F00001C06F5F7F4F8F4F9F4F9E938E937E935B
:101A00006E9308951F920F920FB60F9211242F9389
:101A10003F934F935F936F937F938F939F93AF9376
:101A2000BF93EF93FF9380916703909168030E94A7
:101A3000C00CFF91EF91BF91AF919F918F917F91DA
:101A40006F915F914F913F912F910F900FBE0F902B
:101A50001F9018951F920F920FB60F9211242F937B
:101A60003F934F935F936F937F938F939F93AF9326
:101A7000BF93EF93FF9380916503909166030E945B
:101A8000C00CFF91EF91BF91AF919F918F917F918A
:101A90006F915F914F913F912F910F900FBE0F90DB
:101AA0001F901895FC01918D828D981761F0828DA1
:101AB000DF01A80FB11D5D968C91928D9F5F9F7382
:101AC000928F90E008958FEF9FEF0895FC01918D24
:101AD000828D981731F0828DE80FF11D858D90E091
:101AE00008958FEF9FEF0895FC01918D228D892F2E
:101AF00090E0805C9F4F821B91098F739927089516
:101B000080E090E0892B29F00E94F81481110C9458
:101B1000000008958F929F92AF92BF92CF92DF9272
:101B2000EF92FF920F931F93CF93DF93EC016B0122
:101B30005A014901E881F9810284F385E02D099574
:101B4000E881F9810684F785E02D9401A501B601AD
:101B5000CE010995E881F9810688F789E02DCE014B
:101B6000DF91CF911F910F91FF90EF90DF90CF9079
:101B7000BF90AF909F908F900994AF92BF92CF92F9
:101B8000DF92EF92FF920F931F93CF93DF93EC01BD
:101B90007B016A015901E881F9810284F385E02D16
:101BA0000995E881F9810288F389E02D9501A60164
:101BB000B701CE010995E881F9810688F789E02D02
:101BC000CE01DF91CF911F910F91FF90EF90DF90A9
:101BD000CF90BF90AF900994AF92BF92CF92DF9217
:101BE000EF92FF920F931F93CF93DF93EC017B0152
:101BF0006A015901E881F9810284F385E02D099594
:101C0000E881F9810088F189E02D9501A601B701ED
:101C1000CE010995E881F9810688F789E02DCE018A
:101C2000DF91CF911F910F91FF90EF90DF90CF90B8
:101C3000BF90AF900994CF92DF92EF92FF920F93F3
:101C40001F93CF93DF93EC018B017A016901E88147
:101C5000F9810284F385E02D0995E881F9810484F6
:101C6000F585E02D9601A701B801CE010995E8811F
:101C7000F9810688F789E02DCE01DF91CF911F9180
:101C80000F91FF90EF90DF90CF900994EF92FF9229
:101C90000F931F93DC01ED91FC910684F785E02DF5
:101CA000780101E010E009951F910F91FF90EF90EE
:101CB0000895EF92FF920F931F93DC01ED91FC9139
:101CC0000684F785E02D7801890121E030E009954F
:101CD0001F910F91FF90EF900895FC0191A904A42A
:101CE000F5A5E02D8081892B808308950895FC015E
:101CF0006370658B8481958126813781613039F0ED
:101D0000633029F091878087338722870895318750
:101D100020879387828708956F927F928F929F92F8
:101D2000AF92BF92CF92DF92EF92FF920F931F93E9
:101D3000CF93DF93EC014B015A0169013801E8812F
:101D4000F9810284F385E02D0995E881F981028803
:101D5000F389E02D87019601A501B401CE01099513
:101D6000A501460D571D41505109E881F9810288AE
:101D7000F389E02D9601B401CE010995E881F9813E
:101D80000088F189E02D9301A501B401CE010995E8
:101D9000C80CD91CB60161507109E881F98100882D
:101DA000F189E02D9301A501CE010995E881F98122
:101DB0000688F789E02DCE01DF91CF911F910F9119
:101DC000FF90EF90DF90CF90BF90AF909F908F905B
:101DD0007F906F9009948F929F92AF92BF92CF9213
:101DE000DF92EF92FF920F931F93CF93DF934C01FB
:101DF0006B015A01E901DC01ED91FC916217730757
:101E000081F40417150724F48B2D5801042F182F83
:101E10000A191B0998012F5F3F4F048CF58DE02DA7
:101E200012C04017510709F52617370724F48D2DE6
:101E30006901C62FD82F9E012C193D092F5F3F4FF6
:101E4000068CF78DE02D8701A501B601C401099527
:101E5000DF91CF911F910F91FF90EF90DF90CF9086
:101E6000BF90AF909F908F9008950284F385E02DEE
:101E70000995D401ED91FC910488F589E02D9E012E
:101E8000A501B601C4010995D401ED91FC91068824
:101E9000F789E02DC401DF91CF911F910F91FF9041
:101EA000EF90DF90CF90BF90AF909F908F9009946C
:101EB000EF92FF920F931F93DC011A960D911C91E4
:101EC0001B9718962D913C911997ED91FC9100A0CC
:101ED000F1A1E02D7B0140E050E060E070E0099569
:101EE0001F910F91FF90EF9008951F93CF93DF9371
:101EF000EC01411551056105710521F440E054E202
:101F000064EF70E04A8F5B8F6C8F7D8F81E28BABCB
:101F100080E28CAB8E8D87FD07C061E00E94C91501
:101F200061E08E8D0E949A1561E08F8D0E94C91527
:101F300060E08F8D0E949A1589A187FD19C061E02C
:101F40008AA10E94C91560E08AA10E949A1561E0E9
:101F500089A10E94C91561E089A10E949A158BA1EF
:101F600087FD03C060E00E94C91589A187FF33C0C7
:101F70001FB7F8948091EA01811127C0E6E2F8E0EA
:101F80008491E8E0F8E09491E82FF0E0EE0FFF1F75
:101F9000EA52FD4FA591B491EC91E92321F461E05F
:101FA0008AE00E949A1561E08AE00E94C9158CB50A
:101FB00080618CBD8CB580648CBD61E08DE00E9439
:101FC000C91561E08BE00E94C9158091EA018F5F1D
:101FD0008093EA011FBF88A187FD24C061E00E94B1
:101FE000C91561E088A10E949A1564E670E080E05E
:101FF00090E00E94051660E088A10E949A1564E6B0
:1020000070E080E090E00E94051661E088A10E94E7
:102010009A1568EC70E080E090E0DF91CF911F911D
:102020000C940516DF91CF911F910895FC0181A1B9
:1020300087FF1EC0428D538D648D758D80E092E1C7
:10204000AAE7B0E020E0481759076A077B0740F489
:10205000B695A795979587952F5F2630A1F727E02E
:1020600091E09227892F806A869591708CBD9DBDE5
:1020700081A904A4F5A5E02D908180958923808312
:102080000895AF92BF92CF92EF92FF920F931F935A
:10209000CF93DF93EC01262F888D998D009709F05F
:1020A00040C06A3059F41D861C862C898E859F8518
:1020B00038E0239F800D911D112441C06D3009F43B
:1020C000AAC08E898823C1F03C898C859D8546E015
:1020D000349F800D911D1124488559854817590753
:1020E0005CF41D861C868E859F8548E0349F800D9C
:1020F000911D11249F878E87EA88FB88088919899A
:102100004E855F856C857D85CC88CE010E942A2016
:102110002C898C859D8536E0239F800D911D11248F
:1021200042C06A3079F41D861C862C89FC013696E3
:10213000E4918E859F852E9F800D911D11249F8790
:102140008E8769C06D3009F466C0FC013496349105
:10215000631708F460C03196E491E61708F45BC099
:10216000FC01329665917491422F50E0431B510956
:1021700037E0349F5001359FB00C1124A60EB71ED6
:10218000F501329634913196E491332311F0E11147
:102190000DC0F5013496E4912C898C859D85E29FD4
:1021A000800D911D11249D878C8735C0F5013596D2
:1021B00044915E89552311F16C89E32FF0E0E40F1F
:1021C000F11D47FDFA956E9FD0016F9FB00D112450
:1021D0004C855D854A0F5B1FE885F985E417F50797
:1021E0006CF41D861C86FC013696E4918E859F85D5
:1021F0006E9F800D911D11249F878E87EA88FB8832
:10220000088919894E855F856C857D85CC88CE01CE
:102210000E942A20BECF81E090E0DF91CF911F91F4
:102220000F91FF90EF90CF90BF90AF900895FC0179
:10223000848DDF01A80FB11DA35ABF4F2C91848D4F
:1022400090E001968F739927848FA689B7892C9384
:10225000A089B1898C91837080648C93938D848DD7
:10226000981306C00288F389E02D80818F7D8083DA
:102270000895FC0181A187FF05C06EBD0DB407FE66
:10228000FDCF089588E090E020E8A4A1B5A1362F05
:10229000322321F046A53C91342B04C036A54C9145
:1022A000309534233C9330A9A0A5B1A54C9130952D
:1022B00034233C9340A9A0A5B1A53C91342B3C9379
:1022C0002695019711F708954F925F926F927F9232
:1022D0008F929F92AF92BF92CF92DF92EF92FF9236
:1022E0000F931F93CF93DF93EC016B0159014801CA
:1022F00028853985621773070CF067C08A859B852E
:10230000481759070CF061C08B010A0D1B1DF8011D
:102310003197DA01A80DB91DBD0161507109F7FDB2
:1023200054C077FD52C0D7FE03C05801C12CD12C38
:1023300057FF03C04D0140E050E0E217F3071CF0E7
:102340005901AC18BD08681779071CF04C01841AB4
:10235000950A9501D4010E9450303B01582E492E18
:10236000E881F98102A4F3A5E02D8401B601CE0134
:1023700009954301A52CB42C89A187FF13C08114B2
:102380009104A104B10409F1FEBC0DB407FEFDCF18
:10239000EEBC0DB407FEFDCF81E0881A9108A108BC
:1023A000B108EDCF81149104A104B10471F06F2D37
:1023B000CE010E9439116E2DCE010E94391181E0AB
:1023C000881A9108A108B108EDCFDF91CF911F9134
:1023D0000F91FF90EF90DF90CF90BF90AF909F90C4
:1023E0008F907F906F905F904F900895EF92FF9243
:1023F0000F931F93CF93DF93EC0177FD33C0888554
:1024000099856817790774F557FD2CC08A859B85D7
:10241000481759073CF5E32EF22EE881F98102A412
:10242000F3A5E02D01E010E021E030E0CE010995B8
:1024300089A187FF09C0EEBC0DB407FEFDCFFEBC2D
:102440000DB407FEFDCF0EC06E2DCE010E943911D6
:102450006F2DCE01DF91CF911F910F91FF90EF90E3
:102460000C943911DF91CF911F910F91FF90EF9054
:102470000895CF93DF93EC018AA9EAA5FBA590818B
:10248000809589238083CE010E9439119AA9EAA5FB
:10249000FBA58081892B8083DF91CF9108951F93C5
:1024A000CF93DF93EC0163706D8B29AD8AAD30E083
:1024B000623091F06330B9F0613039F03EAB2DAB52
:1024C00090E098AF8FAB10EC14C038AF2FAB90E01A
:1024D0009EAB8DAB10EA0DC03EAB2DAB90E098AF3C
:1024E0008FAB10E006C038AF2FAB90E09EAB8DAB4A
:1024F00010E6E881F9810284F385E02DCE0109958B
:1025000066E3CE010E943912612FCE010E9439117B
:10251000E881F9810688F789E02DCE01DF91CF911E
:102520001F9109948F929F92AF92BF92CF92DF92A8
:10253000EF92FF920F931F93CF93DF93EC018DA93E
:102540009EA94B01880E991E8FA998AD480F591F5F
:10255000C9010197880D991DA0E0B0E0A12CB12C14
:10256000540199248824882A992AAA2ABB2A680116
:1025700081E0C81AD108C40ED51EC601A0E0B0E0A3
:102580006A01E12CF12C7601DD24CC24C82AD92A59
:10259000EA2AFB2A6AE2CE010E94391229A16B2D98
:1025A00077278827992727FF18C06EBD0DB407FE2F
:1025B000FDCFC501AA27BB278EBD0DB407FEFDCFF9
:1025C000BB27AB2D9A2D892D8EBD0DB407FEFDCFF7
:1025D0008EBC0DB407FEFDCF14C0CE010E94391190
:1025E000B50188279927CE010E94391199278B2D93
:1025F0007A2D692DCE010E943911682DCE010E94DD
:1026000039116BE2CE010E94391229A16F2D772773
:102610008827992727FF18C06EBD0DB407FEFDCF90
:10262000C701AA27BB278EBD0DB407FEFDCFBB2770
:10263000AF2D9E2D8D2D8EBD0DB407FEFDCFCEBCD2
:102640000DB407FEFDCF14C0CE010E943911B701B1
:1026500088279927CE010E94391199278F2D7E2D29
:102660006D2DCE010E9439116C2DCE010E943911C1
:102670006CE2CE01DF91CF911F910F91FF90EF900F
:10268000DF90CF90BF90AF909F908F900C943912B5
:102690001F93CF93DF93EC0163706D8B8BAD623032
:1026A00009F443C0633009F461C099AD4AAD6130AB
:1026B000F1F0823069F0843009F091C020EA30E016
:1026C0003B872A8720E530E03987288710EC09C04E
:1026D00010EC20EA30E03B872A8720E830E0398799
:1026E0002887892F90E09EAB8DAB842F3BC0823032
:1026F00069F0843009F07FC020EA30E0398728870C
:1027000020E530E03B872A8710EA09C010EA20EA7A
:1027100030E03987288720E830E03B872A87892FF7
:1027200090E098AF8FAB842F3EC0823069F0843048
:1027300009F06DC080EA90E09B878A8780E590E091
:102740009987888710E009C010E080EA90E09B87B5
:102750008A8780E890E09987888789AD90E09EAB72
:102760008DAB8AAD90E098AF8FAB20C0823069F01E
:10277000843009F058C080EA90E09987888780E526
:1027800090E09B878A8710E609C010E680EA90E017
:102790009987888780E890E09B878A8789AD90E059
:1027A00098AF8FAB8AAD90E09EAB8DABE881F9819D
:1027B0000284F385E02DCE01099566E3CE010E94E7
:1027C0003912612FCE010E943911E881F981068802
:1027D000F789E02DCE01DF91CF911F9109948130CF
:1027E00041F420E830E03B872A873987288718ECB6
:1027F00078CF18EC6ECF813041F420E830E0398793
:1028000028873B872A8718EA8ACF18EA80CF813049
:1028100041F480E890E09B878A879987888718E051
:102820009CCF18E092CF813041F480E890E0998706
:1028300088879B878A8718E6B1CF18E6A7CF1F93B2
:10284000CF93DF93EC01162FE881F9810284F385A1
:10285000E02D0995112311F06BA901C06CA9CE01DF
:102860000E943912E881F9810688F789E02DCE01AE
:10287000DF91CF911F9109943FB7F8948091F801AF
:102880009091F901A091FA01B091FB0126B5A89BA6
:1028900005C02F3F19F00196A11DB11D3FBFBA2FF2
:1028A000A92F982F8827820F911DA11DB11DBC0152
:1028B000CD0142E0660F771F881F991F4A95D1F717
:1028C0000895CF92DF92EF92FF920F931F93CF93D1
:1028D000DF936C017A018B01C0E0D0E0CE15DF05FB
:1028E00081F0D8016D918D01D601ED91FC9101909F
:1028F000F081E02DC6010995892B11F02196EECFCC
:102900007E01C701DF91CF911F910F91FF90EF9052
:10291000DF90CF900895FC01538D448D252F30E03A
:10292000842F90E0821B930B541710F0CF960895DC
:1029300001970895CF92DF92EF92FF920F931F932A
:10294000CF93DF937C01CB018A0120918C0222235B
:1029500089F0EB016B01C40ED51ECC15DD0569F0C5
:102960006991D701ED91FC910190F081E02DC701B3
:102970000995F3CF642F0E947223C801DF91CF9194
:102980001F910F91FF90EF90DF90CF900895CF931C
:10299000DF931F92CDB7DEB7698320918C0222238B
:1029A000D1F02091AF02203240F021E030E0FC0174
:1029B0003383228380E090E015C080918D02E82F60
:1029C000F0E0E257FD4F998190838F5F80938D02F5
:1029D0008093AF0205C061E0CE0101960E94722390
:1029E00081E090E00F90DF91CF9108950E94C7336E
:1029F00088EC92E00E94740D21E0892B09F420E01C
:102A0000822F0895EF92FF920F931F93CF93DF933E
:102A1000EC0181E0888F9B8D8C8D981305C0E8892F
:102A2000F989808185FD26C0F62E0B8D10E00F5FA1
:102A30001F4F0F731127E02E8C8DE8120CC00FB6BC
:102A400007FCFACFE889F989808185FFF5CFCE01AF
:102A50000E941711F1CF8B8DFE01E80FF11DE35A93
:102A6000FF4FF0829FB7F8940B8FEA89FB89808132
:102A700080620AC09FB7F894EE89FF896083E88975
:102A8000F98980818370806480839FBF81E090E0BA
:102A9000DF91CF911F910F91FF90EF900895CF9309
:102AA000DF93EC01888D8823C9F0EA89FB89808156
:102AB00085FD05C0A889B9898C9186FD0FC00FB628
:102AC00007FCF5CF808185FFF2CFA889B9898C9169
:102AD00085FFEDCFCE010E941711E7CFDF91CF9197
:102AE0000895833081F028F4813099F08230A1F08C
:102AF00008958730A9F08830B9F08430D1F48091FE
:102B000080008F7D03C0809180008F77809380004C
:102B1000089584B58F7702C084B58F7D84BD0895F4
:102B20008091B0008F7703C08091B0008F7D80933B
:102B3000B00008951F93CF93DF93282F30E0F90161
:102B4000E052FD4F8491F901E250F84FD491F90120
:102B5000E45EF74FC491CC23C1F0162F81110E947F
:102B60007115EC2FF0E0EE0FFF1FEE5EF74FA59111
:102B7000B4919FB7F894111104C08C91D095D823CB
:102B800002C0EC91DE2BDC939FBFDF91CF911F91B0
:102B90000895CF93DF9390E0FC01E250F84F249129
:102BA000FC01E45EF74F8491882361F190E0880F87
:102BB000991FFC01EA52FD4FC591D491FC01EE5ED4
:102BC000F74FA591B491611109C09FB7F89488811E
:102BD000209582238883EC912E230BC0623061F410
:102BE0009FB7F8948881322F309583238883EC91A6
:102BF0002E2B2C939FBF06C08FB7F894E8812E2B05
:102C000028838FBFDF91CF9108958F929F92AF92CB
:102C1000BF92CF92DF92EF92FF926B017C010E94F4
:102C20003C144B015C01C114D104E104F104F1F046
:102C30000E943C14DC01CB0188199909AA09BB093F
:102C4000883E9340A105B10570F321E0C21AD10876
:102C5000E108F10888EE880E83E0981EA11CB11CE3
:102C6000C114D104E104F10419F7DDCFFF90EF9016
:102C7000DF90CF90BF90AF909F908F9008951F925C
:102C80000F920FB60F9211242F933F938F939F9320
:102C9000AF93BF938091EF019091F001A091F1016A
:102CA000B091F2013091F70123E0230F2D3720F48A
:102CB0000196A11DB11D05C026E8230F0296A11D96
:102CC000B11D2093F7018093EF019093F001A09341
:102CD000F101B093F2018091F8019091F901A09176
:102CE000FA01B091FB010196A11DB11D8093F8017D
:102CF0009093F901A093FA01B093FB01BF91AF91BA
:102D00009F918F913F912F910F900FBE0F901F9029
:102D100018951F920F920FB60F9211242F933F9385
:102D20004F935F936F937F938F939F93AF93BF93D3
:102D3000EF93FF9388EC92E00E941711FF91EF91BF
:102D4000BF91AF919F918F917F916F915F914F91C3
:102D50003F912F910F900FBE0F901F9018951F92CB
:102D60000F920FB60F9211242F938F939F93EF938F
:102D7000FF93E091D802F091D9028081E091DE02C8
:102D8000F091DF0282FD12C090818091E1028F5F9D
:102D90008F732091E202821751F0E091E102F0E09E
:102DA000E853FD4F958F8093E10201C08081FF9130
:102DB000EF919F918F912F910F900FBE0F901F90C9
:102DC00018952F923F924F925F926F927F928F92BF
:102DD0009F92AF92BF92CF92DF92EF92FF920F93AA
:102DE0001F93CF93DF93CDB7DEB7A4970FB6F894B8
:102DF000DEBF0FBECDBF380149014C8F5E872B016E
:102E0000FF8AEE8A892B29F4E0911E04F0911F04B9
:102E100004C0E0912004F0912104FF27EE0FFF1F72
:102E2000EE0FFF1FEE5DFB4F608171818281938108
:102E300024E630E040E050E00E94D230322E232ED3
:102E40004D835E836F83788789879A8786017501B2
:102E5000110FEE08FE2C87019501A6016E2D7E2D27
:102E60008E2D9E2D0FE10E94D431A12CEAECBE2EB6
:102E7000FAE9CF2EABE3DA2EE12CF12C00E010E0E2
:102E80000E94FF30A32CB22CCD80DE80EF80F8842E
:102E900009851A850E9479300FE10E94EF315901AE
:102EA0006A01D601C501BB0F880B982FDC0189830D
:102EB0009A83AB83BC839501A6016981762F862F07
:102EC000962FA32CB22CCD80DE80EF80F88409856C
:102ED0001A850E940B32322E232E49835D836E8326
:102EE0007F83888799879301A4016C8D7E85C201B9
:102EF0002F3FA7E53A07A7E44A07A8EF5A07ADE036
:102F00006A07710581059105A9F0A0F021153440EB
:102F10004B46544F6441710581059105B9F0B0F0FD
:102F2000612C04E0702E8BE6882E94EF992EF4E14C
:102F3000FC8F09C0612C28E5722E37E4832E48EF00
:102F4000942EEDE0EC8F1E86412C512CA32CB22C3C
:102F5000C980DD80EE80FF80088519859301A4017A
:102F60006C8D7E85C2010E943031288F398F4A8F47
:102F70005B8F2A873B874C875D878A859B85AC85DD
:102F8000BD850F97A105B10518F41FE0A12E0BC058
:102F90008A859B85AC85BD858B359105A105B105DD
:102FA000C0F0BAE5AB2EB12CC12CD12CE12CF12C08
:102FB00000E010E0232D322D49815D816E817F81FB
:102FC000888599850E94793039014A016C8F7E8706
:102FD0002C01A32CB22CC980DD80EE80FF800885F7
:102FE00019859301A4016C8D7E85C2010E942E314A
:102FF000E0E4AE2EF2E4BF2EAFE0CA2ED12CE12CDD
:10300000F12C00E010E00E947930A32CB22CC98092
:10301000DD80EE80FF80088519850E943031C9016E
:10302000DA010097A105B10529F4412C512C320198
:10303000439407C060E4462E62E4562E6FE0662E8D
:10304000712C5C016D0187E0AA0CBB1CCC1CDD1C43
:103050008A95D1F7AC8EBD8ECE8EDF8EA32CB22C8E
:10306000C980DD80EE80FF800885198560E070E012
:1030700080E090E00E94793063015201E12CF12C54
:1030800087014E86BF86C88AD98AEA8AFB8A0C8B5A
:103090001D8BE12CF12C00E010E00E9430312E87D6
:1030A00038A349A35AA34B018CA39BA3CA84DB84F6
:1030B000EC84FD8497E0CC0CDD1CEE1CFF1C9A9583
:1030C000D1F702E0D01AE108F1086C8D7D8D8E8D6C
:1030D0009F8DA30192010E94093089019A010C0D74
:1030E0001D1D2E1D3F1DAE89BF890D931D932D9370
:1030F0003C931397FD0164837583868397831896A9
:103100004D925D926D927C921B97A32CB22CC9803C
:10311000DD80EE80FF8008851985288D398D4A8DE8
:103120005B8D60E070E080E090E00E947930AE84DA
:10313000B8A0C9A0DAA074010CA11BA10E940B3297
:10314000A4960FB6F894DEBF0FBECDBFDF91CF912E
:103150001F910F91FF90EF90DF90CF90BF90AF90B5
:103160009F908F907F906F905F904F903F902F90A7
:10317000089585ED8093BC008091BC0084FDFCCF58
:1031800010928B020895089508950895E0914402E5
:1031900080914302E81730F4F0E0EB5BFD4F808153
:1031A00090E008958FEF9FEF0895909144028091F1
:1031B0004302981750F4E92FF0E0EB5BFD4F2081BC
:1031C00030E09F5F9093440202C02FEF3FEFC901B0
:1031D00008958091430290E020914402821B91095E
:1031E0000895FF920F931F93CF93DF938C01C62F07
:1031F000F42E8830910528F4FC01E35DFE4FD08168
:1032000001C0D0E08D2F0E9459270630110544F4EB
:103210008378F1108C6090E1C99FB00111240EC039
:103220000630110519F4887F8C2B09C00730110571
:1032300031F490E1C99FB00111248F78862B682F5B
:103240008D2FDF91CF911F910F91FF900C943E270E
:10325000CF93DF93D62FC0E1C80F8C2F0E94592740
:10326000682FD13011F4606401C06F7B8C2FDF9127
:10327000CF910C943E27EF92FF920F931F93CF9321
:10328000DF93062F7A019091330421E020938C0282
:103290009093AE0210928D021092AF02682F8CEBC9
:1032A00092E00E94C714E70110E0CE018E199F0939
:1032B0008017910734F469918CEB92E00E94C71457
:1032C000F4CF81E0DF91CF911F910F91FF90EF90AC
:1032D0000C94E2262F923F924F925F926F927F92D0
:1032E0008F929F92AF92BF92CF92DF92EF92FF9216
:1032F0000F931F93CF93DF93CDB7DEB72D970FB604
:10330000F894DEBF0FBECDBF3C01C982DA82EB82EA
:10331000FC820D831E832F83388749875A876B87EA
:103320007C87BAA09C2C2D2C4E2C302E1D87522E23
:10333000C984DA84EB84FC8484E190E00E94A632A4
:103340008C01C301992706973CF5F801D082C18210
:10335000862D880F880F880F845D0E945927942D31
:1033600093708C7F892BF801828323829482D7010A
:10337000C6012CE0B695A795979587952A95D1F724
:10338000807F952D9F70C92EC80EC5828D8586833E
:10339000932C378268E001C060E0E8E06E167104AB
:1033A00008F06CC0F301EC5CFF4F0C944A30A801AC
:1033B0008AE20E943B196A2D80E090E00E94281961
:1033C0004B2D682D80E090E057C0A80182E30E9459
:1033D0003B196A2D81E090E00E9428194B2D682D41
:1033E00081E090E049C0A8018AE30E943B196A2D60
:1033F00082E090E00E9428194B2D682D82E090E039
:103400003BC0A80182E40E943B196A2D83E090E052
:103410000E9428194B2D682D83E090E02DC0A80153
:103420008AE40E943B196A2D84E090E00E942819EA
:103430004B2D682D84E090E01FC0A80182E50E941A
:103440003B196A2D85E090E00E9428194B2D682DCC
:1034500085E090E011C0692D8AE50E943E274B2D42
:10346000682D86E090E008C0692D8BE50E943E271C
:103470004B2D682D87E090E00E94F118C8012D9631
:103480000FB6F894DEBF0FBECDBFDF91CF911F9175
:103490000F91FF90EF90DF90CF90BF90AF909F90F3
:1034A0008F907F906F905F904F903F902F900C94F3
:1034B0003E332F923F924F925F926F927F928F9204
:1034C0009F92AF92BF92CF92DF92EF92FF920F93B3
:1034D0001F93CF93DF93CDB7DEB72E970FB6F89437
:1034E000DEBF0FBECDBF19013A014B018D879E870C
:1034F0002801012BC9F4E0911E04F0911F04EE0F86
:10350000FF1FEE0FFF1FE65DFB4FA080B180C28062
:10351000D380CE0101967C0189019301AB016D85B9
:103520007E8580E090E018C0E0912004F0912104B5
:10353000EE0FFF1FEE0FFF1FE65DFB4FA080B18077
:10354000C280D380FE0131967F0181019A01AB01D7
:103550006D857E8581E090E00E94E11684E190E037
:103560000E94A6328C0189859A85AB85BC85F801BD
:103570009083818339814A812B8123702283438305
:1035800034832CE0B695A795979587952A95D1F722
:10359000807F2D813E819F819F70890F8583368337
:1035A000278341145104C1F4A80168E08AE10E9414
:1035B0003B1920920E0430920F0460921004709216
:1035C00011048092120490921304FD85F093140468
:1035D0008E85809315041AC04A944528B9F4A80131
:1035E00068E082E20E943B19209216043092170490
:1035F000609218047092190480921A0490921B042D
:10360000ED85E0931C04FE85F0931D04C8012E9601
:103610000FB6F894DEBF0FBECDBFDF91CF911F91E3
:103620000F91FF90EF90DF90CF90BF90AF909F9061
:103630008F907F906F905F904F903F902F900C9461
:103640003E33DF92EF92FF920F931F93CF93DF935E
:10365000FC01E080F18002811381D481C581B681B3
:10366000D7809701A8016D2F7C2F8B2F9D2D285976
:1036700038424C4151096109710981099109273981
:1036800038424C415105610571058105910509F0EC
:1036900098F49701A8016D2F7C2F8B2F9D2D07E0AB
:1036A0000E94D431208331834283538364837583A2
:1036B0008683978387E001C19701A8016D2F7C2F36
:1036C0008B2F9D2D205331454843510961097109C4
:1036D000810991092F323145484351056105710532
:1036E0008105910509F098F49701A8016D2F7C2FB1
:1036F0008B2F9D2D06E00E94D4312083318342839D
:103700005383648375838683978386E0D6C097014D
:10371000A8016D2F7C2F8B2F9D2D2056324A4047BC
:10372000510961097109810991092F35324A4047D0
:103730005105610571058105910509F098F497011E
:10374000A8016D2F7C2F8B2F9D2D05E00E94D43179
:103750002083318342835383648375838683978375
:1037600085E0ABC09701A8016D2F7C2F8B2F9D2D7D
:10377000205C3444414E5109610971098109910964
:103780002F3B3444414E510561057105810591057A
:1037900009F098F49701A8016D2F7C2F8B2F9D2D98
:1037A00004E00E94D43120833183428353836483B5
:1037B00075838683978384E080C09701A8016D2F6D
:1037C0007C2F8B2F9D2D20583948424C5140610948
:1037D0007109810991092F373948424C51406105DF
:1037E00071058105910509F098F49701A8016D2FE5
:1037F0007C2F8B2F9D2D03E00E94D43120833183B9
:1038000042835383648375838683978383E055C0A3
:103810009701A8016D2F7C2F8B2F9D2D335145488B
:10382000534061097109810991092F3F324145488F
:103830005340610571058105910509F098F49701E0
:10384000A8016D2F7C2F8B2F9D2D02E00E94D4317B
:103850002083318342835383648375838683978374
:1038600082E02BC09701A8016D2F7C2F8B2F9D2DFF
:1038700036524A40574061097109810991092F3F29
:1038800035424A405740610571058105910509F0AF
:1038900098F49701A8016D2F7C2F8B2F9D2D01E0AF
:1038A0000E94D431208331834283538364837583A0
:1038B0008683978381E001C080E0DF91CF911F91E3
:1038C0000F91FF90EF90DF9008952F923F924F92CB
:1038D0005F926F927F928F929F92AF92BF92CF92A0
:1038E000DF92EF92FF920F931F93CF93DF93CDB7A9
:1038F000DEB768970FB6F894DEBF0FBECDBF2901C3
:1039000049875A873B011C01A982B98ACA8ADB8A86
:10391000EC8AFD8A0E8B1F8B988A8F86211501EC0D
:1039200030070AE140070DE3500705E06007710525
:103930008105910509F0C8F42F3710EF31071AEF10
:10394000410712E05107610571058105910509F0F4
:1039500008F43BC12F3F354D41415E47634071053F
:103960008105910509F068F40AC1412CF1EC5F2E44
:10397000FAE1F9870DE30A87A5E06A2E712C212C64
:10398000312C298139894A895B896C897D898E89A5
:103990009F89A0E00E94203209F077C09924939477
:1039A00014E0E12EF12C00E010E0EB86FC860D87A0
:1039B0001E87EB84FC840D851E85A801970160E0BD
:1039C00070E0CB015201C984DA847301810129833B
:1039D0003A834B835C836D837E838F83988760E01B
:1039E00070E080E090E00E9479302983398B4A8B27
:1039F0005B8B6C8B7D8B8E8B9F8BFF24F3949F1442
:103A000009F409C110E0812C912C5401839440E009
:103A100050E0BA0101C011E0CB01BA01B7E0660F76
:103A2000771F881F991FBA95D1F7CB84DC84ED846A
:103A3000FE8407E0CC0CDD1CEE1CFF1C0A95D1F7C0
:103A4000A2E0DA1AE108F108A50194010E94093008
:103A5000C20ED31EE41EF51EEF85F889C082D18206
:103A6000E282F3826483758386839783808691865E
:103A7000A286B386111103C1298139894A895B89DC
:103A80006C897D898E899F890EC111E0188F520142
:103A9000C984DA8473018101298139894A895B8962
:103AA0006C897D898E899F890E9430312B873C8764
:103AB0004D875E878B859C85AD85BE850697A10564
:103AC000B10520F406E0A02EB12C0FC0EB84FC84DD
:103AD0000D851E8529E0E21627E0F2060105110595
:103AE000C8F0B8E0AB2E17E0B12EC12CD12CE12CE0
:103AF000F12C00E010E0298139894A895B896C89C1
:103B00007D898E899F890E943031290149875A8792
:103B10003B011C015201C984DA84730181012981AE
:103B200039894A895B896C897D898E899F890E9440
:103B30002E31E0E4AE2EF2E4BF2EAFE0CA2ED12C3F
:103B4000E12CF12C00E010E00E9479305201C98490
:103B5000DA84730181010E943031A32FF42FE52F05
:103B6000422F5A2F6F2F7E2F411551056105710588
:103B700009F068C0812C912C540183946AC029817A
:103B800039894A895B896C897D898E899F89A0E002
:103B90000E942032F1F55201C984DA847301810157
:103BA00020E034E04BE654EF64E170E080E090E028
:103BB0000E943031122FB32FF42FE52FA7E00E947F
:103BC000203201F516E0B0E01BC0298139894A890D
:103BD0005B896C897D898E899F89A0E00E94203253
:103BE00009F053C020E8422E30EF532EBAEFB987C8
:103BF000E2E0EA87612C712C212C312C18E0B7E02F
:103C0000F0E0E0E0CF011B87BC879D87EE87912C19
:103C1000D0CE188E3CCFAF85B8891D921D921D92D3
:103C20001C921397FD011482158216821782C12CF3
:103C3000D12C7601C3941896CD92DD92ED92FC9230
:103C40001B9731C020E4822E22E4922E2FE0A22E78
:103C5000B12CF88DF13009F0DECEEF85F8891082B5
:103C6000118212821382148215821682178281E0D9
:103C700090E0A0E0B0E080879187A287B3879201AF
:103C800049855A85B301C1010EC0188E80E8482EBF
:103C900090EF592E0AEF098712E01A87612C712CD8
:103CA000212C312CF4CE68960FB6F894DEBF0FBEEF
:103CB000CDBFDF91CF911F910F91FF90EF90DF90DB
:103CC000CF90BF90AF909F908F907F906F905F90BC
:103CD0004F903F902F900895DF92EF92FF920F93B5
:103CE0001F93CF93DF93FC01E080F1800281138169
:103CF000D481C581B681D7809701A8016D2F7C2F13
:103D00008B2F9D2D20583A41464051096109710978
:103D1000810991092F373A414640510561057105E6
:103D20008105910509F098F49701A8016D2F7C2F6A
:103D30008B2F9D2D07E00E94D43120833183428355
:103D40005383648375838683978387E0FDC09701DF
:103D5000A8016D2F7C2F8B2F9D2D35534C40510981
:103D600061097109810991092F3F34434C40510584
:103D7000610571058105910509F098F49701A80185
:103D80006D2F7C2F8B2F9D2D06E00E94D431208338
:103D9000318342835383648375838683978386E06C
:103DA000D3C09701A8016D2F7C2F8B2F9D2D3A56E4
:103DB0004841510961097109810991092F3F39462B
:103DC00048415105610571058105910509F098F497
:103DD0009701A8016D2F7C2F8B2F9D2D05E00E9450
:103DE000D4312083318342835383648375838683F4
:103DF000978385E0A9C09701A8016D2F7C2F8B2F99
:103E00009D2D345D40435109610971098109910972
:103E10002F3F334D404351056105710581059105E3
:103E200009F098F49701A8016D2F7C2F8B2F9D2D01
:103E300004E00E94D431208331834283538364831E
:103E400075838683978384E07FC09701A8016D2FD7
:103E50007C2F8B2F9D2D385A4146510961097109DC
:103E6000810991092F3F374A414651056105710586
:103E70008105910509F098F49701A8016D2F7C2F19
:103E80008B2F9D2D03E00E94D43120833183428308
:103E90005383648375838683978383E055C097013A
:103EA000A8016D2F7C2F8B2F9D2D3055434C510930
:103EB00061097109810991092F3F3F44434C510524
:103EC000610571058105910509F098F49701A80134
:103ED0006D2F7C2F8B2F9D2D02E00E94D4312083EB
:103EE000318342835383648375838683978382E01F
:103EF0002BC09701A8016D2F7C2F8B2F9D2D305A41
:103F00004648514061097109810991092F3F3F4994
:103F100046485140610571058105910509F098F405
:103F20009701A8016D2F7C2F8B2F9D2D01E00E9402
:103F3000D4312083318342835383648375838683A2
:103F4000978381E001C080E0DF91CF911F910F91B5
:103F5000FF90EF90DF900895FF920F931F93CF9300
:103F6000DF93EC018B01F82E80E1F80E8F2D0E947B
:103F700059270115110511F48F7D04C00130110579
:103F800009F48062682F8F2D0E943E27DD27CC0F19
:103F9000DD1FCB54DC4F1A870987DF91CF911F912A
:103FA0000F91FF900895CF92DF92EF92FF920F93BF
:103FB0001F93CF93DF93EC012196FC01F490FF2037
:103FC00009F43FC088E494E00E941610FE01649159
:103FD00088E494E00E9439126E01F2E0CF0ED11C09
:103FE000FE013196C4918C2F8078E82ECF77860120
:103FF000DC2FD15048F0F801649188E494E00E94ED
:1040000039110F5F1F4FF5CFC6018C0F911DEC01C9
:1040100088E494E00E946D0EE11002C0FA94CFCFC4
:104020008E010F5F1F4FFE01649170E06F3F7105BD
:1040300011F464EF71E080E090E00E940516E80161
:10404000EDCFDF91CF911F910F91FF90EF90DF9017
:10405000CF9008952F923F924F925F926F927F92EE
:104060008F929F92AF92BF92CF92DF92EF92FF9288
:104070000F931F93CF93DF93CDB7DEB76B970FB638
:10408000F894DEBF0FBECDBF9B8F8A8F5B011A01F4
:10409000D22E1F830E833701C982DC0158962D91E1
:1040A0003C9159972115310509F0E6C018968D917C
:1040B0009C911997681779070CF0CDC11A968D91CC
:1040C0009C911B97481759070CF0C5C18C2C912C5B
:1040D000FB0126E0C29EE00DF11D1124FB87EA875B
:1040E0001E161F060CF0B7C1A40183E0440F551F34
:1040F0008A95E1F75D874C87CA01820D931D1816DA
:1041000019060CF0A8C157968C91811104C05FEA82
:104110005D1508F4D394AA8DBB8DED91FC91119798
:104120000284F385E02DCD010995B5E0DB9EC00149
:104130001124F5013596FF87EE87BB82AA822501FF
:104140009C012A193B09398B288BA101485F5F4FDD
:104150005B8B4A8BE889F989E40DF51DEC50FD4F26
:104160005491588761013D822C82888580FF13C05D
:10417000AA8DBB8DED91FC91B981B13031F40484ED
:10418000F585E02D2E813F8116C00684F785E02D50
:10419000EE80FF801AC0EE81FF81E615F705F1F091
:1041A000AA8DBB8DED91FC91B981B13051F404849D
:1041B000F585E02D9301A601B2018A8D9B8D0995AD
:1041C0000DC00684F785E02D7301840194014C81B4
:1041D0005D816A817B818A8D9B8D0995E885E69555
:1041E000E887FFEFCF1ADF0A2C813D81280D391DAA
:1041F0003D832C834A895B89C416D50609F0B5CF67
:104200005FEF451A550A8A819B81880D991D9B8312
:104210008A83AE85BF854A165B0609F09BCFEE8187
:10422000FF81E615F70509F4F4C0EA8DFB8DA08146
:10423000B181F981F13079F4B5016B5F7F4F509610
:10424000ED91FC915197830128E030E0A1018A8D26
:104250009B8D0995DEC06A857B85681979091E9654
:10426000ED91FC911F9773010C851D859401A101AF
:104270008A8D9B8D0995CDC0F9013496E491DE1AA3
:10428000F901329685919491B7E0DB9E800D911DE6
:104290001124F901259134913B8B2A8BFC01259146
:1042A00034912901FC013296C490319634913E87B5
:1042B000329614913196D4904981423058F0612E53
:1042C000012E000C77088D2D0D2C000C990B998771
:1042D000888704C019861886612C712CAA8DBB8D25
:1042E000ED91FC9111970284F385E02DCD010995A4
:1042F000B9818B2E912C689CC001699C900D789C93
:10430000900D1124FC01EA0DFB1DFD87EC871A823C
:10431000712C612CE12F110FFF0B95012E0F3F1F08
:104320003B872A87AC0CB11CA5014E0F5F1F5F8B2A
:104330004E8BC1018D0D911DD7FC9A95998F888F59
:104340009E85691608F065C0862D90E048855985E0
:10435000480F591F489D9001499D300D589D300DC3
:104360001124D101A20FB31FB98BA88BEC85FD8559
:10437000FD83EC83AA84BB84DA80FA85DF1A288D5A
:10438000398D280F391F3D8B2C8B8D2D8A0D4E8931
:104390005F89A416B506C1F1877041F4C201019688
:1043A000EA89FB89E40DF51D74902C0177FE21C08C
:1043B000AA8DBB8DED91FC91B981B13061F404847B
:1043C000F585E02D2E813F814C895D89B5018A8D6F
:1043D0009B8D09950EC00684F785E02DEE80FF8049
:1043E00084019401488959896C817D818A8D9B8DD6
:1043F0000995770CEFEFAE1ABE0A2C813D81280D8E
:10440000391D3D832C83C1CF3A813C0D3A8363949F
:1044100097CFAA8DBB8DED91FC9111970688F789F6
:10442000E02DCD016B960FB6F894DEBF0FBECDBF69
:10443000DF91CF911F910F91FF90EF90DF90CF9080
:10444000BF90AF909F908F907F906F905F904F90B4
:104450003F902F9009946B960FB6F894DEBF0FBE75
:10446000CDBFDF91CF911F910F91FF90EF90DF9023
:10447000CF90BF90AF909F908F907F906F905F9004
:104480004F903F902F9008951F920F920FB60F926A
:1044900011242F933F934F935F936F937F938F9349
:1044A0009F93AF93BF93EF93FF938091B900887F61
:1044B000803609F49CC068F5883209F45BC090F43A
:1044C000803109F454C038F4882309F4F6C08830E8
:1044D00009F44DC0F6C0883109F44CC0803209F4AB
:1044E0005DC0EFC0803409F468C048F4803309F43B
:1044F00055C0883309F0E5C080938902D8C0803563
:1045000009F44FC0883509F45DC0883409F0D9C07A
:10451000D6C0883909F4C7C0A8F4883709F467C041
:1045200038F4883609F463C0803709F460C0C9C024
:10453000883809F4B8C0803909F45FC0803809F0C0
:10454000C0C05BC0803B09F486C038F4803A09F4EF
:1045500066C0883A09F47FC0B4C0803C09F4A7C0A3
:10456000883C09F4A4C0883B09F48AC0AAC08091A1
:10457000660210C09091880280918702981770F5AA
:10458000E091880281E08E0F80938802F0E0E95983
:10459000FD4F80818093BB0085EC86C080938902AB
:1045A0008EC0E091880281E08E0F80938802809116
:1045B000BB00F0E0E959FD4F808390918802809123
:1045C00087026EC0E091880281E08E0F809388029E
:1045D0008091BB00F0E0E959FD4F808380918A0211
:1045E00081116DC081E08093650284EA61C083E03F
:1045F00080938B0210924202CFCF80914202803290
:1046000008F051C0E091420281E08E0F8093420297
:104610008091BB00F0E0EE5DFD4F8083BDCF85EC67
:104620008093BC0010928B0280914202803230F461
:10463000E0914202F0E0EE5DFD4F10826091420297
:1046400070E0E091FE01F091FF0182E292E00995B5
:104650001092420236C084E080938B0210922102B5
:1046600010922002E091FC01F091FD0109958091EA
:104670002002811105C081E0809320021092000287
:10468000E091210281E08E0F80932102F0E0E05062
:10469000FE4F80818093BB00909121028091200287
:1046A000981708F479CF85E88093BC000AC085ECA0
:1046B0008093BC0010928B0204C0109289020E9469
:1046C000B918FF91EF91BF91AF919F918F917F9119
:1046D0006F915F914F913F912F910F900FBE0F906F
:1046E0001F90189540912002262F30E0240F311D95
:1046F00021323105DCF420918B022430C9F4FC0115
:1047000080E090E0861758F4309120022191DC017E
:10471000A050BE4FA30FB11D2C930196F3CF8091F3
:104720002002680F6093200280E0089581E00895E0
:1047300082E008952F923F924F925F926F927F9204
:104740008F929F92AF92BF92CF92DF92EF92FF92A1
:104750000F931F93CF93DF9300D000D000D0CDB73D
:10476000DEB72C013B0149015801190183E0280EF5
:10477000311CE12CF12C82E090E09E838D838CEF44
:104780009FEF9A838983CC24CA94DC2C942F917058
:104790009B8342704C838FEFE81AF80AC101881995
:1047A0009909C80ED91E9B81992309F12D813E815B
:1047B000220F331F2F5F3F4F280D391D8501A301A5
:1047C0008D819E81481B590BB2016E0D7F1D88E4BF
:1047D00094E00E94590E9101A3014E195F096D8169
:1047E0007E81640D751D88E494E00E94590E9C81C1
:1047F000911119C08D819E81E816F906BCF5D7FC90
:104800000AC089819A8102969A838983C80ED91E2B
:1048100081E090E002C082E090E09E838D8392E090
:10482000290E311CB8CF2D813E81220F331F2F5FFF
:104830003F4F280D391D8501A3018D819E81481BA5
:10484000590BB2016E197F0988E494E00E94590E59
:104850009101A3014E195F09B2018D819E81681BF0
:10486000790B88E494E00E94590EC4CF26960FB6C7
:10487000F894DEBF0FBECDBFDF91CF911F910F9196
:10488000FF90EF90DF90CF90BF90AF909F908F9070
:104890007F906F905F904F903F902F9008952F9250
:1048A0003F924F925F926F927F928F929F92AF92C0
:1048B000BF92CF92DF92EF92FF920F931F93CF930D
:1048C000DF93CDB7DEB72C970FB6F894DEBF0FBEDF
:1048D000CDBF5C874B8759014801262F30E03A87CE
:1048E0002987282E312C88E494E00E9416106984D0
:1048F0007A8434E0631A7108610142E0C40ED11C6D
:1049000078010FE010E0930140E050E0B60188E448
:1049100094E00E946411E984FA84E20CF31C2701FC
:1049200053E0451A510884012AE030E041E062E09A
:1049300070E0C2010E949A232AE030E042E062E087
:1049400070E0C6010E949A2388E494E00E946D0EF4
:1049500088E494E00E9416108501930140E050E045
:10496000B60188E494E00E94460E93014EE050E0C8
:10497000B60188E494E00E94460E2BE030E042E06D
:1049800050E0B10188E494E00E94590EB7016150F3
:1049900071092BE030E042E050E088E494E00E94AE
:1049A000590E950141E062E070E0C6010E944A297B
:1049B000950142E062E070E0C2010E944A2995013F
:1049C00044E06CE070E0C2010E944A29950148E091
:1049D0006CE070E0C6010E944A2988E494E00E94DD
:1049E0006D0E9E012F5F3F4F88E0F90111928A956D
:1049F000E9F7AE01495F5F4F6A01CE0105967C0180
:104A00008E010D5F1F4F40E050E0B1018B859C850A
:104A10000E94D3278F8198852FE030E0281B390B27
:104A2000369527952F5F3F4F8D819E81E985FA85C9
:104A3000E81BF90BCF0196958795280E391EE8E4FF
:104A4000F4E0B18AA08A938A828A358624863787E1
:104A500026878B859C850E94C1272C960FB6F894DB
:104A6000DEBF0FBECDBFDF91CF911F910F91FF90A1
:104A7000EF90DF90CF90BF90AF909F908F907F90FE
:104A80006F905F904F903F902F9008953F924F927C
:104A90005F926F927F928F929F92AF92BF92CF92CE
:104AA000DF92EF92FF920F931F93CF93DF93C82F64
:104AB000A8E0EA2EA2E0FA2E0AE010E020EA30E0B8
:104AC00046E750E060E070E088E494E00E948C0EDD
:104AD0008091AF038C1709F4B3C0CD3020F4C1111D
:104AE00003C0C1E001C0CCE08091AF038C1708F097
:104AF00077C0D091AF036EE0762E7BE2672EE0E3C5
:104B00005E2EFEE6AF2EB12CDC1708F067C0DA305F
:104B100010F420E001C022E08D2E912CC4010197F9
:104B2000879D302C112452E0452E430C86EF8D0FCB
:104B3000833068F490E0FC01EE0FFF1FE05AFE4F57
:104B4000C080D180FC01E35AFE4F608105C060E067
:104B500030EEC32E37E0D32E30E0235F3F4F70E0BE
:104B6000640D711D760106E010E048E750E088E42E
:104B700094E00E948A0D4AE060EB72E0C401DA30F2
:104B800090F001960E949E2F6092B0025092B20265
:104B90001092B302DA3019F42BEF422E02C09EEFCE
:104BA000492E430C02C00E949E2FD0925904C092FD
:104BB000580410925B0410925A04842D90E00496DD
:104BC0009093550480935404B0925704A0925604D5
:104BD00080EB92E00E94C127DF5F96CFC093AF03C6
:104BE0008091AF03C81760F5D091AF038EE0D82E47
:104BF000CD1720F5DA3018F42EE030E002C020E1C5
:104C000030E08D2F90E00197D89EA001D99E500DE5
:104C10001124DB3019F062E070E002C064E070E063
:104C2000640F751FE12CF12C06E010E048E750E01E
:104C300088E494E00E948A0DD150DACFC093AF038C
:104C4000DF91CF911F910F91FF90EF90DF90CF9068
:104C5000BF90AF909F908F907F906F905F904F909C
:104C60003F900895EF92FF920F931F9390910D0143
:104C700080910001981307C000E018E620E038EEAC
:104C800043EE51E015C0E0910D0185E0E89FF00191
:104C90001124EB5CFE4F80814AE060EB72E090E013
:104CA0000E949E2F00EC19E220EC36E940EB52E026
:104CB00068E288E70E944F24E12CF12C06E010E026
:104CC0002FE930E04EE550E060E070E088E494E0E9
:104CD0000E948A0D1F910F91FF90EF900895AF925F
:104CE000BF92CF92DF92EF92FF920F931F93CF93D9
:104CF000DF93D091000105E311E0C0E088EEC82EFB
:104D000083E0D82EE12CF12CDC17D9F1609102015F
:104D1000709103018091040190910501F801A18037
:104D2000B280A70196010E940930C501A0E0B0E061
:104D3000281739074A075B07B0F1609102017091AB
:104D400003018091040190910501A70196010E9441
:104D50000930F801838194818A0D9B1DA0E0B0E0A9
:104D600082179307A407B507F0F080910D01C817CB
:104D700021F0C0930D010E94322680910001C813DA
:104D800016C080910D018C1791F0C0930D01DF9139
:104D9000CF911F910F91FF90EF90DF90CF90BF9038
:104DA000AF900C943226CF5F0B5F1F4FADCFDF91DA
:104DB000CF911F910F91FF90EF90DF90CF90BF9018
:104DC000AF900895282F3091AF02313208F04AC0D9
:104DD00080918B028111FCCF9091AE0242E0409312
:104DE0008B0220938A022FEF20938902109288026F
:104DF00030938702EEE8F2E0A7E6B2E020E0321757
:104E000021F041914D932F5FFACF109266022091CD
:104E10006602990F922B90936602909165029130F1
:104E200061F410926502909166029093BB0090919C
:104E3000BC0093FDF8CF95EC01C095EE9093BC00BB
:104E400090918B029230E1F3909189029F3F79F02B
:104E500080918902803241F080918902803331F063
:104E600084E005C081E003C082E001C083E01092CD
:104E70008D021092AF0210928C020895CF93C62F2C
:104E80009091330421E020938C029093AE02109213
:104E90008D021092AF02682F8CEB92E00E94C71433
:104EA0006C2F8CEB92E00E94C71481E0CF910C94A0
:104EB000E226CF939091330421E020938C029093CB
:104EC000AE0210928D021092AF02682F8CEB92E02E
:104ED0000E94C71481E00E94E226809133049091E1
:104EE0008B029111FCCF91E090938B0210928A0279
:104EF0002FEF2093890210928802109287029093DC
:104F0000660290916602880F892B809366028091D9
:104F10006502813061F4109265028091660280938F
:104F2000BB008091BC0083FDF8CF85EC01C085EE0D
:104F30008093BC0080918B028130E1F380918802E4
:104F4000811103C0C091880201C0C1E0E7E6F2E030
:104F5000A5E4B2E080E08C1721F091919D938F5FE2
:104F6000FACF10924402C093430280E09091440231
:104F7000C91729F08CEB92E00E94D518F7CFCF919A
:104F80000895009769F0FC0101900020E9F731973E
:104F9000AF01481B590BBC0188E494E00C946114E8
:104FA00080E090E008952F923F924F925F926F922F
:104FB0007F928F929F92AF92BF92CF92DF92EF92A9
:104FC000FF920F931F93CF93DF93CDB7DEB76D970B
:104FD0000FB6F894DEBF0FBECDBF3C872B871E8770
:104FE0000D87F88AEF86DA8AC98AF90171836083AE
:104FF000F80151834083F60111821082F70111827A
:10500000108220905004309051040091520410916D
:105010005304409060045090610492012C5F3F4F14
:105020003C8B2B8B2F5F3F4F3E8B2D8B23503109B9
:10503000388F2F8B80905E0490905C04C92CD12C0B
:10504000DC82CB822C5F3F4F3E832D8326E0929EF5
:1050500060011124D886CF82CB80DC80F3E0CC0CB9
:10506000DD1CFA95E1F7DA82C9829A878987710196
:10507000AFEFBFEF2FEF3FEF3B8F2A8FE985FA8528
:105080002191FA87E987222309F4CCC04114510405
:1050900009F48DC02A3041F4ED81FE818491899D0F
:1050A000400D511D112489C02D3041F3EB89FC893D
:1050B000C490ED89FE898491022E000C330BD12C13
:1050C0002C153D05DCF290E082179307BCF2EF89C6
:1050D000F88D859194912C193D09E7E0CE2EC29E62
:1050E000F001C39EF00D11248E0F9F1FFC0132961C
:1050F000C4903196D49031962491298F3196349171
:10510000319684918820E9F06C2C712C630E711C0F
:1051100037FD7A94EB81FC816E9E50016F9EB00C3E
:105120007E9EB00C1124A60EB71E2A143B044CF42C
:10513000ED81FE819491999E400D511D112460E0F6
:1051400070E0292D3203F0011124E60FF71F382FEC
:105150003203C0011124840F951F5F019C9CA00C99
:10516000B11C112421E0A21AB1089C019D9C200DC4
:10517000311D1124690131E0C31AD108EE15FF0574
:105180000CF47F01801791070CF48C018A8D9B8DA4
:105190008A159B0514F4BB8EAA8EAC15BD050CF4C4
:1051A000D601998D999E600D711D112467CF2A300B
:1051B00039F4C980DA804C0D5D1D60E070E05ECF8F
:1051C0002D3009F45BCF882069F08F819885860F98
:1051D000971F2816390634F429813A81420F531F4C
:1051E00060E070E02F813885260F371FF901319775
:1051F00089819A81840F951F0197CA8CDB8CCE160A
:10520000DF0614F4FB8FEA8FA817B9070CF4DC0152
:105210006E157F050CF47B01401751070CF48A01D1
:10522000B9012CCF2A8D3B8D2E153F0564F0EB85FF
:10523000FC85F182E0822E193F092F5F3F4FEF85F9
:10524000F88931832083A017B1075CF0ED85FE85D6
:1052500011830083A01BB10B1196E989FA89B183F0
:10526000A0836D960FB6F894DEBF0FBECDBFDF9161
:10527000CF911F910F91FF90EF90DF90CF90BF9053
:10528000AF909F908F907F906F905F904F903F90E6
:105290002F9008956F927F928F929F92AF92BF92BC
:1052A000CF92DF92EF92FF920F931F93CF93DF93F2
:1052B0007C016B015901C0E0D0E002E010E0842FD6
:1052C0008470882E842F8270782E842F8870682EA8
:1052D0004170942E21968820B1F09501A8014C0DC3
:1052E0005D1DB7016C0F7D1F88E494E00E94F611EC
:1052F0009501A6014C0F5D1FB8016E0D7F1D88E45E
:1053000094E00E94F6117720B1F09501A601401BB0
:10531000510BB7016C0F7D1F88E494E00E94F611D9
:105320009501A6014C1B5D0BB8016E0D7F1D88E435
:1053300094E00E94F6116620B1F09501A6014C0F91
:105340005D1FB701601B710B88E494E00E94F611A9
:105350009501A8014C0D5D1DB7016C1B7D0B88E408
:1053600094E00E94F6119920B1F09501A6014C1B22
:105370005D0BB701601B710B88E494E00E94F6118D
:105380009501A601401B510BB7016C1B7D0B88E4F6
:1053900094E00E94F611C017D1071CF401E010E060
:1053A00099CFDF91CF911F910F91FF90EF90DF90F8
:1053B000CF90BF90AF909F908F907F906F90089507
:1053C000789484B5826084BD84B5816084BD85B5E0
:1053D000826085BD85B5816085BD80916E008160EC
:1053E00080936E0010928100809181008260809392
:1053F0008100809181008160809381008091800094
:105400008160809380008091B10084608093B100BE
:105410008091B00081608093B00080917A008460B8
:1054200080937A0080917A00826080937A008091E4
:105430007A00816080937A0080917A0080688093FE
:105440007A001092C10040E050E0BA0188E494E094
:105450000E94750F8BE992E00E94D31F8EE892E0C4
:105460000E94D31F83E692E00E94D31F88E494E059
:105470000E94161066E388E494E00E94391260EC02
:1054800088E494E00E94391188E494E00E946D0E53
:10549000C2E0C093830460E088E494E00E94481373
:1054A00061E08DE00E94C91560E070E088E494E05E
:1054B0000E94580F61E088E494E00E944813E09154
:1054C000D802F091D902C083E091D402F091D502C4
:1054D0001082E091D602F091D7028FEC8083109277
:1054E000E002E091DC02F091DD0286E08083E09151
:1054F000DA02F091DB02808180618083E091DA0240
:10550000F091DB02808188608083E091DA02F09183
:10551000DB02808180688083E091DA02F091DB0217
:1055200080818F7D808310924402109243021092FA
:105530008D021092AF0210928B02C1E0C0938A02DA
:105540001092650261E082E10E949A1561E083E1B8
:105550000E949A158091B9008E7F8093B900809146
:10556000B9008D7F8093B90088E48093B80085E40A
:105570008093BC0083EC98E19093FD018093FC0143
:1055800084EC98E19093FF018093FE0180913304B5
:10559000C0938C028093AE0210928D021092AF02E3
:1055A00081E00E94E226882309F442C080E399EB5F
:1055B000A2E4B1E08093020190930301A09304015F
:1055C000B09305010E949E088091F3019091F4012F
:1055D000A091F501B091F601F89480934304909363
:1055E0004404A0934504B093460478940E949E0816
:1055F0000E946F260E94930C62E0809169030E94D2
:10560000C91562E080918C030E94C9150E94930C19
:105610008CE00E944625C3E7D4E102E810E042E6B0
:10562000E42EF12C5CE5C52ED12C6BE0B62EF7C133
:1056300080E00E94592790E0880F892F881F990BDE
:105640000197B1F362E187EB0E943E2780E498E77F
:10565000ADE7B1E08093220490932304A093240447
:10566000B093250410922A0410922B0410922C045B
:1056700010922D0420910E0430910F0440911004DB
:1056800050911104609112047091130400E010E035
:1056900080911404909115040E94591A20911604C7
:1056A00030911704409118045091190460911A0424
:1056B00070911B0401E010E080911C0490911D0486
:1056C0000E94591A60E880E10E943E2760E881E16B
:1056D0000E943E2760E882E10E943E2760E883E165
:1056E0000E943E2760E884E10E943E2760E885E151
:1056F0000E943E2760E886E10E943E2760E887E13D
:105700000E943E276CE080E10E943E276CE081E130
:105710000E943E276CE082E10E943E276CE083E11C
:105720000E943E276CE084E10E943E276CE085E108
:105730000E943E276CE086E10E943E276CE087E1F4
:105740000E943E2700E010E020E030E24FE550EA02
:1057500062E170E080E090E00E94591A01E010E000
:1057600020E030E24FE550EA62E170E080E090E056
:105770000E94591A1092BF031092BE031092C103E7
:105780001092C0031092C3031092C2031092C5037B
:105790001092C4031092C7031092C6031092C9035B
:1057A0001092C80381E090E09093CB038093CA03EA
:1057B0009093CD038093CC0360E070E080E090E0B4
:1057C0000E94AC1F60E070E081E090E00E94AC1F9E
:1057D00060E070E082E090E00E94AC1F60E070E06A
:1057E00083E090E00E94AC1F60E070E084E090E015
:1057F0000E94AC1F60E070E085E090E00E94AC1F6A
:1058000061E070E086E090E00E94AC1F61E070E033
:1058100087E090E00E94AC1F60E082EA0E943E2791
:1058200060E083EA0E943E2760E084EA0E943E270F
:1058300060E281EB0E943E2760E881EB0E943E27F8
:10584000CEECD3E094E3E92E94E0F92E00E010E0F2
:10585000CC24C394D12C188219821A821B821C82F8
:105860001D821E821F82289683E00E945927B6015E
:10587000002E01C0660F0A94EAF7682B83E00E94AD
:105880003E27F70111927F010F5F1F4F083011056E
:1058900011F78CCE8770806480937C0080917A00B1
:1058A000806480937A0080917A0086FDFCCF80909E
:1058B000780080917900912C982A8091B203909180
:1058C000B3038815990529F14AE060EB72E0C40141
:1058D0000E949E2FD0935904C093580410925B04E9
:1058E00010925A041093550400935404F0925704F4
:1058F000E092560480EB92E00E94C1279092B3039D
:105900008092B203C401B6010E94F52F862F0E9437
:10591000462589E693E00E94D00A8CE893E00E9435
:10592000D00A80914704823008F080C0F8948CE35C
:1059300094E00E94C00C8091430490914404A09193
:105940004504B091460478944091F3015091F401DC
:105950006091F5017091F6012A013B01F2E04F0ED2
:10596000511C611C711C20919503309196034816BF
:1059700059066A067B060CF45BC042505109610966
:10598000710984179507A607B7070CF470C0B29E7B
:10599000F001B39EF00D1124E457FC4F8685882357
:1059A00009F499C0168681E00E94BE0B4091020165
:1059B0005091030160910401709105018091EB0108
:1059C0009091EC01A091ED01B091EE0148175907BB
:1059D0006A077B0711F00E949E08809172039091E4
:1059E0007303B89EF001B99EF00D1124E759FC4FE6
:1059F000858581116BC08091740390917503B89E69
:105A0000F001B99EF00D1124E759FC4F85858823DC
:105A100021F0809110018111B0C00E94800D809111
:105A2000B4038E3008F436CF8E5034CFF89483CF41
:105A3000B29EF001B39EF00D1124E457FC4F458552
:105A40004111A5CF409006015090070160900801D8
:105A5000709009014091020150910301609104018D
:105A60007091050144195509660977091EC0B29E57
:105A7000F001B39EF00D1124E457FC4F4585411110
:105A800086CF409006015090070160900801709009
:105A9000090140910201509103016091040170914C
:105AA0000501440D551D661D771D4093020150935D
:105AB000030160930401709305018093F3019093B7
:105AC000F401A093F501B093F60161CF809110012C
:105AD000811191CF4EC08785882309F467CF17863F
